{"contracts/Drive.sol":{"Drive":{"abi":[{"inputs":[],"stateMutability":"nonpayable","type":"constructor"},{"anonymous":false,"inputs":[{"indexed":true,"internalType":"uint256","name":"id","type":"uint256"},{"indexed":true,"internalType":"address","name":"buyer","type":"address"},{"indexed":false,"internalType":"uint256","name":"price","type":"uint256"}],"name":"AccessBought","type":"event"},{"anonymous":false,"inputs":[{"indexed":true,"internalType":"uint256","name":"id","type":"uint256"},{"indexed":true,"internalType":"address","name":"to","type":"address"}],"name":"AccessGranted","type":"event"},{"anonymous":false,"inputs":[{"indexed":true,"internalType":"uint256","name":"id","type":"uint256"},{"indexed":true,"internalType":"address","name":"to","type":"address"}],"name":"AccessRevoked","type":"event"},{"anonymous":false,"inputs":[{"indexed":true,"internalType":"uint256","name":"id","type":"uint256"},{"indexed":true,"internalType":"address","name":"owner","type":"address"},{"indexed":false,"internalType":"string","name":"cid","type":"string"},{"indexed":false,"internalType":"string","name":"name","type":"string"}],"name":"FileAdded","type":"event"},{"anonymous":false,"inputs":[{"indexed":true,"internalType":"uint256","name":"id","type":"uint256"},{"indexed":true,"internalType":"address","name":"owner","type":"address"},{"indexed":false,"internalType":"string","name":"newFolder","type":"string"},{"indexed":false,"internalType":"string","name":"newCategory","type":"string"}],"name":"FileMoved","type":"event"},{"anonymous":false,"inputs":[{"indexed":true,"internalType":"uint256","name":"id","type":"uint256"},{"indexed":true,"internalType":"address","name":"owner","type":"address"}],"name":"FileRemoved","type":"event"},{"anonymous":false,"inputs":[{"indexed":true,"internalType":"uint256","name":"id","type":"uint256"},{"indexed":true,"internalType":"address","name":"owner","type":"address"},{"indexed":false,"internalType":"string","name":"newName","type":"string"}],"name":"FileRenamed","type":"event"},{"anonymous":false,"inputs":[{"indexed":true,"internalType":"uint256","name":"id","type":"uint256"},{"indexed":true,"internalType":"address","name":"owner","type":"address"}],"name":"FileRestored","type":"event"},{"anonymous":false,"inputs":[{"indexed":true,"internalType":"uint256","name":"id","type":"uint256"},{"indexed":true,"internalType":"address","name":"user","type":"address"},{"indexed":false,"internalType":"bool","name":"isStarred","type":"bool"}],"name":"FileStarred","type":"event"},{"anonymous":false,"inputs":[{"indexed":true,"internalType":"uint256","name":"id","type":"uint256"},{"indexed":true,"internalType":"address","name":"from","type":"address"},{"indexed":true,"internalType":"address","name":"to","type":"address"}],"name":"FileTransferred","type":"event"},{"anonymous":false,"inputs":[{"indexed":true,"internalType":"uint256","name":"id","type":"uint256"},{"indexed":true,"internalType":"address","name":"owner","type":"address"}],"name":"FileTrashed","type":"event"},{"anonymous":false,"inputs":[{"indexed":true,"internalType":"uint256","name":"id","type":"uint256"},{"indexed":false,"internalType":"uint256","name":"newPrice","type":"uint256"}],"name":"PriceChanged","type":"event"},{"anonymous":false,"inputs":[{"indexed":true,"internalType":"address","name":"user","type":"address"},{"indexed":false,"internalType":"uint8","name":"tier","type":"uint8"},{"indexed":false,"internalType":"uint256","name":"storageBytes","type":"uint256"}],"name":"TierUpgraded","type":"event"},{"anonymous":false,"inputs":[{"indexed":true,"internalType":"address","name":"user","type":"address"},{"indexed":false,"internalType":"string","name":"username","type":"string"}],"name":"UsernameRegistered","type":"event"},{"anonymous":false,"inputs":[{"indexed":true,"internalType":"uint256","name":"id","type":"uint256"},{"indexed":true,"internalType":"address","name":"requester","type":"address"}],"name":"ViewRequested","type":"event"},{"inputs":[],"name":"FREE_FILE_LIMIT","outputs":[{"internalType":"uint256","name":"","type":"uint256"}],"stateMutability":"view","type":"function"},{"inputs":[],"name":"FREE_STORAGE","outputs":[{"internalType":"uint256","name":"","type":"uint256"}],"stateMutability":"view","type":"function"},{"inputs":[],"name":"PREMIUM_FILE_LIMIT","outputs":[{"internalType":"uint256","name":"","type":"uint256"}],"stateMutability":"view","type":"function"},{"inputs":[],"name":"PREMIUM_STORAGE","outputs":[{"internalType":"uint256","name":"","type":"uint256"}],"stateMutability":"view","type":"function"},{"inputs":[],"name":"PRO_FILE_LIMIT","outputs":[{"internalType":"uint256","name":"","type":"uint256"}],"stateMutability":"view","type":"function"},{"inputs":[],"name":"PRO_STORAGE","outputs":[{"internalType":"uint256","name":"","type":"uint256"}],"stateMutability":"view","type":"function"},{"inputs":[{"internalType":"string","name":"name","type":"string"},{"internalType":"string","name":"cid","type":"string"},{"internalType":"uint256","name":"size","type":"uint256"},{"internalType":"string","name":"mime","type":"string"},{"internalType":"bytes32","name":"contentHash","type":"bytes32"},{"internalType":"string","name":"category","type":"string"},{"internalType":"uint256","name":"price","type":"uint256"},{"internalType":"string","name":"folder","type":"string"}],"name":"addFile","outputs":[{"internalType":"uint256","name":"","type":"uint256"}],"stateMutability":"nonpayable","type":"function"},{"inputs":[{"internalType":"uint256","name":"id","type":"uint256"},{"internalType":"address","name":"requester","type":"address"}],"name":"approveAccessRequest","outputs":[],"stateMutability":"nonpayable","type":"function"},{"inputs":[{"internalType":"string[]","name":"names","type":"string[]"},{"internalType":"string[]","name":"cids","type":"string[]"},{"internalType":"uint256[]","name":"sizes","type":"uint256[]"},{"internalType":"string[]","name":"mimes","type":"string[]"},{"internalType":"bytes32[]","name":"contentHashes","type":"bytes32[]"},{"internalType":"string[]","name":"categories","type":"string[]"},{"internalType":"uint256[]","name":"prices","type":"uint256[]"},{"internalType":"string[]","name":"folders","type":"string[]"}],"name":"batchAddFiles","outputs":[{"internalType":"uint256[]","name":"","type":"uint256[]"}],"stateMutability":"nonpayable","type":"function"},{"inputs":[{"internalType":"uint256[]","name":"ids","type":"uint256[]"},{"internalType":"address","name":"to","type":"address"}],"name":"batchGrantAccess","outputs":[],"stateMutability":"nonpayable","type":"function"},{"inputs":[{"internalType":"uint256[]","name":"ids","type":"uint256[]"},{"internalType":"string[]","name":"newFolders","type":"string[]"},{"internalType":"string[]","name":"newCategories","type":"string[]"}],"name":"batchMoveFiles","outputs":[],"stateMutability":"nonpayable","type":"function"},{"inputs":[{"internalType":"uint256[]","name":"ids","type":"uint256[]"}],"name":"batchRemoveFiles","outputs":[],"stateMutability":"nonpayable","type":"function"},{"inputs":[{"internalType":"uint256[]","name":"ids","type":"uint256[]"},{"internalType":"address","name":"user","type":"address"}],"name":"batchRevokeAccess","outputs":[],"stateMutability":"nonpayable","type":"function"},{"inputs":[{"internalType":"uint256[]","name":"ids","type":"uint256[]"},{"internalType":"address","name":"to","type":"address"}],"name":"batchTransferFiles","outputs":[],"stateMutability":"nonpayable","type":"function"},{"inputs":[{"internalType":"uint256[]","name":"ids","type":"uint256[]"}],"name":"batchTrashFiles","outputs":[],"stateMutability":"nonpayable","type":"function"},{"inputs":[{"internalType":"uint256","name":"id","type":"uint256"}],"name":"buyAccess","outputs":[],"stateMutability":"payable","type":"function"},{"inputs":[{"internalType":"string","name":"newUsername","type":"string"}],"name":"changeUsername","outputs":[],"stateMutability":"nonpayable","type":"function"},{"inputs":[],"name":"contractOwner","outputs":[{"internalType":"address","name":"","type":"address"}],"stateMutability":"view","type":"function"},{"inputs":[{"internalType":"address","name":"","type":"address"}],"name":"customStorageGB","outputs":[{"internalType":"uint256","name":"","type":"uint256"}],"stateMutability":"view","type":"function"},{"inputs":[{"internalType":"uint256","name":"id","type":"uint256"},{"internalType":"address","name":"requester","type":"address"}],"name":"denyAccessRequest","outputs":[],"stateMutability":"nonpayable","type":"function"},{"inputs":[{"internalType":"uint256","name":"id","type":"uint256"},{"internalType":"string","name":"newName","type":"string"}],"name":"editName","outputs":[],"stateMutability":"nonpayable","type":"function"},{"inputs":[{"internalType":"address","name":"owner","type":"address"}],"name":"getBinnedFiles","outputs":[{"internalType":"uint256[]","name":"","type":"uint256[]"}],"stateMutability":"view","type":"function"},{"inputs":[{"internalType":"uint256","name":"id","type":"uint256"}],"name":"getFile","outputs":[{"internalType":"uint256","name":"_id","type":"uint256"},{"internalType":"string","name":"name","type":"string"},{"internalType":"string","name":"cid","type":"string"},{"internalType":"uint256","name":"size","type":"uint256"},{"internalType":"string","name":"mime","type":"string"},{"internalType":"address","name":"owner","type":"address"},{"internalType":"uint256","name":"timestamp","type":"uint256"},{"internalType":"bool","name":"deleted","type":"bool"},{"internalType":"bytes32","name":"contentHash","type":"bytes32"},{"internalType":"string","name":"category","type":"string"},{"internalType":"uint256","name":"price","type":"uint256"},{"internalType":"string","name":"folder","type":"string"}],"stateMutability":"view","type":"function"},{"inputs":[{"internalType":"address","name":"user","type":"address"}],"name":"getFileCountLimit","outputs":[{"internalType":"uint256","name":"","type":"uint256"}],"stateMutability":"view","type":"function"},{"inputs":[{"internalType":"address","name":"owner","type":"address"}],"name":"getFilesByOwner","outputs":[{"internalType":"uint256[]","name":"","type":"uint256[]"}],"stateMutability":"view","type":"function"},{"inputs":[{"internalType":"uint256","name":"id","type":"uint256"}],"name":"getHistory","outputs":[{"components":[{"internalType":"address","name":"actor","type":"address"},{"internalType":"string","name":"action","type":"string"},{"internalType":"uint256","name":"timestamp","type":"uint256"}],"internalType":"struct Drive.HistoryLog[]","name":"","type":"tuple[]"}],"stateMutability":"view","type":"function"},{"inputs":[],"name":"getMarketFiles","outputs":[{"internalType":"uint256[]","name":"","type":"uint256[]"}],"stateMutability":"view","type":"function"},{"inputs":[{"internalType":"address","name":"user","type":"address"}],"name":"getSharedFiles","outputs":[{"internalType":"uint256[]","name":"","type":"uint256[]"}],"stateMutability":"view","type":"function"},{"inputs":[{"internalType":"address","name":"user","type":"address"}],"name":"getStarredFiles","outputs":[{"internalType":"uint256[]","name":"","type":"uint256[]"}],"stateMutability":"view","type":"function"},{"inputs":[{"internalType":"address","name":"user","type":"address"}],"name":"getStorageLimitBytes","outputs":[{"internalType":"uint256","name":"","type":"uint256"}],"stateMutability":"view","type":"function"},{"inputs":[{"internalType":"address","name":"user","type":"address"}],"name":"getUsername","outputs":[{"internalType":"string","name":"","type":"string"}],"stateMutability":"view","type":"function"},{"inputs":[{"internalType":"uint256","name":"id","type":"uint256"},{"internalType":"address","name":"to","type":"address"}],"name":"grantAccess","outputs":[],"stateMutability":"nonpayable","type":"function"},{"inputs":[{"internalType":"uint256","name":"id","type":"uint256"},{"internalType":"address","name":"user","type":"address"}],"name":"hasAccess","outputs":[{"internalType":"bool","name":"","type":"bool"}],"stateMutability":"view","type":"function"},{"inputs":[{"internalType":"bytes32","name":"","type":"bytes32"}],"name":"hashExists","outputs":[{"internalType":"bool","name":"","type":"bool"}],"stateMutability":"view","type":"function"},{"inputs":[{"internalType":"uint256","name":"id","type":"uint256"},{"internalType":"string","name":"newFolder","type":"string"},{"internalType":"string","name":"newCategory","type":"string"}],"name":"moveFile","outputs":[],"stateMutability":"nonpayable","type":"function"},{"inputs":[],"name":"premiumPrice","outputs":[{"internalType":"uint256","name":"","type":"uint256"}],"stateMutability":"view","type":"function"},{"inputs":[],"name":"proPlusPerGB","outputs":[{"internalType":"uint256","name":"","type":"uint256"}],"stateMutability":"view","type":"function"},{"inputs":[],"name":"proPrice","outputs":[{"internalType":"uint256","name":"","type":"uint256"}],"stateMutability":"view","type":"function"},{"inputs":[{"internalType":"string","name":"username","type":"string"}],"name":"registerUsername","outputs":[],"stateMutability":"nonpayable","type":"function"},{"inputs":[{"internalType":"uint256","name":"id","type":"uint256"}],"name":"removeFile","outputs":[],"stateMutability":"nonpayable","type":"function"},{"inputs":[{"internalType":"uint256","name":"id","type":"uint256"}],"name":"requestAccess","outputs":[],"stateMutability":"nonpayable","type":"function"},{"inputs":[{"internalType":"uint256","name":"id","type":"uint256"}],"name":"restoreFile","outputs":[],"stateMutability":"nonpayable","type":"function"},{"inputs":[{"internalType":"uint256","name":"id","type":"uint256"},{"internalType":"address","name":"user","type":"address"}],"name":"revokeAccess","outputs":[],"stateMutability":"nonpayable","type":"function"},{"inputs":[{"internalType":"uint256","name":"id","type":"uint256"},{"internalType":"uint256","name":"newPrice","type":"uint256"}],"name":"setPrice","outputs":[],"stateMutability":"nonpayable","type":"function"},{"inputs":[{"internalType":"uint256","name":"_premium","type":"uint256"},{"internalType":"uint256","name":"_pro","type":"uint256"},{"internalType":"uint256","name":"_proPlusPerGB","type":"uint256"}],"name":"setTierPrices","outputs":[],"stateMutability":"nonpayable","type":"function"},{"inputs":[{"internalType":"uint256","name":"","type":"uint256"},{"internalType":"address","name":"","type":"address"}],"name":"starredFiles","outputs":[{"internalType":"bool","name":"","type":"bool"}],"stateMutability":"view","type":"function"},{"inputs":[{"internalType":"address","name":"","type":"address"}],"name":"storageTier","outputs":[{"internalType":"uint8","name":"","type":"uint8"}],"stateMutability":"view","type":"function"},{"inputs":[{"internalType":"uint256","name":"id","type":"uint256"}],"name":"toggleStar","outputs":[],"stateMutability":"nonpayable","type":"function"},{"inputs":[],"name":"totalFiles","outputs":[{"internalType":"uint256","name":"","type":"uint256"}],"stateMutability":"view","type":"function"},{"inputs":[{"internalType":"uint256","name":"id","type":"uint256"},{"internalType":"address","name":"to","type":"address"}],"name":"transferFile","outputs":[],"stateMutability":"nonpayable","type":"function"},{"inputs":[{"internalType":"uint256","name":"id","type":"uint256"}],"name":"trashFile","outputs":[],"stateMutability":"nonpayable","type":"function"},{"inputs":[{"internalType":"uint8","name":"tier","type":"uint8"},{"internalType":"uint256","name":"gbAmount","type":"uint256"}],"name":"upgradeTier","outputs":[],"stateMutability":"payable","type":"function"},{"inputs":[{"internalType":"string","name":"","type":"string"}],"name":"usernameToAddress","outputs":[{"internalType":"address","name":"","type":"address"}],"stateMutability":"view","type":"function"},{"inputs":[{"internalType":"address","name":"","type":"address"}],"name":"usernames","outputs":[{"internalType":"string","name":"","type":"string"}],"stateMutability":"view","type":"function"},{"inputs":[{"internalType":"bytes32","name":"hash","type":"bytes32"}],"name":"verifyFileByHash","outputs":[{"internalType":"bool","name":"found","type":"bool"},{"internalType":"uint256","name":"id","type":"uint256"},{"internalType":"address","name":"owner","type":"address"},{"internalType":"string","name":"category","type":"string"},{"internalType":"uint256","name":"timestamp","type":"uint256"}],"stateMutability":"view","type":"function"},{"inputs":[{"internalType":"uint256","name":"","type":"uint256"},{"internalType":"address","name":"","type":"address"}],"name":"viewRequests","outputs":[{"internalType":"bool","name":"","type":"bool"}],"stateMutability":"view","type":"function"},{"inputs":[],"name":"withdrawFunds","outputs":[],"stateMutability":"nonpayable","type":"function"}],"evm":{"bytecode":{"linkReferences":{},"object":"6080806040523461005b57659184e72a0000600c5565d12f0c4c6000600d556552c396acb000600e55600780546001600160a01b031916736e123606a07d68abed7aa74f0ccff38b72e528f21790556155fb9081620000618239f35b600080fdfe6080604052600436101561001257600080fd5b60003560e01c8063055ecfaf1461469657806306cf5a3b146145b7578063096d798c146143f057806310a03313146143b657806312c7cc14146142d35780631d1524221461415b5780631fa2a6ae146141215780632350fdc014613ffa57806324600fc314613fb35780632ae46b0c14613f975780632bfda31314613e5257806330654e1314613e3457806336a9413414613c44578063395e6126146131ee57806350a1a2641461290857806353943aad1461287757806353b0e17d1461285957806365dd152c146127a5578063667523fb1461274c578063668319c7146126ff5780636ab14d43146126dc578063739395971461261657806377c846af146123a95780637916d6ce1461238b5780637a2250a91461236c5780637c65417c1461231f5780637fdc2cdc146121875780638b70834e146120705780638db9533714611fab57806392cf055714611f8d57806397f856da14611ed25780639926b03f14611e0f578063ab5885db14611d88578063b169c4c114611aa4578063b35fb99a1461183d578063b4428abc14611800578063b535b5c3146117cf578063baa70117146116e9578063c8691b2a146115b9578063ce43c03214610717578063ce606ee014611590578063ced1419814611560578063d162a37d14611488578063d4483e791461145d578063d9a5ec1b146113b5578063db7cc7d214611399578063e1d57d0114610fcd578063ee690d3f14610765578063ee91877c14610717578063f7d9757714610673578063f825f1431461060b578063f92c3825146105ec578063f99619f8146104df578063fbfe00a4146104c0578063fc08a7d714610392578063fcfc6623146103755763fe816a901461028f57600080fd5b34610370576020366003190112610370576004356102b0600054821061520a565b6102d16102bc82614dfc565b50600501546001600160a01b03163314614cc5565b80600052600560205260ff6040600020541661033a578060005260056020526040600020600160ff1982541617905561031161030b6152a2565b82614e96565b33907f5f486113eb2f75a0e6be2583f63fb0c468a5b5a3511dece64911a4124de2179d600080a3005b60405162461bcd60e51b815260206004820152600e60248201526d20b63932b0b23c9034b7103134b760911b6044820152606490fd5b600080fd5b346103705760003660031901126103705760206040516101f48152f35b3461037057602080600319360112610370576103ac61485a565b600080546001600160a01b0392831693929091805b83811061046457506103d2906151d8565b9260009160005b8481106103f257604051806103ee888261491d565b0390f35b6103fb81614dfc565b5087836005809301541614908161044c575b50610421575b61041c9061505d565b6103d9565b9261044461041c9161043286614dfc565b505461043e828a6151ae565b5261505d565b939050610413565b905081600052835260ff60406000205416158861040d565b61046d81614dfc565b508684600580930154161490816104a8575b50610493575b61048e9061505d565b6103c1565b906104a061048e9161505d565b919050610485565b905081600052855260ff60406000205416158761047f565b3461037057600036600319011261037057602060405163400000008152f35b34610370576000366003190112610370576000546000805b82811061058f5750610508906151d8565b906000805b82811061052257604051806103ee868261491d565b600961052d82614dfc565b500154151580610570575b61054b575b6105469061505d565b61050d565b906105686105469161055c84614dfc565b505461043e82886151ae565b91905061053d565b5061057a81614dfc565b50600501546001600160a01b03161515610538565b600961059a82614dfc565b5001541515806105cd575b6105b8575b6105b39061505d565b6104f7565b906105c56105b39161505d565b9190506105aa565b506105d781614dfc565b50600501546001600160a01b031615156105a5565b34610370576000366003190112610370576020604051630fa000008152f35b34610370576020366003190112610370576004356001600160401b0381116103705761063d60209136906004016148c7565b816106516040519283815193849201614958565b600990820190815281900382019020546040516001600160a01b039091168152f35b34610370576040366003190112610370576004357f8aa4fa52648a6d15edce8a179c792c86f3719d0cc3c572cf90f91948f0f2cb6860206024356106ba600054851061520a565b8060096106c686614dfc565b506106de60018060a01b036005830154163314614cc5565b015561070e6040516106ef816147a9565b600d81526c141c9a58d94810da185b99d959609a1b8482015285614e96565b604051908152a2005b34610370576020366003190112610370576001600160a01b0361073861485a565b1660005260086020526103ee6107516040600020614a5a565b60405191829160208352602083019061497b565b3461037057610100366003190112610370576004356001600160401b038111610370576107969036906004016148c7565b6024356001600160401b038111610370576107b59036906004016148c7565b6064356001600160401b038111610370576107d49036906004016148c7565b9060a4356001600160401b038111610370576107f49036906004016148c7565b9160e4356001600160401b038111610370576108149036906004016148c7565b608435600052600360205261083160ff6040600020541615614cfd565b6108586108486044356108433361506c565b614d48565b61085133614b00565b1015614d6b565b610873610864336150f6565b61086d33614bbd565b11614db0565b600054936040519261088484614772565b858452866020850152846040850152604435606085015260808401523360a08401524260c084015260843560e084015261010083015260c435610120830152610140820152600160401b831015610c6b57600183016000556108e583614dfc565b919091610fb7578051825560208101518051906001600160401b038211610c6b5781906109156001860154614a20565b601f8111610f64575b50602090601f8311600114610ef257600092610ee7575b50508160011b916000199060031b1c19161760018301555b60408101518051906001600160401b038211610c6b5781906109726002860154614a20565b601f8111610e94575b50602090601f8311600114610e2257600092610e17575b50508160011b916000199060031b1c19161760028301555b6060810151600383015560808101518051906001600160401b038211610c6b5781906109d96004860154614a20565b601f8111610dc4575b50602090601f8311600114610d5257600092610d47575b50508160011b916000199060031b1c19161760048301555b6005820160018060a01b0360a0830151166001600160601b0360a01b82541617905560c0810151600683015560e081015160078301556101008101518051906001600160401b038211610c6b57610a6b6008850154614a20565b601f8111610d00575b50602090601f8311600114610c8c5761014093929160009183610c81575b50508160011b916000199060031b1c19161760088401555b610120810151600984015501518051906001600160401b038211610c6b57610ad5600a840154614a20565b601f8111610c20575b50916020959185938790601f8311600114610b9d57826000805160206155868339815191529593610b879593600a93600092610b92575b50508160011b916000199060031b1c1916179101555b83600052600287526040600020336000528752604060002060ff1990600182825416179055608435600052600388526001604060002091825416179055610b79610b73614e4a565b85614e96565b604051918291339683614e6e565b0390a3604051908152f35b015190508b80610b15565b90601f19831691600a8501600052896000209260005b818110610c06575093610b879593600a93600193836000805160206155868339815191529a9810610bed575b505050811b01910155610b2b565b015160001960f88460031b161c191690558b8080610bdf565b8284015185558a9850600190940193928b01928b01610bb3565b600a84016000526020600020601f840160051c81019160208510610c61575b601f0160051c01905b818110610c555750610ade565b60008155600101610c48565b9091508190610c3f565b634e487b7160e01b600052604160045260246000fd5b015190508880610a92565b906008850160005260206000209160005b601f1985168110610ce857509183916001936101409695601f19811610610ccf575b505050811b016008840155610aaa565b015160001960f88460031b161c19169055888080610cbf565b91926020600181928685015181550194019201610c9d565b600885016000526020600020601f840160051c810160208510610d40575b601f830160051c82018110610d34575050610a74565b60008155600101610d1e565b5080610d1e565b0151905087806109f9565b9250600485016000526020600020906000935b601f1984168510610da9576001945083601f19811610610d90575b505050811b016004830155610a11565b015160001960f88460031b161c19169055878080610d80565b81810151835560209485019460019093019290910190610d65565b909150600485016000526020600020601f840160051c810160208510610e10575b90849392915b601f830160051c82018110610e015750506109e2565b60008155859450600101610deb565b5080610de5565b015190508780610992565b9250600285016000526020600020906000935b601f1984168510610e79576001945083601f19811610610e60575b505050811b0160028301556109aa565b015160001960f88460031b161c19169055878080610e50565b81810151835560209485019460019093019290910190610e35565b909150600285016000526020600020601f840160051c810160208510610ee0575b90849392915b601f830160051c82018110610ed157505061097b565b60008155859450600101610ebb565b5080610eb5565b015190508780610935565b9250600185016000526020600020906000935b601f1984168510610f49576001945083601f19811610610f30575b505050811b01600183015561094d565b015160001960f88460031b161c19169055878080610f20565b81810151835560209485019460019093019290910190610f05565b909150600185016000526020600020601f840160051c810160208510610fb0575b90849392915b601f830160051c82018110610fa157505061091e565b60008155859450600101610f8b565b5080610f85565b634e487b7160e01b600052600060045260246000fd5b34610370576060366003190112610370576004356001600160401b03811161037057610ffd9036906004016147fc565b6024356001600160401b0381116103705761101c9036906004016149a0565b906044356001600160401b0381116103705761103c9036906004016149a0565b815183518114908161138e575b50156113555791906000925b81518410156113535761106884836151ae565b5193611077600054861061520a565b61108085614dfc565b50600581015490959061109d906001600160a01b03163314614cc5565b6110a782866151ae565b518051906001600160401b038211610c6b5781906110c8600a8a0154614a20565b601f8111611301575b50602090601f831160011461129457600092611289575b50508160011b916000199060031b1c191617600a8701555b61110a82846151ae565b51958651906001600160401b038211610c6b576008019061112b8254614a20565b601f8111611241575b50602097601f82116001146111d8576111c59596979882916000926111cd575b50508160011b916000199060031b1c19161790555b61117461030b615359565b61117e82876151ae565b51907fc2bc3a7d017286181855f3a27bb3a2823f889fea0bdf1195cb931d703c9085b06111bd6111ae85886151ae565b51604051918291339683614e6e565b0390a361505d565b929190611055565b015190508980611154565b601f1982169883600052806000209160005b8b81106112295750836111c598999a9b10611210575b505050600190811b019055611169565b015160001960f88460031b161c19169055888080611200565b919260206001819286850151815501940192016111ea565b826000526020600020601f830160051c8101916020841061127f575b601f0160051c01905b8181106112735750611134565b60008155600101611266565b909150819061125d565b0151905088806110e8565b9150601f19831691600a8a0160005283826000209360005b8181106112e65750106112cd575b505050600190811b01600a870155611100565b015160001960f88460031b161c191690558780806112ba565b838501518655600190950194602094850194879350016112ac565b909150600a890160005260208060002090601f850160051c820190851061134c575b90601f8594930160051c01905b81811061133d57506110d1565b60008155849350600101611330565b5080611323565b005b60405162461bcd60e51b81526020600482015260116024820152704d69736d6174636865642061727261797360781b6044820152606490fd5b905081511484611049565b3461037057600036600319011261037057602060405160fa8152f35b34610370576040366003190112610370576004356113d1614870565b906113df600054821061520a565b60056114066113ed83614dfc565b50909101546001600160a01b0391903390831614614cc5565b816000526002602052604060002092169182600052602052604060002060ff19815416905561143661030b6153ff565b7f125883b94692baebecad9f111ed97ffa626523bbbadc6b0ef85ee1b56b9e52d5600080a3005b3461037057602036600319011261037057602061148061147b61485a565b614bbd565b604051908152f35b34610370576020366003190112610370576004356001600160401b038111610370576114b89036906004016147fc565b60005b815181101561135357806114d261151692846151ae565b516114e0600054821061520a565b60056114eb82614dfc565b500180546001600160a01b038116929190611507338514614cc5565b8361151b575b5050505061505d565b6114bb565b6001600160a01b031916905561153261030b6152c5565b7f9b5baeec63969a252d5d743784891dba3a017078113856378a7098a689360954600080a38380808061150d565b3461037057604036600319011261037057602061158661157e614870565b600435615243565b6040519015158152f35b34610370576000366003190112610370576007546040516001600160a01b039091168152602090f35b34610370576020806003193601126103705760043560005260019081815260406000208054916115e8836147e5565b926115f660405194856147c4565b8084528184018093600052826000206000915b83831061169b57505050506040519384938285019083865251809152604085019260408260051b87010194936000905b8382106116465787870388f35b918496819592949698508190603f198b820301855289519060018060a01b038251168152604080611683858501516060808887015285019061497b565b93015191015298019201920187969593919492611639565b9660038582979896996040516116b08161478e565b85546001600160a01b031681526116c8858701614a5a565b83820152600286015460408201528152019201920191909693959496611609565b3461037057602080600319360112610370576004356001600160401b0381116103705761171a9036906004016147fc565b9060005b8251811015611353578061173561178292856151ae565b51611743600054821061520a565b61174c81614dfc565b50600590810154611767906001600160a01b03163314614cc5565b81600052845260ff6040600020541615611787575b5061505d565b61171e565b6040600020805460ff191660011790556117a261030b6152a2565b33907f5f486113eb2f75a0e6be2583f63fb0c468a5b5a3511dece64911a4124de2179d600080a38461177c565b34610370576020366003190112610370576004356000526003602052602060ff604060002054166040519015158152f35b34610370576020366003190112610370576001600160a01b0361182161485a565b16600052600a602052602060ff60406000205416604051908152f35b60403660031901126103705760043560ff81168091036103705760248035600183101580611a99575b15611a6657600183036119175750600c5434106118d357505b33600052600a60205260406000208160ff198254161790556118a033614b00565b60405191825260208201527f35c12210dbf494ad04ccdb21600a9bad9f1b3c73e2b6c3c4f47e93211ec1b0b160403392a2005b606490601c6040519162461bcd60e51b8352602060048401528201527f496e73756666696369656e742045544820666f72205072656d69756d000000006044820152fd5b600283036119735750600d54341061192f575061187f565b60649060186040519162461bcd60e51b8352602060048401528201527f496e73756666696369656e742045544820666f722050726f00000000000000006044820152fd5b9060038314611984575b505061187f565b60018210611a1657600e5482810290808204841490151715611a015734106119bd575033600052600b602052604060002055818061197d565b60649060196040519162461bcd60e51b8352602060048401528201527f496e73756666696369656e742045544820666f722050726f2b000000000000006044820152fd5b50634e487b7160e01b60009081526011600452fd5b60849060236040519162461bcd60e51b8352602060048401528201527f4d7573742072657175657374206174206c65617374203120474220666f722050604482015262726f2b60e81b6064820152fd5b60405162461bcd60e51b815260206004820152600c818401526b24b73b30b634b2103a34b2b960a11b6044820152606490fd5b506003831115611866565b34610370576060366003190112610370576001600160401b0360043560243582811161037057611ad89036906004016148c7565b9160443581811161037057611af19036906004016148c7565b90611aff600054841061520a565b611b0883614dfc565b5090611b2160018060a01b036005840154163314614cc5565b845191600a8101828411610c6b57611b398154614a20565b93601f94858111611d43575b506020858211600114611cd95790806008949392600091611cce575b508160011b916000199060031b1c19161790555b01918351918211610c6b57611b8a8354614a20565b818111611c89575b506020908211600114611bff5791817fc2bc3a7d017286181855f3a27bb3a2823f889fea0bdf1195cb931d703c9085b09492611bef94600091611bf4575b508160011b916000199060031b1c19161790555b610b79610b73615359565b0390a3005b905083015188611bd0565b601f1982169083600052806000209160005b818110611c71575092611bef9492600192827fc2bc3a7d017286181855f3a27bb3a2823f889fea0bdf1195cb931d703c9085b0989610611c58575b5050811b019055611be4565b85015160001960f88460031b161c191690558880611c4c565b9192602060018192868a015181550194019201611c11565b8360005260206000208280850160051c82019260208610611cc5575b0160051c01905b818110611cb95750611b92565b60008155600101611cac565b92508192611ca5565b90508901518a611b61565b601f1982169083600052806000209160005b8b828210611d2b575050918391600896959460019410611d12575b5050811b019055611b75565b8b015160001960f88460031b161c191690558a80611d06565b60018495602093958493015181550194019201611ceb565b8260005260206000208680840160051c82019260208510611d7f575b0160051c01905b818110611d735750611b45565b60008155600101611d66565b92508192611d5f565b3461037057604036600319011261037057600435611da4614870565b90611db2600054821061520a565b6005611dc06113ed83614dfc565b816000526006602052604060002092169182600052602052611de960ff60406000205416615469565b6000526006602052604060002090600052602052604060002060ff198154169055600080f35b3461037057602036600319011261037057600435611e30600054821061520a565b6005611e3b82614dfc565b500180546001600160a01b038116929190611e57338514614cc5565b8315611e9b576001600160a01b0319169055611e7461030b6152c5565b7f9b5baeec63969a252d5d743784891dba3a017078113856378a7098a689360954600080a3005b60405162461bcd60e51b815260206004820152600f60248201526e105b1c9958591e481c995b5bdd9959608a1b6044820152606490fd5b3461037057611ee036614886565b60005b82518110156113535780611efa611f8892856151ae565b51611f08600054821061520a565b611f1181614dfc565b50600501546001600160a01b039190611f2d9083163314614cc5565b80600052602091600283526040600020908616928360005252604060002060ff198154169055611f5e61030b6153ff565b7f125883b94692baebecad9f111ed97ffa626523bbbadc6b0ef85ee1b56b9e52d5600080a361505d565b611ee3565b34610370576000366003190112610370576020600054604051908152f35b3461037057604036600319011261037057600435611fc7614870565b611fd4600054831061520a565b6001600160a01b0390811691611feb8315156152e8565b6005611ff682614dfc565b50018381549384169361200a338614614cc5565b6001600160601b0360a01b161790558060005260026020526040600020836000526020526040600020600160ff1982541617905561204961030b615328565b7fa858a0d23644b705afa414c8afbacbb4b357a18ea066805e48f9cd103fd87a81600080a4005b34610370576020806003193601126103705761208a61485a565b600080546001600160a01b03939092841691805b84811061212c57506120af906151d8565b9360009260005b8581106120cb57604051806103ee898261491d565b6120d481614dfc565b50828460058093015416149081612115575b506120fa575b6120f59061505d565b6120b6565b9361210d818661043e6120f5948b6151ae565b9490506120ec565b905081600052845260ff60406000205416886120e6565b61213581614dfc565b50848760058093015416149081612170575b5061215b575b6121569061505d565b61209e565b906121686121569161505d565b91905061214d565b905081600052835260ff6040600020541687612147565b346103705760208060031936011261037057600435906121aa600054831061520a565b6121b382614dfc565b50600501546001600160a01b03166121cc81151561542e565b33146122db578160005260028152604060002033600052815260ff604060002054166122a2578160005260068152604060002033600052815260ff6040600020541661225e57816000526006815260406000209033600052526040600020600160ff1982541617905533907f04193dbbd89505a47140c2ec9b4c1432003aabf1a5739d7db67d3bb361619b18600080a3005b6064906040519062461bcd60e51b82526004820152601760248201527f5265717565737420616c72656164792070656e64696e670000000000000000006044820152fd5b6064906040519062461bcd60e51b825260048201526012602482015271416c7265616479206861732061636365737360701b6044820152fd5b6064906040519062461bcd60e51b82526004820152601b60248201527f4f776e65722063616e6e6f7420726571756573742061636365737300000000006044820152fd5b3461037057604036600319011261037057612338614870565b600435600052600660205260406000209060018060a01b0316600052602052602060ff604060002054166040519015158152f35b34610370576000366003190112610370576020604051631f4000008152f35b34610370576000366003190112610370576020600e54604051908152f35b3461037057602080600319360112610370576001600160401b03600435818111610370576123db9036906004016148c7565b906123ea600383511015614c07565b6123f78383511115614c48565b60405161242e8351918585019261240f818386614958565b600990820190815281900386019020546001600160a01b031615614c88565b3360005260088452836124446040600020614a5a565b805190816125e1575b505050336000526008845260406000208351928311610c6b5784926124728254614a20565b601f811161258c575b5083601f821160011461251057926124d1928261250096936000805160206155a68339815191529896600091612505575b508160011b916000199060031b1c19161790555b604051809381928651928391614958565b81016009815203019020336001600160601b0360a01b825416179055604051918291858352339583019061497b565b0390a2005b90508601518a6124ac565b601f1982169083600052856000209160005b8181106125755750836000805160206155a68339815191529896936124d1969361250099966001941061255c575b5050811b0190556124c0565b88015160001960f88460031b161c191690558a80612550565b91928760018192868c015181550194019201612522565b90918093945060005285600020601f830160051c8101918784106125d7575b90601f8896959493920160051c01905b8181106125c8575061247b565b600081558795506001016125bb565b90915081906125ab565b816125f484936040518096819501614958565b810160098152030190206001600160601b0360a01b815416905583858061244d565b346103705761262436614886565b6001600160a01b0390811661263a811515615392565b60005b83518110156113535780826126556126d793876151ae565b51612663600054821061520a565b61267d61266f82614dfc565b506005015487163314614cc5565b8060005260206002815260406000209083600052526040600020600160ff198254161790556126ad61030b6153d0565b7f3c3a9147a1fc73dd51a32f4d10c43d457e8cb826eb6f35cac6349eb965ba82b4600080a361505d565b61263d565b346103705760203660031901126103705760206114806126fa61485a565b614b00565b3461037057604036600319011261037057612718614870565b600435600052600460205260406000209060018060a01b0316600052602052602060ff604060002054166040519015158152f35b346103705760203660031901126103705761279b61276b6004356154aa565b92949160405195869515158652602086015260018060a01b0316604085015260a0606085015260a084019061497b565b9060808301520390f35b346103705760403660031901126103705760043560056127c3614870565b6127d0600054841061520a565b6127f56127dc84614dfc565b50909201546001600160a01b0392903390841614614cc5565b1690612802821515615392565b8060005260026020526040600020826000526020526040600020600160ff1982541617905561283261030b6153d0565b7f3c3a9147a1fc73dd51a32f4d10c43d457e8cb826eb6f35cac6349eb965ba82b4600080a3005b34610370576000366003190112610370576020600d54604051908152f35b346103705760208060031936011261037057600435612899600054821061520a565b806000526004825260406000203360005282527fa39681252bed1435e4e217da3a52ce8868844c63f75604ae9855ffb20906b68b60ff60406000205416159282600052600481526040600020336000528152604060002060ff1981541660ff86161790556040519384523393a3005b602036600319011261037057600054612924816004351061520a565b61292f600435614dfc565b5060058101546001600160a01b03169061294a82151561542e565b600981015480156131ba57341061317e57338214613146576129eb600a60038301549260078101546040519461297f86614772565b87865261298e60018401614a5a565b602087015261299f60028401614a5a565b604087015260608601526129b560048301614a5a565b60808601523360a08601524260c086015260e08501526129d760088201614a5a565b610100850152600061012085015201614a5a565b610140820152600160401b831015610c6b5760018301600055612a0d83614dfc565b919091610fb7578051825560208101518051906001600160401b038211610c6b578190612a3d6001860154614a20565b601f81116130f3575b50602090601f831160011461308157600092613076575b50508160011b916000199060031b1c19161760018301555b60408101518051906001600160401b038211610c6b578190612a9a6002860154614a20565b601f8111613023575b50602090601f8311600114612fb157600092612fa6575b50508160011b916000199060031b1c19161760028301555b6060810151600383015560808101518051906001600160401b038211610c6b578190612b016004860154614a20565b601f8111612f53575b50602090601f8311600114612ee157600092612ed6575b50508160011b916000199060031b1c19161760048301555b6005820160018060a01b0360a0830151166001600160601b0360a01b82541617905560c0810151600683015560e081015160078301556101008101518051906001600160401b038211610c6b57612b936008850154614a20565b601f8111612e8f575b50602090601f8311600114612e1b5761014093929160009183612e10575b50508160011b916000199060031b1c19161760088401555b610120810151600984015501518051906001600160401b038211610c6b57612bfd600a840154614a20565b601f8111612dc5575b50602090601f8311600114612d5757600a929160009183612d4c575b50508160011b916000199060031b1c1916179101555b8160005260026020526040600020336000526020526040600020600160ff1982541617905560003415612d43575b600080808093853491f115612d3757612cb4604051612c84816147a9565b601c81527f507572636861736564204f776e6572736869702028436c6f6e65642900000000602082015283614e96565b612ce1604051612cc3816147a9565b6009815268536f6c6420436f707960b81b6020820152600435614e96565b604051348152827f8f21da0ea7326e97d788c6c2cb9e0629e1d7844954ce8fb701d3e64bd5a0531e60203393a333917fa858a0d23644b705afa414c8afbacbb4b357a18ea066805e48f9cd103fd87a81600080a4005b6040513d6000823e3d90fd5b506108fc612c66565b015190508680612c22565b90601f19831691600a850160005260206000209260005b818110612dad5750916001939185600a969410612d94575b505050811b01910155612c38565b015160001960f88460031b161c19169055868080612d86565b92936020600181928786015181550195019301612d6e565b600a84016000526020600020601f840160051c81019160208510612e06575b601f0160051c01905b818110612dfa5750612c06565b60008155600101612ded565b9091508190612de4565b015190508780612bba565b906008850160005260206000209160005b601f1985168110612e7757509183916001936101409695601f19811610612e5e575b505050811b016008840155612bd2565b015160001960f88460031b161c19169055878080612e4e565b91926020600181928685015181550194019201612e2c565b600885016000526020600020601f840160051c810160208510612ecf575b601f830160051c82018110612ec3575050612b9c565b60008155600101612ead565b5080612ead565b015190508680612b21565b9250600485016000526020600020906000935b601f1984168510612f38576001945083601f19811610612f1f575b505050811b016004830155612b39565b015160001960f88460031b161c19169055868080612f0f565b81810151835560209485019460019093019290910190612ef4565b909150600485016000526020600020601f840160051c810160208510612f9f575b90849392915b601f830160051c82018110612f90575050612b0a565b60008155859450600101612f7a565b5080612f74565b015190508680612aba565b9250600285016000526020600020906000935b601f1984168510613008576001945083601f19811610612fef575b505050811b016002830155612ad2565b015160001960f88460031b161c19169055868080612fdf565b81810151835560209485019460019093019290910190612fc4565b909150600285016000526020600020601f840160051c81016020851061306f575b90849392915b601f830160051c82018110613060575050612aa3565b6000815585945060010161304a565b5080613044565b015190508680612a5d565b9250600185016000526020600020906000935b601f19841685106130d8576001945083601f198116106130bf575b505050811b016001830155612a75565b015160001960f88460031b161c191690558680806130af565b81810151835560209485019460019093019290910190613094565b909150600185016000526020600020601f840160051c81016020851061313f575b90849392915b601f830160051c82018110613130575050612a46565b6000815585945060010161311a565b5080613114565b60405162461bcd60e51b815260206004820152601060248201526f4f776e65722063616e6e6f742062757960801b6044820152606490fd5b60405162461bcd60e51b8152602060048201526014602482015273125b9cdd59999a58da595b9d081c185e5b595b9d60621b6044820152606490fd5b60405162461bcd60e51b815260206004820152600c60248201526b4e6f7420666f722073616c6560a01b6044820152606490fd5b3461037057610100366003190112610370576004356001600160401b0381116103705761321f9036906004016149a0565b6024356001600160401b0381116103705761323e9036906004016149a0565b906044356001600160401b0381116103705761325e9036906004016147fc565b6064356001600160401b0381116103705761327d9036906004016149a0565b91608435926001600160401b0384116103705736602385011215610370578360040135936132aa856147e5565b946132b860405196876147c4565b8086526024602087019160051b8301019136831161037057602401905b828210613c345750505060a4356001600160401b038111610370576132fe9036906004016149a0565b9160c4356001600160401b0381116103705761331e9036906004016147fc565b956001600160401b0360e435116103705761333e3660e4356004016149a0565b9561334c8351835114615171565b6133598351875114615171565b6133668351855114615171565b6133738351825114615171565b6133808351865114615171565b61338d8351895114615171565b61339a8351885114615171565b600096875b87518910156133cc576133c06133c6916133b98b8b6151ae565b5190614d48565b9861505d565b9761339f565b6133e16108488b92999798996108433361506c565b6134086133f86133f0336150f6565b875190614d48565b61340133614bbd565b1015614db0565b61341285516151d8565b9660005b8651811015613c26578061342b8792876151ae565b51600052600360205261344660ff6040600020541615614cfd565b87898c8861346d856134668161345f81600054996151ae565b51996151ae565b51946151ae565b519161348f8661348881613481818d6151ae565b51956151ae565b51926151ae565b519061349b878b6151ae565b51926134a7888d6151ae565b5194604051966134b688614772565b888852602088019a8b526040880152606087015260808601523360a08601524260c086015260e0850152610100840152610120830152610140820152600160401b821015610c6b576001820160005561350e82614dfc565b949094610fb75781518555518051906001600160401b038211610c6b57819061353a6001880154614a20565b601f8111613bd3575b50602090601f8311600114613b6157600092613b56575b50508160011b916000199060031b1c19161760018501555b60408101518051906001600160401b038211610c6b5781906135976002880154614a20565b601f8111613b03575b50602090601f8311600114613a9157600092613a86575b50508160011b916000199060031b1c19161760028501555b6060810151600385015560808101518051906001600160401b038211610c6b5781906135fe6004880154614a20565b601f8111613a33575b50602090601f83116001146139c1576000926139b6575b50508160011b916000199060031b1c19161760048501555b6005840160018060a01b0360a0830151166001600160601b0360a01b82541617905560c0810151600685015560e081015160078501556101008101518051906001600160401b038211610c6b576136906008870154614a20565b601f811161396f575b50602090601f83116001146138fb57610140939291600091836138f0575b50508160011b916000199060031b1c19161760088601555b610120810151600986015501518051906001600160401b038211610c6b57848b928a92613700600a8e990154614a20565b601f811161387c575b50602090601f83116001146137d857613481886137c89a899760008051602061558683398151915297600a886137bb996111ae9987996000926137cd575b50508160011b916000199060031b1c1916179101555b88600052600260205260406000203360005260205261378e8360406000209260ff19936001858254161790556151ae565b51600052600360205260016040600020918254161790556137b66137b0614e4a565b89614e96565b6151ae565b0390a361043e828c6151ae565b613416565b015190503880613747565b90600a840160005260206000209160005b601f19851681106138515750886137c89a899760008051602061558683398151915297600a6001896111ae998799613481996137bb9d601f19811610613838575b505050811b0191015561375d565b015160001960f88460031b161c1916905538808061382a565b949798995092955093506020600181928685015181550194019201928c979695928e95928d956137e9565b929596975092509250600a84016000526020600020601f840160051c8101602085106138e9575b928c979695928e95928d955b601f830160051c820181106138c5575050613709565b80929598999a5060009194975060019396505501928c979695928e95928d956138af565b50806138a3565b0151905038806136b7565b906008870160005260206000209160005b601f198516811061395757509183916001936101409695601f1981161061393e575b505050811b0160088601556136cf565b015160001960f88460031b161c1916905538808061392e565b9192602060018192868501518155019401920161390c565b600887016000526020600020601f840160051c8101602085106139af575b601f830160051c820181106139a3575050613699565b6000815560010161398d565b508061398d565b015190508f8061361e565b9250600487016000526020600020906000935b601f1984168510613a18576001945083601f198116106139ff575b505050811b016004850155613636565b015160001960f88460031b161c191690558f80806139ef565b818101518355602094850194600190930192909101906139d4565b909150600487016000526020600020601f840160051c810160208510613a7f575b90849392915b601f830160051c82018110613a70575050613607565b60008155859450600101613a5a565b5080613a54565b015190508f806135b7565b9250600287016000526020600020906000935b601f1984168510613ae8576001945083601f19811610613acf575b505050811b0160028501556135cf565b015160001960f88460031b161c191690558f8080613abf565b81810151835560209485019460019093019290910190613aa4565b909150600287016000526020600020601f840160051c810160208510613b4f575b90849392915b601f830160051c82018110613b405750506135a0565b60008155859450600101613b2a565b5080613b24565b015190508f8061355a565b9250600187016000526020600020906000935b601f1984168510613bb8576001945083601f19811610613b9f575b505050811b016001850155613572565b015160001960f88460031b161c191690558f8080613b8f565b81810151835560209485019460019093019290910190613b74565b909150600187016000526020600020601f840160051c810160208510613c1f575b90849392915b601f830160051c82018110613c10575050613543565b60008155859450600101613bfa565b5080613bf4565b604051806103ee8b8261491d565b81358152602091820191016132d5565b3461037057602080600319360112610370576001600160401b0360043581811161037057613c769036906004016148c7565b90613c85600383511015614c07565b613c928383511115614c48565b3360005260088352613ca8604060002054614a20565b613dfa57604051613cc48351918585019261240f818386614958565b336000526008845260406000208351928311610c6b578492613ce68254614a20565b601f8111613da5575b5083601f8211600114613d4357926124d1928261250096936000805160206155a6833981519152989660009161250557508160011b916000199060031b1c1916179055604051809381928651928391614958565b601f1982169083600052856000209160005b818110613d8e5750836000805160206155a68339815191529896936124d1969361250099966001941061255c575050811b0190556124c0565b91928760018192868c015181550194019201613d55565b90918093945060005285600020601f830160051c810191878410613df0575b90601f8896959493920160051c01905b818110613de15750613cef565b60008155879550600101613dd4565b9091508190613dc4565b60405162461bcd60e51b8152600481018490526012602482015271105b1c9958591e481c9959da5cdd195c995960721b6044820152606490fd5b34610370576000366003190112610370576020600c54604051908152f35b3461037057602036600319011261037057600435613e73600054821061520a565b613e7c81614dfc565b5060058101546001600160a01b031691821591908215613f7c575b50805491600382015491600681015494600782015460098301549360018401613ebf90614a5a565b97613ecc60028601614a5a565b96613ed960048701614a5a565b90613ee660088801614a5a565b96600a01613ef390614a5a565b986040519b8c9b8c528b6101806020819201528c01613f119161497b565b8b810360408d0152613f229161497b565b9060608b015289810360808b0152613f399161497b565b9360a089015260c0880152151560e0870152610100860152848103610120860152613f639161497b565b906101408401528281036101608401526103ee9161497b565b909150600052600560205260ff604060002054169083613e97565b3461037057600036600319011261037057602060405160648152f35b3461037057600036600319011261037057600080808060018060a01b0360075416613fdf813314614cc5565b4790828215613ff1575bf115612d3757005b506108fc613fe9565b34610370576020806003193601126103705761401461485a565b600080546001600160a01b039283169390929091805b8481106140bf575061403b906151d8565b9360009260005b85811061405757604051806103ee898261491d565b8060005260048252604060002083600052825260ff60406000205416806140a7575b61408c575b6140879061505d565b614042565b9361409f818661043e614087948b6151ae565b94905061407e565b508360056140b483614dfc565b500154161515614079565b8060005260048452604060002086600052845260ff6040600020541680614109575b6140f4575b6140ef9061505d565b61402a565b906141016140ef9161505d565b9190506140e6565b5082600561411683614dfc565b5001541615156140e1565b346103705760603660031901126103705761414760018060a01b03600754163314614cc5565b600435600c55602435600d55604435600e55005b34610370576020806003193601126103705761417561485a565b600080546001600160a01b0392831693929091805b838110614247575061419b906151d8565b9260009160005b8481106141b757604051806103ee888261491d565b6141c081614dfc565b508288816005809401541614159182614221575b82614208575b50506141ef575b6141ea9061505d565b6141a2565b926142006141ea9161043286614dfc565b9390506141e1565b90915061421483614dfc565b50015416151582896141da565b915050816000526002845260406000208860005284528260ff60406000205416916141d4565b61425081614dfc565b5083878160058094015416141591826142ad575b82614294575b505061427f575b61427a9061505d565b61418a565b9061428c61427a9161505d565b919050614271565b9091506142a083614dfc565b500154161515838861426a565b915050816000526002865260406000208760005286528360ff6040600020541691614264565b34610370576040366003190112610370576004356142ef614870565b906142fd600054821061520a565b612832600561430e6113ed84614dfc565b8260005260209060068252604060002094169384600052815261433860ff60406000205416615469565b82600052600681526040600020846000528152604060002060ff19908181541690558360005260028252604060002085600052825260016040600020918254161790557f417070726f766564206163636573732072657175657374000000000000000000604051916143a9836147a9565b6017835282015282614e96565b34610370576020366003190112610370576001600160a01b036143d761485a565b16600052600b6020526020604060002054604051908152f35b34610370576040366003190112610370576001600160401b03600435602435828111610370576144249036906004016148c7565b91614432600054831061520a565b61443b82614dfc565b5061445360018060a01b036005830154163314614cc5565b83516001918201928111610c6b5761446b8354614a20565b601f811161456c575b506020601f821160011461450b5781928291600093614500575b501b916000199060031b1c19161790555b6144c86040516144ae816147a9565b600781526614995b985b595960ca1b602082015282614e96565b7f29afa2e14786ae4b101ac811e5b12fb8e459010d8b001fe24db8b37bf96c3e546040516020815280611bef3395602083019061497b565b87015192508761448e565b601f198216908460005282816000209260005b868282106145535750501061453a575b5050811b01905561449f565b86015160001960f88460031b161c19169055858061452e565b8a8501518655909401936020938401938693500161451e565b836000526020600020601f830160051c810191602084106145ad575b601f0160051c019083905b8281106145a1575050614474565b60008155018390614593565b9091508190614588565b34610370576020366003190112610370576004356145d8600054821061520a565b6145e46102bc82614dfc565b80600052600560205260ff604060002054161561466457806000526005602052604060002060ff19815416905561463b604051614620816147a9565b600881526714995cdd1bdc995960c21b602082015282614e96565b33907fcda3b91453b8363ca5466065c8ce89b06fa891552d0fad2da5868dd7b44a4fb9600080a3005b60405162461bcd60e51b815260206004820152600a6024820152692737ba1034b7103134b760b11b6044820152606490fd5b34610370576146a436614886565b6001600160a01b039081166146ba8115156152e8565b60005b83518110156113535780826146d561476d93876151ae565b516146e3600054821061520a565b60056146ee82614dfc565b5001908154918388841693614704338614614cc5565b6001600160601b0360a01b161790558060005260206002815260406000209084600052526040600020600160ff1982541617905561474361030b615328565b7fa858a0d23644b705afa414c8afbacbb4b357a18ea066805e48f9cd103fd87a81600080a461505d565b6146bd565b61016081019081106001600160401b03821117610c6b57604052565b606081019081106001600160401b03821117610c6b57604052565b604081019081106001600160401b03821117610c6b57604052565b90601f801991011681019081106001600160401b03821117610c6b57604052565b6001600160401b038111610c6b5760051b60200190565b81601f8201121561037057803591614813836147e5565b9261482160405194856147c4565b808452602092838086019260051b820101928311610370578301905b82821061484b575050505090565b8135815290830190830161483d565b600435906001600160a01b038216820361037057565b602435906001600160a01b038216820361037057565b604060031982011261037057600435906001600160401b038211610370576148b0916004016147fc565b906024356001600160a01b03811681036103705790565b81601f82011215610370578035906001600160401b038211610c6b57604051926148fb601f8401601f1916602001856147c4565b8284526020838301011161037057816000926020809301838601378301015290565b6020908160408183019282815285518094520193019160005b828110614944575050505090565b835185529381019392810192600101614936565b60005b83811061496b5750506000910152565b818101518382015260200161495b565b9060209161499481518092818552858086019101614958565b601f01601f1916010190565b9080601f83011215610370578135906149b8826147e5565b926149c660405194856147c4565b828452602092838086019160051b8301019280841161037057848301915b8483106149f45750505050505090565b82356001600160401b038111610370578691614a15848480948901016148c7565b8152019201916149e4565b90600182811c92168015614a50575b6020831014614a3a57565b634e487b7160e01b600052602260045260246000fd5b91607f1691614a2f565b9060405191826000825492614a6e84614a20565b908184526001948581169081600014614add5750600114614a9a575b5050614a98925003836147c4565b565b9093915060005260209081600020936000915b818310614ac5575050614a9893508201013880614a8a565b85548884018501529485019487945091830191614aad565b915050614a9894506020925060ff191682840152151560051b8201013880614a8a565b6001600160a01b03166000908152600a602052604081205460ff1660018114614bb35760028114614ba957600314614b3b5750630fa0000090565b600b60205260408120549081600a1b61040092808204841481151715614b95578060141b91808304851490151715614b9557601e1b928184041490151715614b81575090565b634e487b7160e01b81526011600452602490fd5b634e487b7160e01b83526011600452602483fd5b5050634000000090565b5050631f40000090565b6001600160a01b03166000908152600a602052604090205460ff1660018114614c015760028114614bfa57600314614bf457606490565b60001990565b506101f490565b5060fa90565b15614c0e57565b60405162461bcd60e51b8152602060048201526012602482015271155cd95c9b985b59481d1bdbc81cda1bdc9d60721b6044820152606490fd5b15614c4f57565b60405162461bcd60e51b8152602060048201526011602482015270557365726e616d6520746f6f206c6f6e6760781b6044820152606490fd5b15614c8f57565b60405162461bcd60e51b815260206004820152600e60248201526d2ab9b2b93730b6b2903a30b5b2b760911b6044820152606490fd5b15614ccc57565b60405162461bcd60e51b81526020600482015260096024820152682737ba1037bbb732b960b91b6044820152606490fd5b15614d0457565b606460405162461bcd60e51b815260206004820152602060248201527f46696c6520616c72656164792075706c6f6164656420627920736f6d656f6e656044820152fd5b91908201809211614d5557565b634e487b7160e01b600052601160045260246000fd5b15614d7257565b60405162461bcd60e51b815260206004820152601660248201527514dd1bdc9859d9481b1a5b5a5d08195e18d95959195960521b6044820152606490fd5b15614db757565b60405162461bcd60e51b815260206004820152601960248201527f46696c6520636f756e74206c696d6974206578636565646564000000000000006044820152606490fd5b906000918254811015614e3657600b90838052027f290decd9548b62a8d60345a988386fc84ba6bc95484008f6362f93160ef3e563019190565b634e487b7160e01b83526032600452602483fd5b60405190614e57826147a9565b6008825267155c1b1bd859195960c21b6020830152565b9091614e85614e939360408452604084019061497b565b91602081840391015261497b565b90565b91906000928352600192602091848352604082209160405193614eb88561478e565b3385528085019283526040850193428552805490600160401b8210156150495788820180825582101561503557835260038284209102019460018060a01b039051166001600160601b0360a01b86541617855586850192518051926001600160401b03841161502157614f2b8554614a20565b601f8111614fdb575b5082601f8511600114614f7557509783928392600298999a94614f6a575b50501b916000199060031b1c19161790555b51910155565b015192503880614f52565b9893929091601f1984169986845280842093905b8b8210614fc457505083600298999a10614fab575b505050811b019055614f64565b015160001960f88460031b161c19169055388080614f9e565b808785968294968601518155019501930190614f89565b858252838220601f860160051c810191858710615017575b601f0160051c01908a905b82811061500c575050614f34565b838155018a90614ffe565b9091508190614ff3565b634e487b7160e01b81526041600452602490fd5b634e487b7160e01b84526032600452602484fd5b634e487b7160e01b84526041600452602484fd5b6000198114614d555760010190565b6000805490929183805b8381106150835750505050565b61508c81614dfc565b506005908101546001600160a01b0385811691161490816150e0575b506150bc575b6150b79061505d565b615076565b946150d86150b79160036150cf89614dfc565b50015490614d48565b9590506150ae565b82845260205250604082205460ff1615386150a8565b6000805490929183805b83811061510d5750505050565b61511681614dfc565b506005908101546001600160a01b03858116911614908161515b575b50615146575b6151419061505d565b615100565b946151536151419161505d565b959050615138565b82845260205250604082205460ff161538615132565b1561517857565b60405162461bcd60e51b815260206004820152600e60248201526d082e4e4c2f240dad2e6dac2e8c6d60931b6044820152606490fd5b80518210156151c25760209160051b010190565b634e487b7160e01b600052603260045260246000fd5b906151e2826147e5565b6151ef60405191826147c4565b8281528092615200601f19916147e5565b0190602036910137565b1561521157565b60405162461bcd60e51b815260206004820152600a602482015269125b9d985b1a59081a5960b21b6044820152606490fd5b90600091825481101561529457600561525b82614dfc565b5001546001600160a01b0392831692168281146152995715615294579160409160ff938252600260205282822090825260205220541690565b505090565b50505050600190565b604051906152af826147a9565b6007825266151c985cda195960ca1b6020830152565b604051906152d2826147a9565b600782526611195b195d195960ca1b6020830152565b156152ef57565b60405162461bcd60e51b8152602060048201526011602482015270125b9d985b1a59081c9958da5c1a595b9d607a1b6044820152606490fd5b60405190615335826147a9565b601582527405472616e73666572726564206f776e65727368697605c1b6020830152565b60405190615366826147a9565b601882527f4d6f766564202f204368616e6765642043617465676f727900000000000000006020830152565b1561539957565b60405162461bcd60e51b815260206004820152600f60248201526e496e76616c6964206164647265737360881b6044820152606490fd5b604051906153dd826147a9565b60138252724772616e74656420766965772061636365737360681b6020830152565b6040519061540c826147a9565b60138252725265766f6b656420766965772061636365737360681b6020830152565b1561543557565b60405162461bcd60e51b815260206004820152600c60248201526b119a5b194819195b195d195960a21b6044820152606490fd5b1561547057565b60405162461bcd60e51b8152602060048201526012602482015271139bc81c195b991a5b99c81c995c5d595cdd60721b6044820152606490fd5b906000918254925b8381106154e95750506040516000925082918291602081016001600160401b03811182821017610c6b576040526000815290600090565b8160076154f583614dfc565b5001541480615566575b6155115761550c9061505d565b6154b2565b80935061551e9150614dfc565b50549161552a81614dfc565b50600501546001600160a01b031691600661554e61554784614dfc565b5093614dfc565b500154906155626008600196959401614a5a565b9190565b5061557081614dfc565b50600501546001600160a01b031615156154ff56feb14038102e59daf78bf92447f70c24fe731c7fded3193654a05946eec6bc398d4afe13536e3149cddd8c9a8df1580cd5e909fd13c41e7dfead2e38d1141dad5da2646970667358221220cf85a0b0e74fb91ba9342a086ec3e91b108dc9e2ed87e9f1b8d5227e7dddcf6e64736f6c63430008110033","opcodes":"PUSH1 0x80 DUP1 PUSH1 0x40 MSTORE CALLVALUE PUSH2 0x5B JUMPI PUSH6 0x9184E72A0000 PUSH1 0xC SSTORE PUSH6 0xD12F0C4C6000 PUSH1 0xD SSTORE PUSH6 0x52C396ACB000 PUSH1 0xE SSTORE PUSH1 0x7 DUP1 SLOAD PUSH1 0x1 PUSH1 0x1 PUSH1 0xA0 SHL SUB NOT AND PUSH20 0x6E123606A07D68ABED7AA74F0CCFF38B72E528F2 OR SWAP1 SSTORE PUSH2 0x55FB SWAP1 DUP2 PUSH3 0x61 DUP3 CODECOPY RETURN JUMPDEST PUSH1 0x0 DUP1 REVERT INVALID PUSH1 0x80 PUSH1 0x40 MSTORE PUSH1 0x4 CALLDATASIZE LT ISZERO PUSH2 0x12 JUMPI PUSH1 0x0 DUP1 REVERT JUMPDEST PUSH1 0x0 CALLDATALOAD PUSH1 0xE0 SHR DUP1 PUSH4 0x55ECFAF EQ PUSH2 0x4696 JUMPI DUP1 PUSH4 0x6CF5A3B EQ PUSH2 0x45B7 JUMPI DUP1 PUSH4 0x96D798C EQ PUSH2 0x43F0 JUMPI DUP1 PUSH4 0x10A03313 EQ PUSH2 0x43B6 JUMPI DUP1 PUSH4 0x12C7CC14 EQ PUSH2 0x42D3 JUMPI DUP1 PUSH4 0x1D152422 EQ PUSH2 0x415B JUMPI DUP1 PUSH4 0x1FA2A6AE EQ PUSH2 0x4121 JUMPI DUP1 PUSH4 0x2350FDC0 EQ PUSH2 0x3FFA JUMPI DUP1 PUSH4 0x24600FC3 EQ PUSH2 0x3FB3 JUMPI DUP1 PUSH4 0x2AE46B0C EQ PUSH2 0x3F97 JUMPI DUP1 PUSH4 0x2BFDA313 EQ PUSH2 0x3E52 JUMPI DUP1 PUSH4 0x30654E13 EQ PUSH2 0x3E34 JUMPI DUP1 PUSH4 0x36A94134 EQ PUSH2 0x3C44 JUMPI DUP1 PUSH4 0x395E6126 EQ PUSH2 0x31EE JUMPI DUP1 PUSH4 0x50A1A264 EQ PUSH2 0x2908 JUMPI DUP1 PUSH4 0x53943AAD EQ PUSH2 0x2877 JUMPI DUP1 PUSH4 0x53B0E17D EQ PUSH2 0x2859 JUMPI DUP1 PUSH4 0x65DD152C EQ PUSH2 0x27A5 JUMPI DUP1 PUSH4 0x667523FB EQ PUSH2 0x274C JUMPI DUP1 PUSH4 0x668319C7 EQ PUSH2 0x26FF JUMPI DUP1 PUSH4 0x6AB14D43 EQ PUSH2 0x26DC JUMPI DUP1 PUSH4 0x73939597 EQ PUSH2 0x2616 JUMPI DUP1 PUSH4 0x77C846AF EQ PUSH2 0x23A9 JUMPI DUP1 PUSH4 0x7916D6CE EQ PUSH2 0x238B JUMPI DUP1 PUSH4 0x7A2250A9 EQ PUSH2 0x236C JUMPI DUP1 PUSH4 0x7C65417C EQ PUSH2 0x231F JUMPI DUP1 PUSH4 0x7FDC2CDC EQ PUSH2 0x2187 JUMPI DUP1 PUSH4 0x8B70834E EQ PUSH2 0x2070 JUMPI DUP1 PUSH4 0x8DB95337 EQ PUSH2 0x1FAB JUMPI DUP1 PUSH4 0x92CF0557 EQ PUSH2 0x1F8D JUMPI DUP1 PUSH4 0x97F856DA EQ PUSH2 0x1ED2 JUMPI DUP1 PUSH4 0x9926B03F EQ PUSH2 0x1E0F JUMPI DUP1 PUSH4 0xAB5885DB EQ PUSH2 0x1D88 JUMPI DUP1 PUSH4 0xB169C4C1 EQ PUSH2 0x1AA4 JUMPI DUP1 PUSH4 0xB35FB99A EQ PUSH2 0x183D JUMPI DUP1 PUSH4 0xB4428ABC EQ PUSH2 0x1800 JUMPI DUP1 PUSH4 0xB535B5C3 EQ PUSH2 0x17CF JUMPI DUP1 PUSH4 0xBAA70117 EQ PUSH2 0x16E9 JUMPI DUP1 PUSH4 0xC8691B2A EQ PUSH2 0x15B9 JUMPI DUP1 PUSH4 0xCE43C032 EQ PUSH2 0x717 JUMPI DUP1 PUSH4 0xCE606EE0 EQ PUSH2 0x1590 JUMPI DUP1 PUSH4 0xCED14198 EQ PUSH2 0x1560 JUMPI DUP1 PUSH4 0xD162A37D EQ PUSH2 0x1488 JUMPI DUP1 PUSH4 0xD4483E79 EQ PUSH2 0x145D JUMPI DUP1 PUSH4 0xD9A5EC1B EQ PUSH2 0x13B5 JUMPI DUP1 PUSH4 0xDB7CC7D2 EQ PUSH2 0x1399 JUMPI DUP1 PUSH4 0xE1D57D01 EQ PUSH2 0xFCD JUMPI DUP1 PUSH4 0xEE690D3F EQ PUSH2 0x765 JUMPI DUP1 PUSH4 0xEE91877C EQ PUSH2 0x717 JUMPI DUP1 PUSH4 0xF7D97577 EQ PUSH2 0x673 JUMPI DUP1 PUSH4 0xF825F143 EQ PUSH2 0x60B JUMPI DUP1 PUSH4 0xF92C3825 EQ PUSH2 0x5EC JUMPI DUP1 PUSH4 0xF99619F8 EQ PUSH2 0x4DF JUMPI DUP1 PUSH4 0xFBFE00A4 EQ PUSH2 0x4C0 JUMPI DUP1 PUSH4 0xFC08A7D7 EQ PUSH2 0x392 JUMPI DUP1 PUSH4 0xFCFC6623 EQ PUSH2 0x375 JUMPI PUSH4 0xFE816A90 EQ PUSH2 0x28F JUMPI PUSH1 0x0 DUP1 REVERT JUMPDEST CALLVALUE PUSH2 0x370 JUMPI PUSH1 0x20 CALLDATASIZE PUSH1 0x3 NOT ADD SLT PUSH2 0x370 JUMPI PUSH1 0x4 CALLDATALOAD PUSH2 0x2B0 PUSH1 0x0 SLOAD DUP3 LT PUSH2 0x520A JUMP JUMPDEST PUSH2 0x2D1 PUSH2 0x2BC DUP3 PUSH2 0x4DFC JUMP JUMPDEST POP PUSH1 0x5 ADD SLOAD PUSH1 0x1 PUSH1 0x1 PUSH1 0xA0 SHL SUB AND CALLER EQ PUSH2 0x4CC5 JUMP JUMPDEST DUP1 PUSH1 0x0 MSTORE PUSH1 0x5 PUSH1 0x20 MSTORE PUSH1 0xFF PUSH1 0x40 PUSH1 0x0 KECCAK256 SLOAD AND PUSH2 0x33A JUMPI DUP1 PUSH1 0x0 MSTORE PUSH1 0x5 PUSH1 0x20 MSTORE PUSH1 0x40 PUSH1 0x0 KECCAK256 PUSH1 0x1 PUSH1 0xFF NOT DUP3 SLOAD AND OR SWAP1 SSTORE PUSH2 0x311 PUSH2 0x30B PUSH2 0x52A2 JUMP JUMPDEST DUP3 PUSH2 0x4E96 JUMP JUMPDEST CALLER SWAP1 PUSH32 0x5F486113EB2F75A0E6BE2583F63FB0C468A5B5A3511DECE64911A4124DE2179D PUSH1 0x0 DUP1 LOG3 STOP JUMPDEST PUSH1 0x40 MLOAD PUSH3 0x461BCD PUSH1 0xE5 SHL DUP2 MSTORE PUSH1 0x20 PUSH1 0x4 DUP3 ADD MSTORE PUSH1 0xE PUSH1 0x24 DUP3 ADD MSTORE PUSH14 0x20B63932B0B23C9034B7103134B7 PUSH1 0x91 SHL PUSH1 0x44 DUP3 ADD MSTORE PUSH1 0x64 SWAP1 REVERT JUMPDEST PUSH1 0x0 DUP1 REVERT JUMPDEST CALLVALUE PUSH2 0x370 JUMPI PUSH1 0x0 CALLDATASIZE PUSH1 0x3 NOT ADD SLT PUSH2 0x370 JUMPI PUSH1 0x20 PUSH1 0x40 MLOAD PUSH2 0x1F4 DUP2 MSTORE RETURN JUMPDEST CALLVALUE PUSH2 0x370 JUMPI PUSH1 0x20 DUP1 PUSH1 0x3 NOT CALLDATASIZE ADD SLT PUSH2 0x370 JUMPI PUSH2 0x3AC PUSH2 0x485A JUMP JUMPDEST PUSH1 0x0 DUP1 SLOAD PUSH1 0x1 PUSH1 0x1 PUSH1 0xA0 SHL SUB SWAP3 DUP4 AND SWAP4 SWAP3 SWAP1 SWAP2 DUP1 JUMPDEST DUP4 DUP2 LT PUSH2 0x464 JUMPI POP PUSH2 0x3D2 SWAP1 PUSH2 0x51D8 JUMP JUMPDEST SWAP3 PUSH1 0x0 SWAP2 PUSH1 0x0 JUMPDEST DUP5 DUP2 LT PUSH2 0x3F2 JUMPI PUSH1 0x40 MLOAD DUP1 PUSH2 0x3EE DUP9 DUP3 PUSH2 0x491D JUMP JUMPDEST SUB SWAP1 RETURN JUMPDEST PUSH2 0x3FB DUP2 PUSH2 0x4DFC JUMP JUMPDEST POP DUP8 DUP4 PUSH1 0x5 DUP1 SWAP4 ADD SLOAD AND EQ SWAP1 DUP2 PUSH2 0x44C JUMPI JUMPDEST POP PUSH2 0x421 JUMPI JUMPDEST PUSH2 0x41C SWAP1 PUSH2 0x505D JUMP JUMPDEST PUSH2 0x3D9 JUMP JUMPDEST SWAP3 PUSH2 0x444 PUSH2 0x41C SWAP2 PUSH2 0x432 DUP7 PUSH2 0x4DFC JUMP JUMPDEST POP SLOAD PUSH2 0x43E DUP3 DUP11 PUSH2 0x51AE JUMP JUMPDEST MSTORE PUSH2 0x505D JUMP JUMPDEST SWAP4 SWAP1 POP PUSH2 0x413 JUMP JUMPDEST SWAP1 POP DUP2 PUSH1 0x0 MSTORE DUP4 MSTORE PUSH1 0xFF PUSH1 0x40 PUSH1 0x0 KECCAK256 SLOAD AND ISZERO DUP9 PUSH2 0x40D JUMP JUMPDEST PUSH2 0x46D DUP2 PUSH2 0x4DFC JUMP JUMPDEST POP DUP7 DUP5 PUSH1 0x5 DUP1 SWAP4 ADD SLOAD AND EQ SWAP1 DUP2 PUSH2 0x4A8 JUMPI JUMPDEST POP PUSH2 0x493 JUMPI JUMPDEST PUSH2 0x48E SWAP1 PUSH2 0x505D JUMP JUMPDEST PUSH2 0x3C1 JUMP JUMPDEST SWAP1 PUSH2 0x4A0 PUSH2 0x48E SWAP2 PUSH2 0x505D JUMP JUMPDEST SWAP2 SWAP1 POP PUSH2 0x485 JUMP JUMPDEST SWAP1 POP DUP2 PUSH1 0x0 MSTORE DUP6 MSTORE PUSH1 0xFF PUSH1 0x40 PUSH1 0x0 KECCAK256 SLOAD AND ISZERO DUP8 PUSH2 0x47F JUMP JUMPDEST CALLVALUE PUSH2 0x370 JUMPI PUSH1 0x0 CALLDATASIZE PUSH1 0x3 NOT ADD SLT PUSH2 0x370 JUMPI PUSH1 0x20 PUSH1 0x40 MLOAD PUSH4 0x40000000 DUP2 MSTORE RETURN JUMPDEST CALLVALUE PUSH2 0x370 JUMPI PUSH1 0x0 CALLDATASIZE PUSH1 0x3 NOT ADD SLT PUSH2 0x370 JUMPI PUSH1 0x0 SLOAD PUSH1 0x0 DUP1 JUMPDEST DUP3 DUP2 LT PUSH2 0x58F JUMPI POP PUSH2 0x508 SWAP1 PUSH2 0x51D8 JUMP JUMPDEST SWAP1 PUSH1 0x0 DUP1 JUMPDEST DUP3 DUP2 LT PUSH2 0x522 JUMPI PUSH1 0x40 MLOAD DUP1 PUSH2 0x3EE DUP7 DUP3 PUSH2 0x491D JUMP JUMPDEST PUSH1 0x9 PUSH2 0x52D DUP3 PUSH2 0x4DFC JUMP JUMPDEST POP ADD SLOAD ISZERO ISZERO DUP1 PUSH2 0x570 JUMPI JUMPDEST PUSH2 0x54B JUMPI JUMPDEST PUSH2 0x546 SWAP1 PUSH2 0x505D JUMP JUMPDEST PUSH2 0x50D JUMP JUMPDEST SWAP1 PUSH2 0x568 PUSH2 0x546 SWAP2 PUSH2 0x55C DUP5 PUSH2 0x4DFC JUMP JUMPDEST POP SLOAD PUSH2 0x43E DUP3 DUP9 PUSH2 0x51AE JUMP JUMPDEST SWAP2 SWAP1 POP PUSH2 0x53D JUMP JUMPDEST POP PUSH2 0x57A DUP2 PUSH2 0x4DFC JUMP JUMPDEST POP PUSH1 0x5 ADD SLOAD PUSH1 0x1 PUSH1 0x1 PUSH1 0xA0 SHL SUB AND ISZERO ISZERO PUSH2 0x538 JUMP JUMPDEST PUSH1 0x9 PUSH2 0x59A DUP3 PUSH2 0x4DFC JUMP JUMPDEST POP ADD SLOAD ISZERO ISZERO DUP1 PUSH2 0x5CD JUMPI JUMPDEST PUSH2 0x5B8 JUMPI JUMPDEST PUSH2 0x5B3 SWAP1 PUSH2 0x505D JUMP JUMPDEST PUSH2 0x4F7 JUMP JUMPDEST SWAP1 PUSH2 0x5C5 PUSH2 0x5B3 SWAP2 PUSH2 0x505D JUMP JUMPDEST SWAP2 SWAP1 POP PUSH2 0x5AA JUMP JUMPDEST POP PUSH2 0x5D7 DUP2 PUSH2 0x4DFC JUMP JUMPDEST POP PUSH1 0x5 ADD SLOAD PUSH1 0x1 PUSH1 0x1 PUSH1 0xA0 SHL SUB AND ISZERO ISZERO PUSH2 0x5A5 JUMP JUMPDEST CALLVALUE PUSH2 0x370 JUMPI PUSH1 0x0 CALLDATASIZE PUSH1 0x3 NOT ADD SLT PUSH2 0x370 JUMPI PUSH1 0x20 PUSH1 0x40 MLOAD PUSH4 0xFA00000 DUP2 MSTORE RETURN JUMPDEST CALLVALUE PUSH2 0x370 JUMPI PUSH1 0x20 CALLDATASIZE PUSH1 0x3 NOT ADD SLT PUSH2 0x370 JUMPI PUSH1 0x4 CALLDATALOAD PUSH1 0x1 PUSH1 0x1 PUSH1 0x40 SHL SUB DUP2 GT PUSH2 0x370 JUMPI PUSH2 0x63D PUSH1 0x20 SWAP2 CALLDATASIZE SWAP1 PUSH1 0x4 ADD PUSH2 0x48C7 JUMP JUMPDEST DUP2 PUSH2 0x651 PUSH1 0x40 MLOAD SWAP3 DUP4 DUP2 MLOAD SWAP4 DUP5 SWAP3 ADD PUSH2 0x4958 JUMP JUMPDEST PUSH1 0x9 SWAP1 DUP3 ADD SWAP1 DUP2 MSTORE DUP2 SWAP1 SUB DUP3 ADD SWAP1 KECCAK256 SLOAD PUSH1 0x40 MLOAD PUSH1 0x1 PUSH1 0x1 PUSH1 0xA0 SHL SUB SWAP1 SWAP2 AND DUP2 MSTORE RETURN JUMPDEST CALLVALUE PUSH2 0x370 JUMPI PUSH1 0x40 CALLDATASIZE PUSH1 0x3 NOT ADD SLT PUSH2 0x370 JUMPI PUSH1 0x4 CALLDATALOAD PUSH32 0x8AA4FA52648A6D15EDCE8A179C792C86F3719D0CC3C572CF90F91948F0F2CB68 PUSH1 0x20 PUSH1 0x24 CALLDATALOAD PUSH2 0x6BA PUSH1 0x0 SLOAD DUP6 LT PUSH2 0x520A JUMP JUMPDEST DUP1 PUSH1 0x9 PUSH2 0x6C6 DUP7 PUSH2 0x4DFC JUMP JUMPDEST POP PUSH2 0x6DE PUSH1 0x1 DUP1 PUSH1 0xA0 SHL SUB PUSH1 0x5 DUP4 ADD SLOAD AND CALLER EQ PUSH2 0x4CC5 JUMP JUMPDEST ADD SSTORE PUSH2 0x70E PUSH1 0x40 MLOAD PUSH2 0x6EF DUP2 PUSH2 0x47A9 JUMP JUMPDEST PUSH1 0xD DUP2 MSTORE PUSH13 0x141C9A58D94810DA185B99D959 PUSH1 0x9A SHL DUP5 DUP3 ADD MSTORE DUP6 PUSH2 0x4E96 JUMP JUMPDEST PUSH1 0x40 MLOAD SWAP1 DUP2 MSTORE LOG2 STOP JUMPDEST CALLVALUE PUSH2 0x370 JUMPI PUSH1 0x20 CALLDATASIZE PUSH1 0x3 NOT ADD SLT PUSH2 0x370 JUMPI PUSH1 0x1 PUSH1 0x1 PUSH1 0xA0 SHL SUB PUSH2 0x738 PUSH2 0x485A JUMP JUMPDEST AND PUSH1 0x0 MSTORE PUSH1 0x8 PUSH1 0x20 MSTORE PUSH2 0x3EE PUSH2 0x751 PUSH1 0x40 PUSH1 0x0 KECCAK256 PUSH2 0x4A5A JUMP JUMPDEST PUSH1 0x40 MLOAD SWAP2 DUP3 SWAP2 PUSH1 0x20 DUP4 MSTORE PUSH1 0x20 DUP4 ADD SWAP1 PUSH2 0x497B JUMP JUMPDEST CALLVALUE PUSH2 0x370 JUMPI PUSH2 0x100 CALLDATASIZE PUSH1 0x3 NOT ADD SLT PUSH2 0x370 JUMPI PUSH1 0x4 CALLDATALOAD PUSH1 0x1 PUSH1 0x1 PUSH1 0x40 SHL SUB DUP2 GT PUSH2 0x370 JUMPI PUSH2 0x796 SWAP1 CALLDATASIZE SWAP1 PUSH1 0x4 ADD PUSH2 0x48C7 JUMP JUMPDEST PUSH1 0x24 CALLDATALOAD PUSH1 0x1 PUSH1 0x1 PUSH1 0x40 SHL SUB DUP2 GT PUSH2 0x370 JUMPI PUSH2 0x7B5 SWAP1 CALLDATASIZE SWAP1 PUSH1 0x4 ADD PUSH2 0x48C7 JUMP JUMPDEST PUSH1 0x64 CALLDATALOAD PUSH1 0x1 PUSH1 0x1 PUSH1 0x40 SHL SUB DUP2 GT PUSH2 0x370 JUMPI PUSH2 0x7D4 SWAP1 CALLDATASIZE SWAP1 PUSH1 0x4 ADD PUSH2 0x48C7 JUMP JUMPDEST SWAP1 PUSH1 0xA4 CALLDATALOAD PUSH1 0x1 PUSH1 0x1 PUSH1 0x40 SHL SUB DUP2 GT PUSH2 0x370 JUMPI PUSH2 0x7F4 SWAP1 CALLDATASIZE SWAP1 PUSH1 0x4 ADD PUSH2 0x48C7 JUMP JUMPDEST SWAP2 PUSH1 0xE4 CALLDATALOAD PUSH1 0x1 PUSH1 0x1 PUSH1 0x40 SHL SUB DUP2 GT PUSH2 0x370 JUMPI PUSH2 0x814 SWAP1 CALLDATASIZE SWAP1 PUSH1 0x4 ADD PUSH2 0x48C7 JUMP JUMPDEST PUSH1 0x84 CALLDATALOAD PUSH1 0x0 MSTORE PUSH1 0x3 PUSH1 0x20 MSTORE PUSH2 0x831 PUSH1 0xFF PUSH1 0x40 PUSH1 0x0 KECCAK256 SLOAD AND ISZERO PUSH2 0x4CFD JUMP JUMPDEST PUSH2 0x858 PUSH2 0x848 PUSH1 0x44 CALLDATALOAD PUSH2 0x843 CALLER PUSH2 0x506C JUMP JUMPDEST PUSH2 0x4D48 JUMP JUMPDEST PUSH2 0x851 CALLER PUSH2 0x4B00 JUMP JUMPDEST LT ISZERO PUSH2 0x4D6B JUMP JUMPDEST PUSH2 0x873 PUSH2 0x864 CALLER PUSH2 0x50F6 JUMP JUMPDEST PUSH2 0x86D CALLER PUSH2 0x4BBD JUMP JUMPDEST GT PUSH2 0x4DB0 JUMP JUMPDEST PUSH1 0x0 SLOAD SWAP4 PUSH1 0x40 MLOAD SWAP3 PUSH2 0x884 DUP5 PUSH2 0x4772 JUMP JUMPDEST DUP6 DUP5 MSTORE DUP7 PUSH1 0x20 DUP6 ADD MSTORE DUP5 PUSH1 0x40 DUP6 ADD MSTORE PUSH1 0x44 CALLDATALOAD PUSH1 0x60 DUP6 ADD MSTORE PUSH1 0x80 DUP5 ADD MSTORE CALLER PUSH1 0xA0 DUP5 ADD MSTORE TIMESTAMP PUSH1 0xC0 DUP5 ADD MSTORE PUSH1 0x84 CALLDATALOAD PUSH1 0xE0 DUP5 ADD MSTORE PUSH2 0x100 DUP4 ADD MSTORE PUSH1 0xC4 CALLDATALOAD PUSH2 0x120 DUP4 ADD MSTORE PUSH2 0x140 DUP3 ADD MSTORE PUSH1 0x1 PUSH1 0x40 SHL DUP4 LT ISZERO PUSH2 0xC6B JUMPI PUSH1 0x1 DUP4 ADD PUSH1 0x0 SSTORE PUSH2 0x8E5 DUP4 PUSH2 0x4DFC JUMP JUMPDEST SWAP2 SWAP1 SWAP2 PUSH2 0xFB7 JUMPI DUP1 MLOAD DUP3 SSTORE PUSH1 0x20 DUP2 ADD MLOAD DUP1 MLOAD SWAP1 PUSH1 0x1 PUSH1 0x1 PUSH1 0x40 SHL SUB DUP3 GT PUSH2 0xC6B JUMPI DUP2 SWAP1 PUSH2 0x915 PUSH1 0x1 DUP7 ADD SLOAD PUSH2 0x4A20 JUMP JUMPDEST PUSH1 0x1F DUP2 GT PUSH2 0xF64 JUMPI JUMPDEST POP PUSH1 0x20 SWAP1 PUSH1 0x1F DUP4 GT PUSH1 0x1 EQ PUSH2 0xEF2 JUMPI PUSH1 0x0 SWAP3 PUSH2 0xEE7 JUMPI JUMPDEST POP POP DUP2 PUSH1 0x1 SHL SWAP2 PUSH1 0x0 NOT SWAP1 PUSH1 0x3 SHL SHR NOT AND OR PUSH1 0x1 DUP4 ADD SSTORE JUMPDEST PUSH1 0x40 DUP2 ADD MLOAD DUP1 MLOAD SWAP1 PUSH1 0x1 PUSH1 0x1 PUSH1 0x40 SHL SUB DUP3 GT PUSH2 0xC6B JUMPI DUP2 SWAP1 PUSH2 0x972 PUSH1 0x2 DUP7 ADD SLOAD PUSH2 0x4A20 JUMP JUMPDEST PUSH1 0x1F DUP2 GT PUSH2 0xE94 JUMPI JUMPDEST POP PUSH1 0x20 SWAP1 PUSH1 0x1F DUP4 GT PUSH1 0x1 EQ PUSH2 0xE22 JUMPI PUSH1 0x0 SWAP3 PUSH2 0xE17 JUMPI JUMPDEST POP POP DUP2 PUSH1 0x1 SHL SWAP2 PUSH1 0x0 NOT SWAP1 PUSH1 0x3 SHL SHR NOT AND OR PUSH1 0x2 DUP4 ADD SSTORE JUMPDEST PUSH1 0x60 DUP2 ADD MLOAD PUSH1 0x3 DUP4 ADD SSTORE PUSH1 0x80 DUP2 ADD MLOAD DUP1 MLOAD SWAP1 PUSH1 0x1 PUSH1 0x1 PUSH1 0x40 SHL SUB DUP3 GT PUSH2 0xC6B JUMPI DUP2 SWAP1 PUSH2 0x9D9 PUSH1 0x4 DUP7 ADD SLOAD PUSH2 0x4A20 JUMP JUMPDEST PUSH1 0x1F DUP2 GT PUSH2 0xDC4 JUMPI JUMPDEST POP PUSH1 0x20 SWAP1 PUSH1 0x1F DUP4 GT PUSH1 0x1 EQ PUSH2 0xD52 JUMPI PUSH1 0x0 SWAP3 PUSH2 0xD47 JUMPI JUMPDEST POP POP DUP2 PUSH1 0x1 SHL SWAP2 PUSH1 0x0 NOT SWAP1 PUSH1 0x3 SHL SHR NOT AND OR PUSH1 0x4 DUP4 ADD SSTORE JUMPDEST PUSH1 0x5 DUP3 ADD PUSH1 0x1 DUP1 PUSH1 0xA0 SHL SUB PUSH1 0xA0 DUP4 ADD MLOAD AND PUSH1 0x1 PUSH1 0x1 PUSH1 0x60 SHL SUB PUSH1 0xA0 SHL DUP3 SLOAD AND OR SWAP1 SSTORE PUSH1 0xC0 DUP2 ADD MLOAD PUSH1 0x6 DUP4 ADD SSTORE PUSH1 0xE0 DUP2 ADD MLOAD PUSH1 0x7 DUP4 ADD SSTORE PUSH2 0x100 DUP2 ADD MLOAD DUP1 MLOAD SWAP1 PUSH1 0x1 PUSH1 0x1 PUSH1 0x40 SHL SUB DUP3 GT PUSH2 0xC6B JUMPI PUSH2 0xA6B PUSH1 0x8 DUP6 ADD SLOAD PUSH2 0x4A20 JUMP JUMPDEST PUSH1 0x1F DUP2 GT PUSH2 0xD00 JUMPI JUMPDEST POP PUSH1 0x20 SWAP1 PUSH1 0x1F DUP4 GT PUSH1 0x1 EQ PUSH2 0xC8C JUMPI PUSH2 0x140 SWAP4 SWAP3 SWAP2 PUSH1 0x0 SWAP2 DUP4 PUSH2 0xC81 JUMPI JUMPDEST POP POP DUP2 PUSH1 0x1 SHL SWAP2 PUSH1 0x0 NOT SWAP1 PUSH1 0x3 SHL SHR NOT AND OR PUSH1 0x8 DUP5 ADD SSTORE JUMPDEST PUSH2 0x120 DUP2 ADD MLOAD PUSH1 0x9 DUP5 ADD SSTORE ADD MLOAD DUP1 MLOAD SWAP1 PUSH1 0x1 PUSH1 0x1 PUSH1 0x40 SHL SUB DUP3 GT PUSH2 0xC6B JUMPI PUSH2 0xAD5 PUSH1 0xA DUP5 ADD SLOAD PUSH2 0x4A20 JUMP JUMPDEST PUSH1 0x1F DUP2 GT PUSH2 0xC20 JUMPI JUMPDEST POP SWAP2 PUSH1 0x20 SWAP6 SWAP2 DUP6 SWAP4 DUP8 SWAP1 PUSH1 0x1F DUP4 GT PUSH1 0x1 EQ PUSH2 0xB9D JUMPI DUP3 PUSH1 0x0 DUP1 MLOAD PUSH1 0x20 PUSH2 0x5586 DUP4 CODECOPY DUP2 MLOAD SWAP2 MSTORE SWAP6 SWAP4 PUSH2 0xB87 SWAP6 SWAP4 PUSH1 0xA SWAP4 PUSH1 0x0 SWAP3 PUSH2 0xB92 JUMPI JUMPDEST POP POP DUP2 PUSH1 0x1 SHL SWAP2 PUSH1 0x0 NOT SWAP1 PUSH1 0x3 SHL SHR NOT AND OR SWAP2 ADD SSTORE JUMPDEST DUP4 PUSH1 0x0 MSTORE PUSH1 0x2 DUP8 MSTORE PUSH1 0x40 PUSH1 0x0 KECCAK256 CALLER PUSH1 0x0 MSTORE DUP8 MSTORE PUSH1 0x40 PUSH1 0x0 KECCAK256 PUSH1 0xFF NOT SWAP1 PUSH1 0x1 DUP3 DUP3 SLOAD AND OR SWAP1 SSTORE PUSH1 0x84 CALLDATALOAD PUSH1 0x0 MSTORE PUSH1 0x3 DUP9 MSTORE PUSH1 0x1 PUSH1 0x40 PUSH1 0x0 KECCAK256 SWAP2 DUP3 SLOAD AND OR SWAP1 SSTORE PUSH2 0xB79 PUSH2 0xB73 PUSH2 0x4E4A JUMP JUMPDEST DUP6 PUSH2 0x4E96 JUMP JUMPDEST PUSH1 0x40 MLOAD SWAP2 DUP3 SWAP2 CALLER SWAP7 DUP4 PUSH2 0x4E6E JUMP JUMPDEST SUB SWAP1 LOG3 PUSH1 0x40 MLOAD SWAP1 DUP2 MSTORE RETURN JUMPDEST ADD MLOAD SWAP1 POP DUP12 DUP1 PUSH2 0xB15 JUMP JUMPDEST SWAP1 PUSH1 0x1F NOT DUP4 AND SWAP2 PUSH1 0xA DUP6 ADD PUSH1 0x0 MSTORE DUP10 PUSH1 0x0 KECCAK256 SWAP3 PUSH1 0x0 JUMPDEST DUP2 DUP2 LT PUSH2 0xC06 JUMPI POP SWAP4 PUSH2 0xB87 SWAP6 SWAP4 PUSH1 0xA SWAP4 PUSH1 0x1 SWAP4 DUP4 PUSH1 0x0 DUP1 MLOAD PUSH1 0x20 PUSH2 0x5586 DUP4 CODECOPY DUP2 MLOAD SWAP2 MSTORE SWAP11 SWAP9 LT PUSH2 0xBED JUMPI JUMPDEST POP POP POP DUP2 SHL ADD SWAP2 ADD SSTORE PUSH2 0xB2B JUMP JUMPDEST ADD MLOAD PUSH1 0x0 NOT PUSH1 0xF8 DUP5 PUSH1 0x3 SHL AND SHR NOT AND SWAP1 SSTORE DUP12 DUP1 DUP1 PUSH2 0xBDF JUMP JUMPDEST DUP3 DUP5 ADD MLOAD DUP6 SSTORE DUP11 SWAP9 POP PUSH1 0x1 SWAP1 SWAP5 ADD SWAP4 SWAP3 DUP12 ADD SWAP3 DUP12 ADD PUSH2 0xBB3 JUMP JUMPDEST PUSH1 0xA DUP5 ADD PUSH1 0x0 MSTORE PUSH1 0x20 PUSH1 0x0 KECCAK256 PUSH1 0x1F DUP5 ADD PUSH1 0x5 SHR DUP2 ADD SWAP2 PUSH1 0x20 DUP6 LT PUSH2 0xC61 JUMPI JUMPDEST PUSH1 0x1F ADD PUSH1 0x5 SHR ADD SWAP1 JUMPDEST DUP2 DUP2 LT PUSH2 0xC55 JUMPI POP PUSH2 0xADE JUMP JUMPDEST PUSH1 0x0 DUP2 SSTORE PUSH1 0x1 ADD PUSH2 0xC48 JUMP JUMPDEST SWAP1 SWAP2 POP DUP2 SWAP1 PUSH2 0xC3F JUMP JUMPDEST PUSH4 0x4E487B71 PUSH1 0xE0 SHL PUSH1 0x0 MSTORE PUSH1 0x41 PUSH1 0x4 MSTORE PUSH1 0x24 PUSH1 0x0 REVERT JUMPDEST ADD MLOAD SWAP1 POP DUP9 DUP1 PUSH2 0xA92 JUMP JUMPDEST SWAP1 PUSH1 0x8 DUP6 ADD PUSH1 0x0 MSTORE PUSH1 0x20 PUSH1 0x0 KECCAK256 SWAP2 PUSH1 0x0 JUMPDEST PUSH1 0x1F NOT DUP6 AND DUP2 LT PUSH2 0xCE8 JUMPI POP SWAP2 DUP4 SWAP2 PUSH1 0x1 SWAP4 PUSH2 0x140 SWAP7 SWAP6 PUSH1 0x1F NOT DUP2 AND LT PUSH2 0xCCF JUMPI JUMPDEST POP POP POP DUP2 SHL ADD PUSH1 0x8 DUP5 ADD SSTORE PUSH2 0xAAA JUMP JUMPDEST ADD MLOAD PUSH1 0x0 NOT PUSH1 0xF8 DUP5 PUSH1 0x3 SHL AND SHR NOT AND SWAP1 SSTORE DUP9 DUP1 DUP1 PUSH2 0xCBF JUMP JUMPDEST SWAP2 SWAP3 PUSH1 0x20 PUSH1 0x1 DUP2 SWAP3 DUP7 DUP6 ADD MLOAD DUP2 SSTORE ADD SWAP5 ADD SWAP3 ADD PUSH2 0xC9D JUMP JUMPDEST PUSH1 0x8 DUP6 ADD PUSH1 0x0 MSTORE PUSH1 0x20 PUSH1 0x0 KECCAK256 PUSH1 0x1F DUP5 ADD PUSH1 0x5 SHR DUP2 ADD PUSH1 0x20 DUP6 LT PUSH2 0xD40 JUMPI JUMPDEST PUSH1 0x1F DUP4 ADD PUSH1 0x5 SHR DUP3 ADD DUP2 LT PUSH2 0xD34 JUMPI POP POP PUSH2 0xA74 JUMP JUMPDEST PUSH1 0x0 DUP2 SSTORE PUSH1 0x1 ADD PUSH2 0xD1E JUMP JUMPDEST POP DUP1 PUSH2 0xD1E JUMP JUMPDEST ADD MLOAD SWAP1 POP DUP8 DUP1 PUSH2 0x9F9 JUMP JUMPDEST SWAP3 POP PUSH1 0x4 DUP6 ADD PUSH1 0x0 MSTORE PUSH1 0x20 PUSH1 0x0 KECCAK256 SWAP1 PUSH1 0x0 SWAP4 JUMPDEST PUSH1 0x1F NOT DUP5 AND DUP6 LT PUSH2 0xDA9 JUMPI PUSH1 0x1 SWAP5 POP DUP4 PUSH1 0x1F NOT DUP2 AND LT PUSH2 0xD90 JUMPI JUMPDEST POP POP POP DUP2 SHL ADD PUSH1 0x4 DUP4 ADD SSTORE PUSH2 0xA11 JUMP JUMPDEST ADD MLOAD PUSH1 0x0 NOT PUSH1 0xF8 DUP5 PUSH1 0x3 SHL AND SHR NOT AND SWAP1 SSTORE DUP8 DUP1 DUP1 PUSH2 0xD80 JUMP JUMPDEST DUP2 DUP2 ADD MLOAD DUP4 SSTORE PUSH1 0x20 SWAP5 DUP6 ADD SWAP5 PUSH1 0x1 SWAP1 SWAP4 ADD SWAP3 SWAP1 SWAP2 ADD SWAP1 PUSH2 0xD65 JUMP JUMPDEST SWAP1 SWAP2 POP PUSH1 0x4 DUP6 ADD PUSH1 0x0 MSTORE PUSH1 0x20 PUSH1 0x0 KECCAK256 PUSH1 0x1F DUP5 ADD PUSH1 0x5 SHR DUP2 ADD PUSH1 0x20 DUP6 LT PUSH2 0xE10 JUMPI JUMPDEST SWAP1 DUP5 SWAP4 SWAP3 SWAP2 JUMPDEST PUSH1 0x1F DUP4 ADD PUSH1 0x5 SHR DUP3 ADD DUP2 LT PUSH2 0xE01 JUMPI POP POP PUSH2 0x9E2 JUMP JUMPDEST PUSH1 0x0 DUP2 SSTORE DUP6 SWAP5 POP PUSH1 0x1 ADD PUSH2 0xDEB JUMP JUMPDEST POP DUP1 PUSH2 0xDE5 JUMP JUMPDEST ADD MLOAD SWAP1 POP DUP8 DUP1 PUSH2 0x992 JUMP JUMPDEST SWAP3 POP PUSH1 0x2 DUP6 ADD PUSH1 0x0 MSTORE PUSH1 0x20 PUSH1 0x0 KECCAK256 SWAP1 PUSH1 0x0 SWAP4 JUMPDEST PUSH1 0x1F NOT DUP5 AND DUP6 LT PUSH2 0xE79 JUMPI PUSH1 0x1 SWAP5 POP DUP4 PUSH1 0x1F NOT DUP2 AND LT PUSH2 0xE60 JUMPI JUMPDEST POP POP POP DUP2 SHL ADD PUSH1 0x2 DUP4 ADD SSTORE PUSH2 0x9AA JUMP JUMPDEST ADD MLOAD PUSH1 0x0 NOT PUSH1 0xF8 DUP5 PUSH1 0x3 SHL AND SHR NOT AND SWAP1 SSTORE DUP8 DUP1 DUP1 PUSH2 0xE50 JUMP JUMPDEST DUP2 DUP2 ADD MLOAD DUP4 SSTORE PUSH1 0x20 SWAP5 DUP6 ADD SWAP5 PUSH1 0x1 SWAP1 SWAP4 ADD SWAP3 SWAP1 SWAP2 ADD SWAP1 PUSH2 0xE35 JUMP JUMPDEST SWAP1 SWAP2 POP PUSH1 0x2 DUP6 ADD PUSH1 0x0 MSTORE PUSH1 0x20 PUSH1 0x0 KECCAK256 PUSH1 0x1F DUP5 ADD PUSH1 0x5 SHR DUP2 ADD PUSH1 0x20 DUP6 LT PUSH2 0xEE0 JUMPI JUMPDEST SWAP1 DUP5 SWAP4 SWAP3 SWAP2 JUMPDEST PUSH1 0x1F DUP4 ADD PUSH1 0x5 SHR DUP3 ADD DUP2 LT PUSH2 0xED1 JUMPI POP POP PUSH2 0x97B JUMP JUMPDEST PUSH1 0x0 DUP2 SSTORE DUP6 SWAP5 POP PUSH1 0x1 ADD PUSH2 0xEBB JUMP JUMPDEST POP DUP1 PUSH2 0xEB5 JUMP JUMPDEST ADD MLOAD SWAP1 POP DUP8 DUP1 PUSH2 0x935 JUMP JUMPDEST SWAP3 POP PUSH1 0x1 DUP6 ADD PUSH1 0x0 MSTORE PUSH1 0x20 PUSH1 0x0 KECCAK256 SWAP1 PUSH1 0x0 SWAP4 JUMPDEST PUSH1 0x1F NOT DUP5 AND DUP6 LT PUSH2 0xF49 JUMPI PUSH1 0x1 SWAP5 POP DUP4 PUSH1 0x1F NOT DUP2 AND LT PUSH2 0xF30 JUMPI JUMPDEST POP POP POP DUP2 SHL ADD PUSH1 0x1 DUP4 ADD SSTORE PUSH2 0x94D JUMP JUMPDEST ADD MLOAD PUSH1 0x0 NOT PUSH1 0xF8 DUP5 PUSH1 0x3 SHL AND SHR NOT AND SWAP1 SSTORE DUP8 DUP1 DUP1 PUSH2 0xF20 JUMP JUMPDEST DUP2 DUP2 ADD MLOAD DUP4 SSTORE PUSH1 0x20 SWAP5 DUP6 ADD SWAP5 PUSH1 0x1 SWAP1 SWAP4 ADD SWAP3 SWAP1 SWAP2 ADD SWAP1 PUSH2 0xF05 JUMP JUMPDEST SWAP1 SWAP2 POP PUSH1 0x1 DUP6 ADD PUSH1 0x0 MSTORE PUSH1 0x20 PUSH1 0x0 KECCAK256 PUSH1 0x1F DUP5 ADD PUSH1 0x5 SHR DUP2 ADD PUSH1 0x20 DUP6 LT PUSH2 0xFB0 JUMPI JUMPDEST SWAP1 DUP5 SWAP4 SWAP3 SWAP2 JUMPDEST PUSH1 0x1F DUP4 ADD PUSH1 0x5 SHR DUP3 ADD DUP2 LT PUSH2 0xFA1 JUMPI POP POP PUSH2 0x91E JUMP JUMPDEST PUSH1 0x0 DUP2 SSTORE DUP6 SWAP5 POP PUSH1 0x1 ADD PUSH2 0xF8B JUMP JUMPDEST POP DUP1 PUSH2 0xF85 JUMP JUMPDEST PUSH4 0x4E487B71 PUSH1 0xE0 SHL PUSH1 0x0 MSTORE PUSH1 0x0 PUSH1 0x4 MSTORE PUSH1 0x24 PUSH1 0x0 REVERT JUMPDEST CALLVALUE PUSH2 0x370 JUMPI PUSH1 0x60 CALLDATASIZE PUSH1 0x3 NOT ADD SLT PUSH2 0x370 JUMPI PUSH1 0x4 CALLDATALOAD PUSH1 0x1 PUSH1 0x1 PUSH1 0x40 SHL SUB DUP2 GT PUSH2 0x370 JUMPI PUSH2 0xFFD SWAP1 CALLDATASIZE SWAP1 PUSH1 0x4 ADD PUSH2 0x47FC JUMP JUMPDEST PUSH1 0x24 CALLDATALOAD PUSH1 0x1 PUSH1 0x1 PUSH1 0x40 SHL SUB DUP2 GT PUSH2 0x370 JUMPI PUSH2 0x101C SWAP1 CALLDATASIZE SWAP1 PUSH1 0x4 ADD PUSH2 0x49A0 JUMP JUMPDEST SWAP1 PUSH1 0x44 CALLDATALOAD PUSH1 0x1 PUSH1 0x1 PUSH1 0x40 SHL SUB DUP2 GT PUSH2 0x370 JUMPI PUSH2 0x103C SWAP1 CALLDATASIZE SWAP1 PUSH1 0x4 ADD PUSH2 0x49A0 JUMP JUMPDEST DUP2 MLOAD DUP4 MLOAD DUP2 EQ SWAP1 DUP2 PUSH2 0x138E JUMPI JUMPDEST POP ISZERO PUSH2 0x1355 JUMPI SWAP2 SWAP1 PUSH1 0x0 SWAP3 JUMPDEST DUP2 MLOAD DUP5 LT ISZERO PUSH2 0x1353 JUMPI PUSH2 0x1068 DUP5 DUP4 PUSH2 0x51AE JUMP JUMPDEST MLOAD SWAP4 PUSH2 0x1077 PUSH1 0x0 SLOAD DUP7 LT PUSH2 0x520A JUMP JUMPDEST PUSH2 0x1080 DUP6 PUSH2 0x4DFC JUMP JUMPDEST POP PUSH1 0x5 DUP2 ADD SLOAD SWAP1 SWAP6 SWAP1 PUSH2 0x109D SWAP1 PUSH1 0x1 PUSH1 0x1 PUSH1 0xA0 SHL SUB AND CALLER EQ PUSH2 0x4CC5 JUMP JUMPDEST PUSH2 0x10A7 DUP3 DUP7 PUSH2 0x51AE JUMP JUMPDEST MLOAD DUP1 MLOAD SWAP1 PUSH1 0x1 PUSH1 0x1 PUSH1 0x40 SHL SUB DUP3 GT PUSH2 0xC6B JUMPI DUP2 SWAP1 PUSH2 0x10C8 PUSH1 0xA DUP11 ADD SLOAD PUSH2 0x4A20 JUMP JUMPDEST PUSH1 0x1F DUP2 GT PUSH2 0x1301 JUMPI JUMPDEST POP PUSH1 0x20 SWAP1 PUSH1 0x1F DUP4 GT PUSH1 0x1 EQ PUSH2 0x1294 JUMPI PUSH1 0x0 SWAP3 PUSH2 0x1289 JUMPI JUMPDEST POP POP DUP2 PUSH1 0x1 SHL SWAP2 PUSH1 0x0 NOT SWAP1 PUSH1 0x3 SHL SHR NOT AND OR PUSH1 0xA DUP8 ADD SSTORE JUMPDEST PUSH2 0x110A DUP3 DUP5 PUSH2 0x51AE JUMP JUMPDEST MLOAD SWAP6 DUP7 MLOAD SWAP1 PUSH1 0x1 PUSH1 0x1 PUSH1 0x40 SHL SUB DUP3 GT PUSH2 0xC6B JUMPI PUSH1 0x8 ADD SWAP1 PUSH2 0x112B DUP3 SLOAD PUSH2 0x4A20 JUMP JUMPDEST PUSH1 0x1F DUP2 GT PUSH2 0x1241 JUMPI JUMPDEST POP PUSH1 0x20 SWAP8 PUSH1 0x1F DUP3 GT PUSH1 0x1 EQ PUSH2 0x11D8 JUMPI PUSH2 0x11C5 SWAP6 SWAP7 SWAP8 SWAP9 DUP3 SWAP2 PUSH1 0x0 SWAP3 PUSH2 0x11CD JUMPI JUMPDEST POP POP DUP2 PUSH1 0x1 SHL SWAP2 PUSH1 0x0 NOT SWAP1 PUSH1 0x3 SHL SHR NOT AND OR SWAP1 SSTORE JUMPDEST PUSH2 0x1174 PUSH2 0x30B PUSH2 0x5359 JUMP JUMPDEST PUSH2 0x117E DUP3 DUP8 PUSH2 0x51AE JUMP JUMPDEST MLOAD SWAP1 PUSH32 0xC2BC3A7D017286181855F3A27BB3A2823F889FEA0BDF1195CB931D703C9085B0 PUSH2 0x11BD PUSH2 0x11AE DUP6 DUP9 PUSH2 0x51AE JUMP JUMPDEST MLOAD PUSH1 0x40 MLOAD SWAP2 DUP3 SWAP2 CALLER SWAP7 DUP4 PUSH2 0x4E6E JUMP JUMPDEST SUB SWAP1 LOG3 PUSH2 0x505D JUMP JUMPDEST SWAP3 SWAP2 SWAP1 PUSH2 0x1055 JUMP JUMPDEST ADD MLOAD SWAP1 POP DUP10 DUP1 PUSH2 0x1154 JUMP JUMPDEST PUSH1 0x1F NOT DUP3 AND SWAP9 DUP4 PUSH1 0x0 MSTORE DUP1 PUSH1 0x0 KECCAK256 SWAP2 PUSH1 0x0 JUMPDEST DUP12 DUP2 LT PUSH2 0x1229 JUMPI POP DUP4 PUSH2 0x11C5 SWAP9 SWAP10 SWAP11 SWAP12 LT PUSH2 0x1210 JUMPI JUMPDEST POP POP POP PUSH1 0x1 SWAP1 DUP2 SHL ADD SWAP1 SSTORE PUSH2 0x1169 JUMP JUMPDEST ADD MLOAD PUSH1 0x0 NOT PUSH1 0xF8 DUP5 PUSH1 0x3 SHL AND SHR NOT AND SWAP1 SSTORE DUP9 DUP1 DUP1 PUSH2 0x1200 JUMP JUMPDEST SWAP2 SWAP3 PUSH1 0x20 PUSH1 0x1 DUP2 SWAP3 DUP7 DUP6 ADD MLOAD DUP2 SSTORE ADD SWAP5 ADD SWAP3 ADD PUSH2 0x11EA JUMP JUMPDEST DUP3 PUSH1 0x0 MSTORE PUSH1 0x20 PUSH1 0x0 KECCAK256 PUSH1 0x1F DUP4 ADD PUSH1 0x5 SHR DUP2 ADD SWAP2 PUSH1 0x20 DUP5 LT PUSH2 0x127F JUMPI JUMPDEST PUSH1 0x1F ADD PUSH1 0x5 SHR ADD SWAP1 JUMPDEST DUP2 DUP2 LT PUSH2 0x1273 JUMPI POP PUSH2 0x1134 JUMP JUMPDEST PUSH1 0x0 DUP2 SSTORE PUSH1 0x1 ADD PUSH2 0x1266 JUMP JUMPDEST SWAP1 SWAP2 POP DUP2 SWAP1 PUSH2 0x125D JUMP JUMPDEST ADD MLOAD SWAP1 POP DUP9 DUP1 PUSH2 0x10E8 JUMP JUMPDEST SWAP2 POP PUSH1 0x1F NOT DUP4 AND SWAP2 PUSH1 0xA DUP11 ADD PUSH1 0x0 MSTORE DUP4 DUP3 PUSH1 0x0 KECCAK256 SWAP4 PUSH1 0x0 JUMPDEST DUP2 DUP2 LT PUSH2 0x12E6 JUMPI POP LT PUSH2 0x12CD JUMPI JUMPDEST POP POP POP PUSH1 0x1 SWAP1 DUP2 SHL ADD PUSH1 0xA DUP8 ADD SSTORE PUSH2 0x1100 JUMP JUMPDEST ADD MLOAD PUSH1 0x0 NOT PUSH1 0xF8 DUP5 PUSH1 0x3 SHL AND SHR NOT AND SWAP1 SSTORE DUP8 DUP1 DUP1 PUSH2 0x12BA JUMP JUMPDEST DUP4 DUP6 ADD MLOAD DUP7 SSTORE PUSH1 0x1 SWAP1 SWAP6 ADD SWAP5 PUSH1 0x20 SWAP5 DUP6 ADD SWAP5 DUP8 SWAP4 POP ADD PUSH2 0x12AC JUMP JUMPDEST SWAP1 SWAP2 POP PUSH1 0xA DUP10 ADD PUSH1 0x0 MSTORE PUSH1 0x20 DUP1 PUSH1 0x0 KECCAK256 SWAP1 PUSH1 0x1F DUP6 ADD PUSH1 0x5 SHR DUP3 ADD SWAP1 DUP6 LT PUSH2 0x134C JUMPI JUMPDEST SWAP1 PUSH1 0x1F DUP6 SWAP5 SWAP4 ADD PUSH1 0x5 SHR ADD SWAP1 JUMPDEST DUP2 DUP2 LT PUSH2 0x133D JUMPI POP PUSH2 0x10D1 JUMP JUMPDEST PUSH1 0x0 DUP2 SSTORE DUP5 SWAP4 POP PUSH1 0x1 ADD PUSH2 0x1330 JUMP JUMPDEST POP DUP1 PUSH2 0x1323 JUMP JUMPDEST STOP JUMPDEST PUSH1 0x40 MLOAD PUSH3 0x461BCD PUSH1 0xE5 SHL DUP2 MSTORE PUSH1 0x20 PUSH1 0x4 DUP3 ADD MSTORE PUSH1 0x11 PUSH1 0x24 DUP3 ADD MSTORE PUSH17 0x4D69736D61746368656420617272617973 PUSH1 0x78 SHL PUSH1 0x44 DUP3 ADD MSTORE PUSH1 0x64 SWAP1 REVERT JUMPDEST SWAP1 POP DUP2 MLOAD EQ DUP5 PUSH2 0x1049 JUMP JUMPDEST CALLVALUE PUSH2 0x370 JUMPI PUSH1 0x0 CALLDATASIZE PUSH1 0x3 NOT ADD SLT PUSH2 0x370 JUMPI PUSH1 0x20 PUSH1 0x40 MLOAD PUSH1 0xFA DUP2 MSTORE RETURN JUMPDEST CALLVALUE PUSH2 0x370 JUMPI PUSH1 0x40 CALLDATASIZE PUSH1 0x3 NOT ADD SLT PUSH2 0x370 JUMPI PUSH1 0x4 CALLDATALOAD PUSH2 0x13D1 PUSH2 0x4870 JUMP JUMPDEST SWAP1 PUSH2 0x13DF PUSH1 0x0 SLOAD DUP3 LT PUSH2 0x520A JUMP JUMPDEST PUSH1 0x5 PUSH2 0x1406 PUSH2 0x13ED DUP4 PUSH2 0x4DFC JUMP JUMPDEST POP SWAP1 SWAP2 ADD SLOAD PUSH1 0x1 PUSH1 0x1 PUSH1 0xA0 SHL SUB SWAP2 SWAP1 CALLER SWAP1 DUP4 AND EQ PUSH2 0x4CC5 JUMP JUMPDEST DUP2 PUSH1 0x0 MSTORE PUSH1 0x2 PUSH1 0x20 MSTORE PUSH1 0x40 PUSH1 0x0 KECCAK256 SWAP3 AND SWAP2 DUP3 PUSH1 0x0 MSTORE PUSH1 0x20 MSTORE PUSH1 0x40 PUSH1 0x0 KECCAK256 PUSH1 0xFF NOT DUP2 SLOAD AND SWAP1 SSTORE PUSH2 0x1436 PUSH2 0x30B PUSH2 0x53FF JUMP JUMPDEST PUSH32 0x125883B94692BAEBECAD9F111ED97FFA626523BBBADC6B0EF85EE1B56B9E52D5 PUSH1 0x0 DUP1 LOG3 STOP JUMPDEST CALLVALUE PUSH2 0x370 JUMPI PUSH1 0x20 CALLDATASIZE PUSH1 0x3 NOT ADD SLT PUSH2 0x370 JUMPI PUSH1 0x20 PUSH2 0x1480 PUSH2 0x147B PUSH2 0x485A JUMP JUMPDEST PUSH2 0x4BBD JUMP JUMPDEST PUSH1 0x40 MLOAD SWAP1 DUP2 MSTORE RETURN JUMPDEST CALLVALUE PUSH2 0x370 JUMPI PUSH1 0x20 CALLDATASIZE PUSH1 0x3 NOT ADD SLT PUSH2 0x370 JUMPI PUSH1 0x4 CALLDATALOAD PUSH1 0x1 PUSH1 0x1 PUSH1 0x40 SHL SUB DUP2 GT PUSH2 0x370 JUMPI PUSH2 0x14B8 SWAP1 CALLDATASIZE SWAP1 PUSH1 0x4 ADD PUSH2 0x47FC JUMP JUMPDEST PUSH1 0x0 JUMPDEST DUP2 MLOAD DUP2 LT ISZERO PUSH2 0x1353 JUMPI DUP1 PUSH2 0x14D2 PUSH2 0x1516 SWAP3 DUP5 PUSH2 0x51AE JUMP JUMPDEST MLOAD PUSH2 0x14E0 PUSH1 0x0 SLOAD DUP3 LT PUSH2 0x520A JUMP JUMPDEST PUSH1 0x5 PUSH2 0x14EB DUP3 PUSH2 0x4DFC JUMP JUMPDEST POP ADD DUP1 SLOAD PUSH1 0x1 PUSH1 0x1 PUSH1 0xA0 SHL SUB DUP2 AND SWAP3 SWAP2 SWAP1 PUSH2 0x1507 CALLER DUP6 EQ PUSH2 0x4CC5 JUMP JUMPDEST DUP4 PUSH2 0x151B JUMPI JUMPDEST POP POP POP POP PUSH2 0x505D JUMP JUMPDEST PUSH2 0x14BB JUMP JUMPDEST PUSH1 0x1 PUSH1 0x1 PUSH1 0xA0 SHL SUB NOT AND SWAP1 SSTORE PUSH2 0x1532 PUSH2 0x30B PUSH2 0x52C5 JUMP JUMPDEST PUSH32 0x9B5BAEEC63969A252D5D743784891DBA3A017078113856378A7098A689360954 PUSH1 0x0 DUP1 LOG3 DUP4 DUP1 DUP1 DUP1 PUSH2 0x150D JUMP JUMPDEST CALLVALUE PUSH2 0x370 JUMPI PUSH1 0x40 CALLDATASIZE PUSH1 0x3 NOT ADD SLT PUSH2 0x370 JUMPI PUSH1 0x20 PUSH2 0x1586 PUSH2 0x157E PUSH2 0x4870 JUMP JUMPDEST PUSH1 0x4 CALLDATALOAD PUSH2 0x5243 JUMP JUMPDEST PUSH1 0x40 MLOAD SWAP1 ISZERO ISZERO DUP2 MSTORE RETURN JUMPDEST CALLVALUE PUSH2 0x370 JUMPI PUSH1 0x0 CALLDATASIZE PUSH1 0x3 NOT ADD SLT PUSH2 0x370 JUMPI PUSH1 0x7 SLOAD PUSH1 0x40 MLOAD PUSH1 0x1 PUSH1 0x1 PUSH1 0xA0 SHL SUB SWAP1 SWAP2 AND DUP2 MSTORE PUSH1 0x20 SWAP1 RETURN JUMPDEST CALLVALUE PUSH2 0x370 JUMPI PUSH1 0x20 DUP1 PUSH1 0x3 NOT CALLDATASIZE ADD SLT PUSH2 0x370 JUMPI PUSH1 0x4 CALLDATALOAD PUSH1 0x0 MSTORE PUSH1 0x1 SWAP1 DUP2 DUP2 MSTORE PUSH1 0x40 PUSH1 0x0 KECCAK256 DUP1 SLOAD SWAP2 PUSH2 0x15E8 DUP4 PUSH2 0x47E5 JUMP JUMPDEST SWAP3 PUSH2 0x15F6 PUSH1 0x40 MLOAD SWAP5 DUP6 PUSH2 0x47C4 JUMP JUMPDEST DUP1 DUP5 MSTORE DUP2 DUP5 ADD DUP1 SWAP4 PUSH1 0x0 MSTORE DUP3 PUSH1 0x0 KECCAK256 PUSH1 0x0 SWAP2 JUMPDEST DUP4 DUP4 LT PUSH2 0x169B JUMPI POP POP POP POP PUSH1 0x40 MLOAD SWAP4 DUP5 SWAP4 DUP3 DUP6 ADD SWAP1 DUP4 DUP7 MSTORE MLOAD DUP1 SWAP2 MSTORE PUSH1 0x40 DUP6 ADD SWAP3 PUSH1 0x40 DUP3 PUSH1 0x5 SHL DUP8 ADD ADD SWAP5 SWAP4 PUSH1 0x0 SWAP1 JUMPDEST DUP4 DUP3 LT PUSH2 0x1646 JUMPI DUP8 DUP8 SUB DUP9 RETURN JUMPDEST SWAP2 DUP5 SWAP7 DUP2 SWAP6 SWAP3 SWAP5 SWAP7 SWAP9 POP DUP2 SWAP1 PUSH1 0x3F NOT DUP12 DUP3 SUB ADD DUP6 MSTORE DUP10 MLOAD SWAP1 PUSH1 0x1 DUP1 PUSH1 0xA0 SHL SUB DUP3 MLOAD AND DUP2 MSTORE PUSH1 0x40 DUP1 PUSH2 0x1683 DUP6 DUP6 ADD MLOAD PUSH1 0x60 DUP1 DUP9 DUP8 ADD MSTORE DUP6 ADD SWAP1 PUSH2 0x497B JUMP JUMPDEST SWAP4 ADD MLOAD SWAP2 ADD MSTORE SWAP9 ADD SWAP3 ADD SWAP3 ADD DUP8 SWAP7 SWAP6 SWAP4 SWAP2 SWAP5 SWAP3 PUSH2 0x1639 JUMP JUMPDEST SWAP7 PUSH1 0x3 DUP6 DUP3 SWAP8 SWAP9 SWAP7 SWAP10 PUSH1 0x40 MLOAD PUSH2 0x16B0 DUP2 PUSH2 0x478E JUMP JUMPDEST DUP6 SLOAD PUSH1 0x1 PUSH1 0x1 PUSH1 0xA0 SHL SUB AND DUP2 MSTORE PUSH2 0x16C8 DUP6 DUP8 ADD PUSH2 0x4A5A JUMP JUMPDEST DUP4 DUP3 ADD MSTORE PUSH1 0x2 DUP7 ADD SLOAD PUSH1 0x40 DUP3 ADD MSTORE DUP2 MSTORE ADD SWAP3 ADD SWAP3 ADD SWAP2 SWAP1 SWAP7 SWAP4 SWAP6 SWAP5 SWAP7 PUSH2 0x1609 JUMP JUMPDEST CALLVALUE PUSH2 0x370 JUMPI PUSH1 0x20 DUP1 PUSH1 0x3 NOT CALLDATASIZE ADD SLT PUSH2 0x370 JUMPI PUSH1 0x4 CALLDATALOAD PUSH1 0x1 PUSH1 0x1 PUSH1 0x40 SHL SUB DUP2 GT PUSH2 0x370 JUMPI PUSH2 0x171A SWAP1 CALLDATASIZE SWAP1 PUSH1 0x4 ADD PUSH2 0x47FC JUMP JUMPDEST SWAP1 PUSH1 0x0 JUMPDEST DUP3 MLOAD DUP2 LT ISZERO PUSH2 0x1353 JUMPI DUP1 PUSH2 0x1735 PUSH2 0x1782 SWAP3 DUP6 PUSH2 0x51AE JUMP JUMPDEST MLOAD PUSH2 0x1743 PUSH1 0x0 SLOAD DUP3 LT PUSH2 0x520A JUMP JUMPDEST PUSH2 0x174C DUP2 PUSH2 0x4DFC JUMP JUMPDEST POP PUSH1 0x5 SWAP1 DUP2 ADD SLOAD PUSH2 0x1767 SWAP1 PUSH1 0x1 PUSH1 0x1 PUSH1 0xA0 SHL SUB AND CALLER EQ PUSH2 0x4CC5 JUMP JUMPDEST DUP2 PUSH1 0x0 MSTORE DUP5 MSTORE PUSH1 0xFF PUSH1 0x40 PUSH1 0x0 KECCAK256 SLOAD AND ISZERO PUSH2 0x1787 JUMPI JUMPDEST POP PUSH2 0x505D JUMP JUMPDEST PUSH2 0x171E JUMP JUMPDEST PUSH1 0x40 PUSH1 0x0 KECCAK256 DUP1 SLOAD PUSH1 0xFF NOT AND PUSH1 0x1 OR SWAP1 SSTORE PUSH2 0x17A2 PUSH2 0x30B PUSH2 0x52A2 JUMP JUMPDEST CALLER SWAP1 PUSH32 0x5F486113EB2F75A0E6BE2583F63FB0C468A5B5A3511DECE64911A4124DE2179D PUSH1 0x0 DUP1 LOG3 DUP5 PUSH2 0x177C JUMP JUMPDEST CALLVALUE PUSH2 0x370 JUMPI PUSH1 0x20 CALLDATASIZE PUSH1 0x3 NOT ADD SLT PUSH2 0x370 JUMPI PUSH1 0x4 CALLDATALOAD PUSH1 0x0 MSTORE PUSH1 0x3 PUSH1 0x20 MSTORE PUSH1 0x20 PUSH1 0xFF PUSH1 0x40 PUSH1 0x0 KECCAK256 SLOAD AND PUSH1 0x40 MLOAD SWAP1 ISZERO ISZERO DUP2 MSTORE RETURN JUMPDEST CALLVALUE PUSH2 0x370 JUMPI PUSH1 0x20 CALLDATASIZE PUSH1 0x3 NOT ADD SLT PUSH2 0x370 JUMPI PUSH1 0x1 PUSH1 0x1 PUSH1 0xA0 SHL SUB PUSH2 0x1821 PUSH2 0x485A JUMP JUMPDEST AND PUSH1 0x0 MSTORE PUSH1 0xA PUSH1 0x20 MSTORE PUSH1 0x20 PUSH1 0xFF PUSH1 0x40 PUSH1 0x0 KECCAK256 SLOAD AND PUSH1 0x40 MLOAD SWAP1 DUP2 MSTORE RETURN JUMPDEST PUSH1 0x40 CALLDATASIZE PUSH1 0x3 NOT ADD SLT PUSH2 0x370 JUMPI PUSH1 0x4 CALLDATALOAD PUSH1 0xFF DUP2 AND DUP1 SWAP2 SUB PUSH2 0x370 JUMPI PUSH1 0x24 DUP1 CALLDATALOAD PUSH1 0x1 DUP4 LT ISZERO DUP1 PUSH2 0x1A99 JUMPI JUMPDEST ISZERO PUSH2 0x1A66 JUMPI PUSH1 0x1 DUP4 SUB PUSH2 0x1917 JUMPI POP PUSH1 0xC SLOAD CALLVALUE LT PUSH2 0x18D3 JUMPI POP JUMPDEST CALLER PUSH1 0x0 MSTORE PUSH1 0xA PUSH1 0x20 MSTORE PUSH1 0x40 PUSH1 0x0 KECCAK256 DUP2 PUSH1 0xFF NOT DUP3 SLOAD AND OR SWAP1 SSTORE PUSH2 0x18A0 CALLER PUSH2 0x4B00 JUMP JUMPDEST PUSH1 0x40 MLOAD SWAP2 DUP3 MSTORE PUSH1 0x20 DUP3 ADD MSTORE PUSH32 0x35C12210DBF494AD04CCDB21600A9BAD9F1B3C73E2B6C3C4F47E93211EC1B0B1 PUSH1 0x40 CALLER SWAP3 LOG2 STOP JUMPDEST PUSH1 0x64 SWAP1 PUSH1 0x1C PUSH1 0x40 MLOAD SWAP2 PUSH3 0x461BCD PUSH1 0xE5 SHL DUP4 MSTORE PUSH1 0x20 PUSH1 0x4 DUP5 ADD MSTORE DUP3 ADD MSTORE PUSH32 0x496E73756666696369656E742045544820666F72205072656D69756D00000000 PUSH1 0x44 DUP3 ADD MSTORE REVERT JUMPDEST PUSH1 0x2 DUP4 SUB PUSH2 0x1973 JUMPI POP PUSH1 0xD SLOAD CALLVALUE LT PUSH2 0x192F JUMPI POP PUSH2 0x187F JUMP JUMPDEST PUSH1 0x64 SWAP1 PUSH1 0x18 PUSH1 0x40 MLOAD SWAP2 PUSH3 0x461BCD PUSH1 0xE5 SHL DUP4 MSTORE PUSH1 0x20 PUSH1 0x4 DUP5 ADD MSTORE DUP3 ADD MSTORE PUSH32 0x496E73756666696369656E742045544820666F722050726F0000000000000000 PUSH1 0x44 DUP3 ADD MSTORE REVERT JUMPDEST SWAP1 PUSH1 0x3 DUP4 EQ PUSH2 0x1984 JUMPI JUMPDEST POP POP PUSH2 0x187F JUMP JUMPDEST PUSH1 0x1 DUP3 LT PUSH2 0x1A16 JUMPI PUSH1 0xE SLOAD DUP3 DUP2 MUL SWAP1 DUP1 DUP3 DIV DUP5 EQ SWAP1 ISZERO OR ISZERO PUSH2 0x1A01 JUMPI CALLVALUE LT PUSH2 0x19BD JUMPI POP CALLER PUSH1 0x0 MSTORE PUSH1 0xB PUSH1 0x20 MSTORE PUSH1 0x40 PUSH1 0x0 KECCAK256 SSTORE DUP2 DUP1 PUSH2 0x197D JUMP JUMPDEST PUSH1 0x64 SWAP1 PUSH1 0x19 PUSH1 0x40 MLOAD SWAP2 PUSH3 0x461BCD PUSH1 0xE5 SHL DUP4 MSTORE PUSH1 0x20 PUSH1 0x4 DUP5 ADD MSTORE DUP3 ADD MSTORE PUSH32 0x496E73756666696369656E742045544820666F722050726F2B00000000000000 PUSH1 0x44 DUP3 ADD MSTORE REVERT JUMPDEST POP PUSH4 0x4E487B71 PUSH1 0xE0 SHL PUSH1 0x0 SWAP1 DUP2 MSTORE PUSH1 0x11 PUSH1 0x4 MSTORE REVERT JUMPDEST PUSH1 0x84 SWAP1 PUSH1 0x23 PUSH1 0x40 MLOAD SWAP2 PUSH3 0x461BCD PUSH1 0xE5 SHL DUP4 MSTORE PUSH1 0x20 PUSH1 0x4 DUP5 ADD MSTORE DUP3 ADD MSTORE PUSH32 0x4D7573742072657175657374206174206C65617374203120474220666F722050 PUSH1 0x44 DUP3 ADD MSTORE PUSH3 0x726F2B PUSH1 0xE8 SHL PUSH1 0x64 DUP3 ADD MSTORE REVERT JUMPDEST PUSH1 0x40 MLOAD PUSH3 0x461BCD PUSH1 0xE5 SHL DUP2 MSTORE PUSH1 0x20 PUSH1 0x4 DUP3 ADD MSTORE PUSH1 0xC DUP2 DUP5 ADD MSTORE PUSH12 0x24B73B30B634B2103A34B2B9 PUSH1 0xA1 SHL PUSH1 0x44 DUP3 ADD MSTORE PUSH1 0x64 SWAP1 REVERT JUMPDEST POP PUSH1 0x3 DUP4 GT ISZERO PUSH2 0x1866 JUMP JUMPDEST CALLVALUE PUSH2 0x370 JUMPI PUSH1 0x60 CALLDATASIZE PUSH1 0x3 NOT ADD SLT PUSH2 0x370 JUMPI PUSH1 0x1 PUSH1 0x1 PUSH1 0x40 SHL SUB PUSH1 0x4 CALLDATALOAD PUSH1 0x24 CALLDATALOAD DUP3 DUP2 GT PUSH2 0x370 JUMPI PUSH2 0x1AD8 SWAP1 CALLDATASIZE SWAP1 PUSH1 0x4 ADD PUSH2 0x48C7 JUMP JUMPDEST SWAP2 PUSH1 0x44 CALLDATALOAD DUP2 DUP2 GT PUSH2 0x370 JUMPI PUSH2 0x1AF1 SWAP1 CALLDATASIZE SWAP1 PUSH1 0x4 ADD PUSH2 0x48C7 JUMP JUMPDEST SWAP1 PUSH2 0x1AFF PUSH1 0x0 SLOAD DUP5 LT PUSH2 0x520A JUMP JUMPDEST PUSH2 0x1B08 DUP4 PUSH2 0x4DFC JUMP JUMPDEST POP SWAP1 PUSH2 0x1B21 PUSH1 0x1 DUP1 PUSH1 0xA0 SHL SUB PUSH1 0x5 DUP5 ADD SLOAD AND CALLER EQ PUSH2 0x4CC5 JUMP JUMPDEST DUP5 MLOAD SWAP2 PUSH1 0xA DUP2 ADD DUP3 DUP5 GT PUSH2 0xC6B JUMPI PUSH2 0x1B39 DUP2 SLOAD PUSH2 0x4A20 JUMP JUMPDEST SWAP4 PUSH1 0x1F SWAP5 DUP6 DUP2 GT PUSH2 0x1D43 JUMPI JUMPDEST POP PUSH1 0x20 DUP6 DUP3 GT PUSH1 0x1 EQ PUSH2 0x1CD9 JUMPI SWAP1 DUP1 PUSH1 0x8 SWAP5 SWAP4 SWAP3 PUSH1 0x0 SWAP2 PUSH2 0x1CCE JUMPI JUMPDEST POP DUP2 PUSH1 0x1 SHL SWAP2 PUSH1 0x0 NOT SWAP1 PUSH1 0x3 SHL SHR NOT AND OR SWAP1 SSTORE JUMPDEST ADD SWAP2 DUP4 MLOAD SWAP2 DUP3 GT PUSH2 0xC6B JUMPI PUSH2 0x1B8A DUP4 SLOAD PUSH2 0x4A20 JUMP JUMPDEST DUP2 DUP2 GT PUSH2 0x1C89 JUMPI JUMPDEST POP PUSH1 0x20 SWAP1 DUP3 GT PUSH1 0x1 EQ PUSH2 0x1BFF JUMPI SWAP2 DUP2 PUSH32 0xC2BC3A7D017286181855F3A27BB3A2823F889FEA0BDF1195CB931D703C9085B0 SWAP5 SWAP3 PUSH2 0x1BEF SWAP5 PUSH1 0x0 SWAP2 PUSH2 0x1BF4 JUMPI JUMPDEST POP DUP2 PUSH1 0x1 SHL SWAP2 PUSH1 0x0 NOT SWAP1 PUSH1 0x3 SHL SHR NOT AND OR SWAP1 SSTORE JUMPDEST PUSH2 0xB79 PUSH2 0xB73 PUSH2 0x5359 JUMP JUMPDEST SUB SWAP1 LOG3 STOP JUMPDEST SWAP1 POP DUP4 ADD MLOAD DUP9 PUSH2 0x1BD0 JUMP JUMPDEST PUSH1 0x1F NOT DUP3 AND SWAP1 DUP4 PUSH1 0x0 MSTORE DUP1 PUSH1 0x0 KECCAK256 SWAP2 PUSH1 0x0 JUMPDEST DUP2 DUP2 LT PUSH2 0x1C71 JUMPI POP SWAP3 PUSH2 0x1BEF SWAP5 SWAP3 PUSH1 0x1 SWAP3 DUP3 PUSH32 0xC2BC3A7D017286181855F3A27BB3A2823F889FEA0BDF1195CB931D703C9085B0 SWAP9 SWAP7 LT PUSH2 0x1C58 JUMPI JUMPDEST POP POP DUP2 SHL ADD SWAP1 SSTORE PUSH2 0x1BE4 JUMP JUMPDEST DUP6 ADD MLOAD PUSH1 0x0 NOT PUSH1 0xF8 DUP5 PUSH1 0x3 SHL AND SHR NOT AND SWAP1 SSTORE DUP9 DUP1 PUSH2 0x1C4C JUMP JUMPDEST SWAP2 SWAP3 PUSH1 0x20 PUSH1 0x1 DUP2 SWAP3 DUP7 DUP11 ADD MLOAD DUP2 SSTORE ADD SWAP5 ADD SWAP3 ADD PUSH2 0x1C11 JUMP JUMPDEST DUP4 PUSH1 0x0 MSTORE PUSH1 0x20 PUSH1 0x0 KECCAK256 DUP3 DUP1 DUP6 ADD PUSH1 0x5 SHR DUP3 ADD SWAP3 PUSH1 0x20 DUP7 LT PUSH2 0x1CC5 JUMPI JUMPDEST ADD PUSH1 0x5 SHR ADD SWAP1 JUMPDEST DUP2 DUP2 LT PUSH2 0x1CB9 JUMPI POP PUSH2 0x1B92 JUMP JUMPDEST PUSH1 0x0 DUP2 SSTORE PUSH1 0x1 ADD PUSH2 0x1CAC JUMP JUMPDEST SWAP3 POP DUP2 SWAP3 PUSH2 0x1CA5 JUMP JUMPDEST SWAP1 POP DUP10 ADD MLOAD DUP11 PUSH2 0x1B61 JUMP JUMPDEST PUSH1 0x1F NOT DUP3 AND SWAP1 DUP4 PUSH1 0x0 MSTORE DUP1 PUSH1 0x0 KECCAK256 SWAP2 PUSH1 0x0 JUMPDEST DUP12 DUP3 DUP3 LT PUSH2 0x1D2B JUMPI POP POP SWAP2 DUP4 SWAP2 PUSH1 0x8 SWAP7 SWAP6 SWAP5 PUSH1 0x1 SWAP5 LT PUSH2 0x1D12 JUMPI JUMPDEST POP POP DUP2 SHL ADD SWAP1 SSTORE PUSH2 0x1B75 JUMP JUMPDEST DUP12 ADD MLOAD PUSH1 0x0 NOT PUSH1 0xF8 DUP5 PUSH1 0x3 SHL AND SHR NOT AND SWAP1 SSTORE DUP11 DUP1 PUSH2 0x1D06 JUMP JUMPDEST PUSH1 0x1 DUP5 SWAP6 PUSH1 0x20 SWAP4 SWAP6 DUP5 SWAP4 ADD MLOAD DUP2 SSTORE ADD SWAP5 ADD SWAP3 ADD PUSH2 0x1CEB JUMP JUMPDEST DUP3 PUSH1 0x0 MSTORE PUSH1 0x20 PUSH1 0x0 KECCAK256 DUP7 DUP1 DUP5 ADD PUSH1 0x5 SHR DUP3 ADD SWAP3 PUSH1 0x20 DUP6 LT PUSH2 0x1D7F JUMPI JUMPDEST ADD PUSH1 0x5 SHR ADD SWAP1 JUMPDEST DUP2 DUP2 LT PUSH2 0x1D73 JUMPI POP PUSH2 0x1B45 JUMP JUMPDEST PUSH1 0x0 DUP2 SSTORE PUSH1 0x1 ADD PUSH2 0x1D66 JUMP JUMPDEST SWAP3 POP DUP2 SWAP3 PUSH2 0x1D5F JUMP JUMPDEST CALLVALUE PUSH2 0x370 JUMPI PUSH1 0x40 CALLDATASIZE PUSH1 0x3 NOT ADD SLT PUSH2 0x370 JUMPI PUSH1 0x4 CALLDATALOAD PUSH2 0x1DA4 PUSH2 0x4870 JUMP JUMPDEST SWAP1 PUSH2 0x1DB2 PUSH1 0x0 SLOAD DUP3 LT PUSH2 0x520A JUMP JUMPDEST PUSH1 0x5 PUSH2 0x1DC0 PUSH2 0x13ED DUP4 PUSH2 0x4DFC JUMP JUMPDEST DUP2 PUSH1 0x0 MSTORE PUSH1 0x6 PUSH1 0x20 MSTORE PUSH1 0x40 PUSH1 0x0 KECCAK256 SWAP3 AND SWAP2 DUP3 PUSH1 0x0 MSTORE PUSH1 0x20 MSTORE PUSH2 0x1DE9 PUSH1 0xFF PUSH1 0x40 PUSH1 0x0 KECCAK256 SLOAD AND PUSH2 0x5469 JUMP JUMPDEST PUSH1 0x0 MSTORE PUSH1 0x6 PUSH1 0x20 MSTORE PUSH1 0x40 PUSH1 0x0 KECCAK256 SWAP1 PUSH1 0x0 MSTORE PUSH1 0x20 MSTORE PUSH1 0x40 PUSH1 0x0 KECCAK256 PUSH1 0xFF NOT DUP2 SLOAD AND SWAP1 SSTORE PUSH1 0x0 DUP1 RETURN JUMPDEST CALLVALUE PUSH2 0x370 JUMPI PUSH1 0x20 CALLDATASIZE PUSH1 0x3 NOT ADD SLT PUSH2 0x370 JUMPI PUSH1 0x4 CALLDATALOAD PUSH2 0x1E30 PUSH1 0x0 SLOAD DUP3 LT PUSH2 0x520A JUMP JUMPDEST PUSH1 0x5 PUSH2 0x1E3B DUP3 PUSH2 0x4DFC JUMP JUMPDEST POP ADD DUP1 SLOAD PUSH1 0x1 PUSH1 0x1 PUSH1 0xA0 SHL SUB DUP2 AND SWAP3 SWAP2 SWAP1 PUSH2 0x1E57 CALLER DUP6 EQ PUSH2 0x4CC5 JUMP JUMPDEST DUP4 ISZERO PUSH2 0x1E9B JUMPI PUSH1 0x1 PUSH1 0x1 PUSH1 0xA0 SHL SUB NOT AND SWAP1 SSTORE PUSH2 0x1E74 PUSH2 0x30B PUSH2 0x52C5 JUMP JUMPDEST PUSH32 0x9B5BAEEC63969A252D5D743784891DBA3A017078113856378A7098A689360954 PUSH1 0x0 DUP1 LOG3 STOP JUMPDEST PUSH1 0x40 MLOAD PUSH3 0x461BCD PUSH1 0xE5 SHL DUP2 MSTORE PUSH1 0x20 PUSH1 0x4 DUP3 ADD MSTORE PUSH1 0xF PUSH1 0x24 DUP3 ADD MSTORE PUSH15 0x105B1C9958591E481C995B5BDD9959 PUSH1 0x8A SHL PUSH1 0x44 DUP3 ADD MSTORE PUSH1 0x64 SWAP1 REVERT JUMPDEST CALLVALUE PUSH2 0x370 JUMPI PUSH2 0x1EE0 CALLDATASIZE PUSH2 0x4886 JUMP JUMPDEST PUSH1 0x0 JUMPDEST DUP3 MLOAD DUP2 LT ISZERO PUSH2 0x1353 JUMPI DUP1 PUSH2 0x1EFA PUSH2 0x1F88 SWAP3 DUP6 PUSH2 0x51AE JUMP JUMPDEST MLOAD PUSH2 0x1F08 PUSH1 0x0 SLOAD DUP3 LT PUSH2 0x520A JUMP JUMPDEST PUSH2 0x1F11 DUP2 PUSH2 0x4DFC JUMP JUMPDEST POP PUSH1 0x5 ADD SLOAD PUSH1 0x1 PUSH1 0x1 PUSH1 0xA0 SHL SUB SWAP2 SWAP1 PUSH2 0x1F2D SWAP1 DUP4 AND CALLER EQ PUSH2 0x4CC5 JUMP JUMPDEST DUP1 PUSH1 0x0 MSTORE PUSH1 0x20 SWAP2 PUSH1 0x2 DUP4 MSTORE PUSH1 0x40 PUSH1 0x0 KECCAK256 SWAP1 DUP7 AND SWAP3 DUP4 PUSH1 0x0 MSTORE MSTORE PUSH1 0x40 PUSH1 0x0 KECCAK256 PUSH1 0xFF NOT DUP2 SLOAD AND SWAP1 SSTORE PUSH2 0x1F5E PUSH2 0x30B PUSH2 0x53FF JUMP JUMPDEST PUSH32 0x125883B94692BAEBECAD9F111ED97FFA626523BBBADC6B0EF85EE1B56B9E52D5 PUSH1 0x0 DUP1 LOG3 PUSH2 0x505D JUMP JUMPDEST PUSH2 0x1EE3 JUMP JUMPDEST CALLVALUE PUSH2 0x370 JUMPI PUSH1 0x0 CALLDATASIZE PUSH1 0x3 NOT ADD SLT PUSH2 0x370 JUMPI PUSH1 0x20 PUSH1 0x0 SLOAD PUSH1 0x40 MLOAD SWAP1 DUP2 MSTORE RETURN JUMPDEST CALLVALUE PUSH2 0x370 JUMPI PUSH1 0x40 CALLDATASIZE PUSH1 0x3 NOT ADD SLT PUSH2 0x370 JUMPI PUSH1 0x4 CALLDATALOAD PUSH2 0x1FC7 PUSH2 0x4870 JUMP JUMPDEST PUSH2 0x1FD4 PUSH1 0x0 SLOAD DUP4 LT PUSH2 0x520A JUMP JUMPDEST PUSH1 0x1 PUSH1 0x1 PUSH1 0xA0 SHL SUB SWAP1 DUP2 AND SWAP2 PUSH2 0x1FEB DUP4 ISZERO ISZERO PUSH2 0x52E8 JUMP JUMPDEST PUSH1 0x5 PUSH2 0x1FF6 DUP3 PUSH2 0x4DFC JUMP JUMPDEST POP ADD DUP4 DUP2 SLOAD SWAP4 DUP5 AND SWAP4 PUSH2 0x200A CALLER DUP7 EQ PUSH2 0x4CC5 JUMP JUMPDEST PUSH1 0x1 PUSH1 0x1 PUSH1 0x60 SHL SUB PUSH1 0xA0 SHL AND OR SWAP1 SSTORE DUP1 PUSH1 0x0 MSTORE PUSH1 0x2 PUSH1 0x20 MSTORE PUSH1 0x40 PUSH1 0x0 KECCAK256 DUP4 PUSH1 0x0 MSTORE PUSH1 0x20 MSTORE PUSH1 0x40 PUSH1 0x0 KECCAK256 PUSH1 0x1 PUSH1 0xFF NOT DUP3 SLOAD AND OR SWAP1 SSTORE PUSH2 0x2049 PUSH2 0x30B PUSH2 0x5328 JUMP JUMPDEST PUSH32 0xA858A0D23644B705AFA414C8AFBACBB4B357A18EA066805E48F9CD103FD87A81 PUSH1 0x0 DUP1 LOG4 STOP JUMPDEST CALLVALUE PUSH2 0x370 JUMPI PUSH1 0x20 DUP1 PUSH1 0x3 NOT CALLDATASIZE ADD SLT PUSH2 0x370 JUMPI PUSH2 0x208A PUSH2 0x485A JUMP JUMPDEST PUSH1 0x0 DUP1 SLOAD PUSH1 0x1 PUSH1 0x1 PUSH1 0xA0 SHL SUB SWAP4 SWAP1 SWAP3 DUP5 AND SWAP2 DUP1 JUMPDEST DUP5 DUP2 LT PUSH2 0x212C JUMPI POP PUSH2 0x20AF SWAP1 PUSH2 0x51D8 JUMP JUMPDEST SWAP4 PUSH1 0x0 SWAP3 PUSH1 0x0 JUMPDEST DUP6 DUP2 LT PUSH2 0x20CB JUMPI PUSH1 0x40 MLOAD DUP1 PUSH2 0x3EE DUP10 DUP3 PUSH2 0x491D JUMP JUMPDEST PUSH2 0x20D4 DUP2 PUSH2 0x4DFC JUMP JUMPDEST POP DUP3 DUP5 PUSH1 0x5 DUP1 SWAP4 ADD SLOAD AND EQ SWAP1 DUP2 PUSH2 0x2115 JUMPI JUMPDEST POP PUSH2 0x20FA JUMPI JUMPDEST PUSH2 0x20F5 SWAP1 PUSH2 0x505D JUMP JUMPDEST PUSH2 0x20B6 JUMP JUMPDEST SWAP4 PUSH2 0x210D DUP2 DUP7 PUSH2 0x43E PUSH2 0x20F5 SWAP5 DUP12 PUSH2 0x51AE JUMP JUMPDEST SWAP5 SWAP1 POP PUSH2 0x20EC JUMP JUMPDEST SWAP1 POP DUP2 PUSH1 0x0 MSTORE DUP5 MSTORE PUSH1 0xFF PUSH1 0x40 PUSH1 0x0 KECCAK256 SLOAD AND DUP9 PUSH2 0x20E6 JUMP JUMPDEST PUSH2 0x2135 DUP2 PUSH2 0x4DFC JUMP JUMPDEST POP DUP5 DUP8 PUSH1 0x5 DUP1 SWAP4 ADD SLOAD AND EQ SWAP1 DUP2 PUSH2 0x2170 JUMPI JUMPDEST POP PUSH2 0x215B JUMPI JUMPDEST PUSH2 0x2156 SWAP1 PUSH2 0x505D JUMP JUMPDEST PUSH2 0x209E JUMP JUMPDEST SWAP1 PUSH2 0x2168 PUSH2 0x2156 SWAP2 PUSH2 0x505D JUMP JUMPDEST SWAP2 SWAP1 POP PUSH2 0x214D JUMP JUMPDEST SWAP1 POP DUP2 PUSH1 0x0 MSTORE DUP4 MSTORE PUSH1 0xFF PUSH1 0x40 PUSH1 0x0 KECCAK256 SLOAD AND DUP8 PUSH2 0x2147 JUMP JUMPDEST CALLVALUE PUSH2 0x370 JUMPI PUSH1 0x20 DUP1 PUSH1 0x3 NOT CALLDATASIZE ADD SLT PUSH2 0x370 JUMPI PUSH1 0x4 CALLDATALOAD SWAP1 PUSH2 0x21AA PUSH1 0x0 SLOAD DUP4 LT PUSH2 0x520A JUMP JUMPDEST PUSH2 0x21B3 DUP3 PUSH2 0x4DFC JUMP JUMPDEST POP PUSH1 0x5 ADD SLOAD PUSH1 0x1 PUSH1 0x1 PUSH1 0xA0 SHL SUB AND PUSH2 0x21CC DUP2 ISZERO ISZERO PUSH2 0x542E JUMP JUMPDEST CALLER EQ PUSH2 0x22DB JUMPI DUP2 PUSH1 0x0 MSTORE PUSH1 0x2 DUP2 MSTORE PUSH1 0x40 PUSH1 0x0 KECCAK256 CALLER PUSH1 0x0 MSTORE DUP2 MSTORE PUSH1 0xFF PUSH1 0x40 PUSH1 0x0 KECCAK256 SLOAD AND PUSH2 0x22A2 JUMPI DUP2 PUSH1 0x0 MSTORE PUSH1 0x6 DUP2 MSTORE PUSH1 0x40 PUSH1 0x0 KECCAK256 CALLER PUSH1 0x0 MSTORE DUP2 MSTORE PUSH1 0xFF PUSH1 0x40 PUSH1 0x0 KECCAK256 SLOAD AND PUSH2 0x225E JUMPI DUP2 PUSH1 0x0 MSTORE PUSH1 0x6 DUP2 MSTORE PUSH1 0x40 PUSH1 0x0 KECCAK256 SWAP1 CALLER PUSH1 0x0 MSTORE MSTORE PUSH1 0x40 PUSH1 0x0 KECCAK256 PUSH1 0x1 PUSH1 0xFF NOT DUP3 SLOAD AND OR SWAP1 SSTORE CALLER SWAP1 PUSH32 0x4193DBBD89505A47140C2EC9B4C1432003AABF1A5739D7DB67D3BB361619B18 PUSH1 0x0 DUP1 LOG3 STOP JUMPDEST PUSH1 0x64 SWAP1 PUSH1 0x40 MLOAD SWAP1 PUSH3 0x461BCD PUSH1 0xE5 SHL DUP3 MSTORE PUSH1 0x4 DUP3 ADD MSTORE PUSH1 0x17 PUSH1 0x24 DUP3 ADD MSTORE PUSH32 0x5265717565737420616C72656164792070656E64696E67000000000000000000 PUSH1 0x44 DUP3 ADD MSTORE REVERT JUMPDEST PUSH1 0x64 SWAP1 PUSH1 0x40 MLOAD SWAP1 PUSH3 0x461BCD PUSH1 0xE5 SHL DUP3 MSTORE PUSH1 0x4 DUP3 ADD MSTORE PUSH1 0x12 PUSH1 0x24 DUP3 ADD MSTORE PUSH18 0x416C72656164792068617320616363657373 PUSH1 0x70 SHL PUSH1 0x44 DUP3 ADD MSTORE REVERT JUMPDEST PUSH1 0x64 SWAP1 PUSH1 0x40 MLOAD SWAP1 PUSH3 0x461BCD PUSH1 0xE5 SHL DUP3 MSTORE PUSH1 0x4 DUP3 ADD MSTORE PUSH1 0x1B PUSH1 0x24 DUP3 ADD MSTORE PUSH32 0x4F776E65722063616E6E6F742072657175657374206163636573730000000000 PUSH1 0x44 DUP3 ADD MSTORE REVERT JUMPDEST CALLVALUE PUSH2 0x370 JUMPI PUSH1 0x40 CALLDATASIZE PUSH1 0x3 NOT ADD SLT PUSH2 0x370 JUMPI PUSH2 0x2338 PUSH2 0x4870 JUMP JUMPDEST PUSH1 0x4 CALLDATALOAD PUSH1 0x0 MSTORE PUSH1 0x6 PUSH1 0x20 MSTORE PUSH1 0x40 PUSH1 0x0 KECCAK256 SWAP1 PUSH1 0x1 DUP1 PUSH1 0xA0 SHL SUB AND PUSH1 0x0 MSTORE PUSH1 0x20 MSTORE PUSH1 0x20 PUSH1 0xFF PUSH1 0x40 PUSH1 0x0 KECCAK256 SLOAD AND PUSH1 0x40 MLOAD SWAP1 ISZERO ISZERO DUP2 MSTORE RETURN JUMPDEST CALLVALUE PUSH2 0x370 JUMPI PUSH1 0x0 CALLDATASIZE PUSH1 0x3 NOT ADD SLT PUSH2 0x370 JUMPI PUSH1 0x20 PUSH1 0x40 MLOAD PUSH4 0x1F400000 DUP2 MSTORE RETURN JUMPDEST CALLVALUE PUSH2 0x370 JUMPI PUSH1 0x0 CALLDATASIZE PUSH1 0x3 NOT ADD SLT PUSH2 0x370 JUMPI PUSH1 0x20 PUSH1 0xE SLOAD PUSH1 0x40 MLOAD SWAP1 DUP2 MSTORE RETURN JUMPDEST CALLVALUE PUSH2 0x370 JUMPI PUSH1 0x20 DUP1 PUSH1 0x3 NOT CALLDATASIZE ADD SLT PUSH2 0x370 JUMPI PUSH1 0x1 PUSH1 0x1 PUSH1 0x40 SHL SUB PUSH1 0x4 CALLDATALOAD DUP2 DUP2 GT PUSH2 0x370 JUMPI PUSH2 0x23DB SWAP1 CALLDATASIZE SWAP1 PUSH1 0x4 ADD PUSH2 0x48C7 JUMP JUMPDEST SWAP1 PUSH2 0x23EA PUSH1 0x3 DUP4 MLOAD LT ISZERO PUSH2 0x4C07 JUMP JUMPDEST PUSH2 0x23F7 DUP4 DUP4 MLOAD GT ISZERO PUSH2 0x4C48 JUMP JUMPDEST PUSH1 0x40 MLOAD PUSH2 0x242E DUP4 MLOAD SWAP2 DUP6 DUP6 ADD SWAP3 PUSH2 0x240F DUP2 DUP4 DUP7 PUSH2 0x4958 JUMP JUMPDEST PUSH1 0x9 SWAP1 DUP3 ADD SWAP1 DUP2 MSTORE DUP2 SWAP1 SUB DUP7 ADD SWAP1 KECCAK256 SLOAD PUSH1 0x1 PUSH1 0x1 PUSH1 0xA0 SHL SUB AND ISZERO PUSH2 0x4C88 JUMP JUMPDEST CALLER PUSH1 0x0 MSTORE PUSH1 0x8 DUP5 MSTORE DUP4 PUSH2 0x2444 PUSH1 0x40 PUSH1 0x0 KECCAK256 PUSH2 0x4A5A JUMP JUMPDEST DUP1 MLOAD SWAP1 DUP2 PUSH2 0x25E1 JUMPI JUMPDEST POP POP POP CALLER PUSH1 0x0 MSTORE PUSH1 0x8 DUP5 MSTORE PUSH1 0x40 PUSH1 0x0 KECCAK256 DUP4 MLOAD SWAP3 DUP4 GT PUSH2 0xC6B JUMPI DUP5 SWAP3 PUSH2 0x2472 DUP3 SLOAD PUSH2 0x4A20 JUMP JUMPDEST PUSH1 0x1F DUP2 GT PUSH2 0x258C JUMPI JUMPDEST POP DUP4 PUSH1 0x1F DUP3 GT PUSH1 0x1 EQ PUSH2 0x2510 JUMPI SWAP3 PUSH2 0x24D1 SWAP3 DUP3 PUSH2 0x2500 SWAP7 SWAP4 PUSH1 0x0 DUP1 MLOAD PUSH1 0x20 PUSH2 0x55A6 DUP4 CODECOPY DUP2 MLOAD SWAP2 MSTORE SWAP9 SWAP7 PUSH1 0x0 SWAP2 PUSH2 0x2505 JUMPI JUMPDEST POP DUP2 PUSH1 0x1 SHL SWAP2 PUSH1 0x0 NOT SWAP1 PUSH1 0x3 SHL SHR NOT AND OR SWAP1 SSTORE JUMPDEST PUSH1 0x40 MLOAD DUP1 SWAP4 DUP2 SWAP3 DUP7 MLOAD SWAP3 DUP4 SWAP2 PUSH2 0x4958 JUMP JUMPDEST DUP2 ADD PUSH1 0x9 DUP2 MSTORE SUB ADD SWAP1 KECCAK256 CALLER PUSH1 0x1 PUSH1 0x1 PUSH1 0x60 SHL SUB PUSH1 0xA0 SHL DUP3 SLOAD AND OR SWAP1 SSTORE PUSH1 0x40 MLOAD SWAP2 DUP3 SWAP2 DUP6 DUP4 MSTORE CALLER SWAP6 DUP4 ADD SWAP1 PUSH2 0x497B JUMP JUMPDEST SUB SWAP1 LOG2 STOP JUMPDEST SWAP1 POP DUP7 ADD MLOAD DUP11 PUSH2 0x24AC JUMP JUMPDEST PUSH1 0x1F NOT DUP3 AND SWAP1 DUP4 PUSH1 0x0 MSTORE DUP6 PUSH1 0x0 KECCAK256 SWAP2 PUSH1 0x0 JUMPDEST DUP2 DUP2 LT PUSH2 0x2575 JUMPI POP DUP4 PUSH1 0x0 DUP1 MLOAD PUSH1 0x20 PUSH2 0x55A6 DUP4 CODECOPY DUP2 MLOAD SWAP2 MSTORE SWAP9 SWAP7 SWAP4 PUSH2 0x24D1 SWAP7 SWAP4 PUSH2 0x2500 SWAP10 SWAP7 PUSH1 0x1 SWAP5 LT PUSH2 0x255C JUMPI JUMPDEST POP POP DUP2 SHL ADD SWAP1 SSTORE PUSH2 0x24C0 JUMP JUMPDEST DUP9 ADD MLOAD PUSH1 0x0 NOT PUSH1 0xF8 DUP5 PUSH1 0x3 SHL AND SHR NOT AND SWAP1 SSTORE DUP11 DUP1 PUSH2 0x2550 JUMP JUMPDEST SWAP2 SWAP3 DUP8 PUSH1 0x1 DUP2 SWAP3 DUP7 DUP13 ADD MLOAD DUP2 SSTORE ADD SWAP5 ADD SWAP3 ADD PUSH2 0x2522 JUMP JUMPDEST SWAP1 SWAP2 DUP1 SWAP4 SWAP5 POP PUSH1 0x0 MSTORE DUP6 PUSH1 0x0 KECCAK256 PUSH1 0x1F DUP4 ADD PUSH1 0x5 SHR DUP2 ADD SWAP2 DUP8 DUP5 LT PUSH2 0x25D7 JUMPI JUMPDEST SWAP1 PUSH1 0x1F DUP9 SWAP7 SWAP6 SWAP5 SWAP4 SWAP3 ADD PUSH1 0x5 SHR ADD SWAP1 JUMPDEST DUP2 DUP2 LT PUSH2 0x25C8 JUMPI POP PUSH2 0x247B JUMP JUMPDEST PUSH1 0x0 DUP2 SSTORE DUP8 SWAP6 POP PUSH1 0x1 ADD PUSH2 0x25BB JUMP JUMPDEST SWAP1 SWAP2 POP DUP2 SWAP1 PUSH2 0x25AB JUMP JUMPDEST DUP2 PUSH2 0x25F4 DUP5 SWAP4 PUSH1 0x40 MLOAD DUP1 SWAP7 DUP2 SWAP6 ADD PUSH2 0x4958 JUMP JUMPDEST DUP2 ADD PUSH1 0x9 DUP2 MSTORE SUB ADD SWAP1 KECCAK256 PUSH1 0x1 PUSH1 0x1 PUSH1 0x60 SHL SUB PUSH1 0xA0 SHL DUP2 SLOAD AND SWAP1 SSTORE DUP4 DUP6 DUP1 PUSH2 0x244D JUMP JUMPDEST CALLVALUE PUSH2 0x370 JUMPI PUSH2 0x2624 CALLDATASIZE PUSH2 0x4886 JUMP JUMPDEST PUSH1 0x1 PUSH1 0x1 PUSH1 0xA0 SHL SUB SWAP1 DUP2 AND PUSH2 0x263A DUP2 ISZERO ISZERO PUSH2 0x5392 JUMP JUMPDEST PUSH1 0x0 JUMPDEST DUP4 MLOAD DUP2 LT ISZERO PUSH2 0x1353 JUMPI DUP1 DUP3 PUSH2 0x2655 PUSH2 0x26D7 SWAP4 DUP8 PUSH2 0x51AE JUMP JUMPDEST MLOAD PUSH2 0x2663 PUSH1 0x0 SLOAD DUP3 LT PUSH2 0x520A JUMP JUMPDEST PUSH2 0x267D PUSH2 0x266F DUP3 PUSH2 0x4DFC JUMP JUMPDEST POP PUSH1 0x5 ADD SLOAD DUP8 AND CALLER EQ PUSH2 0x4CC5 JUMP JUMPDEST DUP1 PUSH1 0x0 MSTORE PUSH1 0x20 PUSH1 0x2 DUP2 MSTORE PUSH1 0x40 PUSH1 0x0 KECCAK256 SWAP1 DUP4 PUSH1 0x0 MSTORE MSTORE PUSH1 0x40 PUSH1 0x0 KECCAK256 PUSH1 0x1 PUSH1 0xFF NOT DUP3 SLOAD AND OR SWAP1 SSTORE PUSH2 0x26AD PUSH2 0x30B PUSH2 0x53D0 JUMP JUMPDEST PUSH32 0x3C3A9147A1FC73DD51A32F4D10C43D457E8CB826EB6F35CAC6349EB965BA82B4 PUSH1 0x0 DUP1 LOG3 PUSH2 0x505D JUMP JUMPDEST PUSH2 0x263D JUMP JUMPDEST CALLVALUE PUSH2 0x370 JUMPI PUSH1 0x20 CALLDATASIZE PUSH1 0x3 NOT ADD SLT PUSH2 0x370 JUMPI PUSH1 0x20 PUSH2 0x1480 PUSH2 0x26FA PUSH2 0x485A JUMP JUMPDEST PUSH2 0x4B00 JUMP JUMPDEST CALLVALUE PUSH2 0x370 JUMPI PUSH1 0x40 CALLDATASIZE PUSH1 0x3 NOT ADD SLT PUSH2 0x370 JUMPI PUSH2 0x2718 PUSH2 0x4870 JUMP JUMPDEST PUSH1 0x4 CALLDATALOAD PUSH1 0x0 MSTORE PUSH1 0x4 PUSH1 0x20 MSTORE PUSH1 0x40 PUSH1 0x0 KECCAK256 SWAP1 PUSH1 0x1 DUP1 PUSH1 0xA0 SHL SUB AND PUSH1 0x0 MSTORE PUSH1 0x20 MSTORE PUSH1 0x20 PUSH1 0xFF PUSH1 0x40 PUSH1 0x0 KECCAK256 SLOAD AND PUSH1 0x40 MLOAD SWAP1 ISZERO ISZERO DUP2 MSTORE RETURN JUMPDEST CALLVALUE PUSH2 0x370 JUMPI PUSH1 0x20 CALLDATASIZE PUSH1 0x3 NOT ADD SLT PUSH2 0x370 JUMPI PUSH2 0x279B PUSH2 0x276B PUSH1 0x4 CALLDATALOAD PUSH2 0x54AA JUMP JUMPDEST SWAP3 SWAP5 SWAP2 PUSH1 0x40 MLOAD SWAP6 DUP7 SWAP6 ISZERO ISZERO DUP7 MSTORE PUSH1 0x20 DUP7 ADD MSTORE PUSH1 0x1 DUP1 PUSH1 0xA0 SHL SUB AND PUSH1 0x40 DUP6 ADD MSTORE PUSH1 0xA0 PUSH1 0x60 DUP6 ADD MSTORE PUSH1 0xA0 DUP5 ADD SWAP1 PUSH2 0x497B JUMP JUMPDEST SWAP1 PUSH1 0x80 DUP4 ADD MSTORE SUB SWAP1 RETURN JUMPDEST CALLVALUE PUSH2 0x370 JUMPI PUSH1 0x40 CALLDATASIZE PUSH1 0x3 NOT ADD SLT PUSH2 0x370 JUMPI PUSH1 0x4 CALLDATALOAD PUSH1 0x5 PUSH2 0x27C3 PUSH2 0x4870 JUMP JUMPDEST PUSH2 0x27D0 PUSH1 0x0 SLOAD DUP5 LT PUSH2 0x520A JUMP JUMPDEST PUSH2 0x27F5 PUSH2 0x27DC DUP5 PUSH2 0x4DFC JUMP JUMPDEST POP SWAP1 SWAP3 ADD SLOAD PUSH1 0x1 PUSH1 0x1 PUSH1 0xA0 SHL SUB SWAP3 SWAP1 CALLER SWAP1 DUP5 AND EQ PUSH2 0x4CC5 JUMP JUMPDEST AND SWAP1 PUSH2 0x2802 DUP3 ISZERO ISZERO PUSH2 0x5392 JUMP JUMPDEST DUP1 PUSH1 0x0 MSTORE PUSH1 0x2 PUSH1 0x20 MSTORE PUSH1 0x40 PUSH1 0x0 KECCAK256 DUP3 PUSH1 0x0 MSTORE PUSH1 0x20 MSTORE PUSH1 0x40 PUSH1 0x0 KECCAK256 PUSH1 0x1 PUSH1 0xFF NOT DUP3 SLOAD AND OR SWAP1 SSTORE PUSH2 0x2832 PUSH2 0x30B PUSH2 0x53D0 JUMP JUMPDEST PUSH32 0x3C3A9147A1FC73DD51A32F4D10C43D457E8CB826EB6F35CAC6349EB965BA82B4 PUSH1 0x0 DUP1 LOG3 STOP JUMPDEST CALLVALUE PUSH2 0x370 JUMPI PUSH1 0x0 CALLDATASIZE PUSH1 0x3 NOT ADD SLT PUSH2 0x370 JUMPI PUSH1 0x20 PUSH1 0xD SLOAD PUSH1 0x40 MLOAD SWAP1 DUP2 MSTORE RETURN JUMPDEST CALLVALUE PUSH2 0x370 JUMPI PUSH1 0x20 DUP1 PUSH1 0x3 NOT CALLDATASIZE ADD SLT PUSH2 0x370 JUMPI PUSH1 0x4 CALLDATALOAD PUSH2 0x2899 PUSH1 0x0 SLOAD DUP3 LT PUSH2 0x520A JUMP JUMPDEST DUP1 PUSH1 0x0 MSTORE PUSH1 0x4 DUP3 MSTORE PUSH1 0x40 PUSH1 0x0 KECCAK256 CALLER PUSH1 0x0 MSTORE DUP3 MSTORE PUSH32 0xA39681252BED1435E4E217DA3A52CE8868844C63F75604AE9855FFB20906B68B PUSH1 0xFF PUSH1 0x40 PUSH1 0x0 KECCAK256 SLOAD AND ISZERO SWAP3 DUP3 PUSH1 0x0 MSTORE PUSH1 0x4 DUP2 MSTORE PUSH1 0x40 PUSH1 0x0 KECCAK256 CALLER PUSH1 0x0 MSTORE DUP2 MSTORE PUSH1 0x40 PUSH1 0x0 KECCAK256 PUSH1 0xFF NOT DUP2 SLOAD AND PUSH1 0xFF DUP7 AND OR SWAP1 SSTORE PUSH1 0x40 MLOAD SWAP4 DUP5 MSTORE CALLER SWAP4 LOG3 STOP JUMPDEST PUSH1 0x20 CALLDATASIZE PUSH1 0x3 NOT ADD SLT PUSH2 0x370 JUMPI PUSH1 0x0 SLOAD PUSH2 0x2924 DUP2 PUSH1 0x4 CALLDATALOAD LT PUSH2 0x520A JUMP JUMPDEST PUSH2 0x292F PUSH1 0x4 CALLDATALOAD PUSH2 0x4DFC JUMP JUMPDEST POP PUSH1 0x5 DUP2 ADD SLOAD PUSH1 0x1 PUSH1 0x1 PUSH1 0xA0 SHL SUB AND SWAP1 PUSH2 0x294A DUP3 ISZERO ISZERO PUSH2 0x542E JUMP JUMPDEST PUSH1 0x9 DUP2 ADD SLOAD DUP1 ISZERO PUSH2 0x31BA JUMPI CALLVALUE LT PUSH2 0x317E JUMPI CALLER DUP3 EQ PUSH2 0x3146 JUMPI PUSH2 0x29EB PUSH1 0xA PUSH1 0x3 DUP4 ADD SLOAD SWAP3 PUSH1 0x7 DUP2 ADD SLOAD PUSH1 0x40 MLOAD SWAP5 PUSH2 0x297F DUP7 PUSH2 0x4772 JUMP JUMPDEST DUP8 DUP7 MSTORE PUSH2 0x298E PUSH1 0x1 DUP5 ADD PUSH2 0x4A5A JUMP JUMPDEST PUSH1 0x20 DUP8 ADD MSTORE PUSH2 0x299F PUSH1 0x2 DUP5 ADD PUSH2 0x4A5A JUMP JUMPDEST PUSH1 0x40 DUP8 ADD MSTORE PUSH1 0x60 DUP7 ADD MSTORE PUSH2 0x29B5 PUSH1 0x4 DUP4 ADD PUSH2 0x4A5A JUMP JUMPDEST PUSH1 0x80 DUP7 ADD MSTORE CALLER PUSH1 0xA0 DUP7 ADD MSTORE TIMESTAMP PUSH1 0xC0 DUP7 ADD MSTORE PUSH1 0xE0 DUP6 ADD MSTORE PUSH2 0x29D7 PUSH1 0x8 DUP3 ADD PUSH2 0x4A5A JUMP JUMPDEST PUSH2 0x100 DUP6 ADD MSTORE PUSH1 0x0 PUSH2 0x120 DUP6 ADD MSTORE ADD PUSH2 0x4A5A JUMP JUMPDEST PUSH2 0x140 DUP3 ADD MSTORE PUSH1 0x1 PUSH1 0x40 SHL DUP4 LT ISZERO PUSH2 0xC6B JUMPI PUSH1 0x1 DUP4 ADD PUSH1 0x0 SSTORE PUSH2 0x2A0D DUP4 PUSH2 0x4DFC JUMP JUMPDEST SWAP2 SWAP1 SWAP2 PUSH2 0xFB7 JUMPI DUP1 MLOAD DUP3 SSTORE PUSH1 0x20 DUP2 ADD MLOAD DUP1 MLOAD SWAP1 PUSH1 0x1 PUSH1 0x1 PUSH1 0x40 SHL SUB DUP3 GT PUSH2 0xC6B JUMPI DUP2 SWAP1 PUSH2 0x2A3D PUSH1 0x1 DUP7 ADD SLOAD PUSH2 0x4A20 JUMP JUMPDEST PUSH1 0x1F DUP2 GT PUSH2 0x30F3 JUMPI JUMPDEST POP PUSH1 0x20 SWAP1 PUSH1 0x1F DUP4 GT PUSH1 0x1 EQ PUSH2 0x3081 JUMPI PUSH1 0x0 SWAP3 PUSH2 0x3076 JUMPI JUMPDEST POP POP DUP2 PUSH1 0x1 SHL SWAP2 PUSH1 0x0 NOT SWAP1 PUSH1 0x3 SHL SHR NOT AND OR PUSH1 0x1 DUP4 ADD SSTORE JUMPDEST PUSH1 0x40 DUP2 ADD MLOAD DUP1 MLOAD SWAP1 PUSH1 0x1 PUSH1 0x1 PUSH1 0x40 SHL SUB DUP3 GT PUSH2 0xC6B JUMPI DUP2 SWAP1 PUSH2 0x2A9A PUSH1 0x2 DUP7 ADD SLOAD PUSH2 0x4A20 JUMP JUMPDEST PUSH1 0x1F DUP2 GT PUSH2 0x3023 JUMPI JUMPDEST POP PUSH1 0x20 SWAP1 PUSH1 0x1F DUP4 GT PUSH1 0x1 EQ PUSH2 0x2FB1 JUMPI PUSH1 0x0 SWAP3 PUSH2 0x2FA6 JUMPI JUMPDEST POP POP DUP2 PUSH1 0x1 SHL SWAP2 PUSH1 0x0 NOT SWAP1 PUSH1 0x3 SHL SHR NOT AND OR PUSH1 0x2 DUP4 ADD SSTORE JUMPDEST PUSH1 0x60 DUP2 ADD MLOAD PUSH1 0x3 DUP4 ADD SSTORE PUSH1 0x80 DUP2 ADD MLOAD DUP1 MLOAD SWAP1 PUSH1 0x1 PUSH1 0x1 PUSH1 0x40 SHL SUB DUP3 GT PUSH2 0xC6B JUMPI DUP2 SWAP1 PUSH2 0x2B01 PUSH1 0x4 DUP7 ADD SLOAD PUSH2 0x4A20 JUMP JUMPDEST PUSH1 0x1F DUP2 GT PUSH2 0x2F53 JUMPI JUMPDEST POP PUSH1 0x20 SWAP1 PUSH1 0x1F DUP4 GT PUSH1 0x1 EQ PUSH2 0x2EE1 JUMPI PUSH1 0x0 SWAP3 PUSH2 0x2ED6 JUMPI JUMPDEST POP POP DUP2 PUSH1 0x1 SHL SWAP2 PUSH1 0x0 NOT SWAP1 PUSH1 0x3 SHL SHR NOT AND OR PUSH1 0x4 DUP4 ADD SSTORE JUMPDEST PUSH1 0x5 DUP3 ADD PUSH1 0x1 DUP1 PUSH1 0xA0 SHL SUB PUSH1 0xA0 DUP4 ADD MLOAD AND PUSH1 0x1 PUSH1 0x1 PUSH1 0x60 SHL SUB PUSH1 0xA0 SHL DUP3 SLOAD AND OR SWAP1 SSTORE PUSH1 0xC0 DUP2 ADD MLOAD PUSH1 0x6 DUP4 ADD SSTORE PUSH1 0xE0 DUP2 ADD MLOAD PUSH1 0x7 DUP4 ADD SSTORE PUSH2 0x100 DUP2 ADD MLOAD DUP1 MLOAD SWAP1 PUSH1 0x1 PUSH1 0x1 PUSH1 0x40 SHL SUB DUP3 GT PUSH2 0xC6B JUMPI PUSH2 0x2B93 PUSH1 0x8 DUP6 ADD SLOAD PUSH2 0x4A20 JUMP JUMPDEST PUSH1 0x1F DUP2 GT PUSH2 0x2E8F JUMPI JUMPDEST POP PUSH1 0x20 SWAP1 PUSH1 0x1F DUP4 GT PUSH1 0x1 EQ PUSH2 0x2E1B JUMPI PUSH2 0x140 SWAP4 SWAP3 SWAP2 PUSH1 0x0 SWAP2 DUP4 PUSH2 0x2E10 JUMPI JUMPDEST POP POP DUP2 PUSH1 0x1 SHL SWAP2 PUSH1 0x0 NOT SWAP1 PUSH1 0x3 SHL SHR NOT AND OR PUSH1 0x8 DUP5 ADD SSTORE JUMPDEST PUSH2 0x120 DUP2 ADD MLOAD PUSH1 0x9 DUP5 ADD SSTORE ADD MLOAD DUP1 MLOAD SWAP1 PUSH1 0x1 PUSH1 0x1 PUSH1 0x40 SHL SUB DUP3 GT PUSH2 0xC6B JUMPI PUSH2 0x2BFD PUSH1 0xA DUP5 ADD SLOAD PUSH2 0x4A20 JUMP JUMPDEST PUSH1 0x1F DUP2 GT PUSH2 0x2DC5 JUMPI JUMPDEST POP PUSH1 0x20 SWAP1 PUSH1 0x1F DUP4 GT PUSH1 0x1 EQ PUSH2 0x2D57 JUMPI PUSH1 0xA SWAP3 SWAP2 PUSH1 0x0 SWAP2 DUP4 PUSH2 0x2D4C JUMPI JUMPDEST POP POP DUP2 PUSH1 0x1 SHL SWAP2 PUSH1 0x0 NOT SWAP1 PUSH1 0x3 SHL SHR NOT AND OR SWAP2 ADD SSTORE JUMPDEST DUP2 PUSH1 0x0 MSTORE PUSH1 0x2 PUSH1 0x20 MSTORE PUSH1 0x40 PUSH1 0x0 KECCAK256 CALLER PUSH1 0x0 MSTORE PUSH1 0x20 MSTORE PUSH1 0x40 PUSH1 0x0 KECCAK256 PUSH1 0x1 PUSH1 0xFF NOT DUP3 SLOAD AND OR SWAP1 SSTORE PUSH1 0x0 CALLVALUE ISZERO PUSH2 0x2D43 JUMPI JUMPDEST PUSH1 0x0 DUP1 DUP1 DUP1 SWAP4 DUP6 CALLVALUE SWAP2 CALL ISZERO PUSH2 0x2D37 JUMPI PUSH2 0x2CB4 PUSH1 0x40 MLOAD PUSH2 0x2C84 DUP2 PUSH2 0x47A9 JUMP JUMPDEST PUSH1 0x1C DUP2 MSTORE PUSH32 0x507572636861736564204F776E6572736869702028436C6F6E65642900000000 PUSH1 0x20 DUP3 ADD MSTORE DUP4 PUSH2 0x4E96 JUMP JUMPDEST PUSH2 0x2CE1 PUSH1 0x40 MLOAD PUSH2 0x2CC3 DUP2 PUSH2 0x47A9 JUMP JUMPDEST PUSH1 0x9 DUP2 MSTORE PUSH9 0x536F6C6420436F7079 PUSH1 0xB8 SHL PUSH1 0x20 DUP3 ADD MSTORE PUSH1 0x4 CALLDATALOAD PUSH2 0x4E96 JUMP JUMPDEST PUSH1 0x40 MLOAD CALLVALUE DUP2 MSTORE DUP3 PUSH32 0x8F21DA0EA7326E97D788C6C2CB9E0629E1D7844954CE8FB701D3E64BD5A0531E PUSH1 0x20 CALLER SWAP4 LOG3 CALLER SWAP2 PUSH32 0xA858A0D23644B705AFA414C8AFBACBB4B357A18EA066805E48F9CD103FD87A81 PUSH1 0x0 DUP1 LOG4 STOP JUMPDEST PUSH1 0x40 MLOAD RETURNDATASIZE PUSH1 0x0 DUP3 RETURNDATACOPY RETURNDATASIZE SWAP1 REVERT JUMPDEST POP PUSH2 0x8FC PUSH2 0x2C66 JUMP JUMPDEST ADD MLOAD SWAP1 POP DUP7 DUP1 PUSH2 0x2C22 JUMP JUMPDEST SWAP1 PUSH1 0x1F NOT DUP4 AND SWAP2 PUSH1 0xA DUP6 ADD PUSH1 0x0 MSTORE PUSH1 0x20 PUSH1 0x0 KECCAK256 SWAP3 PUSH1 0x0 JUMPDEST DUP2 DUP2 LT PUSH2 0x2DAD JUMPI POP SWAP2 PUSH1 0x1 SWAP4 SWAP2 DUP6 PUSH1 0xA SWAP7 SWAP5 LT PUSH2 0x2D94 JUMPI JUMPDEST POP POP POP DUP2 SHL ADD SWAP2 ADD SSTORE PUSH2 0x2C38 JUMP JUMPDEST ADD MLOAD PUSH1 0x0 NOT PUSH1 0xF8 DUP5 PUSH1 0x3 SHL AND SHR NOT AND SWAP1 SSTORE DUP7 DUP1 DUP1 PUSH2 0x2D86 JUMP JUMPDEST SWAP3 SWAP4 PUSH1 0x20 PUSH1 0x1 DUP2 SWAP3 DUP8 DUP7 ADD MLOAD DUP2 SSTORE ADD SWAP6 ADD SWAP4 ADD PUSH2 0x2D6E JUMP JUMPDEST PUSH1 0xA DUP5 ADD PUSH1 0x0 MSTORE PUSH1 0x20 PUSH1 0x0 KECCAK256 PUSH1 0x1F DUP5 ADD PUSH1 0x5 SHR DUP2 ADD SWAP2 PUSH1 0x20 DUP6 LT PUSH2 0x2E06 JUMPI JUMPDEST PUSH1 0x1F ADD PUSH1 0x5 SHR ADD SWAP1 JUMPDEST DUP2 DUP2 LT PUSH2 0x2DFA JUMPI POP PUSH2 0x2C06 JUMP JUMPDEST PUSH1 0x0 DUP2 SSTORE PUSH1 0x1 ADD PUSH2 0x2DED JUMP JUMPDEST SWAP1 SWAP2 POP DUP2 SWAP1 PUSH2 0x2DE4 JUMP JUMPDEST ADD MLOAD SWAP1 POP DUP8 DUP1 PUSH2 0x2BBA JUMP JUMPDEST SWAP1 PUSH1 0x8 DUP6 ADD PUSH1 0x0 MSTORE PUSH1 0x20 PUSH1 0x0 KECCAK256 SWAP2 PUSH1 0x0 JUMPDEST PUSH1 0x1F NOT DUP6 AND DUP2 LT PUSH2 0x2E77 JUMPI POP SWAP2 DUP4 SWAP2 PUSH1 0x1 SWAP4 PUSH2 0x140 SWAP7 SWAP6 PUSH1 0x1F NOT DUP2 AND LT PUSH2 0x2E5E JUMPI JUMPDEST POP POP POP DUP2 SHL ADD PUSH1 0x8 DUP5 ADD SSTORE PUSH2 0x2BD2 JUMP JUMPDEST ADD MLOAD PUSH1 0x0 NOT PUSH1 0xF8 DUP5 PUSH1 0x3 SHL AND SHR NOT AND SWAP1 SSTORE DUP8 DUP1 DUP1 PUSH2 0x2E4E JUMP JUMPDEST SWAP2 SWAP3 PUSH1 0x20 PUSH1 0x1 DUP2 SWAP3 DUP7 DUP6 ADD MLOAD DUP2 SSTORE ADD SWAP5 ADD SWAP3 ADD PUSH2 0x2E2C JUMP JUMPDEST PUSH1 0x8 DUP6 ADD PUSH1 0x0 MSTORE PUSH1 0x20 PUSH1 0x0 KECCAK256 PUSH1 0x1F DUP5 ADD PUSH1 0x5 SHR DUP2 ADD PUSH1 0x20 DUP6 LT PUSH2 0x2ECF JUMPI JUMPDEST PUSH1 0x1F DUP4 ADD PUSH1 0x5 SHR DUP3 ADD DUP2 LT PUSH2 0x2EC3 JUMPI POP POP PUSH2 0x2B9C JUMP JUMPDEST PUSH1 0x0 DUP2 SSTORE PUSH1 0x1 ADD PUSH2 0x2EAD JUMP JUMPDEST POP DUP1 PUSH2 0x2EAD JUMP JUMPDEST ADD MLOAD SWAP1 POP DUP7 DUP1 PUSH2 0x2B21 JUMP JUMPDEST SWAP3 POP PUSH1 0x4 DUP6 ADD PUSH1 0x0 MSTORE PUSH1 0x20 PUSH1 0x0 KECCAK256 SWAP1 PUSH1 0x0 SWAP4 JUMPDEST PUSH1 0x1F NOT DUP5 AND DUP6 LT PUSH2 0x2F38 JUMPI PUSH1 0x1 SWAP5 POP DUP4 PUSH1 0x1F NOT DUP2 AND LT PUSH2 0x2F1F JUMPI JUMPDEST POP POP POP DUP2 SHL ADD PUSH1 0x4 DUP4 ADD SSTORE PUSH2 0x2B39 JUMP JUMPDEST ADD MLOAD PUSH1 0x0 NOT PUSH1 0xF8 DUP5 PUSH1 0x3 SHL AND SHR NOT AND SWAP1 SSTORE DUP7 DUP1 DUP1 PUSH2 0x2F0F JUMP JUMPDEST DUP2 DUP2 ADD MLOAD DUP4 SSTORE PUSH1 0x20 SWAP5 DUP6 ADD SWAP5 PUSH1 0x1 SWAP1 SWAP4 ADD SWAP3 SWAP1 SWAP2 ADD SWAP1 PUSH2 0x2EF4 JUMP JUMPDEST SWAP1 SWAP2 POP PUSH1 0x4 DUP6 ADD PUSH1 0x0 MSTORE PUSH1 0x20 PUSH1 0x0 KECCAK256 PUSH1 0x1F DUP5 ADD PUSH1 0x5 SHR DUP2 ADD PUSH1 0x20 DUP6 LT PUSH2 0x2F9F JUMPI JUMPDEST SWAP1 DUP5 SWAP4 SWAP3 SWAP2 JUMPDEST PUSH1 0x1F DUP4 ADD PUSH1 0x5 SHR DUP3 ADD DUP2 LT PUSH2 0x2F90 JUMPI POP POP PUSH2 0x2B0A JUMP JUMPDEST PUSH1 0x0 DUP2 SSTORE DUP6 SWAP5 POP PUSH1 0x1 ADD PUSH2 0x2F7A JUMP JUMPDEST POP DUP1 PUSH2 0x2F74 JUMP JUMPDEST ADD MLOAD SWAP1 POP DUP7 DUP1 PUSH2 0x2ABA JUMP JUMPDEST SWAP3 POP PUSH1 0x2 DUP6 ADD PUSH1 0x0 MSTORE PUSH1 0x20 PUSH1 0x0 KECCAK256 SWAP1 PUSH1 0x0 SWAP4 JUMPDEST PUSH1 0x1F NOT DUP5 AND DUP6 LT PUSH2 0x3008 JUMPI PUSH1 0x1 SWAP5 POP DUP4 PUSH1 0x1F NOT DUP2 AND LT PUSH2 0x2FEF JUMPI JUMPDEST POP POP POP DUP2 SHL ADD PUSH1 0x2 DUP4 ADD SSTORE PUSH2 0x2AD2 JUMP JUMPDEST ADD MLOAD PUSH1 0x0 NOT PUSH1 0xF8 DUP5 PUSH1 0x3 SHL AND SHR NOT AND SWAP1 SSTORE DUP7 DUP1 DUP1 PUSH2 0x2FDF JUMP JUMPDEST DUP2 DUP2 ADD MLOAD DUP4 SSTORE PUSH1 0x20 SWAP5 DUP6 ADD SWAP5 PUSH1 0x1 SWAP1 SWAP4 ADD SWAP3 SWAP1 SWAP2 ADD SWAP1 PUSH2 0x2FC4 JUMP JUMPDEST SWAP1 SWAP2 POP PUSH1 0x2 DUP6 ADD PUSH1 0x0 MSTORE PUSH1 0x20 PUSH1 0x0 KECCAK256 PUSH1 0x1F DUP5 ADD PUSH1 0x5 SHR DUP2 ADD PUSH1 0x20 DUP6 LT PUSH2 0x306F JUMPI JUMPDEST SWAP1 DUP5 SWAP4 SWAP3 SWAP2 JUMPDEST PUSH1 0x1F DUP4 ADD PUSH1 0x5 SHR DUP3 ADD DUP2 LT PUSH2 0x3060 JUMPI POP POP PUSH2 0x2AA3 JUMP JUMPDEST PUSH1 0x0 DUP2 SSTORE DUP6 SWAP5 POP PUSH1 0x1 ADD PUSH2 0x304A JUMP JUMPDEST POP DUP1 PUSH2 0x3044 JUMP JUMPDEST ADD MLOAD SWAP1 POP DUP7 DUP1 PUSH2 0x2A5D JUMP JUMPDEST SWAP3 POP PUSH1 0x1 DUP6 ADD PUSH1 0x0 MSTORE PUSH1 0x20 PUSH1 0x0 KECCAK256 SWAP1 PUSH1 0x0 SWAP4 JUMPDEST PUSH1 0x1F NOT DUP5 AND DUP6 LT PUSH2 0x30D8 JUMPI PUSH1 0x1 SWAP5 POP DUP4 PUSH1 0x1F NOT DUP2 AND LT PUSH2 0x30BF JUMPI JUMPDEST POP POP POP DUP2 SHL ADD PUSH1 0x1 DUP4 ADD SSTORE PUSH2 0x2A75 JUMP JUMPDEST ADD MLOAD PUSH1 0x0 NOT PUSH1 0xF8 DUP5 PUSH1 0x3 SHL AND SHR NOT AND SWAP1 SSTORE DUP7 DUP1 DUP1 PUSH2 0x30AF JUMP JUMPDEST DUP2 DUP2 ADD MLOAD DUP4 SSTORE PUSH1 0x20 SWAP5 DUP6 ADD SWAP5 PUSH1 0x1 SWAP1 SWAP4 ADD SWAP3 SWAP1 SWAP2 ADD SWAP1 PUSH2 0x3094 JUMP JUMPDEST SWAP1 SWAP2 POP PUSH1 0x1 DUP6 ADD PUSH1 0x0 MSTORE PUSH1 0x20 PUSH1 0x0 KECCAK256 PUSH1 0x1F DUP5 ADD PUSH1 0x5 SHR DUP2 ADD PUSH1 0x20 DUP6 LT PUSH2 0x313F JUMPI JUMPDEST SWAP1 DUP5 SWAP4 SWAP3 SWAP2 JUMPDEST PUSH1 0x1F DUP4 ADD PUSH1 0x5 SHR DUP3 ADD DUP2 LT PUSH2 0x3130 JUMPI POP POP PUSH2 0x2A46 JUMP JUMPDEST PUSH1 0x0 DUP2 SSTORE DUP6 SWAP5 POP PUSH1 0x1 ADD PUSH2 0x311A JUMP JUMPDEST POP DUP1 PUSH2 0x3114 JUMP JUMPDEST PUSH1 0x40 MLOAD PUSH3 0x461BCD PUSH1 0xE5 SHL DUP2 MSTORE PUSH1 0x20 PUSH1 0x4 DUP3 ADD MSTORE PUSH1 0x10 PUSH1 0x24 DUP3 ADD MSTORE PUSH16 0x4F776E65722063616E6E6F7420627579 PUSH1 0x80 SHL PUSH1 0x44 DUP3 ADD MSTORE PUSH1 0x64 SWAP1 REVERT JUMPDEST PUSH1 0x40 MLOAD PUSH3 0x461BCD PUSH1 0xE5 SHL DUP2 MSTORE PUSH1 0x20 PUSH1 0x4 DUP3 ADD MSTORE PUSH1 0x14 PUSH1 0x24 DUP3 ADD MSTORE PUSH20 0x125B9CDD59999A58DA595B9D081C185E5B595B9D PUSH1 0x62 SHL PUSH1 0x44 DUP3 ADD MSTORE PUSH1 0x64 SWAP1 REVERT JUMPDEST PUSH1 0x40 MLOAD PUSH3 0x461BCD PUSH1 0xE5 SHL DUP2 MSTORE PUSH1 0x20 PUSH1 0x4 DUP3 ADD MSTORE PUSH1 0xC PUSH1 0x24 DUP3 ADD MSTORE PUSH12 0x4E6F7420666F722073616C65 PUSH1 0xA0 SHL PUSH1 0x44 DUP3 ADD MSTORE PUSH1 0x64 SWAP1 REVERT JUMPDEST CALLVALUE PUSH2 0x370 JUMPI PUSH2 0x100 CALLDATASIZE PUSH1 0x3 NOT ADD SLT PUSH2 0x370 JUMPI PUSH1 0x4 CALLDATALOAD PUSH1 0x1 PUSH1 0x1 PUSH1 0x40 SHL SUB DUP2 GT PUSH2 0x370 JUMPI PUSH2 0x321F SWAP1 CALLDATASIZE SWAP1 PUSH1 0x4 ADD PUSH2 0x49A0 JUMP JUMPDEST PUSH1 0x24 CALLDATALOAD PUSH1 0x1 PUSH1 0x1 PUSH1 0x40 SHL SUB DUP2 GT PUSH2 0x370 JUMPI PUSH2 0x323E SWAP1 CALLDATASIZE SWAP1 PUSH1 0x4 ADD PUSH2 0x49A0 JUMP JUMPDEST SWAP1 PUSH1 0x44 CALLDATALOAD PUSH1 0x1 PUSH1 0x1 PUSH1 0x40 SHL SUB DUP2 GT PUSH2 0x370 JUMPI PUSH2 0x325E SWAP1 CALLDATASIZE SWAP1 PUSH1 0x4 ADD PUSH2 0x47FC JUMP JUMPDEST PUSH1 0x64 CALLDATALOAD PUSH1 0x1 PUSH1 0x1 PUSH1 0x40 SHL SUB DUP2 GT PUSH2 0x370 JUMPI PUSH2 0x327D SWAP1 CALLDATASIZE SWAP1 PUSH1 0x4 ADD PUSH2 0x49A0 JUMP JUMPDEST SWAP2 PUSH1 0x84 CALLDATALOAD SWAP3 PUSH1 0x1 PUSH1 0x1 PUSH1 0x40 SHL SUB DUP5 GT PUSH2 0x370 JUMPI CALLDATASIZE PUSH1 0x23 DUP6 ADD SLT ISZERO PUSH2 0x370 JUMPI DUP4 PUSH1 0x4 ADD CALLDATALOAD SWAP4 PUSH2 0x32AA DUP6 PUSH2 0x47E5 JUMP JUMPDEST SWAP5 PUSH2 0x32B8 PUSH1 0x40 MLOAD SWAP7 DUP8 PUSH2 0x47C4 JUMP JUMPDEST DUP1 DUP7 MSTORE PUSH1 0x24 PUSH1 0x20 DUP8 ADD SWAP2 PUSH1 0x5 SHL DUP4 ADD ADD SWAP2 CALLDATASIZE DUP4 GT PUSH2 0x370 JUMPI PUSH1 0x24 ADD SWAP1 JUMPDEST DUP3 DUP3 LT PUSH2 0x3C34 JUMPI POP POP POP PUSH1 0xA4 CALLDATALOAD PUSH1 0x1 PUSH1 0x1 PUSH1 0x40 SHL SUB DUP2 GT PUSH2 0x370 JUMPI PUSH2 0x32FE SWAP1 CALLDATASIZE SWAP1 PUSH1 0x4 ADD PUSH2 0x49A0 JUMP JUMPDEST SWAP2 PUSH1 0xC4 CALLDATALOAD PUSH1 0x1 PUSH1 0x1 PUSH1 0x40 SHL SUB DUP2 GT PUSH2 0x370 JUMPI PUSH2 0x331E SWAP1 CALLDATASIZE SWAP1 PUSH1 0x4 ADD PUSH2 0x47FC JUMP JUMPDEST SWAP6 PUSH1 0x1 PUSH1 0x1 PUSH1 0x40 SHL SUB PUSH1 0xE4 CALLDATALOAD GT PUSH2 0x370 JUMPI PUSH2 0x333E CALLDATASIZE PUSH1 0xE4 CALLDATALOAD PUSH1 0x4 ADD PUSH2 0x49A0 JUMP JUMPDEST SWAP6 PUSH2 0x334C DUP4 MLOAD DUP4 MLOAD EQ PUSH2 0x5171 JUMP JUMPDEST PUSH2 0x3359 DUP4 MLOAD DUP8 MLOAD EQ PUSH2 0x5171 JUMP JUMPDEST PUSH2 0x3366 DUP4 MLOAD DUP6 MLOAD EQ PUSH2 0x5171 JUMP JUMPDEST PUSH2 0x3373 DUP4 MLOAD DUP3 MLOAD EQ PUSH2 0x5171 JUMP JUMPDEST PUSH2 0x3380 DUP4 MLOAD DUP7 MLOAD EQ PUSH2 0x5171 JUMP JUMPDEST PUSH2 0x338D DUP4 MLOAD DUP10 MLOAD EQ PUSH2 0x5171 JUMP JUMPDEST PUSH2 0x339A DUP4 MLOAD DUP9 MLOAD EQ PUSH2 0x5171 JUMP JUMPDEST PUSH1 0x0 SWAP7 DUP8 JUMPDEST DUP8 MLOAD DUP10 LT ISZERO PUSH2 0x33CC JUMPI PUSH2 0x33C0 PUSH2 0x33C6 SWAP2 PUSH2 0x33B9 DUP12 DUP12 PUSH2 0x51AE JUMP JUMPDEST MLOAD SWAP1 PUSH2 0x4D48 JUMP JUMPDEST SWAP9 PUSH2 0x505D JUMP JUMPDEST SWAP8 PUSH2 0x339F JUMP JUMPDEST PUSH2 0x33E1 PUSH2 0x848 DUP12 SWAP3 SWAP10 SWAP8 SWAP9 SWAP10 PUSH2 0x843 CALLER PUSH2 0x506C JUMP JUMPDEST PUSH2 0x3408 PUSH2 0x33F8 PUSH2 0x33F0 CALLER PUSH2 0x50F6 JUMP JUMPDEST DUP8 MLOAD SWAP1 PUSH2 0x4D48 JUMP JUMPDEST PUSH2 0x3401 CALLER PUSH2 0x4BBD JUMP JUMPDEST LT ISZERO PUSH2 0x4DB0 JUMP JUMPDEST PUSH2 0x3412 DUP6 MLOAD PUSH2 0x51D8 JUMP JUMPDEST SWAP7 PUSH1 0x0 JUMPDEST DUP7 MLOAD DUP2 LT ISZERO PUSH2 0x3C26 JUMPI DUP1 PUSH2 0x342B DUP8 SWAP3 DUP8 PUSH2 0x51AE JUMP JUMPDEST MLOAD PUSH1 0x0 MSTORE PUSH1 0x3 PUSH1 0x20 MSTORE PUSH2 0x3446 PUSH1 0xFF PUSH1 0x40 PUSH1 0x0 KECCAK256 SLOAD AND ISZERO PUSH2 0x4CFD JUMP JUMPDEST DUP8 DUP10 DUP13 DUP9 PUSH2 0x346D DUP6 PUSH2 0x3466 DUP2 PUSH2 0x345F DUP2 PUSH1 0x0 SLOAD SWAP10 PUSH2 0x51AE JUMP JUMPDEST MLOAD SWAP10 PUSH2 0x51AE JUMP JUMPDEST MLOAD SWAP5 PUSH2 0x51AE JUMP JUMPDEST MLOAD SWAP2 PUSH2 0x348F DUP7 PUSH2 0x3488 DUP2 PUSH2 0x3481 DUP2 DUP14 PUSH2 0x51AE JUMP JUMPDEST MLOAD SWAP6 PUSH2 0x51AE JUMP JUMPDEST MLOAD SWAP3 PUSH2 0x51AE JUMP JUMPDEST MLOAD SWAP1 PUSH2 0x349B DUP8 DUP12 PUSH2 0x51AE JUMP JUMPDEST MLOAD SWAP3 PUSH2 0x34A7 DUP9 DUP14 PUSH2 0x51AE JUMP JUMPDEST MLOAD SWAP5 PUSH1 0x40 MLOAD SWAP7 PUSH2 0x34B6 DUP9 PUSH2 0x4772 JUMP JUMPDEST DUP9 DUP9 MSTORE PUSH1 0x20 DUP9 ADD SWAP11 DUP12 MSTORE PUSH1 0x40 DUP9 ADD MSTORE PUSH1 0x60 DUP8 ADD MSTORE PUSH1 0x80 DUP7 ADD MSTORE CALLER PUSH1 0xA0 DUP7 ADD MSTORE TIMESTAMP PUSH1 0xC0 DUP7 ADD MSTORE PUSH1 0xE0 DUP6 ADD MSTORE PUSH2 0x100 DUP5 ADD MSTORE PUSH2 0x120 DUP4 ADD MSTORE PUSH2 0x140 DUP3 ADD MSTORE PUSH1 0x1 PUSH1 0x40 SHL DUP3 LT ISZERO PUSH2 0xC6B JUMPI PUSH1 0x1 DUP3 ADD PUSH1 0x0 SSTORE PUSH2 0x350E DUP3 PUSH2 0x4DFC JUMP JUMPDEST SWAP5 SWAP1 SWAP5 PUSH2 0xFB7 JUMPI DUP2 MLOAD DUP6 SSTORE MLOAD DUP1 MLOAD SWAP1 PUSH1 0x1 PUSH1 0x1 PUSH1 0x40 SHL SUB DUP3 GT PUSH2 0xC6B JUMPI DUP2 SWAP1 PUSH2 0x353A PUSH1 0x1 DUP9 ADD SLOAD PUSH2 0x4A20 JUMP JUMPDEST PUSH1 0x1F DUP2 GT PUSH2 0x3BD3 JUMPI JUMPDEST POP PUSH1 0x20 SWAP1 PUSH1 0x1F DUP4 GT PUSH1 0x1 EQ PUSH2 0x3B61 JUMPI PUSH1 0x0 SWAP3 PUSH2 0x3B56 JUMPI JUMPDEST POP POP DUP2 PUSH1 0x1 SHL SWAP2 PUSH1 0x0 NOT SWAP1 PUSH1 0x3 SHL SHR NOT AND OR PUSH1 0x1 DUP6 ADD SSTORE JUMPDEST PUSH1 0x40 DUP2 ADD MLOAD DUP1 MLOAD SWAP1 PUSH1 0x1 PUSH1 0x1 PUSH1 0x40 SHL SUB DUP3 GT PUSH2 0xC6B JUMPI DUP2 SWAP1 PUSH2 0x3597 PUSH1 0x2 DUP9 ADD SLOAD PUSH2 0x4A20 JUMP JUMPDEST PUSH1 0x1F DUP2 GT PUSH2 0x3B03 JUMPI JUMPDEST POP PUSH1 0x20 SWAP1 PUSH1 0x1F DUP4 GT PUSH1 0x1 EQ PUSH2 0x3A91 JUMPI PUSH1 0x0 SWAP3 PUSH2 0x3A86 JUMPI JUMPDEST POP POP DUP2 PUSH1 0x1 SHL SWAP2 PUSH1 0x0 NOT SWAP1 PUSH1 0x3 SHL SHR NOT AND OR PUSH1 0x2 DUP6 ADD SSTORE JUMPDEST PUSH1 0x60 DUP2 ADD MLOAD PUSH1 0x3 DUP6 ADD SSTORE PUSH1 0x80 DUP2 ADD MLOAD DUP1 MLOAD SWAP1 PUSH1 0x1 PUSH1 0x1 PUSH1 0x40 SHL SUB DUP3 GT PUSH2 0xC6B JUMPI DUP2 SWAP1 PUSH2 0x35FE PUSH1 0x4 DUP9 ADD SLOAD PUSH2 0x4A20 JUMP JUMPDEST PUSH1 0x1F DUP2 GT PUSH2 0x3A33 JUMPI JUMPDEST POP PUSH1 0x20 SWAP1 PUSH1 0x1F DUP4 GT PUSH1 0x1 EQ PUSH2 0x39C1 JUMPI PUSH1 0x0 SWAP3 PUSH2 0x39B6 JUMPI JUMPDEST POP POP DUP2 PUSH1 0x1 SHL SWAP2 PUSH1 0x0 NOT SWAP1 PUSH1 0x3 SHL SHR NOT AND OR PUSH1 0x4 DUP6 ADD SSTORE JUMPDEST PUSH1 0x5 DUP5 ADD PUSH1 0x1 DUP1 PUSH1 0xA0 SHL SUB PUSH1 0xA0 DUP4 ADD MLOAD AND PUSH1 0x1 PUSH1 0x1 PUSH1 0x60 SHL SUB PUSH1 0xA0 SHL DUP3 SLOAD AND OR SWAP1 SSTORE PUSH1 0xC0 DUP2 ADD MLOAD PUSH1 0x6 DUP6 ADD SSTORE PUSH1 0xE0 DUP2 ADD MLOAD PUSH1 0x7 DUP6 ADD SSTORE PUSH2 0x100 DUP2 ADD MLOAD DUP1 MLOAD SWAP1 PUSH1 0x1 PUSH1 0x1 PUSH1 0x40 SHL SUB DUP3 GT PUSH2 0xC6B JUMPI PUSH2 0x3690 PUSH1 0x8 DUP8 ADD SLOAD PUSH2 0x4A20 JUMP JUMPDEST PUSH1 0x1F DUP2 GT PUSH2 0x396F JUMPI JUMPDEST POP PUSH1 0x20 SWAP1 PUSH1 0x1F DUP4 GT PUSH1 0x1 EQ PUSH2 0x38FB JUMPI PUSH2 0x140 SWAP4 SWAP3 SWAP2 PUSH1 0x0 SWAP2 DUP4 PUSH2 0x38F0 JUMPI JUMPDEST POP POP DUP2 PUSH1 0x1 SHL SWAP2 PUSH1 0x0 NOT SWAP1 PUSH1 0x3 SHL SHR NOT AND OR PUSH1 0x8 DUP7 ADD SSTORE JUMPDEST PUSH2 0x120 DUP2 ADD MLOAD PUSH1 0x9 DUP7 ADD SSTORE ADD MLOAD DUP1 MLOAD SWAP1 PUSH1 0x1 PUSH1 0x1 PUSH1 0x40 SHL SUB DUP3 GT PUSH2 0xC6B JUMPI DUP5 DUP12 SWAP3 DUP11 SWAP3 PUSH2 0x3700 PUSH1 0xA DUP15 SWAP10 ADD SLOAD PUSH2 0x4A20 JUMP JUMPDEST PUSH1 0x1F DUP2 GT PUSH2 0x387C JUMPI JUMPDEST POP PUSH1 0x20 SWAP1 PUSH1 0x1F DUP4 GT PUSH1 0x1 EQ PUSH2 0x37D8 JUMPI PUSH2 0x3481 DUP9 PUSH2 0x37C8 SWAP11 DUP10 SWAP8 PUSH1 0x0 DUP1 MLOAD PUSH1 0x20 PUSH2 0x5586 DUP4 CODECOPY DUP2 MLOAD SWAP2 MSTORE SWAP8 PUSH1 0xA DUP9 PUSH2 0x37BB SWAP10 PUSH2 0x11AE SWAP10 DUP8 SWAP10 PUSH1 0x0 SWAP3 PUSH2 0x37CD JUMPI JUMPDEST POP POP DUP2 PUSH1 0x1 SHL SWAP2 PUSH1 0x0 NOT SWAP1 PUSH1 0x3 SHL SHR NOT AND OR SWAP2 ADD SSTORE JUMPDEST DUP9 PUSH1 0x0 MSTORE PUSH1 0x2 PUSH1 0x20 MSTORE PUSH1 0x40 PUSH1 0x0 KECCAK256 CALLER PUSH1 0x0 MSTORE PUSH1 0x20 MSTORE PUSH2 0x378E DUP4 PUSH1 0x40 PUSH1 0x0 KECCAK256 SWAP3 PUSH1 0xFF NOT SWAP4 PUSH1 0x1 DUP6 DUP3 SLOAD AND OR SWAP1 SSTORE PUSH2 0x51AE JUMP JUMPDEST MLOAD PUSH1 0x0 MSTORE PUSH1 0x3 PUSH1 0x20 MSTORE PUSH1 0x1 PUSH1 0x40 PUSH1 0x0 KECCAK256 SWAP2 DUP3 SLOAD AND OR SWAP1 SSTORE PUSH2 0x37B6 PUSH2 0x37B0 PUSH2 0x4E4A JUMP JUMPDEST DUP10 PUSH2 0x4E96 JUMP JUMPDEST PUSH2 0x51AE JUMP JUMPDEST SUB SWAP1 LOG3 PUSH2 0x43E DUP3 DUP13 PUSH2 0x51AE JUMP JUMPDEST PUSH2 0x3416 JUMP JUMPDEST ADD MLOAD SWAP1 POP CODESIZE DUP1 PUSH2 0x3747 JUMP JUMPDEST SWAP1 PUSH1 0xA DUP5 ADD PUSH1 0x0 MSTORE PUSH1 0x20 PUSH1 0x0 KECCAK256 SWAP2 PUSH1 0x0 JUMPDEST PUSH1 0x1F NOT DUP6 AND DUP2 LT PUSH2 0x3851 JUMPI POP DUP9 PUSH2 0x37C8 SWAP11 DUP10 SWAP8 PUSH1 0x0 DUP1 MLOAD PUSH1 0x20 PUSH2 0x5586 DUP4 CODECOPY DUP2 MLOAD SWAP2 MSTORE SWAP8 PUSH1 0xA PUSH1 0x1 DUP10 PUSH2 0x11AE SWAP10 DUP8 SWAP10 PUSH2 0x3481 SWAP10 PUSH2 0x37BB SWAP14 PUSH1 0x1F NOT DUP2 AND LT PUSH2 0x3838 JUMPI JUMPDEST POP POP POP DUP2 SHL ADD SWAP2 ADD SSTORE PUSH2 0x375D JUMP JUMPDEST ADD MLOAD PUSH1 0x0 NOT PUSH1 0xF8 DUP5 PUSH1 0x3 SHL AND SHR NOT AND SWAP1 SSTORE CODESIZE DUP1 DUP1 PUSH2 0x382A JUMP JUMPDEST SWAP5 SWAP8 SWAP9 SWAP10 POP SWAP3 SWAP6 POP SWAP4 POP PUSH1 0x20 PUSH1 0x1 DUP2 SWAP3 DUP7 DUP6 ADD MLOAD DUP2 SSTORE ADD SWAP5 ADD SWAP3 ADD SWAP3 DUP13 SWAP8 SWAP7 SWAP6 SWAP3 DUP15 SWAP6 SWAP3 DUP14 SWAP6 PUSH2 0x37E9 JUMP JUMPDEST SWAP3 SWAP6 SWAP7 SWAP8 POP SWAP3 POP SWAP3 POP PUSH1 0xA DUP5 ADD PUSH1 0x0 MSTORE PUSH1 0x20 PUSH1 0x0 KECCAK256 PUSH1 0x1F DUP5 ADD PUSH1 0x5 SHR DUP2 ADD PUSH1 0x20 DUP6 LT PUSH2 0x38E9 JUMPI JUMPDEST SWAP3 DUP13 SWAP8 SWAP7 SWAP6 SWAP3 DUP15 SWAP6 SWAP3 DUP14 SWAP6 JUMPDEST PUSH1 0x1F DUP4 ADD PUSH1 0x5 SHR DUP3 ADD DUP2 LT PUSH2 0x38C5 JUMPI POP POP PUSH2 0x3709 JUMP JUMPDEST DUP1 SWAP3 SWAP6 SWAP9 SWAP10 SWAP11 POP PUSH1 0x0 SWAP2 SWAP5 SWAP8 POP PUSH1 0x1 SWAP4 SWAP7 POP SSTORE ADD SWAP3 DUP13 SWAP8 SWAP7 SWAP6 SWAP3 DUP15 SWAP6 SWAP3 DUP14 SWAP6 PUSH2 0x38AF JUMP JUMPDEST POP DUP1 PUSH2 0x38A3 JUMP JUMPDEST ADD MLOAD SWAP1 POP CODESIZE DUP1 PUSH2 0x36B7 JUMP JUMPDEST SWAP1 PUSH1 0x8 DUP8 ADD PUSH1 0x0 MSTORE PUSH1 0x20 PUSH1 0x0 KECCAK256 SWAP2 PUSH1 0x0 JUMPDEST PUSH1 0x1F NOT DUP6 AND DUP2 LT PUSH2 0x3957 JUMPI POP SWAP2 DUP4 SWAP2 PUSH1 0x1 SWAP4 PUSH2 0x140 SWAP7 SWAP6 PUSH1 0x1F NOT DUP2 AND LT PUSH2 0x393E JUMPI JUMPDEST POP POP POP DUP2 SHL ADD PUSH1 0x8 DUP7 ADD SSTORE PUSH2 0x36CF JUMP JUMPDEST ADD MLOAD PUSH1 0x0 NOT PUSH1 0xF8 DUP5 PUSH1 0x3 SHL AND SHR NOT AND SWAP1 SSTORE CODESIZE DUP1 DUP1 PUSH2 0x392E JUMP JUMPDEST SWAP2 SWAP3 PUSH1 0x20 PUSH1 0x1 DUP2 SWAP3 DUP7 DUP6 ADD MLOAD DUP2 SSTORE ADD SWAP5 ADD SWAP3 ADD PUSH2 0x390C JUMP JUMPDEST PUSH1 0x8 DUP8 ADD PUSH1 0x0 MSTORE PUSH1 0x20 PUSH1 0x0 KECCAK256 PUSH1 0x1F DUP5 ADD PUSH1 0x5 SHR DUP2 ADD PUSH1 0x20 DUP6 LT PUSH2 0x39AF JUMPI JUMPDEST PUSH1 0x1F DUP4 ADD PUSH1 0x5 SHR DUP3 ADD DUP2 LT PUSH2 0x39A3 JUMPI POP POP PUSH2 0x3699 JUMP JUMPDEST PUSH1 0x0 DUP2 SSTORE PUSH1 0x1 ADD PUSH2 0x398D JUMP JUMPDEST POP DUP1 PUSH2 0x398D JUMP JUMPDEST ADD MLOAD SWAP1 POP DUP16 DUP1 PUSH2 0x361E JUMP JUMPDEST SWAP3 POP PUSH1 0x4 DUP8 ADD PUSH1 0x0 MSTORE PUSH1 0x20 PUSH1 0x0 KECCAK256 SWAP1 PUSH1 0x0 SWAP4 JUMPDEST PUSH1 0x1F NOT DUP5 AND DUP6 LT PUSH2 0x3A18 JUMPI PUSH1 0x1 SWAP5 POP DUP4 PUSH1 0x1F NOT DUP2 AND LT PUSH2 0x39FF JUMPI JUMPDEST POP POP POP DUP2 SHL ADD PUSH1 0x4 DUP6 ADD SSTORE PUSH2 0x3636 JUMP JUMPDEST ADD MLOAD PUSH1 0x0 NOT PUSH1 0xF8 DUP5 PUSH1 0x3 SHL AND SHR NOT AND SWAP1 SSTORE DUP16 DUP1 DUP1 PUSH2 0x39EF JUMP JUMPDEST DUP2 DUP2 ADD MLOAD DUP4 SSTORE PUSH1 0x20 SWAP5 DUP6 ADD SWAP5 PUSH1 0x1 SWAP1 SWAP4 ADD SWAP3 SWAP1 SWAP2 ADD SWAP1 PUSH2 0x39D4 JUMP JUMPDEST SWAP1 SWAP2 POP PUSH1 0x4 DUP8 ADD PUSH1 0x0 MSTORE PUSH1 0x20 PUSH1 0x0 KECCAK256 PUSH1 0x1F DUP5 ADD PUSH1 0x5 SHR DUP2 ADD PUSH1 0x20 DUP6 LT PUSH2 0x3A7F JUMPI JUMPDEST SWAP1 DUP5 SWAP4 SWAP3 SWAP2 JUMPDEST PUSH1 0x1F DUP4 ADD PUSH1 0x5 SHR DUP3 ADD DUP2 LT PUSH2 0x3A70 JUMPI POP POP PUSH2 0x3607 JUMP JUMPDEST PUSH1 0x0 DUP2 SSTORE DUP6 SWAP5 POP PUSH1 0x1 ADD PUSH2 0x3A5A JUMP JUMPDEST POP DUP1 PUSH2 0x3A54 JUMP JUMPDEST ADD MLOAD SWAP1 POP DUP16 DUP1 PUSH2 0x35B7 JUMP JUMPDEST SWAP3 POP PUSH1 0x2 DUP8 ADD PUSH1 0x0 MSTORE PUSH1 0x20 PUSH1 0x0 KECCAK256 SWAP1 PUSH1 0x0 SWAP4 JUMPDEST PUSH1 0x1F NOT DUP5 AND DUP6 LT PUSH2 0x3AE8 JUMPI PUSH1 0x1 SWAP5 POP DUP4 PUSH1 0x1F NOT DUP2 AND LT PUSH2 0x3ACF JUMPI JUMPDEST POP POP POP DUP2 SHL ADD PUSH1 0x2 DUP6 ADD SSTORE PUSH2 0x35CF JUMP JUMPDEST ADD MLOAD PUSH1 0x0 NOT PUSH1 0xF8 DUP5 PUSH1 0x3 SHL AND SHR NOT AND SWAP1 SSTORE DUP16 DUP1 DUP1 PUSH2 0x3ABF JUMP JUMPDEST DUP2 DUP2 ADD MLOAD DUP4 SSTORE PUSH1 0x20 SWAP5 DUP6 ADD SWAP5 PUSH1 0x1 SWAP1 SWAP4 ADD SWAP3 SWAP1 SWAP2 ADD SWAP1 PUSH2 0x3AA4 JUMP JUMPDEST SWAP1 SWAP2 POP PUSH1 0x2 DUP8 ADD PUSH1 0x0 MSTORE PUSH1 0x20 PUSH1 0x0 KECCAK256 PUSH1 0x1F DUP5 ADD PUSH1 0x5 SHR DUP2 ADD PUSH1 0x20 DUP6 LT PUSH2 0x3B4F JUMPI JUMPDEST SWAP1 DUP5 SWAP4 SWAP3 SWAP2 JUMPDEST PUSH1 0x1F DUP4 ADD PUSH1 0x5 SHR DUP3 ADD DUP2 LT PUSH2 0x3B40 JUMPI POP POP PUSH2 0x35A0 JUMP JUMPDEST PUSH1 0x0 DUP2 SSTORE DUP6 SWAP5 POP PUSH1 0x1 ADD PUSH2 0x3B2A JUMP JUMPDEST POP DUP1 PUSH2 0x3B24 JUMP JUMPDEST ADD MLOAD SWAP1 POP DUP16 DUP1 PUSH2 0x355A JUMP JUMPDEST SWAP3 POP PUSH1 0x1 DUP8 ADD PUSH1 0x0 MSTORE PUSH1 0x20 PUSH1 0x0 KECCAK256 SWAP1 PUSH1 0x0 SWAP4 JUMPDEST PUSH1 0x1F NOT DUP5 AND DUP6 LT PUSH2 0x3BB8 JUMPI PUSH1 0x1 SWAP5 POP DUP4 PUSH1 0x1F NOT DUP2 AND LT PUSH2 0x3B9F JUMPI JUMPDEST POP POP POP DUP2 SHL ADD PUSH1 0x1 DUP6 ADD SSTORE PUSH2 0x3572 JUMP JUMPDEST ADD MLOAD PUSH1 0x0 NOT PUSH1 0xF8 DUP5 PUSH1 0x3 SHL AND SHR NOT AND SWAP1 SSTORE DUP16 DUP1 DUP1 PUSH2 0x3B8F JUMP JUMPDEST DUP2 DUP2 ADD MLOAD DUP4 SSTORE PUSH1 0x20 SWAP5 DUP6 ADD SWAP5 PUSH1 0x1 SWAP1 SWAP4 ADD SWAP3 SWAP1 SWAP2 ADD SWAP1 PUSH2 0x3B74 JUMP JUMPDEST SWAP1 SWAP2 POP PUSH1 0x1 DUP8 ADD PUSH1 0x0 MSTORE PUSH1 0x20 PUSH1 0x0 KECCAK256 PUSH1 0x1F DUP5 ADD PUSH1 0x5 SHR DUP2 ADD PUSH1 0x20 DUP6 LT PUSH2 0x3C1F JUMPI JUMPDEST SWAP1 DUP5 SWAP4 SWAP3 SWAP2 JUMPDEST PUSH1 0x1F DUP4 ADD PUSH1 0x5 SHR DUP3 ADD DUP2 LT PUSH2 0x3C10 JUMPI POP POP PUSH2 0x3543 JUMP JUMPDEST PUSH1 0x0 DUP2 SSTORE DUP6 SWAP5 POP PUSH1 0x1 ADD PUSH2 0x3BFA JUMP JUMPDEST POP DUP1 PUSH2 0x3BF4 JUMP JUMPDEST PUSH1 0x40 MLOAD DUP1 PUSH2 0x3EE DUP12 DUP3 PUSH2 0x491D JUMP JUMPDEST DUP2 CALLDATALOAD DUP2 MSTORE PUSH1 0x20 SWAP2 DUP3 ADD SWAP2 ADD PUSH2 0x32D5 JUMP JUMPDEST CALLVALUE PUSH2 0x370 JUMPI PUSH1 0x20 DUP1 PUSH1 0x3 NOT CALLDATASIZE ADD SLT PUSH2 0x370 JUMPI PUSH1 0x1 PUSH1 0x1 PUSH1 0x40 SHL SUB PUSH1 0x4 CALLDATALOAD DUP2 DUP2 GT PUSH2 0x370 JUMPI PUSH2 0x3C76 SWAP1 CALLDATASIZE SWAP1 PUSH1 0x4 ADD PUSH2 0x48C7 JUMP JUMPDEST SWAP1 PUSH2 0x3C85 PUSH1 0x3 DUP4 MLOAD LT ISZERO PUSH2 0x4C07 JUMP JUMPDEST PUSH2 0x3C92 DUP4 DUP4 MLOAD GT ISZERO PUSH2 0x4C48 JUMP JUMPDEST CALLER PUSH1 0x0 MSTORE PUSH1 0x8 DUP4 MSTORE PUSH2 0x3CA8 PUSH1 0x40 PUSH1 0x0 KECCAK256 SLOAD PUSH2 0x4A20 JUMP JUMPDEST PUSH2 0x3DFA JUMPI PUSH1 0x40 MLOAD PUSH2 0x3CC4 DUP4 MLOAD SWAP2 DUP6 DUP6 ADD SWAP3 PUSH2 0x240F DUP2 DUP4 DUP7 PUSH2 0x4958 JUMP JUMPDEST CALLER PUSH1 0x0 MSTORE PUSH1 0x8 DUP5 MSTORE PUSH1 0x40 PUSH1 0x0 KECCAK256 DUP4 MLOAD SWAP3 DUP4 GT PUSH2 0xC6B JUMPI DUP5 SWAP3 PUSH2 0x3CE6 DUP3 SLOAD PUSH2 0x4A20 JUMP JUMPDEST PUSH1 0x1F DUP2 GT PUSH2 0x3DA5 JUMPI JUMPDEST POP DUP4 PUSH1 0x1F DUP3 GT PUSH1 0x1 EQ PUSH2 0x3D43 JUMPI SWAP3 PUSH2 0x24D1 SWAP3 DUP3 PUSH2 0x2500 SWAP7 SWAP4 PUSH1 0x0 DUP1 MLOAD PUSH1 0x20 PUSH2 0x55A6 DUP4 CODECOPY DUP2 MLOAD SWAP2 MSTORE SWAP9 SWAP7 PUSH1 0x0 SWAP2 PUSH2 0x2505 JUMPI POP DUP2 PUSH1 0x1 SHL SWAP2 PUSH1 0x0 NOT SWAP1 PUSH1 0x3 SHL SHR NOT AND OR SWAP1 SSTORE PUSH1 0x40 MLOAD DUP1 SWAP4 DUP2 SWAP3 DUP7 MLOAD SWAP3 DUP4 SWAP2 PUSH2 0x4958 JUMP JUMPDEST PUSH1 0x1F NOT DUP3 AND SWAP1 DUP4 PUSH1 0x0 MSTORE DUP6 PUSH1 0x0 KECCAK256 SWAP2 PUSH1 0x0 JUMPDEST DUP2 DUP2 LT PUSH2 0x3D8E JUMPI POP DUP4 PUSH1 0x0 DUP1 MLOAD PUSH1 0x20 PUSH2 0x55A6 DUP4 CODECOPY DUP2 MLOAD SWAP2 MSTORE SWAP9 SWAP7 SWAP4 PUSH2 0x24D1 SWAP7 SWAP4 PUSH2 0x2500 SWAP10 SWAP7 PUSH1 0x1 SWAP5 LT PUSH2 0x255C JUMPI POP POP DUP2 SHL ADD SWAP1 SSTORE PUSH2 0x24C0 JUMP JUMPDEST SWAP2 SWAP3 DUP8 PUSH1 0x1 DUP2 SWAP3 DUP7 DUP13 ADD MLOAD DUP2 SSTORE ADD SWAP5 ADD SWAP3 ADD PUSH2 0x3D55 JUMP JUMPDEST SWAP1 SWAP2 DUP1 SWAP4 SWAP5 POP PUSH1 0x0 MSTORE DUP6 PUSH1 0x0 KECCAK256 PUSH1 0x1F DUP4 ADD PUSH1 0x5 SHR DUP2 ADD SWAP2 DUP8 DUP5 LT PUSH2 0x3DF0 JUMPI JUMPDEST SWAP1 PUSH1 0x1F DUP9 SWAP7 SWAP6 SWAP5 SWAP4 SWAP3 ADD PUSH1 0x5 SHR ADD SWAP1 JUMPDEST DUP2 DUP2 LT PUSH2 0x3DE1 JUMPI POP PUSH2 0x3CEF JUMP JUMPDEST PUSH1 0x0 DUP2 SSTORE DUP8 SWAP6 POP PUSH1 0x1 ADD PUSH2 0x3DD4 JUMP JUMPDEST SWAP1 SWAP2 POP DUP2 SWAP1 PUSH2 0x3DC4 JUMP JUMPDEST PUSH1 0x40 MLOAD PUSH3 0x461BCD PUSH1 0xE5 SHL DUP2 MSTORE PUSH1 0x4 DUP2 ADD DUP5 SWAP1 MSTORE PUSH1 0x12 PUSH1 0x24 DUP3 ADD MSTORE PUSH18 0x105B1C9958591E481C9959DA5CDD195C9959 PUSH1 0x72 SHL PUSH1 0x44 DUP3 ADD MSTORE PUSH1 0x64 SWAP1 REVERT JUMPDEST CALLVALUE PUSH2 0x370 JUMPI PUSH1 0x0 CALLDATASIZE PUSH1 0x3 NOT ADD SLT PUSH2 0x370 JUMPI PUSH1 0x20 PUSH1 0xC SLOAD PUSH1 0x40 MLOAD SWAP1 DUP2 MSTORE RETURN JUMPDEST CALLVALUE PUSH2 0x370 JUMPI PUSH1 0x20 CALLDATASIZE PUSH1 0x3 NOT ADD SLT PUSH2 0x370 JUMPI PUSH1 0x4 CALLDATALOAD PUSH2 0x3E73 PUSH1 0x0 SLOAD DUP3 LT PUSH2 0x520A JUMP JUMPDEST PUSH2 0x3E7C DUP2 PUSH2 0x4DFC JUMP JUMPDEST POP PUSH1 0x5 DUP2 ADD SLOAD PUSH1 0x1 PUSH1 0x1 PUSH1 0xA0 SHL SUB AND SWAP2 DUP3 ISZERO SWAP2 SWAP1 DUP3 ISZERO PUSH2 0x3F7C JUMPI JUMPDEST POP DUP1 SLOAD SWAP2 PUSH1 0x3 DUP3 ADD SLOAD SWAP2 PUSH1 0x6 DUP2 ADD SLOAD SWAP5 PUSH1 0x7 DUP3 ADD SLOAD PUSH1 0x9 DUP4 ADD SLOAD SWAP4 PUSH1 0x1 DUP5 ADD PUSH2 0x3EBF SWAP1 PUSH2 0x4A5A JUMP JUMPDEST SWAP8 PUSH2 0x3ECC PUSH1 0x2 DUP7 ADD PUSH2 0x4A5A JUMP JUMPDEST SWAP7 PUSH2 0x3ED9 PUSH1 0x4 DUP8 ADD PUSH2 0x4A5A JUMP JUMPDEST SWAP1 PUSH2 0x3EE6 PUSH1 0x8 DUP9 ADD PUSH2 0x4A5A JUMP JUMPDEST SWAP7 PUSH1 0xA ADD PUSH2 0x3EF3 SWAP1 PUSH2 0x4A5A JUMP JUMPDEST SWAP9 PUSH1 0x40 MLOAD SWAP12 DUP13 SWAP12 DUP13 MSTORE DUP12 PUSH2 0x180 PUSH1 0x20 DUP2 SWAP3 ADD MSTORE DUP13 ADD PUSH2 0x3F11 SWAP2 PUSH2 0x497B JUMP JUMPDEST DUP12 DUP2 SUB PUSH1 0x40 DUP14 ADD MSTORE PUSH2 0x3F22 SWAP2 PUSH2 0x497B JUMP JUMPDEST SWAP1 PUSH1 0x60 DUP12 ADD MSTORE DUP10 DUP2 SUB PUSH1 0x80 DUP12 ADD MSTORE PUSH2 0x3F39 SWAP2 PUSH2 0x497B JUMP JUMPDEST SWAP4 PUSH1 0xA0 DUP10 ADD MSTORE PUSH1 0xC0 DUP9 ADD MSTORE ISZERO ISZERO PUSH1 0xE0 DUP8 ADD MSTORE PUSH2 0x100 DUP7 ADD MSTORE DUP5 DUP2 SUB PUSH2 0x120 DUP7 ADD MSTORE PUSH2 0x3F63 SWAP2 PUSH2 0x497B JUMP JUMPDEST SWAP1 PUSH2 0x140 DUP5 ADD MSTORE DUP3 DUP2 SUB PUSH2 0x160 DUP5 ADD MSTORE PUSH2 0x3EE SWAP2 PUSH2 0x497B JUMP JUMPDEST SWAP1 SWAP2 POP PUSH1 0x0 MSTORE PUSH1 0x5 PUSH1 0x20 MSTORE PUSH1 0xFF PUSH1 0x40 PUSH1 0x0 KECCAK256 SLOAD AND SWAP1 DUP4 PUSH2 0x3E97 JUMP JUMPDEST CALLVALUE PUSH2 0x370 JUMPI PUSH1 0x0 CALLDATASIZE PUSH1 0x3 NOT ADD SLT PUSH2 0x370 JUMPI PUSH1 0x20 PUSH1 0x40 MLOAD PUSH1 0x64 DUP2 MSTORE RETURN JUMPDEST CALLVALUE PUSH2 0x370 JUMPI PUSH1 0x0 CALLDATASIZE PUSH1 0x3 NOT ADD SLT PUSH2 0x370 JUMPI PUSH1 0x0 DUP1 DUP1 DUP1 PUSH1 0x1 DUP1 PUSH1 0xA0 SHL SUB PUSH1 0x7 SLOAD AND PUSH2 0x3FDF DUP2 CALLER EQ PUSH2 0x4CC5 JUMP JUMPDEST SELFBALANCE SWAP1 DUP3 DUP3 ISZERO PUSH2 0x3FF1 JUMPI JUMPDEST CALL ISZERO PUSH2 0x2D37 JUMPI STOP JUMPDEST POP PUSH2 0x8FC PUSH2 0x3FE9 JUMP JUMPDEST CALLVALUE PUSH2 0x370 JUMPI PUSH1 0x20 DUP1 PUSH1 0x3 NOT CALLDATASIZE ADD SLT PUSH2 0x370 JUMPI PUSH2 0x4014 PUSH2 0x485A JUMP JUMPDEST PUSH1 0x0 DUP1 SLOAD PUSH1 0x1 PUSH1 0x1 PUSH1 0xA0 SHL SUB SWAP3 DUP4 AND SWAP4 SWAP1 SWAP3 SWAP1 SWAP2 DUP1 JUMPDEST DUP5 DUP2 LT PUSH2 0x40BF JUMPI POP PUSH2 0x403B SWAP1 PUSH2 0x51D8 JUMP JUMPDEST SWAP4 PUSH1 0x0 SWAP3 PUSH1 0x0 JUMPDEST DUP6 DUP2 LT PUSH2 0x4057 JUMPI PUSH1 0x40 MLOAD DUP1 PUSH2 0x3EE DUP10 DUP3 PUSH2 0x491D JUMP JUMPDEST DUP1 PUSH1 0x0 MSTORE PUSH1 0x4 DUP3 MSTORE PUSH1 0x40 PUSH1 0x0 KECCAK256 DUP4 PUSH1 0x0 MSTORE DUP3 MSTORE PUSH1 0xFF PUSH1 0x40 PUSH1 0x0 KECCAK256 SLOAD AND DUP1 PUSH2 0x40A7 JUMPI JUMPDEST PUSH2 0x408C JUMPI JUMPDEST PUSH2 0x4087 SWAP1 PUSH2 0x505D JUMP JUMPDEST PUSH2 0x4042 JUMP JUMPDEST SWAP4 PUSH2 0x409F DUP2 DUP7 PUSH2 0x43E PUSH2 0x4087 SWAP5 DUP12 PUSH2 0x51AE JUMP JUMPDEST SWAP5 SWAP1 POP PUSH2 0x407E JUMP JUMPDEST POP DUP4 PUSH1 0x5 PUSH2 0x40B4 DUP4 PUSH2 0x4DFC JUMP JUMPDEST POP ADD SLOAD AND ISZERO ISZERO PUSH2 0x4079 JUMP JUMPDEST DUP1 PUSH1 0x0 MSTORE PUSH1 0x4 DUP5 MSTORE PUSH1 0x40 PUSH1 0x0 KECCAK256 DUP7 PUSH1 0x0 MSTORE DUP5 MSTORE PUSH1 0xFF PUSH1 0x40 PUSH1 0x0 KECCAK256 SLOAD AND DUP1 PUSH2 0x4109 JUMPI JUMPDEST PUSH2 0x40F4 JUMPI JUMPDEST PUSH2 0x40EF SWAP1 PUSH2 0x505D JUMP JUMPDEST PUSH2 0x402A JUMP JUMPDEST SWAP1 PUSH2 0x4101 PUSH2 0x40EF SWAP2 PUSH2 0x505D JUMP JUMPDEST SWAP2 SWAP1 POP PUSH2 0x40E6 JUMP JUMPDEST POP DUP3 PUSH1 0x5 PUSH2 0x4116 DUP4 PUSH2 0x4DFC JUMP JUMPDEST POP ADD SLOAD AND ISZERO ISZERO PUSH2 0x40E1 JUMP JUMPDEST CALLVALUE PUSH2 0x370 JUMPI PUSH1 0x60 CALLDATASIZE PUSH1 0x3 NOT ADD SLT PUSH2 0x370 JUMPI PUSH2 0x4147 PUSH1 0x1 DUP1 PUSH1 0xA0 SHL SUB PUSH1 0x7 SLOAD AND CALLER EQ PUSH2 0x4CC5 JUMP JUMPDEST PUSH1 0x4 CALLDATALOAD PUSH1 0xC SSTORE PUSH1 0x24 CALLDATALOAD PUSH1 0xD SSTORE PUSH1 0x44 CALLDATALOAD PUSH1 0xE SSTORE STOP JUMPDEST CALLVALUE PUSH2 0x370 JUMPI PUSH1 0x20 DUP1 PUSH1 0x3 NOT CALLDATASIZE ADD SLT PUSH2 0x370 JUMPI PUSH2 0x4175 PUSH2 0x485A JUMP JUMPDEST PUSH1 0x0 DUP1 SLOAD PUSH1 0x1 PUSH1 0x1 PUSH1 0xA0 SHL SUB SWAP3 DUP4 AND SWAP4 SWAP3 SWAP1 SWAP2 DUP1 JUMPDEST DUP4 DUP2 LT PUSH2 0x4247 JUMPI POP PUSH2 0x419B SWAP1 PUSH2 0x51D8 JUMP JUMPDEST SWAP3 PUSH1 0x0 SWAP2 PUSH1 0x0 JUMPDEST DUP5 DUP2 LT PUSH2 0x41B7 JUMPI PUSH1 0x40 MLOAD DUP1 PUSH2 0x3EE DUP9 DUP3 PUSH2 0x491D JUMP JUMPDEST PUSH2 0x41C0 DUP2 PUSH2 0x4DFC JUMP JUMPDEST POP DUP3 DUP9 DUP2 PUSH1 0x5 DUP1 SWAP5 ADD SLOAD AND EQ ISZERO SWAP2 DUP3 PUSH2 0x4221 JUMPI JUMPDEST DUP3 PUSH2 0x4208 JUMPI JUMPDEST POP POP PUSH2 0x41EF JUMPI JUMPDEST PUSH2 0x41EA SWAP1 PUSH2 0x505D JUMP JUMPDEST PUSH2 0x41A2 JUMP JUMPDEST SWAP3 PUSH2 0x4200 PUSH2 0x41EA SWAP2 PUSH2 0x432 DUP7 PUSH2 0x4DFC JUMP JUMPDEST SWAP4 SWAP1 POP PUSH2 0x41E1 JUMP JUMPDEST SWAP1 SWAP2 POP PUSH2 0x4214 DUP4 PUSH2 0x4DFC JUMP JUMPDEST POP ADD SLOAD AND ISZERO ISZERO DUP3 DUP10 PUSH2 0x41DA JUMP JUMPDEST SWAP2 POP POP DUP2 PUSH1 0x0 MSTORE PUSH1 0x2 DUP5 MSTORE PUSH1 0x40 PUSH1 0x0 KECCAK256 DUP9 PUSH1 0x0 MSTORE DUP5 MSTORE DUP3 PUSH1 0xFF PUSH1 0x40 PUSH1 0x0 KECCAK256 SLOAD AND SWAP2 PUSH2 0x41D4 JUMP JUMPDEST PUSH2 0x4250 DUP2 PUSH2 0x4DFC JUMP JUMPDEST POP DUP4 DUP8 DUP2 PUSH1 0x5 DUP1 SWAP5 ADD SLOAD AND EQ ISZERO SWAP2 DUP3 PUSH2 0x42AD JUMPI JUMPDEST DUP3 PUSH2 0x4294 JUMPI JUMPDEST POP POP PUSH2 0x427F JUMPI JUMPDEST PUSH2 0x427A SWAP1 PUSH2 0x505D JUMP JUMPDEST PUSH2 0x418A JUMP JUMPDEST SWAP1 PUSH2 0x428C PUSH2 0x427A SWAP2 PUSH2 0x505D JUMP JUMPDEST SWAP2 SWAP1 POP PUSH2 0x4271 JUMP JUMPDEST SWAP1 SWAP2 POP PUSH2 0x42A0 DUP4 PUSH2 0x4DFC JUMP JUMPDEST POP ADD SLOAD AND ISZERO ISZERO DUP4 DUP9 PUSH2 0x426A JUMP JUMPDEST SWAP2 POP POP DUP2 PUSH1 0x0 MSTORE PUSH1 0x2 DUP7 MSTORE PUSH1 0x40 PUSH1 0x0 KECCAK256 DUP8 PUSH1 0x0 MSTORE DUP7 MSTORE DUP4 PUSH1 0xFF PUSH1 0x40 PUSH1 0x0 KECCAK256 SLOAD AND SWAP2 PUSH2 0x4264 JUMP JUMPDEST CALLVALUE PUSH2 0x370 JUMPI PUSH1 0x40 CALLDATASIZE PUSH1 0x3 NOT ADD SLT PUSH2 0x370 JUMPI PUSH1 0x4 CALLDATALOAD PUSH2 0x42EF PUSH2 0x4870 JUMP JUMPDEST SWAP1 PUSH2 0x42FD PUSH1 0x0 SLOAD DUP3 LT PUSH2 0x520A JUMP JUMPDEST PUSH2 0x2832 PUSH1 0x5 PUSH2 0x430E PUSH2 0x13ED DUP5 PUSH2 0x4DFC JUMP JUMPDEST DUP3 PUSH1 0x0 MSTORE PUSH1 0x20 SWAP1 PUSH1 0x6 DUP3 MSTORE PUSH1 0x40 PUSH1 0x0 KECCAK256 SWAP5 AND SWAP4 DUP5 PUSH1 0x0 MSTORE DUP2 MSTORE PUSH2 0x4338 PUSH1 0xFF PUSH1 0x40 PUSH1 0x0 KECCAK256 SLOAD AND PUSH2 0x5469 JUMP JUMPDEST DUP3 PUSH1 0x0 MSTORE PUSH1 0x6 DUP2 MSTORE PUSH1 0x40 PUSH1 0x0 KECCAK256 DUP5 PUSH1 0x0 MSTORE DUP2 MSTORE PUSH1 0x40 PUSH1 0x0 KECCAK256 PUSH1 0xFF NOT SWAP1 DUP2 DUP2 SLOAD AND SWAP1 SSTORE DUP4 PUSH1 0x0 MSTORE PUSH1 0x2 DUP3 MSTORE PUSH1 0x40 PUSH1 0x0 KECCAK256 DUP6 PUSH1 0x0 MSTORE DUP3 MSTORE PUSH1 0x1 PUSH1 0x40 PUSH1 0x0 KECCAK256 SWAP2 DUP3 SLOAD AND OR SWAP1 SSTORE PUSH32 0x417070726F766564206163636573732072657175657374000000000000000000 PUSH1 0x40 MLOAD SWAP2 PUSH2 0x43A9 DUP4 PUSH2 0x47A9 JUMP JUMPDEST PUSH1 0x17 DUP4 MSTORE DUP3 ADD MSTORE DUP3 PUSH2 0x4E96 JUMP JUMPDEST CALLVALUE PUSH2 0x370 JUMPI PUSH1 0x20 CALLDATASIZE PUSH1 0x3 NOT ADD SLT PUSH2 0x370 JUMPI PUSH1 0x1 PUSH1 0x1 PUSH1 0xA0 SHL SUB PUSH2 0x43D7 PUSH2 0x485A JUMP JUMPDEST AND PUSH1 0x0 MSTORE PUSH1 0xB PUSH1 0x20 MSTORE PUSH1 0x20 PUSH1 0x40 PUSH1 0x0 KECCAK256 SLOAD PUSH1 0x40 MLOAD SWAP1 DUP2 MSTORE RETURN JUMPDEST CALLVALUE PUSH2 0x370 JUMPI PUSH1 0x40 CALLDATASIZE PUSH1 0x3 NOT ADD SLT PUSH2 0x370 JUMPI PUSH1 0x1 PUSH1 0x1 PUSH1 0x40 SHL SUB PUSH1 0x4 CALLDATALOAD PUSH1 0x24 CALLDATALOAD DUP3 DUP2 GT PUSH2 0x370 JUMPI PUSH2 0x4424 SWAP1 CALLDATASIZE SWAP1 PUSH1 0x4 ADD PUSH2 0x48C7 JUMP JUMPDEST SWAP2 PUSH2 0x4432 PUSH1 0x0 SLOAD DUP4 LT PUSH2 0x520A JUMP JUMPDEST PUSH2 0x443B DUP3 PUSH2 0x4DFC JUMP JUMPDEST POP PUSH2 0x4453 PUSH1 0x1 DUP1 PUSH1 0xA0 SHL SUB PUSH1 0x5 DUP4 ADD SLOAD AND CALLER EQ PUSH2 0x4CC5 JUMP JUMPDEST DUP4 MLOAD PUSH1 0x1 SWAP2 DUP3 ADD SWAP3 DUP2 GT PUSH2 0xC6B JUMPI PUSH2 0x446B DUP4 SLOAD PUSH2 0x4A20 JUMP JUMPDEST PUSH1 0x1F DUP2 GT PUSH2 0x456C JUMPI JUMPDEST POP PUSH1 0x20 PUSH1 0x1F DUP3 GT PUSH1 0x1 EQ PUSH2 0x450B JUMPI DUP2 SWAP3 DUP3 SWAP2 PUSH1 0x0 SWAP4 PUSH2 0x4500 JUMPI JUMPDEST POP SHL SWAP2 PUSH1 0x0 NOT SWAP1 PUSH1 0x3 SHL SHR NOT AND OR SWAP1 SSTORE JUMPDEST PUSH2 0x44C8 PUSH1 0x40 MLOAD PUSH2 0x44AE DUP2 PUSH2 0x47A9 JUMP JUMPDEST PUSH1 0x7 DUP2 MSTORE PUSH7 0x14995B985B5959 PUSH1 0xCA SHL PUSH1 0x20 DUP3 ADD MSTORE DUP3 PUSH2 0x4E96 JUMP JUMPDEST PUSH32 0x29AFA2E14786AE4B101AC811E5B12FB8E459010D8B001FE24DB8B37BF96C3E54 PUSH1 0x40 MLOAD PUSH1 0x20 DUP2 MSTORE DUP1 PUSH2 0x1BEF CALLER SWAP6 PUSH1 0x20 DUP4 ADD SWAP1 PUSH2 0x497B JUMP JUMPDEST DUP8 ADD MLOAD SWAP3 POP DUP8 PUSH2 0x448E JUMP JUMPDEST PUSH1 0x1F NOT DUP3 AND SWAP1 DUP5 PUSH1 0x0 MSTORE DUP3 DUP2 PUSH1 0x0 KECCAK256 SWAP3 PUSH1 0x0 JUMPDEST DUP7 DUP3 DUP3 LT PUSH2 0x4553 JUMPI POP POP LT PUSH2 0x453A JUMPI JUMPDEST POP POP DUP2 SHL ADD SWAP1 SSTORE PUSH2 0x449F JUMP JUMPDEST DUP7 ADD MLOAD PUSH1 0x0 NOT PUSH1 0xF8 DUP5 PUSH1 0x3 SHL AND SHR NOT AND SWAP1 SSTORE DUP6 DUP1 PUSH2 0x452E JUMP JUMPDEST DUP11 DUP6 ADD MLOAD DUP7 SSTORE SWAP1 SWAP5 ADD SWAP4 PUSH1 0x20 SWAP4 DUP5 ADD SWAP4 DUP7 SWAP4 POP ADD PUSH2 0x451E JUMP JUMPDEST DUP4 PUSH1 0x0 MSTORE PUSH1 0x20 PUSH1 0x0 KECCAK256 PUSH1 0x1F DUP4 ADD PUSH1 0x5 SHR DUP2 ADD SWAP2 PUSH1 0x20 DUP5 LT PUSH2 0x45AD JUMPI JUMPDEST PUSH1 0x1F ADD PUSH1 0x5 SHR ADD SWAP1 DUP4 SWAP1 JUMPDEST DUP3 DUP2 LT PUSH2 0x45A1 JUMPI POP POP PUSH2 0x4474 JUMP JUMPDEST PUSH1 0x0 DUP2 SSTORE ADD DUP4 SWAP1 PUSH2 0x4593 JUMP JUMPDEST SWAP1 SWAP2 POP DUP2 SWAP1 PUSH2 0x4588 JUMP JUMPDEST CALLVALUE PUSH2 0x370 JUMPI PUSH1 0x20 CALLDATASIZE PUSH1 0x3 NOT ADD SLT PUSH2 0x370 JUMPI PUSH1 0x4 CALLDATALOAD PUSH2 0x45D8 PUSH1 0x0 SLOAD DUP3 LT PUSH2 0x520A JUMP JUMPDEST PUSH2 0x45E4 PUSH2 0x2BC DUP3 PUSH2 0x4DFC JUMP JUMPDEST DUP1 PUSH1 0x0 MSTORE PUSH1 0x5 PUSH1 0x20 MSTORE PUSH1 0xFF PUSH1 0x40 PUSH1 0x0 KECCAK256 SLOAD AND ISZERO PUSH2 0x4664 JUMPI DUP1 PUSH1 0x0 MSTORE PUSH1 0x5 PUSH1 0x20 MSTORE PUSH1 0x40 PUSH1 0x0 KECCAK256 PUSH1 0xFF NOT DUP2 SLOAD AND SWAP1 SSTORE PUSH2 0x463B PUSH1 0x40 MLOAD PUSH2 0x4620 DUP2 PUSH2 0x47A9 JUMP JUMPDEST PUSH1 0x8 DUP2 MSTORE PUSH8 0x14995CDD1BDC9959 PUSH1 0xC2 SHL PUSH1 0x20 DUP3 ADD MSTORE DUP3 PUSH2 0x4E96 JUMP JUMPDEST CALLER SWAP1 PUSH32 0xCDA3B91453B8363CA5466065C8CE89B06FA891552D0FAD2DA5868DD7B44A4FB9 PUSH1 0x0 DUP1 LOG3 STOP JUMPDEST PUSH1 0x40 MLOAD PUSH3 0x461BCD PUSH1 0xE5 SHL DUP2 MSTORE PUSH1 0x20 PUSH1 0x4 DUP3 ADD MSTORE PUSH1 0xA PUSH1 0x24 DUP3 ADD MSTORE PUSH10 0x2737BA1034B7103134B7 PUSH1 0xB1 SHL PUSH1 0x44 DUP3 ADD MSTORE PUSH1 0x64 SWAP1 REVERT JUMPDEST CALLVALUE PUSH2 0x370 JUMPI PUSH2 0x46A4 CALLDATASIZE PUSH2 0x4886 JUMP JUMPDEST PUSH1 0x1 PUSH1 0x1 PUSH1 0xA0 SHL SUB SWAP1 DUP2 AND PUSH2 0x46BA DUP2 ISZERO ISZERO PUSH2 0x52E8 JUMP JUMPDEST PUSH1 0x0 JUMPDEST DUP4 MLOAD DUP2 LT ISZERO PUSH2 0x1353 JUMPI DUP1 DUP3 PUSH2 0x46D5 PUSH2 0x476D SWAP4 DUP8 PUSH2 0x51AE JUMP JUMPDEST MLOAD PUSH2 0x46E3 PUSH1 0x0 SLOAD DUP3 LT PUSH2 0x520A JUMP JUMPDEST PUSH1 0x5 PUSH2 0x46EE DUP3 PUSH2 0x4DFC JUMP JUMPDEST POP ADD SWAP1 DUP2 SLOAD SWAP2 DUP4 DUP9 DUP5 AND SWAP4 PUSH2 0x4704 CALLER DUP7 EQ PUSH2 0x4CC5 JUMP JUMPDEST PUSH1 0x1 PUSH1 0x1 PUSH1 0x60 SHL SUB PUSH1 0xA0 SHL AND OR SWAP1 SSTORE DUP1 PUSH1 0x0 MSTORE PUSH1 0x20 PUSH1 0x2 DUP2 MSTORE PUSH1 0x40 PUSH1 0x0 KECCAK256 SWAP1 DUP5 PUSH1 0x0 MSTORE MSTORE PUSH1 0x40 PUSH1 0x0 KECCAK256 PUSH1 0x1 PUSH1 0xFF NOT DUP3 SLOAD AND OR SWAP1 SSTORE PUSH2 0x4743 PUSH2 0x30B PUSH2 0x5328 JUMP JUMPDEST PUSH32 0xA858A0D23644B705AFA414C8AFBACBB4B357A18EA066805E48F9CD103FD87A81 PUSH1 0x0 DUP1 LOG4 PUSH2 0x505D JUMP JUMPDEST PUSH2 0x46BD JUMP JUMPDEST PUSH2 0x160 DUP2 ADD SWAP1 DUP2 LT PUSH1 0x1 PUSH1 0x1 PUSH1 0x40 SHL SUB DUP3 GT OR PUSH2 0xC6B JUMPI PUSH1 0x40 MSTORE JUMP JUMPDEST PUSH1 0x60 DUP2 ADD SWAP1 DUP2 LT PUSH1 0x1 PUSH1 0x1 PUSH1 0x40 SHL SUB DUP3 GT OR PUSH2 0xC6B JUMPI PUSH1 0x40 MSTORE JUMP JUMPDEST PUSH1 0x40 DUP2 ADD SWAP1 DUP2 LT PUSH1 0x1 PUSH1 0x1 PUSH1 0x40 SHL SUB DUP3 GT OR PUSH2 0xC6B JUMPI PUSH1 0x40 MSTORE JUMP JUMPDEST SWAP1 PUSH1 0x1F DUP1 NOT SWAP2 ADD AND DUP2 ADD SWAP1 DUP2 LT PUSH1 0x1 PUSH1 0x1 PUSH1 0x40 SHL SUB DUP3 GT OR PUSH2 0xC6B JUMPI PUSH1 0x40 MSTORE JUMP JUMPDEST PUSH1 0x1 PUSH1 0x1 PUSH1 0x40 SHL SUB DUP2 GT PUSH2 0xC6B JUMPI PUSH1 0x5 SHL PUSH1 0x20 ADD SWAP1 JUMP JUMPDEST DUP2 PUSH1 0x1F DUP3 ADD SLT ISZERO PUSH2 0x370 JUMPI DUP1 CALLDATALOAD SWAP2 PUSH2 0x4813 DUP4 PUSH2 0x47E5 JUMP JUMPDEST SWAP3 PUSH2 0x4821 PUSH1 0x40 MLOAD SWAP5 DUP6 PUSH2 0x47C4 JUMP JUMPDEST DUP1 DUP5 MSTORE PUSH1 0x20 SWAP3 DUP4 DUP1 DUP7 ADD SWAP3 PUSH1 0x5 SHL DUP3 ADD ADD SWAP3 DUP4 GT PUSH2 0x370 JUMPI DUP4 ADD SWAP1 JUMPDEST DUP3 DUP3 LT PUSH2 0x484B JUMPI POP POP POP POP SWAP1 JUMP JUMPDEST DUP2 CALLDATALOAD DUP2 MSTORE SWAP1 DUP4 ADD SWAP1 DUP4 ADD PUSH2 0x483D JUMP JUMPDEST PUSH1 0x4 CALLDATALOAD SWAP1 PUSH1 0x1 PUSH1 0x1 PUSH1 0xA0 SHL SUB DUP3 AND DUP3 SUB PUSH2 0x370 JUMPI JUMP JUMPDEST PUSH1 0x24 CALLDATALOAD SWAP1 PUSH1 0x1 PUSH1 0x1 PUSH1 0xA0 SHL SUB DUP3 AND DUP3 SUB PUSH2 0x370 JUMPI JUMP JUMPDEST PUSH1 0x40 PUSH1 0x3 NOT DUP3 ADD SLT PUSH2 0x370 JUMPI PUSH1 0x4 CALLDATALOAD SWAP1 PUSH1 0x1 PUSH1 0x1 PUSH1 0x40 SHL SUB DUP3 GT PUSH2 0x370 JUMPI PUSH2 0x48B0 SWAP2 PUSH1 0x4 ADD PUSH2 0x47FC JUMP JUMPDEST SWAP1 PUSH1 0x24 CALLDATALOAD PUSH1 0x1 PUSH1 0x1 PUSH1 0xA0 SHL SUB DUP2 AND DUP2 SUB PUSH2 0x370 JUMPI SWAP1 JUMP JUMPDEST DUP2 PUSH1 0x1F DUP3 ADD SLT ISZERO PUSH2 0x370 JUMPI DUP1 CALLDATALOAD SWAP1 PUSH1 0x1 PUSH1 0x1 PUSH1 0x40 SHL SUB DUP3 GT PUSH2 0xC6B JUMPI PUSH1 0x40 MLOAD SWAP3 PUSH2 0x48FB PUSH1 0x1F DUP5 ADD PUSH1 0x1F NOT AND PUSH1 0x20 ADD DUP6 PUSH2 0x47C4 JUMP JUMPDEST DUP3 DUP5 MSTORE PUSH1 0x20 DUP4 DUP4 ADD ADD GT PUSH2 0x370 JUMPI DUP2 PUSH1 0x0 SWAP3 PUSH1 0x20 DUP1 SWAP4 ADD DUP4 DUP7 ADD CALLDATACOPY DUP4 ADD ADD MSTORE SWAP1 JUMP JUMPDEST PUSH1 0x20 SWAP1 DUP2 PUSH1 0x40 DUP2 DUP4 ADD SWAP3 DUP3 DUP2 MSTORE DUP6 MLOAD DUP1 SWAP5 MSTORE ADD SWAP4 ADD SWAP2 PUSH1 0x0 JUMPDEST DUP3 DUP2 LT PUSH2 0x4944 JUMPI POP POP POP POP SWAP1 JUMP JUMPDEST DUP4 MLOAD DUP6 MSTORE SWAP4 DUP2 ADD SWAP4 SWAP3 DUP2 ADD SWAP3 PUSH1 0x1 ADD PUSH2 0x4936 JUMP JUMPDEST PUSH1 0x0 JUMPDEST DUP4 DUP2 LT PUSH2 0x496B JUMPI POP POP PUSH1 0x0 SWAP2 ADD MSTORE JUMP JUMPDEST DUP2 DUP2 ADD MLOAD DUP4 DUP3 ADD MSTORE PUSH1 0x20 ADD PUSH2 0x495B JUMP JUMPDEST SWAP1 PUSH1 0x20 SWAP2 PUSH2 0x4994 DUP2 MLOAD DUP1 SWAP3 DUP2 DUP6 MSTORE DUP6 DUP1 DUP7 ADD SWAP2 ADD PUSH2 0x4958 JUMP JUMPDEST PUSH1 0x1F ADD PUSH1 0x1F NOT AND ADD ADD SWAP1 JUMP JUMPDEST SWAP1 DUP1 PUSH1 0x1F DUP4 ADD SLT ISZERO PUSH2 0x370 JUMPI DUP2 CALLDATALOAD SWAP1 PUSH2 0x49B8 DUP3 PUSH2 0x47E5 JUMP JUMPDEST SWAP3 PUSH2 0x49C6 PUSH1 0x40 MLOAD SWAP5 DUP6 PUSH2 0x47C4 JUMP JUMPDEST DUP3 DUP5 MSTORE PUSH1 0x20 SWAP3 DUP4 DUP1 DUP7 ADD SWAP2 PUSH1 0x5 SHL DUP4 ADD ADD SWAP3 DUP1 DUP5 GT PUSH2 0x370 JUMPI DUP5 DUP4 ADD SWAP2 JUMPDEST DUP5 DUP4 LT PUSH2 0x49F4 JUMPI POP POP POP POP POP POP SWAP1 JUMP JUMPDEST DUP3 CALLDATALOAD PUSH1 0x1 PUSH1 0x1 PUSH1 0x40 SHL SUB DUP2 GT PUSH2 0x370 JUMPI DUP7 SWAP2 PUSH2 0x4A15 DUP5 DUP5 DUP1 SWAP5 DUP10 ADD ADD PUSH2 0x48C7 JUMP JUMPDEST DUP2 MSTORE ADD SWAP3 ADD SWAP2 PUSH2 0x49E4 JUMP JUMPDEST SWAP1 PUSH1 0x1 DUP3 DUP2 SHR SWAP3 AND DUP1 ISZERO PUSH2 0x4A50 JUMPI JUMPDEST PUSH1 0x20 DUP4 LT EQ PUSH2 0x4A3A JUMPI JUMP JUMPDEST PUSH4 0x4E487B71 PUSH1 0xE0 SHL PUSH1 0x0 MSTORE PUSH1 0x22 PUSH1 0x4 MSTORE PUSH1 0x24 PUSH1 0x0 REVERT JUMPDEST SWAP2 PUSH1 0x7F AND SWAP2 PUSH2 0x4A2F JUMP JUMPDEST SWAP1 PUSH1 0x40 MLOAD SWAP2 DUP3 PUSH1 0x0 DUP3 SLOAD SWAP3 PUSH2 0x4A6E DUP5 PUSH2 0x4A20 JUMP JUMPDEST SWAP1 DUP2 DUP5 MSTORE PUSH1 0x1 SWAP5 DUP6 DUP2 AND SWAP1 DUP2 PUSH1 0x0 EQ PUSH2 0x4ADD JUMPI POP PUSH1 0x1 EQ PUSH2 0x4A9A JUMPI JUMPDEST POP POP PUSH2 0x4A98 SWAP3 POP SUB DUP4 PUSH2 0x47C4 JUMP JUMPDEST JUMP JUMPDEST SWAP1 SWAP4 SWAP2 POP PUSH1 0x0 MSTORE PUSH1 0x20 SWAP1 DUP2 PUSH1 0x0 KECCAK256 SWAP4 PUSH1 0x0 SWAP2 JUMPDEST DUP2 DUP4 LT PUSH2 0x4AC5 JUMPI POP POP PUSH2 0x4A98 SWAP4 POP DUP3 ADD ADD CODESIZE DUP1 PUSH2 0x4A8A JUMP JUMPDEST DUP6 SLOAD DUP9 DUP5 ADD DUP6 ADD MSTORE SWAP5 DUP6 ADD SWAP5 DUP8 SWAP5 POP SWAP2 DUP4 ADD SWAP2 PUSH2 0x4AAD JUMP JUMPDEST SWAP2 POP POP PUSH2 0x4A98 SWAP5 POP PUSH1 0x20 SWAP3 POP PUSH1 0xFF NOT AND DUP3 DUP5 ADD MSTORE ISZERO ISZERO PUSH1 0x5 SHL DUP3 ADD ADD CODESIZE DUP1 PUSH2 0x4A8A JUMP JUMPDEST PUSH1 0x1 PUSH1 0x1 PUSH1 0xA0 SHL SUB AND PUSH1 0x0 SWAP1 DUP2 MSTORE PUSH1 0xA PUSH1 0x20 MSTORE PUSH1 0x40 DUP2 KECCAK256 SLOAD PUSH1 0xFF AND PUSH1 0x1 DUP2 EQ PUSH2 0x4BB3 JUMPI PUSH1 0x2 DUP2 EQ PUSH2 0x4BA9 JUMPI PUSH1 0x3 EQ PUSH2 0x4B3B JUMPI POP PUSH4 0xFA00000 SWAP1 JUMP JUMPDEST PUSH1 0xB PUSH1 0x20 MSTORE PUSH1 0x40 DUP2 KECCAK256 SLOAD SWAP1 DUP2 PUSH1 0xA SHL PUSH2 0x400 SWAP3 DUP1 DUP3 DIV DUP5 EQ DUP2 ISZERO OR ISZERO PUSH2 0x4B95 JUMPI DUP1 PUSH1 0x14 SHL SWAP2 DUP1 DUP4 DIV DUP6 EQ SWAP1 ISZERO OR ISZERO PUSH2 0x4B95 JUMPI PUSH1 0x1E SHL SWAP3 DUP2 DUP5 DIV EQ SWAP1 ISZERO OR ISZERO PUSH2 0x4B81 JUMPI POP SWAP1 JUMP JUMPDEST PUSH4 0x4E487B71 PUSH1 0xE0 SHL DUP2 MSTORE PUSH1 0x11 PUSH1 0x4 MSTORE PUSH1 0x24 SWAP1 REVERT JUMPDEST PUSH4 0x4E487B71 PUSH1 0xE0 SHL DUP4 MSTORE PUSH1 0x11 PUSH1 0x4 MSTORE PUSH1 0x24 DUP4 REVERT JUMPDEST POP POP PUSH4 0x40000000 SWAP1 JUMP JUMPDEST POP POP PUSH4 0x1F400000 SWAP1 JUMP JUMPDEST PUSH1 0x1 PUSH1 0x1 PUSH1 0xA0 SHL SUB AND PUSH1 0x0 SWAP1 DUP2 MSTORE PUSH1 0xA PUSH1 0x20 MSTORE PUSH1 0x40 SWAP1 KECCAK256 SLOAD PUSH1 0xFF AND PUSH1 0x1 DUP2 EQ PUSH2 0x4C01 JUMPI PUSH1 0x2 DUP2 EQ PUSH2 0x4BFA JUMPI PUSH1 0x3 EQ PUSH2 0x4BF4 JUMPI PUSH1 0x64 SWAP1 JUMP JUMPDEST PUSH1 0x0 NOT SWAP1 JUMP JUMPDEST POP PUSH2 0x1F4 SWAP1 JUMP JUMPDEST POP PUSH1 0xFA SWAP1 JUMP JUMPDEST ISZERO PUSH2 0x4C0E JUMPI JUMP JUMPDEST PUSH1 0x40 MLOAD PUSH3 0x461BCD PUSH1 0xE5 SHL DUP2 MSTORE PUSH1 0x20 PUSH1 0x4 DUP3 ADD MSTORE PUSH1 0x12 PUSH1 0x24 DUP3 ADD MSTORE PUSH18 0x155CD95C9B985B59481D1BDBC81CDA1BDC9D PUSH1 0x72 SHL PUSH1 0x44 DUP3 ADD MSTORE PUSH1 0x64 SWAP1 REVERT JUMPDEST ISZERO PUSH2 0x4C4F JUMPI JUMP JUMPDEST PUSH1 0x40 MLOAD PUSH3 0x461BCD PUSH1 0xE5 SHL DUP2 MSTORE PUSH1 0x20 PUSH1 0x4 DUP3 ADD MSTORE PUSH1 0x11 PUSH1 0x24 DUP3 ADD MSTORE PUSH17 0x557365726E616D6520746F6F206C6F6E67 PUSH1 0x78 SHL PUSH1 0x44 DUP3 ADD MSTORE PUSH1 0x64 SWAP1 REVERT JUMPDEST ISZERO PUSH2 0x4C8F JUMPI JUMP JUMPDEST PUSH1 0x40 MLOAD PUSH3 0x461BCD PUSH1 0xE5 SHL DUP2 MSTORE PUSH1 0x20 PUSH1 0x4 DUP3 ADD MSTORE PUSH1 0xE PUSH1 0x24 DUP3 ADD MSTORE PUSH14 0x2AB9B2B93730B6B2903A30B5B2B7 PUSH1 0x91 SHL PUSH1 0x44 DUP3 ADD MSTORE PUSH1 0x64 SWAP1 REVERT JUMPDEST ISZERO PUSH2 0x4CCC JUMPI JUMP JUMPDEST PUSH1 0x40 MLOAD PUSH3 0x461BCD PUSH1 0xE5 SHL DUP2 MSTORE PUSH1 0x20 PUSH1 0x4 DUP3 ADD MSTORE PUSH1 0x9 PUSH1 0x24 DUP3 ADD MSTORE PUSH9 0x2737BA1037BBB732B9 PUSH1 0xB9 SHL PUSH1 0x44 DUP3 ADD MSTORE PUSH1 0x64 SWAP1 REVERT JUMPDEST ISZERO PUSH2 0x4D04 JUMPI JUMP JUMPDEST PUSH1 0x64 PUSH1 0x40 MLOAD PUSH3 0x461BCD PUSH1 0xE5 SHL DUP2 MSTORE PUSH1 0x20 PUSH1 0x4 DUP3 ADD MSTORE PUSH1 0x20 PUSH1 0x24 DUP3 ADD MSTORE PUSH32 0x46696C6520616C72656164792075706C6F6164656420627920736F6D656F6E65 PUSH1 0x44 DUP3 ADD MSTORE REVERT JUMPDEST SWAP2 SWAP1 DUP3 ADD DUP1 SWAP3 GT PUSH2 0x4D55 JUMPI JUMP JUMPDEST PUSH4 0x4E487B71 PUSH1 0xE0 SHL PUSH1 0x0 MSTORE PUSH1 0x11 PUSH1 0x4 MSTORE PUSH1 0x24 PUSH1 0x0 REVERT JUMPDEST ISZERO PUSH2 0x4D72 JUMPI JUMP JUMPDEST PUSH1 0x40 MLOAD PUSH3 0x461BCD PUSH1 0xE5 SHL DUP2 MSTORE PUSH1 0x20 PUSH1 0x4 DUP3 ADD MSTORE PUSH1 0x16 PUSH1 0x24 DUP3 ADD MSTORE PUSH22 0x14DD1BDC9859D9481B1A5B5A5D08195E18D959591959 PUSH1 0x52 SHL PUSH1 0x44 DUP3 ADD MSTORE PUSH1 0x64 SWAP1 REVERT JUMPDEST ISZERO PUSH2 0x4DB7 JUMPI JUMP JUMPDEST PUSH1 0x40 MLOAD PUSH3 0x461BCD PUSH1 0xE5 SHL DUP2 MSTORE PUSH1 0x20 PUSH1 0x4 DUP3 ADD MSTORE PUSH1 0x19 PUSH1 0x24 DUP3 ADD MSTORE PUSH32 0x46696C6520636F756E74206C696D697420657863656564656400000000000000 PUSH1 0x44 DUP3 ADD MSTORE PUSH1 0x64 SWAP1 REVERT JUMPDEST SWAP1 PUSH1 0x0 SWAP2 DUP3 SLOAD DUP2 LT ISZERO PUSH2 0x4E36 JUMPI PUSH1 0xB SWAP1 DUP4 DUP1 MSTORE MUL PUSH32 0x290DECD9548B62A8D60345A988386FC84BA6BC95484008F6362F93160EF3E563 ADD SWAP2 SWAP1 JUMP JUMPDEST PUSH4 0x4E487B71 PUSH1 0xE0 SHL DUP4 MSTORE PUSH1 0x32 PUSH1 0x4 MSTORE PUSH1 0x24 DUP4 REVERT JUMPDEST PUSH1 0x40 MLOAD SWAP1 PUSH2 0x4E57 DUP3 PUSH2 0x47A9 JUMP JUMPDEST PUSH1 0x8 DUP3 MSTORE PUSH8 0x155C1B1BD8591959 PUSH1 0xC2 SHL PUSH1 0x20 DUP4 ADD MSTORE JUMP JUMPDEST SWAP1 SWAP2 PUSH2 0x4E85 PUSH2 0x4E93 SWAP4 PUSH1 0x40 DUP5 MSTORE PUSH1 0x40 DUP5 ADD SWAP1 PUSH2 0x497B JUMP JUMPDEST SWAP2 PUSH1 0x20 DUP2 DUP5 SUB SWAP2 ADD MSTORE PUSH2 0x497B JUMP JUMPDEST SWAP1 JUMP JUMPDEST SWAP2 SWAP1 PUSH1 0x0 SWAP3 DUP4 MSTORE PUSH1 0x1 SWAP3 PUSH1 0x20 SWAP2 DUP5 DUP4 MSTORE PUSH1 0x40 DUP3 KECCAK256 SWAP2 PUSH1 0x40 MLOAD SWAP4 PUSH2 0x4EB8 DUP6 PUSH2 0x478E JUMP JUMPDEST CALLER DUP6 MSTORE DUP1 DUP6 ADD SWAP3 DUP4 MSTORE PUSH1 0x40 DUP6 ADD SWAP4 TIMESTAMP DUP6 MSTORE DUP1 SLOAD SWAP1 PUSH1 0x1 PUSH1 0x40 SHL DUP3 LT ISZERO PUSH2 0x5049 JUMPI DUP9 DUP3 ADD DUP1 DUP3 SSTORE DUP3 LT ISZERO PUSH2 0x5035 JUMPI DUP4 MSTORE PUSH1 0x3 DUP3 DUP5 KECCAK256 SWAP2 MUL ADD SWAP5 PUSH1 0x1 DUP1 PUSH1 0xA0 SHL SUB SWAP1 MLOAD AND PUSH1 0x1 PUSH1 0x1 PUSH1 0x60 SHL SUB PUSH1 0xA0 SHL DUP7 SLOAD AND OR DUP6 SSTORE DUP7 DUP6 ADD SWAP3 MLOAD DUP1 MLOAD SWAP3 PUSH1 0x1 PUSH1 0x1 PUSH1 0x40 SHL SUB DUP5 GT PUSH2 0x5021 JUMPI PUSH2 0x4F2B DUP6 SLOAD PUSH2 0x4A20 JUMP JUMPDEST PUSH1 0x1F DUP2 GT PUSH2 0x4FDB JUMPI JUMPDEST POP DUP3 PUSH1 0x1F DUP6 GT PUSH1 0x1 EQ PUSH2 0x4F75 JUMPI POP SWAP8 DUP4 SWAP3 DUP4 SWAP3 PUSH1 0x2 SWAP9 SWAP10 SWAP11 SWAP5 PUSH2 0x4F6A JUMPI JUMPDEST POP POP SHL SWAP2 PUSH1 0x0 NOT SWAP1 PUSH1 0x3 SHL SHR NOT AND OR SWAP1 SSTORE JUMPDEST MLOAD SWAP2 ADD SSTORE JUMP JUMPDEST ADD MLOAD SWAP3 POP CODESIZE DUP1 PUSH2 0x4F52 JUMP JUMPDEST SWAP9 SWAP4 SWAP3 SWAP1 SWAP2 PUSH1 0x1F NOT DUP5 AND SWAP10 DUP7 DUP5 MSTORE DUP1 DUP5 KECCAK256 SWAP4 SWAP1 JUMPDEST DUP12 DUP3 LT PUSH2 0x4FC4 JUMPI POP POP DUP4 PUSH1 0x2 SWAP9 SWAP10 SWAP11 LT PUSH2 0x4FAB JUMPI JUMPDEST POP POP POP DUP2 SHL ADD SWAP1 SSTORE PUSH2 0x4F64 JUMP JUMPDEST ADD MLOAD PUSH1 0x0 NOT PUSH1 0xF8 DUP5 PUSH1 0x3 SHL AND SHR NOT AND SWAP1 SSTORE CODESIZE DUP1 DUP1 PUSH2 0x4F9E JUMP JUMPDEST DUP1 DUP8 DUP6 SWAP7 DUP3 SWAP5 SWAP7 DUP7 ADD MLOAD DUP2 SSTORE ADD SWAP6 ADD SWAP4 ADD SWAP1 PUSH2 0x4F89 JUMP JUMPDEST DUP6 DUP3 MSTORE DUP4 DUP3 KECCAK256 PUSH1 0x1F DUP7 ADD PUSH1 0x5 SHR DUP2 ADD SWAP2 DUP6 DUP8 LT PUSH2 0x5017 JUMPI JUMPDEST PUSH1 0x1F ADD PUSH1 0x5 SHR ADD SWAP1 DUP11 SWAP1 JUMPDEST DUP3 DUP2 LT PUSH2 0x500C JUMPI POP POP PUSH2 0x4F34 JUMP JUMPDEST DUP4 DUP2 SSTORE ADD DUP11 SWAP1 PUSH2 0x4FFE JUMP JUMPDEST SWAP1 SWAP2 POP DUP2 SWAP1 PUSH2 0x4FF3 JUMP JUMPDEST PUSH4 0x4E487B71 PUSH1 0xE0 SHL DUP2 MSTORE PUSH1 0x41 PUSH1 0x4 MSTORE PUSH1 0x24 SWAP1 REVERT JUMPDEST PUSH4 0x4E487B71 PUSH1 0xE0 SHL DUP5 MSTORE PUSH1 0x32 PUSH1 0x4 MSTORE PUSH1 0x24 DUP5 REVERT JUMPDEST PUSH4 0x4E487B71 PUSH1 0xE0 SHL DUP5 MSTORE PUSH1 0x41 PUSH1 0x4 MSTORE PUSH1 0x24 DUP5 REVERT JUMPDEST PUSH1 0x0 NOT DUP2 EQ PUSH2 0x4D55 JUMPI PUSH1 0x1 ADD SWAP1 JUMP JUMPDEST PUSH1 0x0 DUP1 SLOAD SWAP1 SWAP3 SWAP2 DUP4 DUP1 JUMPDEST DUP4 DUP2 LT PUSH2 0x5083 JUMPI POP POP POP POP JUMP JUMPDEST PUSH2 0x508C DUP2 PUSH2 0x4DFC JUMP JUMPDEST POP PUSH1 0x5 SWAP1 DUP2 ADD SLOAD PUSH1 0x1 PUSH1 0x1 PUSH1 0xA0 SHL SUB DUP6 DUP2 AND SWAP2 AND EQ SWAP1 DUP2 PUSH2 0x50E0 JUMPI JUMPDEST POP PUSH2 0x50BC JUMPI JUMPDEST PUSH2 0x50B7 SWAP1 PUSH2 0x505D JUMP JUMPDEST PUSH2 0x5076 JUMP JUMPDEST SWAP5 PUSH2 0x50D8 PUSH2 0x50B7 SWAP2 PUSH1 0x3 PUSH2 0x50CF DUP10 PUSH2 0x4DFC JUMP JUMPDEST POP ADD SLOAD SWAP1 PUSH2 0x4D48 JUMP JUMPDEST SWAP6 SWAP1 POP PUSH2 0x50AE JUMP JUMPDEST DUP3 DUP5 MSTORE PUSH1 0x20 MSTORE POP PUSH1 0x40 DUP3 KECCAK256 SLOAD PUSH1 0xFF AND ISZERO CODESIZE PUSH2 0x50A8 JUMP JUMPDEST PUSH1 0x0 DUP1 SLOAD SWAP1 SWAP3 SWAP2 DUP4 DUP1 JUMPDEST DUP4 DUP2 LT PUSH2 0x510D JUMPI POP POP POP POP JUMP JUMPDEST PUSH2 0x5116 DUP2 PUSH2 0x4DFC JUMP JUMPDEST POP PUSH1 0x5 SWAP1 DUP2 ADD SLOAD PUSH1 0x1 PUSH1 0x1 PUSH1 0xA0 SHL SUB DUP6 DUP2 AND SWAP2 AND EQ SWAP1 DUP2 PUSH2 0x515B JUMPI JUMPDEST POP PUSH2 0x5146 JUMPI JUMPDEST PUSH2 0x5141 SWAP1 PUSH2 0x505D JUMP JUMPDEST PUSH2 0x5100 JUMP JUMPDEST SWAP5 PUSH2 0x5153 PUSH2 0x5141 SWAP2 PUSH2 0x505D JUMP JUMPDEST SWAP6 SWAP1 POP PUSH2 0x5138 JUMP JUMPDEST DUP3 DUP5 MSTORE PUSH1 0x20 MSTORE POP PUSH1 0x40 DUP3 KECCAK256 SLOAD PUSH1 0xFF AND ISZERO CODESIZE PUSH2 0x5132 JUMP JUMPDEST ISZERO PUSH2 0x5178 JUMPI JUMP JUMPDEST PUSH1 0x40 MLOAD PUSH3 0x461BCD PUSH1 0xE5 SHL DUP2 MSTORE PUSH1 0x20 PUSH1 0x4 DUP3 ADD MSTORE PUSH1 0xE PUSH1 0x24 DUP3 ADD MSTORE PUSH14 0x82E4E4C2F240DAD2E6DAC2E8C6D PUSH1 0x93 SHL PUSH1 0x44 DUP3 ADD MSTORE PUSH1 0x64 SWAP1 REVERT JUMPDEST DUP1 MLOAD DUP3 LT ISZERO PUSH2 0x51C2 JUMPI PUSH1 0x20 SWAP2 PUSH1 0x5 SHL ADD ADD SWAP1 JUMP JUMPDEST PUSH4 0x4E487B71 PUSH1 0xE0 SHL PUSH1 0x0 MSTORE PUSH1 0x32 PUSH1 0x4 MSTORE PUSH1 0x24 PUSH1 0x0 REVERT JUMPDEST SWAP1 PUSH2 0x51E2 DUP3 PUSH2 0x47E5 JUMP JUMPDEST PUSH2 0x51EF PUSH1 0x40 MLOAD SWAP2 DUP3 PUSH2 0x47C4 JUMP JUMPDEST DUP3 DUP2 MSTORE DUP1 SWAP3 PUSH2 0x5200 PUSH1 0x1F NOT SWAP2 PUSH2 0x47E5 JUMP JUMPDEST ADD SWAP1 PUSH1 0x20 CALLDATASIZE SWAP2 ADD CALLDATACOPY JUMP JUMPDEST ISZERO PUSH2 0x5211 JUMPI JUMP JUMPDEST PUSH1 0x40 MLOAD PUSH3 0x461BCD PUSH1 0xE5 SHL DUP2 MSTORE PUSH1 0x20 PUSH1 0x4 DUP3 ADD MSTORE PUSH1 0xA PUSH1 0x24 DUP3 ADD MSTORE PUSH10 0x125B9D985B1A59081A59 PUSH1 0xB2 SHL PUSH1 0x44 DUP3 ADD MSTORE PUSH1 0x64 SWAP1 REVERT JUMPDEST SWAP1 PUSH1 0x0 SWAP2 DUP3 SLOAD DUP2 LT ISZERO PUSH2 0x5294 JUMPI PUSH1 0x5 PUSH2 0x525B DUP3 PUSH2 0x4DFC JUMP JUMPDEST POP ADD SLOAD PUSH1 0x1 PUSH1 0x1 PUSH1 0xA0 SHL SUB SWAP3 DUP4 AND SWAP3 AND DUP3 DUP2 EQ PUSH2 0x5299 JUMPI ISZERO PUSH2 0x5294 JUMPI SWAP2 PUSH1 0x40 SWAP2 PUSH1 0xFF SWAP4 DUP3 MSTORE PUSH1 0x2 PUSH1 0x20 MSTORE DUP3 DUP3 KECCAK256 SWAP1 DUP3 MSTORE PUSH1 0x20 MSTORE KECCAK256 SLOAD AND SWAP1 JUMP JUMPDEST POP POP SWAP1 JUMP JUMPDEST POP POP POP POP PUSH1 0x1 SWAP1 JUMP JUMPDEST PUSH1 0x40 MLOAD SWAP1 PUSH2 0x52AF DUP3 PUSH2 0x47A9 JUMP JUMPDEST PUSH1 0x7 DUP3 MSTORE PUSH7 0x151C985CDA1959 PUSH1 0xCA SHL PUSH1 0x20 DUP4 ADD MSTORE JUMP JUMPDEST PUSH1 0x40 MLOAD SWAP1 PUSH2 0x52D2 DUP3 PUSH2 0x47A9 JUMP JUMPDEST PUSH1 0x7 DUP3 MSTORE PUSH7 0x11195B195D1959 PUSH1 0xCA SHL PUSH1 0x20 DUP4 ADD MSTORE JUMP JUMPDEST ISZERO PUSH2 0x52EF JUMPI JUMP JUMPDEST PUSH1 0x40 MLOAD PUSH3 0x461BCD PUSH1 0xE5 SHL DUP2 MSTORE PUSH1 0x20 PUSH1 0x4 DUP3 ADD MSTORE PUSH1 0x11 PUSH1 0x24 DUP3 ADD MSTORE PUSH17 0x125B9D985B1A59081C9958DA5C1A595B9D PUSH1 0x7A SHL PUSH1 0x44 DUP3 ADD MSTORE PUSH1 0x64 SWAP1 REVERT JUMPDEST PUSH1 0x40 MLOAD SWAP1 PUSH2 0x5335 DUP3 PUSH2 0x47A9 JUMP JUMPDEST PUSH1 0x15 DUP3 MSTORE PUSH21 0x5472616E73666572726564206F776E65727368697 PUSH1 0x5C SHL PUSH1 0x20 DUP4 ADD MSTORE JUMP JUMPDEST PUSH1 0x40 MLOAD SWAP1 PUSH2 0x5366 DUP3 PUSH2 0x47A9 JUMP JUMPDEST PUSH1 0x18 DUP3 MSTORE PUSH32 0x4D6F766564202F204368616E6765642043617465676F72790000000000000000 PUSH1 0x20 DUP4 ADD MSTORE JUMP JUMPDEST ISZERO PUSH2 0x5399 JUMPI JUMP JUMPDEST PUSH1 0x40 MLOAD PUSH3 0x461BCD PUSH1 0xE5 SHL DUP2 MSTORE PUSH1 0x20 PUSH1 0x4 DUP3 ADD MSTORE PUSH1 0xF PUSH1 0x24 DUP3 ADD MSTORE PUSH15 0x496E76616C69642061646472657373 PUSH1 0x88 SHL PUSH1 0x44 DUP3 ADD MSTORE PUSH1 0x64 SWAP1 REVERT JUMPDEST PUSH1 0x40 MLOAD SWAP1 PUSH2 0x53DD DUP3 PUSH2 0x47A9 JUMP JUMPDEST PUSH1 0x13 DUP3 MSTORE PUSH19 0x4772616E746564207669657720616363657373 PUSH1 0x68 SHL PUSH1 0x20 DUP4 ADD MSTORE JUMP JUMPDEST PUSH1 0x40 MLOAD SWAP1 PUSH2 0x540C DUP3 PUSH2 0x47A9 JUMP JUMPDEST PUSH1 0x13 DUP3 MSTORE PUSH19 0x5265766F6B6564207669657720616363657373 PUSH1 0x68 SHL PUSH1 0x20 DUP4 ADD MSTORE JUMP JUMPDEST ISZERO PUSH2 0x5435 JUMPI JUMP JUMPDEST PUSH1 0x40 MLOAD PUSH3 0x461BCD PUSH1 0xE5 SHL DUP2 MSTORE PUSH1 0x20 PUSH1 0x4 DUP3 ADD MSTORE PUSH1 0xC PUSH1 0x24 DUP3 ADD MSTORE PUSH12 0x119A5B194819195B195D1959 PUSH1 0xA2 SHL PUSH1 0x44 DUP3 ADD MSTORE PUSH1 0x64 SWAP1 REVERT JUMPDEST ISZERO PUSH2 0x5470 JUMPI JUMP JUMPDEST PUSH1 0x40 MLOAD PUSH3 0x461BCD PUSH1 0xE5 SHL DUP2 MSTORE PUSH1 0x20 PUSH1 0x4 DUP3 ADD MSTORE PUSH1 0x12 PUSH1 0x24 DUP3 ADD MSTORE PUSH18 0x139BC81C195B991A5B99C81C995C5D595CDD PUSH1 0x72 SHL PUSH1 0x44 DUP3 ADD MSTORE PUSH1 0x64 SWAP1 REVERT JUMPDEST SWAP1 PUSH1 0x0 SWAP2 DUP3 SLOAD SWAP3 JUMPDEST DUP4 DUP2 LT PUSH2 0x54E9 JUMPI POP POP PUSH1 0x40 MLOAD PUSH1 0x0 SWAP3 POP DUP3 SWAP2 DUP3 SWAP2 PUSH1 0x20 DUP2 ADD PUSH1 0x1 PUSH1 0x1 PUSH1 0x40 SHL SUB DUP2 GT DUP3 DUP3 LT OR PUSH2 0xC6B JUMPI PUSH1 0x40 MSTORE PUSH1 0x0 DUP2 MSTORE SWAP1 PUSH1 0x0 SWAP1 JUMP JUMPDEST DUP2 PUSH1 0x7 PUSH2 0x54F5 DUP4 PUSH2 0x4DFC JUMP JUMPDEST POP ADD SLOAD EQ DUP1 PUSH2 0x5566 JUMPI JUMPDEST PUSH2 0x5511 JUMPI PUSH2 0x550C SWAP1 PUSH2 0x505D JUMP JUMPDEST PUSH2 0x54B2 JUMP JUMPDEST DUP1 SWAP4 POP PUSH2 0x551E SWAP2 POP PUSH2 0x4DFC JUMP JUMPDEST POP SLOAD SWAP2 PUSH2 0x552A DUP2 PUSH2 0x4DFC JUMP JUMPDEST POP PUSH1 0x5 ADD SLOAD PUSH1 0x1 PUSH1 0x1 PUSH1 0xA0 SHL SUB AND SWAP2 PUSH1 0x6 PUSH2 0x554E PUSH2 0x5547 DUP5 PUSH2 0x4DFC JUMP JUMPDEST POP SWAP4 PUSH2 0x4DFC JUMP JUMPDEST POP ADD SLOAD SWAP1 PUSH2 0x5562 PUSH1 0x8 PUSH1 0x1 SWAP7 SWAP6 SWAP5 ADD PUSH2 0x4A5A JUMP JUMPDEST SWAP2 SWAP1 JUMP JUMPDEST POP PUSH2 0x5570 DUP2 PUSH2 0x4DFC JUMP JUMPDEST POP PUSH1 0x5 ADD SLOAD PUSH1 0x1 PUSH1 0x1 PUSH1 0xA0 SHL SUB AND ISZERO ISZERO PUSH2 0x54FF JUMP INVALID 0xB1 BLOCKHASH CODESIZE LT 0x2E MSIZE 0xDA 0xF7 DUP12 0xF9 0x24 SELFBALANCE 0xF7 0xC 0x24 INVALID PUSH20 0x1C7FDED3193654A05946EEC6BC398D4AFE13536E BALANCE 0x49 0xCD 0xDD DUP13 SWAP11 DUP14 CALL PC 0xC 0xD5 0xE9 MULMOD REVERT SGT 0xC4 0x1E PUSH30 0xFEAD2E38D1141DAD5DA2646970667358221220CF85A0B0E74FB91BA9342A ADDMOD PUSH15 0xC3E91B108DC9E2ED87E9F1B8D5227E PUSH30 0xDDCF6E64736F6C6343000811003300000000000000000000000000000000 "},"methodIdentifiers":{"FREE_FILE_LIMIT()":"2ae46b0c","FREE_STORAGE()":"f92c3825","PREMIUM_FILE_LIMIT()":"db7cc7d2","PREMIUM_STORAGE()":"7a2250a9","PRO_FILE_LIMIT()":"fcfc6623","PRO_STORAGE()":"fbfe00a4","addFile(string,string,uint256,string,bytes32,string,uint256,string)":"ee690d3f","approveAccessRequest(uint256,address)":"12c7cc14","batchAddFiles(string[],string[],uint256[],string[],bytes32[],string[],uint256[],string[])":"395e6126","batchGrantAccess(uint256[],address)":"73939597","batchMoveFiles(uint256[],string[],string[])":"e1d57d01","batchRemoveFiles(uint256[])":"d162a37d","batchRevokeAccess(uint256[],address)":"97f856da","batchTransferFiles(uint256[],address)":"055ecfaf","batchTrashFiles(uint256[])":"baa70117","buyAccess(uint256)":"50a1a264","changeUsername(string)":"77c846af","contractOwner()":"ce606ee0","customStorageGB(address)":"10a03313","denyAccessRequest(uint256,address)":"ab5885db","editName(uint256,string)":"096d798c","getBinnedFiles(address)":"8b70834e","getFile(uint256)":"2bfda313","getFileCountLimit(address)":"d4483e79","getFilesByOwner(address)":"fc08a7d7","getHistory(uint256)":"c8691b2a","getMarketFiles()":"f99619f8","getSharedFiles(address)":"1d152422","getStarredFiles(address)":"2350fdc0","getStorageLimitBytes(address)":"6ab14d43","getUsername(address)":"ce43c032","grantAccess(uint256,address)":"65dd152c","hasAccess(uint256,address)":"ced14198","hashExists(bytes32)":"b535b5c3","moveFile(uint256,string,string)":"b169c4c1","premiumPrice()":"30654e13","proPlusPerGB()":"7916d6ce","proPrice()":"53b0e17d","registerUsername(string)":"36a94134","removeFile(uint256)":"9926b03f","requestAccess(uint256)":"7fdc2cdc","restoreFile(uint256)":"06cf5a3b","revokeAccess(uint256,address)":"d9a5ec1b","setPrice(uint256,uint256)":"f7d97577","setTierPrices(uint256,uint256,uint256)":"1fa2a6ae","starredFiles(uint256,address)":"668319c7","storageTier(address)":"b4428abc","toggleStar(uint256)":"53943aad","totalFiles()":"92cf0557","transferFile(uint256,address)":"8db95337","trashFile(uint256)":"fe816a90","upgradeTier(uint8,uint256)":"b35fb99a","usernameToAddress(string)":"f825f143","usernames(address)":"ee91877c","verifyFileByHash(bytes32)":"667523fb","viewRequests(uint256,address)":"7c65417c","withdrawFunds()":"24600fc3"}}}}}