{
  "_format": "hh-sol-artifact-1",
  "contractName": "Drive",
  "sourceName": "contracts/Drive.sol",
  "abi": [
    {
      "anonymous": false,
      "inputs": [
        {
          "indexed": true,
          "internalType": "uint256",
          "name": "id",
          "type": "uint256"
        },
        {
          "indexed": true,
          "internalType": "address",
          "name": "buyer",
          "type": "address"
        },
        {
          "indexed": false,
          "internalType": "uint256",
          "name": "price",
          "type": "uint256"
        }
      ],
      "name": "AccessBought",
      "type": "event"
    },
    {
      "anonymous": false,
      "inputs": [
        {
          "indexed": true,
          "internalType": "uint256",
          "name": "id",
          "type": "uint256"
        },
        {
          "indexed": true,
          "internalType": "address",
          "name": "to",
          "type": "address"
        }
      ],
      "name": "AccessGranted",
      "type": "event"
    },
    {
      "anonymous": false,
      "inputs": [
        {
          "indexed": true,
          "internalType": "uint256",
          "name": "id",
          "type": "uint256"
        },
        {
          "indexed": true,
          "internalType": "address",
          "name": "to",
          "type": "address"
        }
      ],
      "name": "AccessRevoked",
      "type": "event"
    },
    {
      "anonymous": false,
      "inputs": [
        {
          "indexed": true,
          "internalType": "uint256",
          "name": "id",
          "type": "uint256"
        },
        {
          "indexed": true,
          "internalType": "address",
          "name": "owner",
          "type": "address"
        },
        {
          "indexed": false,
          "internalType": "string",
          "name": "cid",
          "type": "string"
        },
        {
          "indexed": false,
          "internalType": "string",
          "name": "name",
          "type": "string"
        }
      ],
      "name": "FileAdded",
      "type": "event"
    },
    {
      "anonymous": false,
      "inputs": [
        {
          "indexed": true,
          "internalType": "uint256",
          "name": "id",
          "type": "uint256"
        },
        {
          "indexed": true,
          "internalType": "address",
          "name": "owner",
          "type": "address"
        }
      ],
      "name": "FileRemoved",
      "type": "event"
    },
    {
      "anonymous": false,
      "inputs": [
        {
          "indexed": true,
          "internalType": "uint256",
          "name": "id",
          "type": "uint256"
        },
        {
          "indexed": true,
          "internalType": "address",
          "name": "from",
          "type": "address"
        },
        {
          "indexed": true,
          "internalType": "address",
          "name": "to",
          "type": "address"
        }
      ],
      "name": "FileTransferred",
      "type": "event"
    },
    {
      "inputs": [
        {
          "internalType": "string",
          "name": "name",
          "type": "string"
        },
        {
          "internalType": "string",
          "name": "cid",
          "type": "string"
        },
        {
          "internalType": "uint256",
          "name": "size",
          "type": "uint256"
        },
        {
          "internalType": "string",
          "name": "mime",
          "type": "string"
        },
        {
          "internalType": "bytes32",
          "name": "contentHash",
          "type": "bytes32"
        },
        {
          "internalType": "string",
          "name": "category",
          "type": "string"
        },
        {
          "internalType": "uint256",
          "name": "price",
          "type": "uint256"
        },
        {
          "internalType": "string",
          "name": "folder",
          "type": "string"
        }
      ],
      "name": "addFile",
      "outputs": [
        {
          "internalType": "uint256",
          "name": "",
          "type": "uint256"
        }
      ],
      "stateMutability": "nonpayable",
      "type": "function"
    },
    {
      "inputs": [
        {
          "internalType": "uint256",
          "name": "id",
          "type": "uint256"
        }
      ],
      "name": "buyAccess",
      "outputs": [],
      "stateMutability": "payable",
      "type": "function"
    },
    {
      "inputs": [
        {
          "internalType": "uint256",
          "name": "id",
          "type": "uint256"
        },
        {
          "internalType": "string",
          "name": "newName",
          "type": "string"
        }
      ],
      "name": "editName",
      "outputs": [],
      "stateMutability": "nonpayable",
      "type": "function"
    },
    {
      "inputs": [
        {
          "internalType": "uint256",
          "name": "id",
          "type": "uint256"
        }
      ],
      "name": "getFile",
      "outputs": [
        {
          "internalType": "uint256",
          "name": "_id",
          "type": "uint256"
        },
        {
          "internalType": "string",
          "name": "name",
          "type": "string"
        },
        {
          "internalType": "string",
          "name": "cid",
          "type": "string"
        },
        {
          "internalType": "uint256",
          "name": "size",
          "type": "uint256"
        },
        {
          "internalType": "string",
          "name": "mime",
          "type": "string"
        },
        {
          "internalType": "address",
          "name": "owner",
          "type": "address"
        },
        {
          "internalType": "uint256",
          "name": "timestamp",
          "type": "uint256"
        },
        {
          "internalType": "bool",
          "name": "deleted",
          "type": "bool"
        },
        {
          "internalType": "bytes32",
          "name": "contentHash",
          "type": "bytes32"
        },
        {
          "internalType": "string",
          "name": "category",
          "type": "string"
        },
        {
          "internalType": "uint256",
          "name": "price",
          "type": "uint256"
        },
        {
          "internalType": "string",
          "name": "folder",
          "type": "string"
        }
      ],
      "stateMutability": "view",
      "type": "function"
    },
    {
      "inputs": [
        {
          "internalType": "address",
          "name": "owner",
          "type": "address"
        }
      ],
      "name": "getFilesByOwner",
      "outputs": [
        {
          "internalType": "uint256[]",
          "name": "",
          "type": "uint256[]"
        }
      ],
      "stateMutability": "view",
      "type": "function"
    },
    {
      "inputs": [
        {
          "internalType": "uint256",
          "name": "id",
          "type": "uint256"
        }
      ],
      "name": "getHistory",
      "outputs": [
        {
          "components": [
            {
              "internalType": "address",
              "name": "actor",
              "type": "address"
            },
            {
              "internalType": "string",
              "name": "action",
              "type": "string"
            },
            {
              "internalType": "uint256",
              "name": "timestamp",
              "type": "uint256"
            }
          ],
          "internalType": "struct Drive.HistoryLog[]",
          "name": "",
          "type": "tuple[]"
        }
      ],
      "stateMutability": "view",
      "type": "function"
    },
    {
      "inputs": [],
      "name": "getMarketFiles",
      "outputs": [
        {
          "internalType": "uint256[]",
          "name": "",
          "type": "uint256[]"
        }
      ],
      "stateMutability": "view",
      "type": "function"
    },
    {
      "inputs": [
        {
          "internalType": "address",
          "name": "user",
          "type": "address"
        }
      ],
      "name": "getSharedFiles",
      "outputs": [
        {
          "internalType": "uint256[]",
          "name": "",
          "type": "uint256[]"
        }
      ],
      "stateMutability": "view",
      "type": "function"
    },
    {
      "inputs": [
        {
          "internalType": "uint256",
          "name": "id",
          "type": "uint256"
        },
        {
          "internalType": "address",
          "name": "to",
          "type": "address"
        }
      ],
      "name": "grantAccess",
      "outputs": [],
      "stateMutability": "nonpayable",
      "type": "function"
    },
    {
      "inputs": [
        {
          "internalType": "uint256",
          "name": "id",
          "type": "uint256"
        },
        {
          "internalType": "address",
          "name": "user",
          "type": "address"
        }
      ],
      "name": "hasAccess",
      "outputs": [
        {
          "internalType": "bool",
          "name": "",
          "type": "bool"
        }
      ],
      "stateMutability": "view",
      "type": "function"
    },
    {
      "inputs": [
        {
          "internalType": "bytes32",
          "name": "",
          "type": "bytes32"
        }
      ],
      "name": "hashExists",
      "outputs": [
        {
          "internalType": "bool",
          "name": "",
          "type": "bool"
        }
      ],
      "stateMutability": "view",
      "type": "function"
    },
    {
      "inputs": [
        {
          "internalType": "uint256",
          "name": "id",
          "type": "uint256"
        },
        {
          "internalType": "string",
          "name": "newFolder",
          "type": "string"
        },
        {
          "internalType": "string",
          "name": "newCategory",
          "type": "string"
        }
      ],
      "name": "moveFile",
      "outputs": [],
      "stateMutability": "nonpayable",
      "type": "function"
    },
    {
      "inputs": [
        {
          "internalType": "uint256",
          "name": "id",
          "type": "uint256"
        }
      ],
      "name": "removeFile",
      "outputs": [],
      "stateMutability": "nonpayable",
      "type": "function"
    },
    {
      "inputs": [
        {
          "internalType": "uint256",
          "name": "id",
          "type": "uint256"
        },
        {
          "internalType": "address",
          "name": "user",
          "type": "address"
        }
      ],
      "name": "revokeAccess",
      "outputs": [],
      "stateMutability": "nonpayable",
      "type": "function"
    },
    {
      "inputs": [],
      "name": "totalFiles",
      "outputs": [
        {
          "internalType": "uint256",
          "name": "",
          "type": "uint256"
        }
      ],
      "stateMutability": "view",
      "type": "function"
    },
    {
      "inputs": [
        {
          "internalType": "uint256",
          "name": "id",
          "type": "uint256"
        },
        {
          "internalType": "address",
          "name": "to",
          "type": "address"
        }
      ],
      "name": "transferFile",
      "outputs": [],
      "stateMutability": "nonpayable",
      "type": "function"
    },
    {
      "inputs": [
        {
          "internalType": "bytes32",
          "name": "hash",
          "type": "bytes32"
        }
      ],
      "name": "verifyFileByHash",
      "outputs": [
        {
          "internalType": "bool",
          "name": "found",
          "type": "bool"
        },
        {
          "internalType": "uint256",
          "name": "id",
          "type": "uint256"
        },
        {
          "internalType": "address",
          "name": "owner",
          "type": "address"
        },
        {
          "internalType": "string",
          "name": "category",
          "type": "string"
        },
        {
          "internalType": "uint256",
          "name": "timestamp",
          "type": "uint256"
        }
      ],
      "stateMutability": "view",
      "type": "function"
    }
  ],
  "bytecode": "0x608060405234801561001057600080fd5b50613fd5806100206000396000f3fe6080604052600436106100fe5760003560e01c80639926b03f11610095578063ced1419811610064578063ced1419814610357578063d9a5ec1b14610394578063ee690d3f146103bd578063f99619f8146103fa578063fc08a7d714610425576100fe565b80639926b03f1461028b578063b169c4c1146102b4578063b535b5c3146102dd578063c8691b2a1461031a576100fe565b806365dd152c116100d157806365dd152c146101cd578063667523fb146101f65780638db953371461023757806392cf055714610260576100fe565b8063096d798c146101035780631d1524221461012c5780632bfda3131461016957806350a1a264146101b1575b600080fd5b34801561010f57600080fd5b5061012a60048036038101906101259190612ce8565b610462565b005b34801561013857600080fd5b50610153600480360381019061014e9190612da2565b610688565b6040516101609190612e8d565b60405180910390f35b34801561017557600080fd5b50610190600480360381019061018b9190612eaf565b610a4b565b6040516101a89c9b9a99989796959493929190612fad565b60405180910390f35b6101cb60048036038101906101c69190612eaf565b610e59565b005b3480156101d957600080fd5b506101f460048036038101906101ef919061308a565b61127c565b005b34801561020257600080fd5b5061021d600480360381019061021891906130f6565b6114da565b60405161022e959493929190613123565b60405180910390f35b34801561024357600080fd5b5061025e6004803603810190610259919061308a565b611735565b005b34801561026c57600080fd5b50610275611a17565b604051610282919061317d565b60405180910390f35b34801561029757600080fd5b506102b260048036038101906102ad9190612eaf565b611a23565b005b3480156102c057600080fd5b506102db60048036038101906102d69190613198565b611ca9565b005b3480156102e957600080fd5b5061030460048036038101906102ff91906130f6565b611e07565b6040516103119190613223565b60405180910390f35b34801561032657600080fd5b50610341600480360381019061033c9190612eaf565b611e27565b60405161034e91906133a9565b60405180910390f35b34801561036357600080fd5b5061037e6004803603810190610379919061308a565b611f8b565b60405161038b9190613223565b60405180910390f35b3480156103a057600080fd5b506103bb60048036038101906103b6919061308a565b6120f1565b005b3480156103c957600080fd5b506103e460048036038101906103df91906133cb565b6122e0565b6040516103f1919061317d565b60405180910390f35b34801561040657600080fd5b5061040f6125fa565b60405161041c9190612e8d565b60405180910390f35b34801561043157600080fd5b5061044c60048036038101906104479190612da2565b612855565b6040516104599190612e8d565b60405180910390f35b60008054905082106104a9576040517f08c379a00000000000000000000000000000000000000000000000000000000081526004016104a090613559565b60405180910390fd5b60008083815481106104be576104bd613579565b5b90600052602060002090600b020190503373ffffffffffffffffffffffffffffffffffffffff168160050160009054906101000a900473ffffffffffffffffffffffffffffffffffffffff1673ffffffffffffffffffffffffffffffffffffffff1614610560576040517f08c379a0000000000000000000000000000000000000000000000000000000008152600401610557906135f4565b60405180910390fd5b60006106646040518060400160405280600981526020017f52656e616d65643a2000000000000000000000000000000000000000000000008152508360010180546105aa90613643565b80601f01602080910402602001604051908101604052809291908181526020018280546105d690613643565b80156106235780601f106105f857610100808354040283529160200191610623565b820191906000526020600020905b81548152906001019060200180831161060657829003601f168201915b50505050506040518060400160405280600481526020017f202d3e200000000000000000000000000000000000000000000000000000000081525086612a4c565b9050828260010190816106779190613820565b506106828482612a7e565b50505050565b60606000808054905090506000805b8281101561081f578473ffffffffffffffffffffffffffffffffffffffff16600082815481106106ca576106c9613579565b5b90600052602060002090600b020160050160009054906101000a900473ffffffffffffffffffffffffffffffffffffffff1673ffffffffffffffffffffffffffffffffffffffff161415801561077a57506002600082815260200190815260200160002060008673ffffffffffffffffffffffffffffffffffffffff1673ffffffffffffffffffffffffffffffffffffffff16815260200190815260200160002060009054906101000a900460ff165b80156107f85750600073ffffffffffffffffffffffffffffffffffffffff16600082815481106107ad576107ac613579565b5b90600052602060002090600b020160050160009054906101000a900473ffffffffffffffffffffffffffffffffffffffff1673ffffffffffffffffffffffffffffffffffffffff1614155b1561080c57818061080890613921565b9250505b808061081790613921565b915050610697565b5060008167ffffffffffffffff81111561083c5761083b612bbd565b5b60405190808252806020026020018201604052801561086a5781602001602082028036833780820191505090505b5090506000805b84811015610a3e578673ffffffffffffffffffffffffffffffffffffffff16600082815481106108a4576108a3613579565b5b90600052602060002090600b020160050160009054906101000a900473ffffffffffffffffffffffffffffffffffffffff1673ffffffffffffffffffffffffffffffffffffffff161415801561095457506002600082815260200190815260200160002060008873ffffffffffffffffffffffffffffffffffffffff1673ffffffffffffffffffffffffffffffffffffffff16815260200190815260200160002060009054906101000a900460ff165b80156109d25750600073ffffffffffffffffffffffffffffffffffffffff166000828154811061098757610986613579565b5b90600052602060002090600b020160050160009054906101000a900473ffffffffffffffffffffffffffffffffffffffff1673ffffffffffffffffffffffffffffffffffffffff1614155b15610a2b57600081815481106109eb576109ea613579565b5b90600052602060002090600b020160000154838381518110610a1057610a0f613579565b5b6020026020010181815250508180610a2790613921565b9250505b8080610a3690613921565b915050610871565b5081945050505050919050565b6000606080600060606000806000806060600060606000805490508d10610aa7576040517f08c379a0000000000000000000000000000000000000000000000000000000008152600401610a9e90613559565b60405180910390fd5b6000808e81548110610abc57610abb613579565b5b90600052602060002090600b02019050600073ffffffffffffffffffffffffffffffffffffffff168160050160009054906101000a900473ffffffffffffffffffffffffffffffffffffffff1673ffffffffffffffffffffffffffffffffffffffff16149550806000015481600101826002018360030154846004018560050160009054906101000a900473ffffffffffffffffffffffffffffffffffffffff1686600601548c8860070154896008018a600901548b600a018a8054610b8190613643565b80601f0160208091040260200160405190810160405280929190818152602001828054610bad90613643565b8015610bfa5780601f10610bcf57610100808354040283529160200191610bfa565b820191906000526020600020905b815481529060010190602001808311610bdd57829003601f168201915b50505050509a50898054610c0d90613643565b80601f0160208091040260200160405190810160405280929190818152602001828054610c3990613643565b8015610c865780601f10610c5b57610100808354040283529160200191610c86565b820191906000526020600020905b815481529060010190602001808311610c6957829003601f168201915b50505050509950878054610c9990613643565b80601f0160208091040260200160405190810160405280929190818152602001828054610cc590613643565b8015610d125780601f10610ce757610100808354040283529160200191610d12565b820191906000526020600020905b815481529060010190602001808311610cf557829003601f168201915b50505050509750828054610d2590613643565b80601f0160208091040260200160405190810160405280929190818152602001828054610d5190613643565b8015610d9e5780601f10610d7357610100808354040283529160200191610d9e565b820191906000526020600020905b815481529060010190602001808311610d8157829003601f168201915b50505050509250808054610db190613643565b80601f0160208091040260200160405190810160405280929190818152602001828054610ddd90613643565b8015610e2a5780601f10610dff57610100808354040283529160200191610e2a565b820191906000526020600020905b815481529060010190602001808311610e0d57829003601f168201915b505050505090509c509c509c509c509c509c509c509c509c509c509c509c505091939597999b5091939597999b565b6000805490508110610ea0576040517f08c379a0000000000000000000000000000000000000000000000000000000008152600401610e9790613559565b60405180910390fd5b6000808281548110610eb557610eb4613579565b5b90600052602060002090600b02019050600073ffffffffffffffffffffffffffffffffffffffff168160050160009054906101000a900473ffffffffffffffffffffffffffffffffffffffff1673ffffffffffffffffffffffffffffffffffffffff1603610f58576040517f08c379a0000000000000000000000000000000000000000000000000000000008152600401610f4f906139b5565b60405180910390fd5b6000816009015411610f9f576040517f08c379a0000000000000000000000000000000000000000000000000000000008152600401610f9690613a21565b60405180910390fd5b8060090154341015610fe6576040517f08c379a0000000000000000000000000000000000000000000000000000000008152600401610fdd90613a8d565b60405180910390fd5b3373ffffffffffffffffffffffffffffffffffffffff168160050160009054906101000a900473ffffffffffffffffffffffffffffffffffffffff1673ffffffffffffffffffffffffffffffffffffffff1603611078576040517f08c379a000000000000000000000000000000000000000000000000000000000815260040161106f90613af9565b60405180910390fd5b6002600083815260200190815260200160002060003373ffffffffffffffffffffffffffffffffffffffff1673ffffffffffffffffffffffffffffffffffffffff16815260200190815260200160002060009054906101000a900460ff1615611116576040517f08c379a000000000000000000000000000000000000000000000000000000000815260040161110d90613b65565b60405180910390fd5b60016002600084815260200190815260200160002060003373ffffffffffffffffffffffffffffffffffffffff1673ffffffffffffffffffffffffffffffffffffffff16815260200190815260200160002060006101000a81548160ff0219169083151502179055508060050160009054906101000a900473ffffffffffffffffffffffffffffffffffffffff1673ffffffffffffffffffffffffffffffffffffffff166108fc349081150290604051600060405180830381858888f193505050501580156111e9573d6000803e3d6000fd5b50611229826040518060400160405280601081526020017f4163636573732070757263686173656400000000000000000000000000000000815250612a7e565b3373ffffffffffffffffffffffffffffffffffffffff16827f8f21da0ea7326e97d788c6c2cb9e0629e1d7844954ce8fb701d3e64bd5a0531e34604051611270919061317d565b60405180910390a35050565b60008054905082106112c3576040517f08c379a00000000000000000000000000000000000000000000000000000000081526004016112ba90613559565b60405180910390fd5b60008083815481106112d8576112d7613579565b5b90600052602060002090600b020190503373ffffffffffffffffffffffffffffffffffffffff168160050160009054906101000a900473ffffffffffffffffffffffffffffffffffffffff1673ffffffffffffffffffffffffffffffffffffffff161461137a576040517f08c379a0000000000000000000000000000000000000000000000000000000008152600401611371906135f4565b60405180910390fd5b600073ffffffffffffffffffffffffffffffffffffffff168273ffffffffffffffffffffffffffffffffffffffff16036113e9576040517f08c379a00000000000000000000000000000000000000000000000000000000081526004016113e090613bd1565b60405180910390fd5b60016002600085815260200190815260200160002060008473ffffffffffffffffffffffffffffffffffffffff1673ffffffffffffffffffffffffffffffffffffffff16815260200190815260200160002060006101000a81548160ff021916908315150217905550611491836040518060400160405280601381526020017f4772616e74656420766965772061636365737300000000000000000000000000815250612a7e565b8173ffffffffffffffffffffffffffffffffffffffff16837f3c3a9147a1fc73dd51a32f4d10c43d457e8cb826eb6f35cac6349eb965ba82b460405160405180910390a3505050565b60008060006060600080600090505b60008054905081101561170957866000828154811061150b5761150a613579565b5b90600052602060002090600b02016007015414801561159c5750600073ffffffffffffffffffffffffffffffffffffffff166000828154811061155157611550613579565b5b90600052602060002090600b020160050160009054906101000a900473ffffffffffffffffffffffffffffffffffffffff1673ffffffffffffffffffffffffffffffffffffffff1614155b156116f6576001600082815481106115b7576115b6613579565b5b90600052602060002090600b020160000154600083815481106115dd576115dc613579565b5b90600052602060002090600b020160050160009054906101000a900473ffffffffffffffffffffffffffffffffffffffff166000848154811061162357611622613579565b5b90600052602060002090600b02016008016000858154811061164857611647613579565b5b90600052602060002090600b02016006015481805461166690613643565b80601f016020809104026020016040519081016040528092919081815260200182805461169290613643565b80156116df5780601f106116b4576101008083540402835291602001916116df565b820191906000526020600020905b8154815290600101906020018083116116c257829003601f168201915b50505050509150955095509550955095505061172c565b808061170190613921565b9150506114e9565b506000806000806040518060200160405280600081525090945094509450945094505b91939590929450565b600080549050821061177c576040517f08c379a000000000000000000000000000000000000000000000000000000000815260040161177390613559565b60405180910390fd5b600073ffffffffffffffffffffffffffffffffffffffff168173ffffffffffffffffffffffffffffffffffffffff16036117eb576040517f08c379a00000000000000000000000000000000000000000000000000000000081526004016117e290613c3d565b60405180910390fd5b6000808381548110611800576117ff613579565b5b90600052602060002090600b020190503373ffffffffffffffffffffffffffffffffffffffff168160050160009054906101000a900473ffffffffffffffffffffffffffffffffffffffff1673ffffffffffffffffffffffffffffffffffffffff16146118a2576040517f08c379a0000000000000000000000000000000000000000000000000000000008152600401611899906135f4565b60405180910390fd5b60008160050160009054906101000a900473ffffffffffffffffffffffffffffffffffffffff169050828260050160006101000a81548173ffffffffffffffffffffffffffffffffffffffff021916908373ffffffffffffffffffffffffffffffffffffffff16021790555060016002600086815260200190815260200160002060008573ffffffffffffffffffffffffffffffffffffffff1673ffffffffffffffffffffffffffffffffffffffff16815260200190815260200160002060006101000a81548160ff0219169083151502179055506119b6846040518060400160405280601581526020017f5472616e73666572726564206f776e6572736869700000000000000000000000815250612a7e565b8273ffffffffffffffffffffffffffffffffffffffff168173ffffffffffffffffffffffffffffffffffffffff16857fa858a0d23644b705afa414c8afbacbb4b357a18ea066805e48f9cd103fd87a8160405160405180910390a450505050565b60008080549050905090565b6000805490508110611a6a576040517f08c379a0000000000000000000000000000000000000000000000000000000008152600401611a6190613559565b60405180910390fd5b6000808281548110611a7f57611a7e613579565b5b90600052602060002090600b020190503373ffffffffffffffffffffffffffffffffffffffff168160050160009054906101000a900473ffffffffffffffffffffffffffffffffffffffff1673ffffffffffffffffffffffffffffffffffffffff1614611b21576040517f08c379a0000000000000000000000000000000000000000000000000000000008152600401611b18906135f4565b60405180910390fd5b600073ffffffffffffffffffffffffffffffffffffffff168160050160009054906101000a900473ffffffffffffffffffffffffffffffffffffffff1673ffffffffffffffffffffffffffffffffffffffff1603611bb4576040517f08c379a0000000000000000000000000000000000000000000000000000000008152600401611bab90613ca9565b60405180910390fd5b60008160050160009054906101000a900473ffffffffffffffffffffffffffffffffffffffff16905060008260050160006101000a81548173ffffffffffffffffffffffffffffffffffffffff021916908373ffffffffffffffffffffffffffffffffffffffff160217905550611c60836040518060400160405280600781526020017f44656c6574656400000000000000000000000000000000000000000000000000815250612a7e565b8073ffffffffffffffffffffffffffffffffffffffff16837f9b5baeec63969a252d5d743784891dba3a017078113856378a7098a68936095460405160405180910390a3505050565b6000805490508310611cf0576040517f08c379a0000000000000000000000000000000000000000000000000000000008152600401611ce790613559565b60405180910390fd5b6000808481548110611d0557611d04613579565b5b90600052602060002090600b020190503373ffffffffffffffffffffffffffffffffffffffff168160050160009054906101000a900473ffffffffffffffffffffffffffffffffffffffff1673ffffffffffffffffffffffffffffffffffffffff1614611da7576040517f08c379a0000000000000000000000000000000000000000000000000000000008152600401611d9e906135f4565b60405180910390fd5b600081600a018484604051602001611dc193929190613e6c565b60405160208183030381529060405290508382600a019081611de39190613820565b5082826008019081611df59190613820565b50611e008582612a7e565b5050505050565b60036020528060005260406000206000915054906101000a900460ff1681565b606060016000838152602001908152602001600020805480602002602001604051908101604052809291908181526020016000905b82821015611f8057838290600052602060002090600302016040518060600160405290816000820160009054906101000a900473ffffffffffffffffffffffffffffffffffffffff1673ffffffffffffffffffffffffffffffffffffffff1673ffffffffffffffffffffffffffffffffffffffff168152602001600182018054611ee590613643565b80601f0160208091040260200160405190810160405280929190818152602001828054611f1190613643565b8015611f5e5780601f10611f3357610100808354040283529160200191611f5e565b820191906000526020600020905b815481529060010190602001808311611f4157829003601f168201915b5050505050815260200160028201548152505081526020019060010190611e5c565b505050509050919050565b600080805490508310611fa157600090506120eb565b6000808481548110611fb657611fb5613579565b5b90600052602060002090600b020190508273ffffffffffffffffffffffffffffffffffffffff168160050160009054906101000a900473ffffffffffffffffffffffffffffffffffffffff1673ffffffffffffffffffffffffffffffffffffffff16036120275760019150506120eb565b600073ffffffffffffffffffffffffffffffffffffffff168160050160009054906101000a900473ffffffffffffffffffffffffffffffffffffffff1673ffffffffffffffffffffffffffffffffffffffff16036120895760009150506120eb565b6002600085815260200190815260200160002060008473ffffffffffffffffffffffffffffffffffffffff1673ffffffffffffffffffffffffffffffffffffffff16815260200190815260200160002060009054906101000a900460ff169150505b92915050565b6000805490508210612138576040517f08c379a000000000000000000000000000000000000000000000000000000000815260040161212f90613559565b60405180910390fd5b600080838154811061214d5761214c613579565b5b90600052602060002090600b020190503373ffffffffffffffffffffffffffffffffffffffff168160050160009054906101000a900473ffffffffffffffffffffffffffffffffffffffff1673ffffffffffffffffffffffffffffffffffffffff16146121ef576040517f08c379a00000000000000000000000000000000000000000000000000000000081526004016121e6906135f4565b60405180910390fd5b60006002600085815260200190815260200160002060008473ffffffffffffffffffffffffffffffffffffffff1673ffffffffffffffffffffffffffffffffffffffff16815260200190815260200160002060006101000a81548160ff021916908315150217905550612297836040518060400160405280601381526020017f5265766f6b656420766965772061636365737300000000000000000000000000815250612a7e565b8173ffffffffffffffffffffffffffffffffffffffff16837f125883b94692baebecad9f111ed97ffa626523bbbadc6b0ef85ee1b56b9e52d560405160405180910390a3505050565b60006003600086815260200190815260200160002060009054906101000a900460ff1615612343576040517f08c379a000000000000000000000000000000000000000000000000000000000815260040161233a90613f0a565b60405180910390fd5b60008080549050905060006040518061016001604052808381526020018c81526020018b81526020018a81526020018981526020013373ffffffffffffffffffffffffffffffffffffffff1681526020014281526020018881526020018781526020018681526020018581525090806001815401808255809150506001900390600052602060002090600b02016000909190919091506000820151816000015560208201518160010190816123f89190613820565b50604082015181600201908161240e9190613820565b5060608201518160030155608082015181600401908161242e9190613820565b5060a08201518160050160006101000a81548173ffffffffffffffffffffffffffffffffffffffff021916908373ffffffffffffffffffffffffffffffffffffffff16021790555060c0820151816006015560e082015181600701556101008201518160080190816124a09190613820565b50610120820151816009015561014082015181600a0190816124c29190613820565b50505060016002600083815260200190815260200160002060003373ffffffffffffffffffffffffffffffffffffffff1673ffffffffffffffffffffffffffffffffffffffff16815260200190815260200160002060006101000a81548160ff02191690831515021790555060016003600088815260200190815260200160002060006101000a81548160ff021916908315150217905550612599816040518060400160405280600881526020017f55706c6f61646564000000000000000000000000000000000000000000000000815250612a7e565b3373ffffffffffffffffffffffffffffffffffffffff16817fb14038102e59daf78bf92447f70c24fe731c7fded3193654a05946eec6bc398d8b8d6040516125e2929190613f2a565b60405180910390a38091505098975050505050505050565b60606000808054905090506000805b828110156126de57600080828154811061262657612625613579565b5b90600052602060002090600b0201600901541180156126b75750600073ffffffffffffffffffffffffffffffffffffffff166000828154811061266c5761266b613579565b5b90600052602060002090600b020160050160009054906101000a900473ffffffffffffffffffffffffffffffffffffffff1673ffffffffffffffffffffffffffffffffffffffff1614155b156126cb5781806126c790613921565b9250505b80806126d690613921565b915050612609565b5060008167ffffffffffffffff8111156126fb576126fa612bbd565b5b6040519080825280602002602001820160405280156127295781602001602082028036833780820191505090505b5090506000805b8481101561284a57600080828154811061274d5761274c613579565b5b90600052602060002090600b0201600901541180156127de5750600073ffffffffffffffffffffffffffffffffffffffff166000828154811061279357612792613579565b5b90600052602060002090600b020160050160009054906101000a900473ffffffffffffffffffffffffffffffffffffffff1673ffffffffffffffffffffffffffffffffffffffff1614155b1561283757600081815481106127f7576127f6613579565b5b90600052602060002090600b02016000015483838151811061281c5761281b613579565b5b602002602001018181525050818061283390613921565b9250505b808061284290613921565b915050612730565b508194505050505090565b60606000808054905090506000805b82811015612906578473ffffffffffffffffffffffffffffffffffffffff166000828154811061289757612896613579565b5b90600052602060002090600b020160050160009054906101000a900473ffffffffffffffffffffffffffffffffffffffff1673ffffffffffffffffffffffffffffffffffffffff16036128f35781806128ef90613921565b9250505b80806128fe90613921565b915050612864565b5060008167ffffffffffffffff81111561292357612922612bbd565b5b6040519080825280602002602001820160405280156129515781602001602082028036833780820191505090505b5090506000805b84811015612a3f578673ffffffffffffffffffffffffffffffffffffffff166000828154811061298b5761298a613579565b5b90600052602060002090600b020160050160009054906101000a900473ffffffffffffffffffffffffffffffffffffffff1673ffffffffffffffffffffffffffffffffffffffff1603612a2c57600081815481106129ec576129eb613579565b5b90600052602060002090600b020160000154838381518110612a1157612a10613579565b5b6020026020010181815250508180612a2890613921565b9250505b8080612a3790613921565b915050612958565b5081945050505050919050565b606084848484604051602001612a659493929190613f61565b6040516020818303038152906040529050949350505050565b6001600083815260200190815260200160002060405180606001604052803373ffffffffffffffffffffffffffffffffffffffff16815260200183815260200142815250908060018154018082558091505060019003906000526020600020906003020160009091909190915060008201518160000160006101000a81548173ffffffffffffffffffffffffffffffffffffffff021916908373ffffffffffffffffffffffffffffffffffffffff1602179055506020820151816001019081612b479190613820565b506040820151816002015550505050565b6000604051905090565b600080fd5b600080fd5b6000819050919050565b612b7f81612b6c565b8114612b8a57600080fd5b50565b600081359050612b9c81612b76565b92915050565b600080fd5b600080fd5b6000601f19601f8301169050919050565b7f4e487b7100000000000000000000000000000000000000000000000000000000600052604160045260246000fd5b612bf582612bac565b810181811067ffffffffffffffff82111715612c1457612c13612bbd565b5b80604052505050565b6000612c27612b58565b9050612c338282612bec565b919050565b600067ffffffffffffffff821115612c5357612c52612bbd565b5b612c5c82612bac565b9050602081019050919050565b82818337600083830152505050565b6000612c8b612c8684612c38565b612c1d565b905082815260208101848484011115612ca757612ca6612ba7565b5b612cb2848285612c69565b509392505050565b600082601f830112612ccf57612cce612ba2565b5b8135612cdf848260208601612c78565b91505092915050565b60008060408385031215612cff57612cfe612b62565b5b6000612d0d85828601612b8d565b925050602083013567ffffffffffffffff811115612d2e57612d2d612b67565b5b612d3a85828601612cba565b9150509250929050565b600073ffffffffffffffffffffffffffffffffffffffff82169050919050565b6000612d6f82612d44565b9050919050565b612d7f81612d64565b8114612d8a57600080fd5b50565b600081359050612d9c81612d76565b92915050565b600060208284031215612db857612db7612b62565b5b6000612dc684828501612d8d565b91505092915050565b600081519050919050565b600082825260208201905092915050565b6000819050602082019050919050565b612e0481612b6c565b82525050565b6000612e168383612dfb565b60208301905092915050565b6000602082019050919050565b6000612e3a82612dcf565b612e448185612dda565b9350612e4f83612deb565b8060005b83811015612e80578151612e678882612e0a565b9750612e7283612e22565b925050600181019050612e53565b5085935050505092915050565b60006020820190508181036000830152612ea78184612e2f565b905092915050565b600060208284031215612ec557612ec4612b62565b5b6000612ed384828501612b8d565b91505092915050565b612ee581612b6c565b82525050565b600081519050919050565b600082825260208201905092915050565b60005b83811015612f25578082015181840152602081019050612f0a565b60008484015250505050565b6000612f3c82612eeb565b612f468185612ef6565b9350612f56818560208601612f07565b612f5f81612bac565b840191505092915050565b612f7381612d64565b82525050565b60008115159050919050565b612f8e81612f79565b82525050565b6000819050919050565b612fa781612f94565b82525050565b600061018082019050612fc3600083018f612edc565b8181036020830152612fd5818e612f31565b90508181036040830152612fe9818d612f31565b9050612ff8606083018c612edc565b818103608083015261300a818b612f31565b905061301960a083018a612f6a565b61302660c0830189612edc565b61303360e0830188612f85565b613041610100830187612f9e565b8181036101208301526130548186612f31565b9050613064610140830185612edc565b8181036101608301526130778184612f31565b90509d9c50505050505050505050505050565b600080604083850312156130a1576130a0612b62565b5b60006130af85828601612b8d565b92505060206130c085828601612d8d565b9150509250929050565b6130d381612f94565b81146130de57600080fd5b50565b6000813590506130f0816130ca565b92915050565b60006020828403121561310c5761310b612b62565b5b600061311a848285016130e1565b91505092915050565b600060a0820190506131386000830188612f85565b6131456020830187612edc565b6131526040830186612f6a565b81810360608301526131648185612f31565b90506131736080830184612edc565b9695505050505050565b60006020820190506131926000830184612edc565b92915050565b6000806000606084860312156131b1576131b0612b62565b5b60006131bf86828701612b8d565b935050602084013567ffffffffffffffff8111156131e0576131df612b67565b5b6131ec86828701612cba565b925050604084013567ffffffffffffffff81111561320d5761320c612b67565b5b61321986828701612cba565b9150509250925092565b60006020820190506132386000830184612f85565b92915050565b600081519050919050565b600082825260208201905092915050565b6000819050602082019050919050565b61327381612d64565b82525050565b600082825260208201905092915050565b600061329582612eeb565b61329f8185613279565b93506132af818560208601612f07565b6132b881612bac565b840191505092915050565b60006060830160008301516132db600086018261326a565b50602083015184820360208601526132f3828261328a565b91505060408301516133086040860182612dfb565b508091505092915050565b600061331f83836132c3565b905092915050565b6000602082019050919050565b600061333f8261323e565b6133498185613249565b93508360208202850161335b8561325a565b8060005b8581101561339757848403895281516133788582613313565b945061338383613327565b925060208a0199505060018101905061335f565b50829750879550505050505092915050565b600060208201905081810360008301526133c38184613334565b905092915050565b600080600080600080600080610100898b0312156133ec576133eb612b62565b5b600089013567ffffffffffffffff81111561340a57613409612b67565b5b6134168b828c01612cba565b985050602089013567ffffffffffffffff81111561343757613436612b67565b5b6134438b828c01612cba565b97505060406134548b828c01612b8d565b965050606089013567ffffffffffffffff81111561347557613474612b67565b5b6134818b828c01612cba565b95505060806134928b828c016130e1565b94505060a089013567ffffffffffffffff8111156134b3576134b2612b67565b5b6134bf8b828c01612cba565b93505060c06134d08b828c01612b8d565b92505060e089013567ffffffffffffffff8111156134f1576134f0612b67565b5b6134fd8b828c01612cba565b9150509295985092959890939650565b7f496e76616c696420696400000000000000000000000000000000000000000000600082015250565b6000613543600a83612ef6565b915061354e8261350d565b602082019050919050565b6000602082019050818103600083015261357281613536565b9050919050565b7f4e487b7100000000000000000000000000000000000000000000000000000000600052603260045260246000fd5b7f4e6f74206f776e65720000000000000000000000000000000000000000000000600082015250565b60006135de600983612ef6565b91506135e9826135a8565b602082019050919050565b6000602082019050818103600083015261360d816135d1565b9050919050565b7f4e487b7100000000000000000000000000000000000000000000000000000000600052602260045260246000fd5b6000600282049050600182168061365b57607f821691505b60208210810361366e5761366d613614565b5b50919050565b60008190508160005260206000209050919050565b60006020601f8301049050919050565b600082821b905092915050565b6000600883026136d67fffffffffffffffffffffffffffffffffffffffffffffffffffffffffffffffff82613699565b6136e08683613699565b95508019841693508086168417925050509392505050565b6000819050919050565b600061371d61371861371384612b6c565b6136f8565b612b6c565b9050919050565b6000819050919050565b61373783613702565b61374b61374382613724565b8484546136a6565b825550505050565b600090565b613760613753565b61376b81848461372e565b505050565b5b8181101561378f57613784600082613758565b600181019050613771565b5050565b601f8211156137d4576137a581613674565b6137ae84613689565b810160208510156137bd578190505b6137d16137c985613689565b830182613770565b50505b505050565b600082821c905092915050565b60006137f7600019846008026137d9565b1980831691505092915050565b600061381083836137e6565b9150826002028217905092915050565b61382982612eeb565b67ffffffffffffffff81111561384257613841612bbd565b5b61384c8254613643565b613857828285613793565b600060209050601f83116001811461388a5760008415613878578287015190505b6138828582613804565b8655506138ea565b601f19841661389886613674565b60005b828110156138c05784890151825560018201915060208501945060208101905061389b565b868310156138dd57848901516138d9601f8916826137e6565b8355505b6001600288020188555050505b505050505050565b7f4e487b7100000000000000000000000000000000000000000000000000000000600052601160045260246000fd5b600061392c82612b6c565b91507fffffffffffffffffffffffffffffffffffffffffffffffffffffffffffffffff820361395e5761395d6138f2565b5b600182019050919050565b7f46696c652064656c657465640000000000000000000000000000000000000000600082015250565b600061399f600c83612ef6565b91506139aa82613969565b602082019050919050565b600060208201905081810360008301526139ce81613992565b9050919050565b7f4e6f7420666f722073616c650000000000000000000000000000000000000000600082015250565b6000613a0b600c83612ef6565b9150613a16826139d5565b602082019050919050565b60006020820190508181036000830152613a3a816139fe565b9050919050565b7f496e73756666696369656e74207061796d656e74000000000000000000000000600082015250565b6000613a77601483612ef6565b9150613a8282613a41565b602082019050919050565b60006020820190508181036000830152613aa681613a6a565b9050919050565b7f4f776e65722063616e6e6f742062757900000000000000000000000000000000600082015250565b6000613ae3601083612ef6565b9150613aee82613aad565b602082019050919050565b60006020820190508181036000830152613b1281613ad6565b9050919050565b7f416c726561647920686176652061636365737300000000000000000000000000600082015250565b6000613b4f601383612ef6565b9150613b5a82613b19565b602082019050919050565b60006020820190508181036000830152613b7e81613b42565b9050919050565b7f496e76616c696420616464726573730000000000000000000000000000000000600082015250565b6000613bbb600f83612ef6565b9150613bc682613b85565b602082019050919050565b60006020820190508181036000830152613bea81613bae565b9050919050565b7f496e76616c696420726563697069656e74000000000000000000000000000000600082015250565b6000613c27601183612ef6565b9150613c3282613bf1565b602082019050919050565b60006020820190508181036000830152613c5681613c1a565b9050919050565b7f416c72656164792072656d6f7665640000000000000000000000000000000000600082015250565b6000613c93600f83612ef6565b9150613c9e82613c5d565b602082019050919050565b60006020820190508181036000830152613cc281613c86565b9050919050565b600081905092915050565b7f4d6f7665643a2000000000000000000000000000000000000000000000000000600082015250565b6000613d0a600783613cc9565b9150613d1582613cd4565b600782019050919050565b60008154613d2d81613643565b613d378186613cc9565b94506001821660008114613d525760018114613d6757613d9a565b60ff1983168652811515820286019350613d9a565b613d7085613674565b60005b83811015613d9257815481890152600182019150602081019050613d73565b838801955050505b50505092915050565b7f202d3e2000000000000000000000000000000000000000000000000000000000600082015250565b6000613dd9600483613cc9565b9150613de482613da3565b600482019050919050565b6000613dfa82612eeb565b613e048185613cc9565b9350613e14818560208601612f07565b80840191505092915050565b7f207c204361743a20000000000000000000000000000000000000000000000000600082015250565b6000613e56600883613cc9565b9150613e6182613e20565b600882019050919050565b6000613e7782613cfd565b9150613e838286613d20565b9150613e8e82613dcc565b9150613e9a8285613def565b9150613ea582613e49565b9150613eb18284613def565b9150819050949350505050565b7f46696c6520616c72656164792075706c6f6164656420627920736f6d656f6e65600082015250565b6000613ef4602083612ef6565b9150613eff82613ebe565b602082019050919050565b60006020820190508181036000830152613f2381613ee7565b9050919050565b60006040820190508181036000830152613f448185612f31565b90508181036020830152613f588184612f31565b90509392505050565b6000613f6d8287613def565b9150613f798286613def565b9150613f858285613def565b9150613f918284613def565b91508190509594505050505056fea264697066735822122053aff55d3ac925c458c0421f9f699924cc2dd6fe1bec1b50a77f4f2acd8d068a64736f6c63430008110033",
  "linkReferences": {},
  "deployedLinkReferences": {}
}