{
  "_format": "hh-sol-artifact-1",
  "contractName": "Drive",
  "sourceName": "contracts/Drive.sol",
  "abi": [
    {
      "inputs": [],
      "stateMutability": "nonpayable",
      "type": "constructor"
    },
    {
      "anonymous": false,
      "inputs": [
        {
          "indexed": true,
          "internalType": "uint256",
          "name": "id",
          "type": "uint256"
        },
        {
          "indexed": true,
          "internalType": "address",
          "name": "buyer",
          "type": "address"
        },
        {
          "indexed": false,
          "internalType": "uint256",
          "name": "price",
          "type": "uint256"
        }
      ],
      "name": "AccessBought",
      "type": "event"
    },
    {
      "anonymous": false,
      "inputs": [
        {
          "indexed": true,
          "internalType": "uint256",
          "name": "id",
          "type": "uint256"
        },
        {
          "indexed": true,
          "internalType": "address",
          "name": "to",
          "type": "address"
        }
      ],
      "name": "AccessGranted",
      "type": "event"
    },
    {
      "anonymous": false,
      "inputs": [
        {
          "indexed": true,
          "internalType": "uint256",
          "name": "id",
          "type": "uint256"
        },
        {
          "indexed": true,
          "internalType": "address",
          "name": "to",
          "type": "address"
        }
      ],
      "name": "AccessRevoked",
      "type": "event"
    },
    {
      "anonymous": false,
      "inputs": [
        {
          "indexed": true,
          "internalType": "uint256",
          "name": "id",
          "type": "uint256"
        },
        {
          "indexed": true,
          "internalType": "address",
          "name": "owner",
          "type": "address"
        },
        {
          "indexed": false,
          "internalType": "string",
          "name": "cid",
          "type": "string"
        },
        {
          "indexed": false,
          "internalType": "string",
          "name": "name",
          "type": "string"
        }
      ],
      "name": "FileAdded",
      "type": "event"
    },
    {
      "anonymous": false,
      "inputs": [
        {
          "indexed": true,
          "internalType": "uint256",
          "name": "id",
          "type": "uint256"
        },
        {
          "indexed": true,
          "internalType": "address",
          "name": "owner",
          "type": "address"
        },
        {
          "indexed": false,
          "internalType": "string",
          "name": "newFolder",
          "type": "string"
        },
        {
          "indexed": false,
          "internalType": "string",
          "name": "newCategory",
          "type": "string"
        }
      ],
      "name": "FileMoved",
      "type": "event"
    },
    {
      "anonymous": false,
      "inputs": [
        {
          "indexed": true,
          "internalType": "uint256",
          "name": "id",
          "type": "uint256"
        },
        {
          "indexed": true,
          "internalType": "address",
          "name": "owner",
          "type": "address"
        }
      ],
      "name": "FileRemoved",
      "type": "event"
    },
    {
      "anonymous": false,
      "inputs": [
        {
          "indexed": true,
          "internalType": "uint256",
          "name": "id",
          "type": "uint256"
        },
        {
          "indexed": true,
          "internalType": "address",
          "name": "owner",
          "type": "address"
        },
        {
          "indexed": false,
          "internalType": "string",
          "name": "newName",
          "type": "string"
        }
      ],
      "name": "FileRenamed",
      "type": "event"
    },
    {
      "anonymous": false,
      "inputs": [
        {
          "indexed": true,
          "internalType": "uint256",
          "name": "id",
          "type": "uint256"
        },
        {
          "indexed": true,
          "internalType": "address",
          "name": "owner",
          "type": "address"
        }
      ],
      "name": "FileRestored",
      "type": "event"
    },
    {
      "anonymous": false,
      "inputs": [
        {
          "indexed": true,
          "internalType": "uint256",
          "name": "id",
          "type": "uint256"
        },
        {
          "indexed": true,
          "internalType": "address",
          "name": "user",
          "type": "address"
        },
        {
          "indexed": false,
          "internalType": "bool",
          "name": "isStarred",
          "type": "bool"
        }
      ],
      "name": "FileStarred",
      "type": "event"
    },
    {
      "anonymous": false,
      "inputs": [
        {
          "indexed": true,
          "internalType": "uint256",
          "name": "id",
          "type": "uint256"
        },
        {
          "indexed": true,
          "internalType": "address",
          "name": "from",
          "type": "address"
        },
        {
          "indexed": true,
          "internalType": "address",
          "name": "to",
          "type": "address"
        }
      ],
      "name": "FileTransferred",
      "type": "event"
    },
    {
      "anonymous": false,
      "inputs": [
        {
          "indexed": true,
          "internalType": "uint256",
          "name": "id",
          "type": "uint256"
        },
        {
          "indexed": true,
          "internalType": "address",
          "name": "owner",
          "type": "address"
        }
      ],
      "name": "FileTrashed",
      "type": "event"
    },
    {
      "anonymous": false,
      "inputs": [
        {
          "indexed": true,
          "internalType": "uint256",
          "name": "id",
          "type": "uint256"
        },
        {
          "indexed": false,
          "internalType": "uint256",
          "name": "newPrice",
          "type": "uint256"
        }
      ],
      "name": "PriceChanged",
      "type": "event"
    },
    {
      "anonymous": false,
      "inputs": [
        {
          "indexed": true,
          "internalType": "address",
          "name": "user",
          "type": "address"
        },
        {
          "indexed": false,
          "internalType": "uint8",
          "name": "tier",
          "type": "uint8"
        },
        {
          "indexed": false,
          "internalType": "uint256",
          "name": "storageBytes",
          "type": "uint256"
        }
      ],
      "name": "TierUpgraded",
      "type": "event"
    },
    {
      "anonymous": false,
      "inputs": [
        {
          "indexed": true,
          "internalType": "address",
          "name": "user",
          "type": "address"
        },
        {
          "indexed": false,
          "internalType": "string",
          "name": "username",
          "type": "string"
        }
      ],
      "name": "UsernameRegistered",
      "type": "event"
    },
    {
      "anonymous": false,
      "inputs": [
        {
          "indexed": true,
          "internalType": "uint256",
          "name": "id",
          "type": "uint256"
        },
        {
          "indexed": true,
          "internalType": "address",
          "name": "requester",
          "type": "address"
        }
      ],
      "name": "ViewRequested",
      "type": "event"
    },
    {
      "inputs": [],
      "name": "FREE_FILE_LIMIT",
      "outputs": [
        {
          "internalType": "uint256",
          "name": "",
          "type": "uint256"
        }
      ],
      "stateMutability": "view",
      "type": "function"
    },
    {
      "inputs": [],
      "name": "FREE_STORAGE",
      "outputs": [
        {
          "internalType": "uint256",
          "name": "",
          "type": "uint256"
        }
      ],
      "stateMutability": "view",
      "type": "function"
    },
    {
      "inputs": [],
      "name": "PREMIUM_FILE_LIMIT",
      "outputs": [
        {
          "internalType": "uint256",
          "name": "",
          "type": "uint256"
        }
      ],
      "stateMutability": "view",
      "type": "function"
    },
    {
      "inputs": [],
      "name": "PREMIUM_STORAGE",
      "outputs": [
        {
          "internalType": "uint256",
          "name": "",
          "type": "uint256"
        }
      ],
      "stateMutability": "view",
      "type": "function"
    },
    {
      "inputs": [],
      "name": "PRO_FILE_LIMIT",
      "outputs": [
        {
          "internalType": "uint256",
          "name": "",
          "type": "uint256"
        }
      ],
      "stateMutability": "view",
      "type": "function"
    },
    {
      "inputs": [],
      "name": "PRO_STORAGE",
      "outputs": [
        {
          "internalType": "uint256",
          "name": "",
          "type": "uint256"
        }
      ],
      "stateMutability": "view",
      "type": "function"
    },
    {
      "inputs": [
        {
          "internalType": "string",
          "name": "name",
          "type": "string"
        },
        {
          "internalType": "string",
          "name": "cid",
          "type": "string"
        },
        {
          "internalType": "uint256",
          "name": "size",
          "type": "uint256"
        },
        {
          "internalType": "string",
          "name": "mime",
          "type": "string"
        },
        {
          "internalType": "bytes32",
          "name": "contentHash",
          "type": "bytes32"
        },
        {
          "internalType": "string",
          "name": "category",
          "type": "string"
        },
        {
          "internalType": "uint256",
          "name": "price",
          "type": "uint256"
        },
        {
          "internalType": "string",
          "name": "folder",
          "type": "string"
        }
      ],
      "name": "addFile",
      "outputs": [
        {
          "internalType": "uint256",
          "name": "",
          "type": "uint256"
        }
      ],
      "stateMutability": "nonpayable",
      "type": "function"
    },
    {
      "inputs": [
        {
          "internalType": "uint256",
          "name": "id",
          "type": "uint256"
        },
        {
          "internalType": "address",
          "name": "requester",
          "type": "address"
        }
      ],
      "name": "approveAccessRequest",
      "outputs": [],
      "stateMutability": "nonpayable",
      "type": "function"
    },
    {
      "inputs": [
        {
          "internalType": "string[]",
          "name": "names",
          "type": "string[]"
        },
        {
          "internalType": "string[]",
          "name": "cids",
          "type": "string[]"
        },
        {
          "internalType": "uint256[]",
          "name": "sizes",
          "type": "uint256[]"
        },
        {
          "internalType": "string[]",
          "name": "mimes",
          "type": "string[]"
        },
        {
          "internalType": "bytes32[]",
          "name": "contentHashes",
          "type": "bytes32[]"
        },
        {
          "internalType": "string[]",
          "name": "categories",
          "type": "string[]"
        },
        {
          "internalType": "uint256[]",
          "name": "prices",
          "type": "uint256[]"
        },
        {
          "internalType": "string[]",
          "name": "folders",
          "type": "string[]"
        }
      ],
      "name": "batchAddFiles",
      "outputs": [
        {
          "internalType": "uint256[]",
          "name": "",
          "type": "uint256[]"
        }
      ],
      "stateMutability": "nonpayable",
      "type": "function"
    },
    {
      "inputs": [
        {
          "internalType": "uint256[]",
          "name": "ids",
          "type": "uint256[]"
        },
        {
          "internalType": "address",
          "name": "to",
          "type": "address"
        }
      ],
      "name": "batchGrantAccess",
      "outputs": [],
      "stateMutability": "nonpayable",
      "type": "function"
    },
    {
      "inputs": [
        {
          "internalType": "uint256[]",
          "name": "ids",
          "type": "uint256[]"
        },
        {
          "internalType": "string[]",
          "name": "newFolders",
          "type": "string[]"
        },
        {
          "internalType": "string[]",
          "name": "newCategories",
          "type": "string[]"
        }
      ],
      "name": "batchMoveFiles",
      "outputs": [],
      "stateMutability": "nonpayable",
      "type": "function"
    },
    {
      "inputs": [
        {
          "internalType": "uint256[]",
          "name": "ids",
          "type": "uint256[]"
        }
      ],
      "name": "batchRemoveFiles",
      "outputs": [],
      "stateMutability": "nonpayable",
      "type": "function"
    },
    {
      "inputs": [
        {
          "internalType": "uint256[]",
          "name": "ids",
          "type": "uint256[]"
        },
        {
          "internalType": "address",
          "name": "user",
          "type": "address"
        }
      ],
      "name": "batchRevokeAccess",
      "outputs": [],
      "stateMutability": "nonpayable",
      "type": "function"
    },
    {
      "inputs": [
        {
          "internalType": "uint256[]",
          "name": "ids",
          "type": "uint256[]"
        },
        {
          "internalType": "address",
          "name": "to",
          "type": "address"
        }
      ],
      "name": "batchTransferFiles",
      "outputs": [],
      "stateMutability": "nonpayable",
      "type": "function"
    },
    {
      "inputs": [
        {
          "internalType": "uint256[]",
          "name": "ids",
          "type": "uint256[]"
        }
      ],
      "name": "batchTrashFiles",
      "outputs": [],
      "stateMutability": "nonpayable",
      "type": "function"
    },
    {
      "inputs": [
        {
          "internalType": "uint256",
          "name": "id",
          "type": "uint256"
        }
      ],
      "name": "buyAccess",
      "outputs": [],
      "stateMutability": "payable",
      "type": "function"
    },
    {
      "inputs": [
        {
          "internalType": "string",
          "name": "newUsername",
          "type": "string"
        }
      ],
      "name": "changeUsername",
      "outputs": [],
      "stateMutability": "nonpayable",
      "type": "function"
    },
    {
      "inputs": [],
      "name": "contractOwner",
      "outputs": [
        {
          "internalType": "address",
          "name": "",
          "type": "address"
        }
      ],
      "stateMutability": "view",
      "type": "function"
    },
    {
      "inputs": [
        {
          "internalType": "address",
          "name": "",
          "type": "address"
        }
      ],
      "name": "customStorageGB",
      "outputs": [
        {
          "internalType": "uint256",
          "name": "",
          "type": "uint256"
        }
      ],
      "stateMutability": "view",
      "type": "function"
    },
    {
      "inputs": [
        {
          "internalType": "uint256",
          "name": "id",
          "type": "uint256"
        },
        {
          "internalType": "address",
          "name": "requester",
          "type": "address"
        }
      ],
      "name": "denyAccessRequest",
      "outputs": [],
      "stateMutability": "nonpayable",
      "type": "function"
    },
    {
      "inputs": [
        {
          "internalType": "uint256",
          "name": "id",
          "type": "uint256"
        },
        {
          "internalType": "string",
          "name": "newName",
          "type": "string"
        }
      ],
      "name": "editName",
      "outputs": [],
      "stateMutability": "nonpayable",
      "type": "function"
    },
    {
      "inputs": [
        {
          "internalType": "address",
          "name": "owner",
          "type": "address"
        }
      ],
      "name": "getBinnedFiles",
      "outputs": [
        {
          "internalType": "uint256[]",
          "name": "",
          "type": "uint256[]"
        }
      ],
      "stateMutability": "view",
      "type": "function"
    },
    {
      "inputs": [
        {
          "internalType": "uint256",
          "name": "id",
          "type": "uint256"
        }
      ],
      "name": "getFile",
      "outputs": [
        {
          "internalType": "uint256",
          "name": "_id",
          "type": "uint256"
        },
        {
          "internalType": "string",
          "name": "name",
          "type": "string"
        },
        {
          "internalType": "string",
          "name": "cid",
          "type": "string"
        },
        {
          "internalType": "uint256",
          "name": "size",
          "type": "uint256"
        },
        {
          "internalType": "string",
          "name": "mime",
          "type": "string"
        },
        {
          "internalType": "address",
          "name": "owner",
          "type": "address"
        },
        {
          "internalType": "uint256",
          "name": "timestamp",
          "type": "uint256"
        },
        {
          "internalType": "bool",
          "name": "deleted",
          "type": "bool"
        },
        {
          "internalType": "bytes32",
          "name": "contentHash",
          "type": "bytes32"
        },
        {
          "internalType": "string",
          "name": "category",
          "type": "string"
        },
        {
          "internalType": "uint256",
          "name": "price",
          "type": "uint256"
        },
        {
          "internalType": "string",
          "name": "folder",
          "type": "string"
        }
      ],
      "stateMutability": "view",
      "type": "function"
    },
    {
      "inputs": [
        {
          "internalType": "address",
          "name": "user",
          "type": "address"
        }
      ],
      "name": "getFileCountLimit",
      "outputs": [
        {
          "internalType": "uint256",
          "name": "",
          "type": "uint256"
        }
      ],
      "stateMutability": "view",
      "type": "function"
    },
    {
      "inputs": [
        {
          "internalType": "address",
          "name": "owner",
          "type": "address"
        }
      ],
      "name": "getFilesByOwner",
      "outputs": [
        {
          "internalType": "uint256[]",
          "name": "",
          "type": "uint256[]"
        }
      ],
      "stateMutability": "view",
      "type": "function"
    },
    {
      "inputs": [
        {
          "internalType": "uint256",
          "name": "id",
          "type": "uint256"
        }
      ],
      "name": "getHistory",
      "outputs": [
        {
          "components": [
            {
              "internalType": "address",
              "name": "actor",
              "type": "address"
            },
            {
              "internalType": "string",
              "name": "action",
              "type": "string"
            },
            {
              "internalType": "uint256",
              "name": "timestamp",
              "type": "uint256"
            }
          ],
          "internalType": "struct Drive.HistoryLog[]",
          "name": "",
          "type": "tuple[]"
        }
      ],
      "stateMutability": "view",
      "type": "function"
    },
    {
      "inputs": [],
      "name": "getMarketFiles",
      "outputs": [
        {
          "internalType": "uint256[]",
          "name": "",
          "type": "uint256[]"
        }
      ],
      "stateMutability": "view",
      "type": "function"
    },
    {
      "inputs": [
        {
          "internalType": "address",
          "name": "user",
          "type": "address"
        }
      ],
      "name": "getSharedFiles",
      "outputs": [
        {
          "internalType": "uint256[]",
          "name": "",
          "type": "uint256[]"
        }
      ],
      "stateMutability": "view",
      "type": "function"
    },
    {
      "inputs": [
        {
          "internalType": "address",
          "name": "user",
          "type": "address"
        }
      ],
      "name": "getStarredFiles",
      "outputs": [
        {
          "internalType": "uint256[]",
          "name": "",
          "type": "uint256[]"
        }
      ],
      "stateMutability": "view",
      "type": "function"
    },
    {
      "inputs": [
        {
          "internalType": "address",
          "name": "user",
          "type": "address"
        }
      ],
      "name": "getStorageLimitBytes",
      "outputs": [
        {
          "internalType": "uint256",
          "name": "",
          "type": "uint256"
        }
      ],
      "stateMutability": "view",
      "type": "function"
    },
    {
      "inputs": [
        {
          "internalType": "address",
          "name": "user",
          "type": "address"
        }
      ],
      "name": "getUsername",
      "outputs": [
        {
          "internalType": "string",
          "name": "",
          "type": "string"
        }
      ],
      "stateMutability": "view",
      "type": "function"
    },
    {
      "inputs": [
        {
          "internalType": "uint256",
          "name": "id",
          "type": "uint256"
        },
        {
          "internalType": "address",
          "name": "to",
          "type": "address"
        }
      ],
      "name": "grantAccess",
      "outputs": [],
      "stateMutability": "nonpayable",
      "type": "function"
    },
    {
      "inputs": [
        {
          "internalType": "uint256",
          "name": "id",
          "type": "uint256"
        },
        {
          "internalType": "address",
          "name": "user",
          "type": "address"
        }
      ],
      "name": "hasAccess",
      "outputs": [
        {
          "internalType": "bool",
          "name": "",
          "type": "bool"
        }
      ],
      "stateMutability": "view",
      "type": "function"
    },
    {
      "inputs": [
        {
          "internalType": "bytes32",
          "name": "",
          "type": "bytes32"
        }
      ],
      "name": "hashExists",
      "outputs": [
        {
          "internalType": "bool",
          "name": "",
          "type": "bool"
        }
      ],
      "stateMutability": "view",
      "type": "function"
    },
    {
      "inputs": [
        {
          "internalType": "uint256",
          "name": "id",
          "type": "uint256"
        },
        {
          "internalType": "string",
          "name": "newFolder",
          "type": "string"
        },
        {
          "internalType": "string",
          "name": "newCategory",
          "type": "string"
        }
      ],
      "name": "moveFile",
      "outputs": [],
      "stateMutability": "nonpayable",
      "type": "function"
    },
    {
      "inputs": [],
      "name": "premiumPrice",
      "outputs": [
        {
          "internalType": "uint256",
          "name": "",
          "type": "uint256"
        }
      ],
      "stateMutability": "view",
      "type": "function"
    },
    {
      "inputs": [],
      "name": "proPlusPerGB",
      "outputs": [
        {
          "internalType": "uint256",
          "name": "",
          "type": "uint256"
        }
      ],
      "stateMutability": "view",
      "type": "function"
    },
    {
      "inputs": [],
      "name": "proPrice",
      "outputs": [
        {
          "internalType": "uint256",
          "name": "",
          "type": "uint256"
        }
      ],
      "stateMutability": "view",
      "type": "function"
    },
    {
      "inputs": [
        {
          "internalType": "string",
          "name": "username",
          "type": "string"
        }
      ],
      "name": "registerUsername",
      "outputs": [],
      "stateMutability": "nonpayable",
      "type": "function"
    },
    {
      "inputs": [
        {
          "internalType": "uint256",
          "name": "id",
          "type": "uint256"
        }
      ],
      "name": "removeFile",
      "outputs": [],
      "stateMutability": "nonpayable",
      "type": "function"
    },
    {
      "inputs": [
        {
          "internalType": "uint256",
          "name": "id",
          "type": "uint256"
        }
      ],
      "name": "requestAccess",
      "outputs": [],
      "stateMutability": "nonpayable",
      "type": "function"
    },
    {
      "inputs": [
        {
          "internalType": "uint256",
          "name": "id",
          "type": "uint256"
        }
      ],
      "name": "restoreFile",
      "outputs": [],
      "stateMutability": "nonpayable",
      "type": "function"
    },
    {
      "inputs": [
        {
          "internalType": "uint256",
          "name": "id",
          "type": "uint256"
        },
        {
          "internalType": "address",
          "name": "user",
          "type": "address"
        }
      ],
      "name": "revokeAccess",
      "outputs": [],
      "stateMutability": "nonpayable",
      "type": "function"
    },
    {
      "inputs": [
        {
          "internalType": "uint256",
          "name": "id",
          "type": "uint256"
        },
        {
          "internalType": "uint256",
          "name": "newPrice",
          "type": "uint256"
        }
      ],
      "name": "setPrice",
      "outputs": [],
      "stateMutability": "nonpayable",
      "type": "function"
    },
    {
      "inputs": [
        {
          "internalType": "uint256",
          "name": "_premium",
          "type": "uint256"
        },
        {
          "internalType": "uint256",
          "name": "_pro",
          "type": "uint256"
        },
        {
          "internalType": "uint256",
          "name": "_proPlusPerGB",
          "type": "uint256"
        }
      ],
      "name": "setTierPrices",
      "outputs": [],
      "stateMutability": "nonpayable",
      "type": "function"
    },
    {
      "inputs": [
        {
          "internalType": "uint256",
          "name": "",
          "type": "uint256"
        },
        {
          "internalType": "address",
          "name": "",
          "type": "address"
        }
      ],
      "name": "starredFiles",
      "outputs": [
        {
          "internalType": "bool",
          "name": "",
          "type": "bool"
        }
      ],
      "stateMutability": "view",
      "type": "function"
    },
    {
      "inputs": [
        {
          "internalType": "address",
          "name": "",
          "type": "address"
        }
      ],
      "name": "storageTier",
      "outputs": [
        {
          "internalType": "uint8",
          "name": "",
          "type": "uint8"
        }
      ],
      "stateMutability": "view",
      "type": "function"
    },
    {
      "inputs": [
        {
          "internalType": "uint256",
          "name": "id",
          "type": "uint256"
        }
      ],
      "name": "toggleStar",
      "outputs": [],
      "stateMutability": "nonpayable",
      "type": "function"
    },
    {
      "inputs": [],
      "name": "totalFiles",
      "outputs": [
        {
          "internalType": "uint256",
          "name": "",
          "type": "uint256"
        }
      ],
      "stateMutability": "view",
      "type": "function"
    },
    {
      "inputs": [
        {
          "internalType": "uint256",
          "name": "id",
          "type": "uint256"
        },
        {
          "internalType": "address",
          "name": "to",
          "type": "address"
        }
      ],
      "name": "transferFile",
      "outputs": [],
      "stateMutability": "nonpayable",
      "type": "function"
    },
    {
      "inputs": [
        {
          "internalType": "uint256",
          "name": "id",
          "type": "uint256"
        }
      ],
      "name": "trashFile",
      "outputs": [],
      "stateMutability": "nonpayable",
      "type": "function"
    },
    {
      "inputs": [
        {
          "internalType": "uint8",
          "name": "tier",
          "type": "uint8"
        },
        {
          "internalType": "uint256",
          "name": "gbAmount",
          "type": "uint256"
        }
      ],
      "name": "upgradeTier",
      "outputs": [],
      "stateMutability": "payable",
      "type": "function"
    },
    {
      "inputs": [
        {
          "internalType": "string",
          "name": "",
          "type": "string"
        }
      ],
      "name": "usernameToAddress",
      "outputs": [
        {
          "internalType": "address",
          "name": "",
          "type": "address"
        }
      ],
      "stateMutability": "view",
      "type": "function"
    },
    {
      "inputs": [
        {
          "internalType": "address",
          "name": "",
          "type": "address"
        }
      ],
      "name": "usernames",
      "outputs": [
        {
          "internalType": "string",
          "name": "",
          "type": "string"
        }
      ],
      "stateMutability": "view",
      "type": "function"
    },
    {
      "inputs": [
        {
          "internalType": "bytes32",
          "name": "hash",
          "type": "bytes32"
        }
      ],
      "name": "verifyFileByHash",
      "outputs": [
        {
          "internalType": "bool",
          "name": "found",
          "type": "bool"
        },
        {
          "internalType": "uint256",
          "name": "id",
          "type": "uint256"
        },
        {
          "internalType": "address",
          "name": "owner",
          "type": "address"
        },
        {
          "internalType": "string",
          "name": "category",
          "type": "string"
        },
        {
          "internalType": "uint256",
          "name": "timestamp",
          "type": "uint256"
        }
      ],
      "stateMutability": "view",
      "type": "function"
    },
    {
      "inputs": [
        {
          "internalType": "uint256",
          "name": "",
          "type": "uint256"
        },
        {
          "internalType": "address",
          "name": "",
          "type": "address"
        }
      ],
      "name": "viewRequests",
      "outputs": [
        {
          "internalType": "bool",
          "name": "",
          "type": "bool"
        }
      ],
      "stateMutability": "view",
      "type": "function"
    },
    {
      "inputs": [],
      "name": "withdrawFunds",
      "outputs": [],
      "stateMutability": "nonpayable",
      "type": "function"
    }
  ],
  "bytecode": "0x6080806040523461005b57659184e72a0000600c5565d12f0c4c6000600d556552c396acb000600e55600780546001600160a01b031916736e123606a07d68abed7aa74f0ccff38b72e528f217905561563a9081620000618239f35b600080fdfe6080604052600436101561001257600080fd5b60003560e01c8063055ecfaf146146d557806306cf5a3b146145f6578063096d798c1461442f57806310a03313146143f557806312c7cc14146143125780631d1524221461419a5780631fa2a6ae146141605780632350fdc01461403957806324600fc314613ff25780632ae46b0c14613fd65780632bfda31314613e9157806330654e1314613e7357806336a9413414613c83578063395e61261461322d57806350a1a2641461294757806353943aad146128b657806353b0e17d1461289857806365dd152c146127e4578063667523fb1461278b578063668319c71461273e5780636ab14d431461271b578063739395971461265557806377c846af146123e85780637916d6ce146123ca5780637a2250a9146123ab5780637c65417c1461235e5780637fdc2cdc146121c65780638b70834e146120af5780638db9533714611fea57806392cf055714611fcc57806397f856da14611f115780639926b03f14611e30578063ab5885db14611da9578063b169c4c114611ac5578063b35fb99a1461185e578063b4428abc14611821578063b535b5c3146117f0578063baa701171461170a578063c8691b2a146115da578063ce43c03214610717578063ce606ee0146115b1578063ced1419814611581578063d162a37d14611488578063d4483e791461145d578063d9a5ec1b146113b5578063db7cc7d214611399578063e1d57d0114610fcd578063ee690d3f14610765578063ee91877c14610717578063f7d9757714610673578063f825f1431461060b578063f92c3825146105ec578063f99619f8146104df578063fbfe00a4146104c0578063fc08a7d714610392578063fcfc6623146103755763fe816a901461028f57600080fd5b34610370576020366003190112610370576004356102b06000548210615249565b6102d16102bc82614e3b565b50600501546001600160a01b03163314614d04565b80600052600560205260ff6040600020541661033a578060005260056020526040600020600160ff1982541617905561031161030b6152e1565b82614ed5565b33907f5f486113eb2f75a0e6be2583f63fb0c468a5b5a3511dece64911a4124de2179d600080a3005b60405162461bcd60e51b815260206004820152600e60248201526d20b63932b0b23c9034b7103134b760911b6044820152606490fd5b600080fd5b346103705760003660031901126103705760206040516101f48152f35b3461037057602080600319360112610370576103ac614899565b600080546001600160a01b0392831693929091805b83811061046457506103d290615217565b9260009160005b8481106103f257604051806103ee888261495c565b0390f35b6103fb81614e3b565b5087836005809301541614908161044c575b50610421575b61041c9061509c565b6103d9565b9261044461041c9161043286614e3b565b505461043e828a6151ed565b5261509c565b939050610413565b905081600052835260ff60406000205416158861040d565b61046d81614e3b565b508684600580930154161490816104a8575b50610493575b61048e9061509c565b6103c1565b906104a061048e9161509c565b919050610485565b905081600052855260ff60406000205416158761047f565b3461037057600036600319011261037057602060405163400000008152f35b34610370576000366003190112610370576000546000805b82811061058f575061050890615217565b906000805b82811061052257604051806103ee868261495c565b600961052d82614e3b565b500154151580610570575b61054b575b6105469061509c565b61050d565b906105686105469161055c84614e3b565b505461043e82886151ed565b91905061053d565b5061057a81614e3b565b50600501546001600160a01b03161515610538565b600961059a82614e3b565b5001541515806105cd575b6105b8575b6105b39061509c565b6104f7565b906105c56105b39161509c565b9190506105aa565b506105d781614e3b565b50600501546001600160a01b031615156105a5565b34610370576000366003190112610370576020604051630fa000008152f35b34610370576020366003190112610370576004356001600160401b0381116103705761063d6020913690600401614906565b816106516040519283815193849201614997565b600990820190815281900382019020546040516001600160a01b039091168152f35b34610370576040366003190112610370576004357f8aa4fa52648a6d15edce8a179c792c86f3719d0cc3c572cf90f91948f0f2cb6860206024356106ba6000548510615249565b8060096106c686614e3b565b506106de60018060a01b036005830154163314614d04565b015561070e6040516106ef816147e8565b600d81526c141c9a58d94810da185b99d959609a1b8482015285614ed5565b604051908152a2005b34610370576020366003190112610370576001600160a01b03610738614899565b1660005260086020526103ee6107516040600020614a99565b6040519182916020835260208301906149ba565b3461037057610100366003190112610370576004356001600160401b03811161037057610796903690600401614906565b6024356001600160401b038111610370576107b5903690600401614906565b6064356001600160401b038111610370576107d4903690600401614906565b9060a4356001600160401b038111610370576107f4903690600401614906565b9160e4356001600160401b03811161037057610814903690600401614906565b608435600052600360205261083160ff6040600020541615614d3c565b610858610848604435610843336150ab565b614d87565b61085133614b3f565b1015614daa565b61087361086433615135565b61086d33614bfc565b11614def565b6000549360405192610884846147b1565b858452866020850152846040850152604435606085015260808401523360a08401524260c084015260843560e084015261010083015260c435610120830152610140820152600160401b831015610c6b57600183016000556108e583614e3b565b919091610fb7578051825560208101518051906001600160401b038211610c6b5781906109156001860154614a5f565b601f8111610f64575b50602090601f8311600114610ef257600092610ee7575b50508160011b916000199060031b1c19161760018301555b60408101518051906001600160401b038211610c6b5781906109726002860154614a5f565b601f8111610e94575b50602090601f8311600114610e2257600092610e17575b50508160011b916000199060031b1c19161760028301555b6060810151600383015560808101518051906001600160401b038211610c6b5781906109d96004860154614a5f565b601f8111610dc4575b50602090601f8311600114610d5257600092610d47575b50508160011b916000199060031b1c19161760048301555b6005820160018060a01b0360a0830151166001600160601b0360a01b82541617905560c0810151600683015560e081015160078301556101008101518051906001600160401b038211610c6b57610a6b6008850154614a5f565b601f8111610d00575b50602090601f8311600114610c8c5761014093929160009183610c81575b50508160011b916000199060031b1c19161760088401555b610120810151600984015501518051906001600160401b038211610c6b57610ad5600a840154614a5f565b601f8111610c20575b50916020959185938790601f8311600114610b9d57826000805160206155c58339815191529593610b879593600a93600092610b92575b50508160011b916000199060031b1c1916179101555b83600052600287526040600020336000528752604060002060ff1990600182825416179055608435600052600388526001604060002091825416179055610b79610b73614e89565b85614ed5565b604051918291339683614ead565b0390a3604051908152f35b015190508b80610b15565b90601f19831691600a8501600052896000209260005b818110610c06575093610b879593600a93600193836000805160206155c58339815191529a9810610bed575b505050811b01910155610b2b565b015160001960f88460031b161c191690558b8080610bdf565b8284015185558a9850600190940193928b01928b01610bb3565b600a84016000526020600020601f840160051c81019160208510610c61575b601f0160051c01905b818110610c555750610ade565b60008155600101610c48565b9091508190610c3f565b634e487b7160e01b600052604160045260246000fd5b015190508880610a92565b906008850160005260206000209160005b601f1985168110610ce857509183916001936101409695601f19811610610ccf575b505050811b016008840155610aaa565b015160001960f88460031b161c19169055888080610cbf565b91926020600181928685015181550194019201610c9d565b600885016000526020600020601f840160051c810160208510610d40575b601f830160051c82018110610d34575050610a74565b60008155600101610d1e565b5080610d1e565b0151905087806109f9565b9250600485016000526020600020906000935b601f1984168510610da9576001945083601f19811610610d90575b505050811b016004830155610a11565b015160001960f88460031b161c19169055878080610d80565b81810151835560209485019460019093019290910190610d65565b909150600485016000526020600020601f840160051c810160208510610e10575b90849392915b601f830160051c82018110610e015750506109e2565b60008155859450600101610deb565b5080610de5565b015190508780610992565b9250600285016000526020600020906000935b601f1984168510610e79576001945083601f19811610610e60575b505050811b0160028301556109aa565b015160001960f88460031b161c19169055878080610e50565b81810151835560209485019460019093019290910190610e35565b909150600285016000526020600020601f840160051c810160208510610ee0575b90849392915b601f830160051c82018110610ed157505061097b565b60008155859450600101610ebb565b5080610eb5565b015190508780610935565b9250600185016000526020600020906000935b601f1984168510610f49576001945083601f19811610610f30575b505050811b01600183015561094d565b015160001960f88460031b161c19169055878080610f20565b81810151835560209485019460019093019290910190610f05565b909150600185016000526020600020601f840160051c810160208510610fb0575b90849392915b601f830160051c82018110610fa157505061091e565b60008155859450600101610f8b565b5080610f85565b634e487b7160e01b600052600060045260246000fd5b34610370576060366003190112610370576004356001600160401b03811161037057610ffd90369060040161483b565b6024356001600160401b0381116103705761101c9036906004016149df565b906044356001600160401b0381116103705761103c9036906004016149df565b815183518114908161138e575b50156113555791906000925b81518410156113535761106884836151ed565b51936110776000548610615249565b61108085614e3b565b50600581015490959061109d906001600160a01b03163314614d04565b6110a782866151ed565b518051906001600160401b038211610c6b5781906110c8600a8a0154614a5f565b601f8111611301575b50602090601f831160011461129457600092611289575b50508160011b916000199060031b1c191617600a8701555b61110a82846151ed565b51958651906001600160401b038211610c6b576008019061112b8254614a5f565b601f8111611241575b50602097601f82116001146111d8576111c59596979882916000926111cd575b50508160011b916000199060031b1c19161790555b61117461030b615398565b61117e82876151ed565b51907fc2bc3a7d017286181855f3a27bb3a2823f889fea0bdf1195cb931d703c9085b06111bd6111ae85886151ed565b51604051918291339683614ead565b0390a361509c565b929190611055565b015190508980611154565b601f1982169883600052806000209160005b8b81106112295750836111c598999a9b10611210575b505050600190811b019055611169565b015160001960f88460031b161c19169055888080611200565b919260206001819286850151815501940192016111ea565b826000526020600020601f830160051c8101916020841061127f575b601f0160051c01905b8181106112735750611134565b60008155600101611266565b909150819061125d565b0151905088806110e8565b9150601f19831691600a8a0160005283826000209360005b8181106112e65750106112cd575b505050600190811b01600a870155611100565b015160001960f88460031b161c191690558780806112ba565b838501518655600190950194602094850194879350016112ac565b909150600a890160005260208060002090601f850160051c820190851061134c575b90601f8594930160051c01905b81811061133d57506110d1565b60008155849350600101611330565b5080611323565b005b60405162461bcd60e51b81526020600482015260116024820152704d69736d6174636865642061727261797360781b6044820152606490fd5b905081511484611049565b3461037057600036600319011261037057602060405160fa8152f35b34610370576040366003190112610370576004356113d16148af565b906113df6000548210615249565b60056114066113ed83614e3b565b50909101546001600160a01b0391903390831614614d04565b816000526002602052604060002092169182600052602052604060002060ff19815416905561143661030b61543e565b7f125883b94692baebecad9f111ed97ffa626523bbbadc6b0ef85ee1b56b9e52d5600080a3005b3461037057602036600319011261037057602061148061147b614899565b614bfc565b604051908152f35b3461037057602080600319360112610370576004356001600160401b038111610370576114b990369060040161483b565b9060005b825181101561135357806114d461151b92856151ed565b516114e26000548210615249565b6114eb81614e3b565b506005810180546001600160a01b0381169392909161150b338614614d04565b84611520575b505050505061509c565b6114bd565b6007926001600160601b0360a01b169055015460005260038552604060002060ff19815416905561155261030b615304565b7f9b5baeec63969a252d5d743784891dba3a017078113856378a7098a689360954600080a38480808080611511565b346103705760403660031901126103705760206115a761159f6148af565b600435615282565b6040519015158152f35b34610370576000366003190112610370576007546040516001600160a01b039091168152602090f35b346103705760208060031936011261037057600435600052600190818152604060002080549161160983614824565b926116176040519485614803565b8084528184018093600052826000206000915b8383106116bc57505050506040519384938285019083865251809152604085019260408260051b87010194936000905b8382106116675787870388f35b918496819592949698508190603f198b820301855289519060018060a01b0382511681526040806116a485850151606080888701528501906149ba565b9301519101529801920192018796959391949261165a565b9660038582979896996040516116d1816147cd565b85546001600160a01b031681526116e9858701614a99565b8382015260028601546040820152815201920192019190969395949661162a565b3461037057602080600319360112610370576004356001600160401b0381116103705761173b90369060040161483b565b9060005b825181101561135357806117566117a392856151ed565b516117646000548210615249565b61176d81614e3b565b50600590810154611788906001600160a01b03163314614d04565b81600052845260ff60406000205416156117a8575b5061509c565b61173f565b6040600020805460ff191660011790556117c361030b6152e1565b33907f5f486113eb2f75a0e6be2583f63fb0c468a5b5a3511dece64911a4124de2179d600080a38461179d565b34610370576020366003190112610370576004356000526003602052602060ff604060002054166040519015158152f35b34610370576020366003190112610370576001600160a01b03611842614899565b16600052600a602052602060ff60406000205416604051908152f35b60403660031901126103705760043560ff81168091036103705760248035600183101580611aba575b15611a8757600183036119385750600c5434106118f457505b33600052600a60205260406000208160ff198254161790556118c133614b3f565b60405191825260208201527f35c12210dbf494ad04ccdb21600a9bad9f1b3c73e2b6c3c4f47e93211ec1b0b160403392a2005b606490601c6040519162461bcd60e51b8352602060048401528201527f496e73756666696369656e742045544820666f72205072656d69756d000000006044820152fd5b600283036119945750600d54341061195057506118a0565b60649060186040519162461bcd60e51b8352602060048401528201527f496e73756666696369656e742045544820666f722050726f00000000000000006044820152fd5b90600383146119a5575b50506118a0565b60018210611a3757600e5482810290808204841490151715611a225734106119de575033600052600b602052604060002055818061199e565b60649060196040519162461bcd60e51b8352602060048401528201527f496e73756666696369656e742045544820666f722050726f2b000000000000006044820152fd5b50634e487b7160e01b60009081526011600452fd5b60849060236040519162461bcd60e51b8352602060048401528201527f4d7573742072657175657374206174206c65617374203120474220666f722050604482015262726f2b60e81b6064820152fd5b60405162461bcd60e51b815260206004820152600c818401526b24b73b30b634b2103a34b2b960a11b6044820152606490fd5b506003831115611887565b34610370576060366003190112610370576001600160401b0360043560243582811161037057611af9903690600401614906565b9160443581811161037057611b12903690600401614906565b90611b206000548410615249565b611b2983614e3b565b5090611b4260018060a01b036005840154163314614d04565b845191600a8101828411610c6b57611b5a8154614a5f565b93601f94858111611d64575b506020858211600114611cfa5790806008949392600091611cef575b508160011b916000199060031b1c19161790555b01918351918211610c6b57611bab8354614a5f565b818111611caa575b506020908211600114611c205791817fc2bc3a7d017286181855f3a27bb3a2823f889fea0bdf1195cb931d703c9085b09492611c1094600091611c15575b508160011b916000199060031b1c19161790555b610b79610b73615398565b0390a3005b905083015188611bf1565b601f1982169083600052806000209160005b818110611c92575092611c109492600192827fc2bc3a7d017286181855f3a27bb3a2823f889fea0bdf1195cb931d703c9085b0989610611c79575b5050811b019055611c05565b85015160001960f88460031b161c191690558880611c6d565b9192602060018192868a015181550194019201611c32565b8360005260206000208280850160051c82019260208610611ce6575b0160051c01905b818110611cda5750611bb3565b60008155600101611ccd565b92508192611cc6565b90508901518a611b82565b601f1982169083600052806000209160005b8b828210611d4c575050918391600896959460019410611d33575b5050811b019055611b96565b8b015160001960f88460031b161c191690558a80611d27565b60018495602093958493015181550194019201611d0c565b8260005260206000208680840160051c82019260208510611da0575b0160051c01905b818110611d945750611b66565b60008155600101611d87565b92508192611d80565b3461037057604036600319011261037057600435611dc56148af565b90611dd36000548210615249565b6005611de16113ed83614e3b565b816000526006602052604060002092169182600052602052611e0a60ff604060002054166154a8565b6000526006602052604060002090600052602052604060002060ff198154169055600080f35b3461037057602036600319011261037057600435611e516000548210615249565b611e5a81614e3b565b506005810180546001600160a01b03811693929091611e7a338614614d04565b8415611eda576007926001600160601b0360a01b16905501546000526003602052604060002060ff198154169055611eb361030b615304565b7f9b5baeec63969a252d5d743784891dba3a017078113856378a7098a689360954600080a3005b60405162461bcd60e51b815260206004820152600f60248201526e105b1c9958591e481c995b5bdd9959608a1b6044820152606490fd5b3461037057611f1f366148c5565b60005b82518110156113535780611f39611fc792856151ed565b51611f476000548210615249565b611f5081614e3b565b50600501546001600160a01b039190611f6c9083163314614d04565b80600052602091600283526040600020908616928360005252604060002060ff198154169055611f9d61030b61543e565b7f125883b94692baebecad9f111ed97ffa626523bbbadc6b0ef85ee1b56b9e52d5600080a361509c565b611f22565b34610370576000366003190112610370576020600054604051908152f35b34610370576040366003190112610370576004356120066148af565b6120136000548310615249565b6001600160a01b039081169161202a831515615327565b600561203582614e3b565b500183815493841693612049338614614d04565b6001600160601b0360a01b161790558060005260026020526040600020836000526020526040600020600160ff1982541617905561208861030b615367565b7fa858a0d23644b705afa414c8afbacbb4b357a18ea066805e48f9cd103fd87a81600080a4005b3461037057602080600319360112610370576120c9614899565b600080546001600160a01b03939092841691805b84811061216b57506120ee90615217565b9360009260005b85811061210a57604051806103ee898261495c565b61211381614e3b565b50828460058093015416149081612154575b50612139575b6121349061509c565b6120f5565b9361214c818661043e612134948b6151ed565b94905061212b565b905081600052845260ff6040600020541688612125565b61217481614e3b565b508487600580930154161490816121af575b5061219a575b6121959061509c565b6120dd565b906121a76121959161509c565b91905061218c565b905081600052835260ff6040600020541687612186565b346103705760208060031936011261037057600435906121e96000548310615249565b6121f282614e3b565b50600501546001600160a01b031661220b81151561546d565b331461231a578160005260028152604060002033600052815260ff604060002054166122e1578160005260068152604060002033600052815260ff6040600020541661229d57816000526006815260406000209033600052526040600020600160ff1982541617905533907f04193dbbd89505a47140c2ec9b4c1432003aabf1a5739d7db67d3bb361619b18600080a3005b6064906040519062461bcd60e51b82526004820152601760248201527f5265717565737420616c72656164792070656e64696e670000000000000000006044820152fd5b6064906040519062461bcd60e51b825260048201526012602482015271416c7265616479206861732061636365737360701b6044820152fd5b6064906040519062461bcd60e51b82526004820152601b60248201527f4f776e65722063616e6e6f7420726571756573742061636365737300000000006044820152fd5b34610370576040366003190112610370576123776148af565b600435600052600660205260406000209060018060a01b0316600052602052602060ff604060002054166040519015158152f35b34610370576000366003190112610370576020604051631f4000008152f35b34610370576000366003190112610370576020600e54604051908152f35b3461037057602080600319360112610370576001600160401b036004358181116103705761241a903690600401614906565b90612429600383511015614c46565b6124368383511115614c87565b60405161246d8351918585019261244e818386614997565b600990820190815281900386019020546001600160a01b031615614cc7565b3360005260088452836124836040600020614a99565b80519081612620575b505050336000526008845260406000208351928311610c6b5784926124b18254614a5f565b601f81116125cb575b5083601f821160011461254f5792612510928261253f96936000805160206155e58339815191529896600091612544575b508160011b916000199060031b1c19161790555b604051809381928651928391614997565b81016009815203019020336001600160601b0360a01b82541617905560405191829185835233958301906149ba565b0390a2005b90508601518a6124eb565b601f1982169083600052856000209160005b8181106125b45750836000805160206155e5833981519152989693612510969361253f99966001941061259b575b5050811b0190556124ff565b88015160001960f88460031b161c191690558a8061258f565b91928760018192868c015181550194019201612561565b90918093945060005285600020601f830160051c810191878410612616575b90601f8896959493920160051c01905b81811061260757506124ba565b600081558795506001016125fa565b90915081906125ea565b8161263384936040518096819501614997565b810160098152030190206001600160601b0360a01b815416905583858061248c565b3461037057612663366148c5565b6001600160a01b039081166126798115156153d1565b60005b835181101561135357808261269461271693876151ed565b516126a26000548210615249565b6126bc6126ae82614e3b565b506005015487163314614d04565b8060005260206002815260406000209083600052526040600020600160ff198254161790556126ec61030b61540f565b7f3c3a9147a1fc73dd51a32f4d10c43d457e8cb826eb6f35cac6349eb965ba82b4600080a361509c565b61267c565b34610370576020366003190112610370576020611480612739614899565b614b3f565b34610370576040366003190112610370576127576148af565b600435600052600460205260406000209060018060a01b0316600052602052602060ff604060002054166040519015158152f35b34610370576020366003190112610370576127da6127aa6004356154e9565b92949160405195869515158652602086015260018060a01b0316604085015260a0606085015260a08401906149ba565b9060808301520390f35b346103705760403660031901126103705760043560056128026148af565b61280f6000548410615249565b61283461281b84614e3b565b50909201546001600160a01b0392903390841614614d04565b16906128418215156153d1565b8060005260026020526040600020826000526020526040600020600160ff1982541617905561287161030b61540f565b7f3c3a9147a1fc73dd51a32f4d10c43d457e8cb826eb6f35cac6349eb965ba82b4600080a3005b34610370576000366003190112610370576020600d54604051908152f35b3461037057602080600319360112610370576004356128d86000548210615249565b806000526004825260406000203360005282527fa39681252bed1435e4e217da3a52ce8868844c63f75604ae9855ffb20906b68b60ff60406000205416159282600052600481526040600020336000528152604060002060ff1981541660ff86161790556040519384523393a3005b6020366003190112610370576000546129638160043510615249565b61296e600435614e3b565b5060058101546001600160a01b03169061298982151561546d565b600981015480156131f95734106131bd5733821461318557612a2a600a6003830154926007810154604051946129be866147b1565b8786526129cd60018401614a99565b60208701526129de60028401614a99565b604087015260608601526129f460048301614a99565b60808601523360a08601524260c086015260e0850152612a1660088201614a99565b610100850152600061012085015201614a99565b610140820152600160401b831015610c6b5760018301600055612a4c83614e3b565b919091610fb7578051825560208101518051906001600160401b038211610c6b578190612a7c6001860154614a5f565b601f8111613132575b50602090601f83116001146130c0576000926130b5575b50508160011b916000199060031b1c19161760018301555b60408101518051906001600160401b038211610c6b578190612ad96002860154614a5f565b601f8111613062575b50602090601f8311600114612ff057600092612fe5575b50508160011b916000199060031b1c19161760028301555b6060810151600383015560808101518051906001600160401b038211610c6b578190612b406004860154614a5f565b601f8111612f92575b50602090601f8311600114612f2057600092612f15575b50508160011b916000199060031b1c19161760048301555b6005820160018060a01b0360a0830151166001600160601b0360a01b82541617905560c0810151600683015560e081015160078301556101008101518051906001600160401b038211610c6b57612bd26008850154614a5f565b601f8111612ece575b50602090601f8311600114612e5a5761014093929160009183612e4f575b50508160011b916000199060031b1c19161760088401555b610120810151600984015501518051906001600160401b038211610c6b57612c3c600a840154614a5f565b601f8111612e04575b50602090601f8311600114612d9657600a929160009183612d8b575b50508160011b916000199060031b1c1916179101555b8160005260026020526040600020336000526020526040600020600160ff1982541617905560003415612d82575b600080808093853491f115612d7657612cf3604051612cc3816147e8565b601c81527f507572636861736564204f776e6572736869702028436c6f6e65642900000000602082015283614ed5565b612d20604051612d02816147e8565b6009815268536f6c6420436f707960b81b6020820152600435614ed5565b604051348152827f8f21da0ea7326e97d788c6c2cb9e0629e1d7844954ce8fb701d3e64bd5a0531e60203393a333917fa858a0d23644b705afa414c8afbacbb4b357a18ea066805e48f9cd103fd87a81600080a4005b6040513d6000823e3d90fd5b506108fc612ca5565b015190508680612c61565b90601f19831691600a850160005260206000209260005b818110612dec5750916001939185600a969410612dd3575b505050811b01910155612c77565b015160001960f88460031b161c19169055868080612dc5565b92936020600181928786015181550195019301612dad565b600a84016000526020600020601f840160051c81019160208510612e45575b601f0160051c01905b818110612e395750612c45565b60008155600101612e2c565b9091508190612e23565b015190508780612bf9565b906008850160005260206000209160005b601f1985168110612eb657509183916001936101409695601f19811610612e9d575b505050811b016008840155612c11565b015160001960f88460031b161c19169055878080612e8d565b91926020600181928685015181550194019201612e6b565b600885016000526020600020601f840160051c810160208510612f0e575b601f830160051c82018110612f02575050612bdb565b60008155600101612eec565b5080612eec565b015190508680612b60565b9250600485016000526020600020906000935b601f1984168510612f77576001945083601f19811610612f5e575b505050811b016004830155612b78565b015160001960f88460031b161c19169055868080612f4e565b81810151835560209485019460019093019290910190612f33565b909150600485016000526020600020601f840160051c810160208510612fde575b90849392915b601f830160051c82018110612fcf575050612b49565b60008155859450600101612fb9565b5080612fb3565b015190508680612af9565b9250600285016000526020600020906000935b601f1984168510613047576001945083601f1981161061302e575b505050811b016002830155612b11565b015160001960f88460031b161c1916905586808061301e565b81810151835560209485019460019093019290910190613003565b909150600285016000526020600020601f840160051c8101602085106130ae575b90849392915b601f830160051c8201811061309f575050612ae2565b60008155859450600101613089565b5080613083565b015190508680612a9c565b9250600185016000526020600020906000935b601f1984168510613117576001945083601f198116106130fe575b505050811b016001830155612ab4565b015160001960f88460031b161c191690558680806130ee565b818101518355602094850194600190930192909101906130d3565b909150600185016000526020600020601f840160051c81016020851061317e575b90849392915b601f830160051c8201811061316f575050612a85565b60008155859450600101613159565b5080613153565b60405162461bcd60e51b815260206004820152601060248201526f4f776e65722063616e6e6f742062757960801b6044820152606490fd5b60405162461bcd60e51b8152602060048201526014602482015273125b9cdd59999a58da595b9d081c185e5b595b9d60621b6044820152606490fd5b60405162461bcd60e51b815260206004820152600c60248201526b4e6f7420666f722073616c6560a01b6044820152606490fd5b3461037057610100366003190112610370576004356001600160401b0381116103705761325e9036906004016149df565b6024356001600160401b0381116103705761327d9036906004016149df565b906044356001600160401b0381116103705761329d90369060040161483b565b6064356001600160401b038111610370576132bc9036906004016149df565b91608435926001600160401b0384116103705736602385011215610370578360040135936132e985614824565b946132f76040519687614803565b8086526024602087019160051b8301019136831161037057602401905b828210613c735750505060a4356001600160401b0381116103705761333d9036906004016149df565b9160c4356001600160401b0381116103705761335d90369060040161483b565b956001600160401b0360e435116103705761337d3660e4356004016149df565b9561338b83518351146151b0565b61339883518751146151b0565b6133a583518551146151b0565b6133b283518251146151b0565b6133bf83518651146151b0565b6133cc83518951146151b0565b6133d983518851146151b0565b600096875b875189101561340b576133ff613405916133f88b8b6151ed565b5190614d87565b9861509c565b976133de565b6134206108488b9299979899610843336150ab565b61344761343761342f33615135565b875190614d87565b61344033614bfc565b1015614def565b6134518551615217565b9660005b8651811015613c65578061346a8792876151ed565b51600052600360205261348560ff6040600020541615614d3c565b87898c886134ac856134a58161349e81600054996151ed565b51996151ed565b51946151ed565b51916134ce866134c7816134c0818d6151ed565b51956151ed565b51926151ed565b51906134da878b6151ed565b51926134e6888d6151ed565b5194604051966134f5886147b1565b888852602088019a8b526040880152606087015260808601523360a08601524260c086015260e0850152610100840152610120830152610140820152600160401b821015610c6b576001820160005561354d82614e3b565b949094610fb75781518555518051906001600160401b038211610c6b5781906135796001880154614a5f565b601f8111613c12575b50602090601f8311600114613ba057600092613b95575b50508160011b916000199060031b1c19161760018501555b60408101518051906001600160401b038211610c6b5781906135d66002880154614a5f565b601f8111613b42575b50602090601f8311600114613ad057600092613ac5575b50508160011b916000199060031b1c19161760028501555b6060810151600385015560808101518051906001600160401b038211610c6b57819061363d6004880154614a5f565b601f8111613a72575b50602090601f8311600114613a00576000926139f5575b50508160011b916000199060031b1c19161760048501555b6005840160018060a01b0360a0830151166001600160601b0360a01b82541617905560c0810151600685015560e081015160078501556101008101518051906001600160401b038211610c6b576136cf6008870154614a5f565b601f81116139ae575b50602090601f831160011461393a576101409392916000918361392f575b50508160011b916000199060031b1c19161760088601555b610120810151600986015501518051906001600160401b038211610c6b57848b928a9261373f600a8e990154614a5f565b601f81116138bb575b50602090601f8311600114613817576134c0886138079a89976000805160206155c583398151915297600a886137fa996111ae99879960009261380c575b50508160011b916000199060031b1c1916179101555b8860005260026020526040600020336000526020526137cd8360406000209260ff19936001858254161790556151ed565b51600052600360205260016040600020918254161790556137f56137ef614e89565b89614ed5565b6151ed565b0390a361043e828c6151ed565b613455565b015190503880613786565b90600a840160005260206000209160005b601f19851681106138905750886138079a89976000805160206155c583398151915297600a6001896111ae9987996134c0996137fa9d601f19811610613877575b505050811b0191015561379c565b015160001960f88460031b161c19169055388080613869565b949798995092955093506020600181928685015181550194019201928c979695928e95928d95613828565b929596975092509250600a84016000526020600020601f840160051c810160208510613928575b928c979695928e95928d955b601f830160051c82018110613904575050613748565b80929598999a5060009194975060019396505501928c979695928e95928d956138ee565b50806138e2565b0151905038806136f6565b906008870160005260206000209160005b601f198516811061399657509183916001936101409695601f1981161061397d575b505050811b01600886015561370e565b015160001960f88460031b161c1916905538808061396d565b9192602060018192868501518155019401920161394b565b600887016000526020600020601f840160051c8101602085106139ee575b601f830160051c820181106139e25750506136d8565b600081556001016139cc565b50806139cc565b015190508f8061365d565b9250600487016000526020600020906000935b601f1984168510613a57576001945083601f19811610613a3e575b505050811b016004850155613675565b015160001960f88460031b161c191690558f8080613a2e565b81810151835560209485019460019093019290910190613a13565b909150600487016000526020600020601f840160051c810160208510613abe575b90849392915b601f830160051c82018110613aaf575050613646565b60008155859450600101613a99565b5080613a93565b015190508f806135f6565b9250600287016000526020600020906000935b601f1984168510613b27576001945083601f19811610613b0e575b505050811b01600285015561360e565b015160001960f88460031b161c191690558f8080613afe565b81810151835560209485019460019093019290910190613ae3565b909150600287016000526020600020601f840160051c810160208510613b8e575b90849392915b601f830160051c82018110613b7f5750506135df565b60008155859450600101613b69565b5080613b63565b015190508f80613599565b9250600187016000526020600020906000935b601f1984168510613bf7576001945083601f19811610613bde575b505050811b0160018501556135b1565b015160001960f88460031b161c191690558f8080613bce565b81810151835560209485019460019093019290910190613bb3565b909150600187016000526020600020601f840160051c810160208510613c5e575b90849392915b601f830160051c82018110613c4f575050613582565b60008155859450600101613c39565b5080613c33565b604051806103ee8b8261495c565b8135815260209182019101613314565b3461037057602080600319360112610370576001600160401b0360043581811161037057613cb5903690600401614906565b90613cc4600383511015614c46565b613cd18383511115614c87565b3360005260088352613ce7604060002054614a5f565b613e3957604051613d038351918585019261244e818386614997565b336000526008845260406000208351928311610c6b578492613d258254614a5f565b601f8111613de4575b5083601f8211600114613d825792612510928261253f96936000805160206155e5833981519152989660009161254457508160011b916000199060031b1c1916179055604051809381928651928391614997565b601f1982169083600052856000209160005b818110613dcd5750836000805160206155e5833981519152989693612510969361253f99966001941061259b575050811b0190556124ff565b91928760018192868c015181550194019201613d94565b90918093945060005285600020601f830160051c810191878410613e2f575b90601f8896959493920160051c01905b818110613e205750613d2e565b60008155879550600101613e13565b9091508190613e03565b60405162461bcd60e51b8152600481018490526012602482015271105b1c9958591e481c9959da5cdd195c995960721b6044820152606490fd5b34610370576000366003190112610370576020600c54604051908152f35b3461037057602036600319011261037057600435613eb26000548210615249565b613ebb81614e3b565b5060058101546001600160a01b031691821591908215613fbb575b50805491600382015491600681015494600782015460098301549360018401613efe90614a99565b97613f0b60028601614a99565b96613f1860048701614a99565b90613f2560088801614a99565b96600a01613f3290614a99565b986040519b8c9b8c528b6101806020819201528c01613f50916149ba565b8b810360408d0152613f61916149ba565b9060608b015289810360808b0152613f78916149ba565b9360a089015260c0880152151560e0870152610100860152848103610120860152613fa2916149ba565b906101408401528281036101608401526103ee916149ba565b909150600052600560205260ff604060002054169083613ed6565b3461037057600036600319011261037057602060405160648152f35b3461037057600036600319011261037057600080808060018060a01b036007541661401e813314614d04565b4790828215614030575bf115612d7657005b506108fc614028565b346103705760208060031936011261037057614053614899565b600080546001600160a01b039283169390929091805b8481106140fe575061407a90615217565b9360009260005b85811061409657604051806103ee898261495c565b8060005260048252604060002083600052825260ff60406000205416806140e6575b6140cb575b6140c69061509c565b614081565b936140de818661043e6140c6948b6151ed565b9490506140bd565b508360056140f383614e3b565b5001541615156140b8565b8060005260048452604060002086600052845260ff6040600020541680614148575b614133575b61412e9061509c565b614069565b9061414061412e9161509c565b919050614125565b5082600561415583614e3b565b500154161515614120565b346103705760603660031901126103705761418660018060a01b03600754163314614d04565b600435600c55602435600d55604435600e55005b3461037057602080600319360112610370576141b4614899565b600080546001600160a01b0392831693929091805b83811061428657506141da90615217565b9260009160005b8481106141f657604051806103ee888261495c565b6141ff81614e3b565b508288816005809401541614159182614260575b82614247575b505061422e575b6142299061509c565b6141e1565b9261423f6142299161043286614e3b565b939050614220565b90915061425383614e3b565b5001541615158289614219565b915050816000526002845260406000208860005284528260ff6040600020541691614213565b61428f81614e3b565b5083878160058094015416141591826142ec575b826142d3575b50506142be575b6142b99061509c565b6141c9565b906142cb6142b99161509c565b9190506142b0565b9091506142df83614e3b565b50015416151583886142a9565b915050816000526002865260406000208760005286528360ff60406000205416916142a3565b346103705760403660031901126103705760043561432e6148af565b9061433c6000548210615249565b612871600561434d6113ed84614e3b565b8260005260209060068252604060002094169384600052815261437760ff604060002054166154a8565b82600052600681526040600020846000528152604060002060ff19908181541690558360005260028252604060002085600052825260016040600020918254161790557f417070726f766564206163636573732072657175657374000000000000000000604051916143e8836147e8565b6017835282015282614ed5565b34610370576020366003190112610370576001600160a01b03614416614899565b16600052600b6020526020604060002054604051908152f35b34610370576040366003190112610370576001600160401b0360043560243582811161037057614463903690600401614906565b916144716000548310615249565b61447a82614e3b565b5061449260018060a01b036005830154163314614d04565b83516001918201928111610c6b576144aa8354614a5f565b601f81116145ab575b506020601f821160011461454a578192829160009361453f575b501b916000199060031b1c19161790555b6145076040516144ed816147e8565b600781526614995b985b595960ca1b602082015282614ed5565b7f29afa2e14786ae4b101ac811e5b12fb8e459010d8b001fe24db8b37bf96c3e546040516020815280611c10339560208301906149ba565b8701519250876144cd565b601f198216908460005282816000209260005b8682821061459257505010614579575b5050811b0190556144de565b86015160001960f88460031b161c19169055858061456d565b8a8501518655909401936020938401938693500161455d565b836000526020600020601f830160051c810191602084106145ec575b601f0160051c019083905b8281106145e05750506144b3565b600081550183906145d2565b90915081906145c7565b34610370576020366003190112610370576004356146176000548210615249565b6146236102bc82614e3b565b80600052600560205260ff60406000205416156146a357806000526005602052604060002060ff19815416905561467a60405161465f816147e8565b600881526714995cdd1bdc995960c21b602082015282614ed5565b33907fcda3b91453b8363ca5466065c8ce89b06fa891552d0fad2da5868dd7b44a4fb9600080a3005b60405162461bcd60e51b815260206004820152600a6024820152692737ba1034b7103134b760b11b6044820152606490fd5b34610370576146e3366148c5565b6001600160a01b039081166146f9811515615327565b60005b83518110156113535780826147146147ac93876151ed565b516147226000548210615249565b600561472d82614e3b565b5001908154918388841693614743338614614d04565b6001600160601b0360a01b161790558060005260206002815260406000209084600052526040600020600160ff1982541617905561478261030b615367565b7fa858a0d23644b705afa414c8afbacbb4b357a18ea066805e48f9cd103fd87a81600080a461509c565b6146fc565b61016081019081106001600160401b03821117610c6b57604052565b606081019081106001600160401b03821117610c6b57604052565b604081019081106001600160401b03821117610c6b57604052565b90601f801991011681019081106001600160401b03821117610c6b57604052565b6001600160401b038111610c6b5760051b60200190565b81601f820112156103705780359161485283614824565b926148606040519485614803565b808452602092838086019260051b820101928311610370578301905b82821061488a575050505090565b8135815290830190830161487c565b600435906001600160a01b038216820361037057565b602435906001600160a01b038216820361037057565b604060031982011261037057600435906001600160401b038211610370576148ef9160040161483b565b906024356001600160a01b03811681036103705790565b81601f82011215610370578035906001600160401b038211610c6b576040519261493a601f8401601f191660200185614803565b8284526020838301011161037057816000926020809301838601378301015290565b6020908160408183019282815285518094520193019160005b828110614983575050505090565b835185529381019392810192600101614975565b60005b8381106149aa5750506000910152565b818101518382015260200161499a565b906020916149d381518092818552858086019101614997565b601f01601f1916010190565b9080601f83011215610370578135906149f782614824565b92614a056040519485614803565b828452602092838086019160051b8301019280841161037057848301915b848310614a335750505050505090565b82356001600160401b038111610370578691614a5484848094890101614906565b815201920191614a23565b90600182811c92168015614a8f575b6020831014614a7957565b634e487b7160e01b600052602260045260246000fd5b91607f1691614a6e565b9060405191826000825492614aad84614a5f565b908184526001948581169081600014614b1c5750600114614ad9575b5050614ad792500383614803565b565b9093915060005260209081600020936000915b818310614b04575050614ad793508201013880614ac9565b85548884018501529485019487945091830191614aec565b915050614ad794506020925060ff191682840152151560051b8201013880614ac9565b6001600160a01b03166000908152600a602052604081205460ff1660018114614bf25760028114614be857600314614b7a5750630fa0000090565b600b60205260408120549081600a1b61040092808204841481151715614bd4578060141b91808304851490151715614bd457601e1b928184041490151715614bc0575090565b634e487b7160e01b81526011600452602490fd5b634e487b7160e01b83526011600452602483fd5b5050634000000090565b5050631f40000090565b6001600160a01b03166000908152600a602052604090205460ff1660018114614c405760028114614c3957600314614c3357606490565b60001990565b506101f490565b5060fa90565b15614c4d57565b60405162461bcd60e51b8152602060048201526012602482015271155cd95c9b985b59481d1bdbc81cda1bdc9d60721b6044820152606490fd5b15614c8e57565b60405162461bcd60e51b8152602060048201526011602482015270557365726e616d6520746f6f206c6f6e6760781b6044820152606490fd5b15614cce57565b60405162461bcd60e51b815260206004820152600e60248201526d2ab9b2b93730b6b2903a30b5b2b760911b6044820152606490fd5b15614d0b57565b60405162461bcd60e51b81526020600482015260096024820152682737ba1037bbb732b960b91b6044820152606490fd5b15614d4357565b606460405162461bcd60e51b815260206004820152602060248201527f46696c6520616c72656164792075706c6f6164656420627920736f6d656f6e656044820152fd5b91908201809211614d9457565b634e487b7160e01b600052601160045260246000fd5b15614db157565b60405162461bcd60e51b815260206004820152601660248201527514dd1bdc9859d9481b1a5b5a5d08195e18d95959195960521b6044820152606490fd5b15614df657565b60405162461bcd60e51b815260206004820152601960248201527f46696c6520636f756e74206c696d6974206578636565646564000000000000006044820152606490fd5b906000918254811015614e7557600b90838052027f290decd9548b62a8d60345a988386fc84ba6bc95484008f6362f93160ef3e563019190565b634e487b7160e01b83526032600452602483fd5b60405190614e96826147e8565b6008825267155c1b1bd859195960c21b6020830152565b9091614ec4614ed2936040845260408401906149ba565b9160208184039101526149ba565b90565b91906000928352600192602091848352604082209160405193614ef7856147cd565b3385528085019283526040850193428552805490600160401b8210156150885788820180825582101561507457835260038284209102019460018060a01b039051166001600160601b0360a01b86541617855586850192518051926001600160401b03841161506057614f6a8554614a5f565b601f811161501a575b5082601f8511600114614fb457509783928392600298999a94614fa9575b50501b916000199060031b1c19161790555b51910155565b015192503880614f91565b9893929091601f1984169986845280842093905b8b821061500357505083600298999a10614fea575b505050811b019055614fa3565b015160001960f88460031b161c19169055388080614fdd565b808785968294968601518155019501930190614fc8565b858252838220601f860160051c810191858710615056575b601f0160051c01908a905b82811061504b575050614f73565b838155018a9061503d565b9091508190615032565b634e487b7160e01b81526041600452602490fd5b634e487b7160e01b84526032600452602484fd5b634e487b7160e01b84526041600452602484fd5b6000198114614d945760010190565b6000805490929183805b8381106150c25750505050565b6150cb81614e3b565b506005908101546001600160a01b03858116911614908161511f575b506150fb575b6150f69061509c565b6150b5565b946151176150f691600361510e89614e3b565b50015490614d87565b9590506150ed565b82845260205250604082205460ff1615386150e7565b6000805490929183805b83811061514c5750505050565b61515581614e3b565b506005908101546001600160a01b03858116911614908161519a575b50615185575b6151809061509c565b61513f565b946151926151809161509c565b959050615177565b82845260205250604082205460ff161538615171565b156151b757565b60405162461bcd60e51b815260206004820152600e60248201526d082e4e4c2f240dad2e6dac2e8c6d60931b6044820152606490fd5b80518210156152015760209160051b010190565b634e487b7160e01b600052603260045260246000fd5b9061522182614824565b61522e6040519182614803565b828152809261523f601f1991614824565b0190602036910137565b1561525057565b60405162461bcd60e51b815260206004820152600a602482015269125b9d985b1a59081a5960b21b6044820152606490fd5b9060009182548110156152d357600561529a82614e3b565b5001546001600160a01b0392831692168281146152d857156152d3579160409160ff938252600260205282822090825260205220541690565b505090565b50505050600190565b604051906152ee826147e8565b6007825266151c985cda195960ca1b6020830152565b60405190615311826147e8565b600782526611195b195d195960ca1b6020830152565b1561532e57565b60405162461bcd60e51b8152602060048201526011602482015270125b9d985b1a59081c9958da5c1a595b9d607a1b6044820152606490fd5b60405190615374826147e8565b601582527405472616e73666572726564206f776e65727368697605c1b6020830152565b604051906153a5826147e8565b601882527f4d6f766564202f204368616e6765642043617465676f727900000000000000006020830152565b156153d857565b60405162461bcd60e51b815260206004820152600f60248201526e496e76616c6964206164647265737360881b6044820152606490fd5b6040519061541c826147e8565b60138252724772616e74656420766965772061636365737360681b6020830152565b6040519061544b826147e8565b60138252725265766f6b656420766965772061636365737360681b6020830152565b1561547457565b60405162461bcd60e51b815260206004820152600c60248201526b119a5b194819195b195d195960a21b6044820152606490fd5b156154af57565b60405162461bcd60e51b8152602060048201526012602482015271139bc81c195b991a5b99c81c995c5d595cdd60721b6044820152606490fd5b906000918254925b8381106155285750506040516000925082918291602081016001600160401b03811182821017610c6b576040526000815290600090565b81600761553483614e3b565b50015414806155a5575b6155505761554b9061509c565b6154f1565b80935061555d9150614e3b565b50549161556981614e3b565b50600501546001600160a01b031691600661558d61558684614e3b565b5093614e3b565b500154906155a16008600196959401614a99565b9190565b506155af81614e3b565b50600501546001600160a01b0316151561553e56feb14038102e59daf78bf92447f70c24fe731c7fded3193654a05946eec6bc398d4afe13536e3149cddd8c9a8df1580cd5e909fd13c41e7dfead2e38d1141dad5da2646970667358221220f9e107b8a309d7eee53303217d98b37b915ae764bc24c634d3d07dfab971dd7564736f6c63430008110033",
  "linkReferences": {},
  "deployedLinkReferences": {}
}