{
  "_format": "hh-sol-artifact-1",
  "contractName": "Drive",
  "sourceName": "contracts/Drive.sol",
  "abi": [
    {
      "anonymous": false,
      "inputs": [
        {
          "indexed": true,
          "internalType": "uint256",
          "name": "id",
          "type": "uint256"
        },
        {
          "indexed": true,
          "internalType": "address",
          "name": "buyer",
          "type": "address"
        },
        {
          "indexed": false,
          "internalType": "uint256",
          "name": "price",
          "type": "uint256"
        }
      ],
      "name": "AccessBought",
      "type": "event"
    },
    {
      "anonymous": false,
      "inputs": [
        {
          "indexed": true,
          "internalType": "uint256",
          "name": "id",
          "type": "uint256"
        },
        {
          "indexed": true,
          "internalType": "address",
          "name": "to",
          "type": "address"
        }
      ],
      "name": "AccessGranted",
      "type": "event"
    },
    {
      "anonymous": false,
      "inputs": [
        {
          "indexed": true,
          "internalType": "uint256",
          "name": "id",
          "type": "uint256"
        },
        {
          "indexed": true,
          "internalType": "address",
          "name": "to",
          "type": "address"
        }
      ],
      "name": "AccessRevoked",
      "type": "event"
    },
    {
      "anonymous": false,
      "inputs": [
        {
          "indexed": true,
          "internalType": "uint256",
          "name": "id",
          "type": "uint256"
        },
        {
          "indexed": true,
          "internalType": "address",
          "name": "owner",
          "type": "address"
        },
        {
          "indexed": false,
          "internalType": "string",
          "name": "cid",
          "type": "string"
        },
        {
          "indexed": false,
          "internalType": "string",
          "name": "name",
          "type": "string"
        }
      ],
      "name": "FileAdded",
      "type": "event"
    },
    {
      "anonymous": false,
      "inputs": [
        {
          "indexed": true,
          "internalType": "uint256",
          "name": "id",
          "type": "uint256"
        },
        {
          "indexed": true,
          "internalType": "address",
          "name": "owner",
          "type": "address"
        }
      ],
      "name": "FileRemoved",
      "type": "event"
    },
    {
      "anonymous": false,
      "inputs": [
        {
          "indexed": true,
          "internalType": "uint256",
          "name": "id",
          "type": "uint256"
        },
        {
          "indexed": true,
          "internalType": "address",
          "name": "from",
          "type": "address"
        },
        {
          "indexed": true,
          "internalType": "address",
          "name": "to",
          "type": "address"
        }
      ],
      "name": "FileTransferred",
      "type": "event"
    },
    {
      "anonymous": false,
      "inputs": [
        {
          "indexed": true,
          "internalType": "uint256",
          "name": "id",
          "type": "uint256"
        },
        {
          "indexed": false,
          "internalType": "uint256",
          "name": "newPrice",
          "type": "uint256"
        }
      ],
      "name": "PriceChanged",
      "type": "event"
    },
    {
      "inputs": [
        {
          "internalType": "string",
          "name": "name",
          "type": "string"
        },
        {
          "internalType": "string",
          "name": "cid",
          "type": "string"
        },
        {
          "internalType": "uint256",
          "name": "size",
          "type": "uint256"
        },
        {
          "internalType": "string",
          "name": "mime",
          "type": "string"
        },
        {
          "internalType": "bytes32",
          "name": "contentHash",
          "type": "bytes32"
        },
        {
          "internalType": "string",
          "name": "category",
          "type": "string"
        },
        {
          "internalType": "uint256",
          "name": "price",
          "type": "uint256"
        },
        {
          "internalType": "string",
          "name": "folder",
          "type": "string"
        }
      ],
      "name": "addFile",
      "outputs": [
        {
          "internalType": "uint256",
          "name": "",
          "type": "uint256"
        }
      ],
      "stateMutability": "nonpayable",
      "type": "function"
    },
    {
      "inputs": [
        {
          "internalType": "uint256[]",
          "name": "ids",
          "type": "uint256[]"
        },
        {
          "internalType": "string[]",
          "name": "newFolders",
          "type": "string[]"
        },
        {
          "internalType": "string[]",
          "name": "newCategories",
          "type": "string[]"
        }
      ],
      "name": "batchMoveFiles",
      "outputs": [],
      "stateMutability": "nonpayable",
      "type": "function"
    },
    {
      "inputs": [
        {
          "internalType": "uint256",
          "name": "id",
          "type": "uint256"
        }
      ],
      "name": "buyAccess",
      "outputs": [],
      "stateMutability": "payable",
      "type": "function"
    },
    {
      "inputs": [
        {
          "internalType": "uint256",
          "name": "id",
          "type": "uint256"
        },
        {
          "internalType": "string",
          "name": "newName",
          "type": "string"
        }
      ],
      "name": "editName",
      "outputs": [],
      "stateMutability": "nonpayable",
      "type": "function"
    },
    {
      "inputs": [
        {
          "internalType": "uint256",
          "name": "id",
          "type": "uint256"
        }
      ],
      "name": "getFile",
      "outputs": [
        {
          "internalType": "uint256",
          "name": "_id",
          "type": "uint256"
        },
        {
          "internalType": "string",
          "name": "name",
          "type": "string"
        },
        {
          "internalType": "string",
          "name": "cid",
          "type": "string"
        },
        {
          "internalType": "uint256",
          "name": "size",
          "type": "uint256"
        },
        {
          "internalType": "string",
          "name": "mime",
          "type": "string"
        },
        {
          "internalType": "address",
          "name": "owner",
          "type": "address"
        },
        {
          "internalType": "uint256",
          "name": "timestamp",
          "type": "uint256"
        },
        {
          "internalType": "bool",
          "name": "deleted",
          "type": "bool"
        },
        {
          "internalType": "bytes32",
          "name": "contentHash",
          "type": "bytes32"
        },
        {
          "internalType": "string",
          "name": "category",
          "type": "string"
        },
        {
          "internalType": "uint256",
          "name": "price",
          "type": "uint256"
        },
        {
          "internalType": "string",
          "name": "folder",
          "type": "string"
        }
      ],
      "stateMutability": "view",
      "type": "function"
    },
    {
      "inputs": [
        {
          "internalType": "address",
          "name": "owner",
          "type": "address"
        }
      ],
      "name": "getFilesByOwner",
      "outputs": [
        {
          "internalType": "uint256[]",
          "name": "",
          "type": "uint256[]"
        }
      ],
      "stateMutability": "view",
      "type": "function"
    },
    {
      "inputs": [
        {
          "internalType": "uint256",
          "name": "id",
          "type": "uint256"
        }
      ],
      "name": "getHistory",
      "outputs": [
        {
          "components": [
            {
              "internalType": "address",
              "name": "actor",
              "type": "address"
            },
            {
              "internalType": "string",
              "name": "action",
              "type": "string"
            },
            {
              "internalType": "uint256",
              "name": "timestamp",
              "type": "uint256"
            }
          ],
          "internalType": "struct Drive.HistoryLog[]",
          "name": "",
          "type": "tuple[]"
        }
      ],
      "stateMutability": "view",
      "type": "function"
    },
    {
      "inputs": [],
      "name": "getMarketFiles",
      "outputs": [
        {
          "internalType": "uint256[]",
          "name": "",
          "type": "uint256[]"
        }
      ],
      "stateMutability": "view",
      "type": "function"
    },
    {
      "inputs": [
        {
          "internalType": "address",
          "name": "user",
          "type": "address"
        }
      ],
      "name": "getSharedFiles",
      "outputs": [
        {
          "internalType": "uint256[]",
          "name": "",
          "type": "uint256[]"
        }
      ],
      "stateMutability": "view",
      "type": "function"
    },
    {
      "inputs": [
        {
          "internalType": "uint256",
          "name": "id",
          "type": "uint256"
        },
        {
          "internalType": "address",
          "name": "to",
          "type": "address"
        }
      ],
      "name": "grantAccess",
      "outputs": [],
      "stateMutability": "nonpayable",
      "type": "function"
    },
    {
      "inputs": [
        {
          "internalType": "uint256",
          "name": "id",
          "type": "uint256"
        },
        {
          "internalType": "address",
          "name": "user",
          "type": "address"
        }
      ],
      "name": "hasAccess",
      "outputs": [
        {
          "internalType": "bool",
          "name": "",
          "type": "bool"
        }
      ],
      "stateMutability": "view",
      "type": "function"
    },
    {
      "inputs": [
        {
          "internalType": "bytes32",
          "name": "",
          "type": "bytes32"
        }
      ],
      "name": "hashExists",
      "outputs": [
        {
          "internalType": "bool",
          "name": "",
          "type": "bool"
        }
      ],
      "stateMutability": "view",
      "type": "function"
    },
    {
      "inputs": [
        {
          "internalType": "uint256",
          "name": "id",
          "type": "uint256"
        },
        {
          "internalType": "string",
          "name": "newFolder",
          "type": "string"
        },
        {
          "internalType": "string",
          "name": "newCategory",
          "type": "string"
        }
      ],
      "name": "moveFile",
      "outputs": [],
      "stateMutability": "nonpayable",
      "type": "function"
    },
    {
      "inputs": [
        {
          "internalType": "uint256",
          "name": "id",
          "type": "uint256"
        }
      ],
      "name": "removeFile",
      "outputs": [],
      "stateMutability": "nonpayable",
      "type": "function"
    },
    {
      "inputs": [
        {
          "internalType": "uint256",
          "name": "id",
          "type": "uint256"
        },
        {
          "internalType": "address",
          "name": "user",
          "type": "address"
        }
      ],
      "name": "revokeAccess",
      "outputs": [],
      "stateMutability": "nonpayable",
      "type": "function"
    },
    {
      "inputs": [
        {
          "internalType": "uint256",
          "name": "id",
          "type": "uint256"
        },
        {
          "internalType": "uint256",
          "name": "newPrice",
          "type": "uint256"
        }
      ],
      "name": "setPrice",
      "outputs": [],
      "stateMutability": "nonpayable",
      "type": "function"
    },
    {
      "inputs": [],
      "name": "totalFiles",
      "outputs": [
        {
          "internalType": "uint256",
          "name": "",
          "type": "uint256"
        }
      ],
      "stateMutability": "view",
      "type": "function"
    },
    {
      "inputs": [
        {
          "internalType": "uint256",
          "name": "id",
          "type": "uint256"
        },
        {
          "internalType": "address",
          "name": "to",
          "type": "address"
        }
      ],
      "name": "transferFile",
      "outputs": [],
      "stateMutability": "nonpayable",
      "type": "function"
    },
    {
      "inputs": [
        {
          "internalType": "bytes32",
          "name": "hash",
          "type": "bytes32"
        }
      ],
      "name": "verifyFileByHash",
      "outputs": [
        {
          "internalType": "bool",
          "name": "found",
          "type": "bool"
        },
        {
          "internalType": "uint256",
          "name": "id",
          "type": "uint256"
        },
        {
          "internalType": "address",
          "name": "owner",
          "type": "address"
        },
        {
          "internalType": "string",
          "name": "category",
          "type": "string"
        },
        {
          "internalType": "uint256",
          "name": "timestamp",
          "type": "uint256"
        }
      ],
      "stateMutability": "view",
      "type": "function"
    }
  ],
  "bytecode": "0x608060405234801561001057600080fd5b5061435e806100206000396000f3fe6080604052600436106101145760003560e01c8063b169c4c1116100a0578063e1d57d0111610064578063e1d57d01146103d3578063ee690d3f146103fc578063f7d9757714610439578063f99619f814610462578063fc08a7d71461048d57610114565b8063b169c4c1146102ca578063b535b5c3146102f3578063c8691b2a14610330578063ced141981461036d578063d9a5ec1b146103aa57610114565b806365dd152c116100e757806365dd152c146101e3578063667523fb1461020c5780638db953371461024d57806392cf0557146102765780639926b03f146102a157610114565b8063096d798c146101195780631d152422146101425780632bfda3131461017f57806350a1a264146101c7575b600080fd5b34801561012557600080fd5b50610140600480360381019061013b9190613014565b6104ca565b005b34801561014e57600080fd5b50610169600480360381019061016491906130ce565b61061e565b60405161017691906131b9565b60405180910390f35b34801561018b57600080fd5b506101a660048036038101906101a191906131db565b6109e1565b6040516101be9c9b9a999897969594939291906132d9565b60405180910390f35b6101e160048036038101906101dc91906131db565b610def565b005b3480156101ef57600080fd5b5061020a600480360381019061020591906133b6565b611222565b005b34801561021857600080fd5b50610233600480360381019061022e9190613422565b611480565b60405161024495949392919061344f565b60405180910390f35b34801561025957600080fd5b50610274600480360381019061026f91906133b6565b6116db565b005b34801561028257600080fd5b5061028b6119bd565b60405161029891906134a9565b60405180910390f35b3480156102ad57600080fd5b506102c860048036038101906102c391906131db565b6119c9565b005b3480156102d657600080fd5b506102f160048036038101906102ec91906134c4565b611c4f565b005b3480156102ff57600080fd5b5061031a60048036038101906103159190613422565b611db6565b604051610327919061354f565b60405180910390f35b34801561033c57600080fd5b50610357600480360381019061035291906131db565b611dd6565b60405161036491906136d5565b60405180910390f35b34801561037957600080fd5b50610394600480360381019061038f91906133b6565b611f3a565b6040516103a1919061354f565b60405180910390f35b3480156103b657600080fd5b506103d160048036038101906103cc91906133b6565b6120a0565b005b3480156103df57600080fd5b506103fa60048036038101906103f591906138a0565b61228f565b005b34801561040857600080fd5b50610423600480360381019061041e9190613947565b6124bb565b60405161043091906134a9565b60405180910390f35b34801561044557600080fd5b50610460600480360381019061045b9190613a89565b6127d5565b005b34801561046e57600080fd5b50610477612958565b60405161048491906131b9565b60405180910390f35b34801561049957600080fd5b506104b460048036038101906104af91906130ce565b612bb3565b6040516104c191906131b9565b60405180910390f35b6000805490508210610511576040517f08c379a000000000000000000000000000000000000000000000000000000000815260040161050890613b15565b60405180910390fd5b600080838154811061052657610525613b35565b5b90600052602060002090600b020190503373ffffffffffffffffffffffffffffffffffffffff168160050160009054906101000a900473ffffffffffffffffffffffffffffffffffffffff1673ffffffffffffffffffffffffffffffffffffffff16146105c8576040517f08c379a00000000000000000000000000000000000000000000000000000000081526004016105bf90613bb0565b60405180910390fd5b818160010190816105d99190613ddc565b50610619836040518060400160405280600781526020017f52656e616d656400000000000000000000000000000000000000000000000000815250612daa565b505050565b60606000808054905090506000805b828110156107b5578473ffffffffffffffffffffffffffffffffffffffff16600082815481106106605761065f613b35565b5b90600052602060002090600b020160050160009054906101000a900473ffffffffffffffffffffffffffffffffffffffff1673ffffffffffffffffffffffffffffffffffffffff161415801561071057506002600082815260200190815260200160002060008673ffffffffffffffffffffffffffffffffffffffff1673ffffffffffffffffffffffffffffffffffffffff16815260200190815260200160002060009054906101000a900460ff165b801561078e5750600073ffffffffffffffffffffffffffffffffffffffff166000828154811061074357610742613b35565b5b90600052602060002090600b020160050160009054906101000a900473ffffffffffffffffffffffffffffffffffffffff1673ffffffffffffffffffffffffffffffffffffffff1614155b156107a257818061079e90613edd565b9250505b80806107ad90613edd565b91505061062d565b5060008167ffffffffffffffff8111156107d2576107d1612ee9565b5b6040519080825280602002602001820160405280156108005781602001602082028036833780820191505090505b5090506000805b848110156109d4578673ffffffffffffffffffffffffffffffffffffffff166000828154811061083a57610839613b35565b5b90600052602060002090600b020160050160009054906101000a900473ffffffffffffffffffffffffffffffffffffffff1673ffffffffffffffffffffffffffffffffffffffff16141580156108ea57506002600082815260200190815260200160002060008873ffffffffffffffffffffffffffffffffffffffff1673ffffffffffffffffffffffffffffffffffffffff16815260200190815260200160002060009054906101000a900460ff165b80156109685750600073ffffffffffffffffffffffffffffffffffffffff166000828154811061091d5761091c613b35565b5b90600052602060002090600b020160050160009054906101000a900473ffffffffffffffffffffffffffffffffffffffff1673ffffffffffffffffffffffffffffffffffffffff1614155b156109c1576000818154811061098157610980613b35565b5b90600052602060002090600b0201600001548383815181106109a6576109a5613b35565b5b60200260200101818152505081806109bd90613edd565b9250505b80806109cc90613edd565b915050610807565b5081945050505050919050565b6000606080600060606000806000806060600060606000805490508d10610a3d576040517f08c379a0000000000000000000000000000000000000000000000000000000008152600401610a3490613b15565b60405180910390fd5b6000808e81548110610a5257610a51613b35565b5b90600052602060002090600b02019050600073ffffffffffffffffffffffffffffffffffffffff168160050160009054906101000a900473ffffffffffffffffffffffffffffffffffffffff1673ffffffffffffffffffffffffffffffffffffffff16149550806000015481600101826002018360030154846004018560050160009054906101000a900473ffffffffffffffffffffffffffffffffffffffff1686600601548c8860070154896008018a600901548b600a018a8054610b1790613bff565b80601f0160208091040260200160405190810160405280929190818152602001828054610b4390613bff565b8015610b905780601f10610b6557610100808354040283529160200191610b90565b820191906000526020600020905b815481529060010190602001808311610b7357829003601f168201915b50505050509a50898054610ba390613bff565b80601f0160208091040260200160405190810160405280929190818152602001828054610bcf90613bff565b8015610c1c5780601f10610bf157610100808354040283529160200191610c1c565b820191906000526020600020905b815481529060010190602001808311610bff57829003601f168201915b50505050509950878054610c2f90613bff565b80601f0160208091040260200160405190810160405280929190818152602001828054610c5b90613bff565b8015610ca85780601f10610c7d57610100808354040283529160200191610ca8565b820191906000526020600020905b815481529060010190602001808311610c8b57829003601f168201915b50505050509750828054610cbb90613bff565b80601f0160208091040260200160405190810160405280929190818152602001828054610ce790613bff565b8015610d345780601f10610d0957610100808354040283529160200191610d34565b820191906000526020600020905b815481529060010190602001808311610d1757829003601f168201915b50505050509250808054610d4790613bff565b80601f0160208091040260200160405190810160405280929190818152602001828054610d7390613bff565b8015610dc05780601f10610d9557610100808354040283529160200191610dc0565b820191906000526020600020905b815481529060010190602001808311610da357829003601f168201915b505050505090509c509c509c509c509c509c509c509c509c509c509c509c505091939597999b5091939597999b565b6000805490508110610e36576040517f08c379a0000000000000000000000000000000000000000000000000000000008152600401610e2d90613b15565b60405180910390fd5b6000808281548110610e4b57610e4a613b35565b5b90600052602060002090600b02019050600073ffffffffffffffffffffffffffffffffffffffff168160050160009054906101000a900473ffffffffffffffffffffffffffffffffffffffff1673ffffffffffffffffffffffffffffffffffffffff1603610eee576040517f08c379a0000000000000000000000000000000000000000000000000000000008152600401610ee590613f71565b60405180910390fd5b6000816009015411610f35576040517f08c379a0000000000000000000000000000000000000000000000000000000008152600401610f2c90613fdd565b60405180910390fd5b8060090154341015610f7c576040517f08c379a0000000000000000000000000000000000000000000000000000000008152600401610f7390614049565b60405180910390fd5b3373ffffffffffffffffffffffffffffffffffffffff168160050160009054906101000a900473ffffffffffffffffffffffffffffffffffffffff1673ffffffffffffffffffffffffffffffffffffffff160361100e576040517f08c379a0000000000000000000000000000000000000000000000000000000008152600401611005906140b5565b60405180910390fd5b60008160050160009054906101000a900473ffffffffffffffffffffffffffffffffffffffff169050338260050160006101000a81548173ffffffffffffffffffffffffffffffffffffffff021916908373ffffffffffffffffffffffffffffffffffffffff1602179055506000826009018190555060016002600085815260200190815260200160002060003373ffffffffffffffffffffffffffffffffffffffff1673ffffffffffffffffffffffffffffffffffffffff16815260200190815260200160002060006101000a81548160ff0219169083151502179055508073ffffffffffffffffffffffffffffffffffffffff166108fc349081150290604051600060405180830381858888f19350505050158015611133573d6000803e3d6000fd5b50611173836040518060400160405280601381526020017f507572636861736564204f776e65727368697000000000000000000000000000815250612daa565b3373ffffffffffffffffffffffffffffffffffffffff16837f8f21da0ea7326e97d788c6c2cb9e0629e1d7844954ce8fb701d3e64bd5a0531e346040516111ba91906134a9565b60405180910390a33373ffffffffffffffffffffffffffffffffffffffff168173ffffffffffffffffffffffffffffffffffffffff16847fa858a0d23644b705afa414c8afbacbb4b357a18ea066805e48f9cd103fd87a8160405160405180910390a4505050565b6000805490508210611269576040517f08c379a000000000000000000000000000000000000000000000000000000000815260040161126090613b15565b60405180910390fd5b600080838154811061127e5761127d613b35565b5b90600052602060002090600b020190503373ffffffffffffffffffffffffffffffffffffffff168160050160009054906101000a900473ffffffffffffffffffffffffffffffffffffffff1673ffffffffffffffffffffffffffffffffffffffff1614611320576040517f08c379a000000000000000000000000000000000000000000000000000000000815260040161131790613bb0565b60405180910390fd5b600073ffffffffffffffffffffffffffffffffffffffff168273ffffffffffffffffffffffffffffffffffffffff160361138f576040517f08c379a000000000000000000000000000000000000000000000000000000000815260040161138690614121565b60405180910390fd5b60016002600085815260200190815260200160002060008473ffffffffffffffffffffffffffffffffffffffff1673ffffffffffffffffffffffffffffffffffffffff16815260200190815260200160002060006101000a81548160ff021916908315150217905550611437836040518060400160405280601381526020017f4772616e74656420766965772061636365737300000000000000000000000000815250612daa565b8173ffffffffffffffffffffffffffffffffffffffff16837f3c3a9147a1fc73dd51a32f4d10c43d457e8cb826eb6f35cac6349eb965ba82b460405160405180910390a3505050565b60008060006060600080600090505b6000805490508110156116af5786600082815481106114b1576114b0613b35565b5b90600052602060002090600b0201600701541480156115425750600073ffffffffffffffffffffffffffffffffffffffff16600082815481106114f7576114f6613b35565b5b90600052602060002090600b020160050160009054906101000a900473ffffffffffffffffffffffffffffffffffffffff1673ffffffffffffffffffffffffffffffffffffffff1614155b1561169c5760016000828154811061155d5761155c613b35565b5b90600052602060002090600b0201600001546000838154811061158357611582613b35565b5b90600052602060002090600b020160050160009054906101000a900473ffffffffffffffffffffffffffffffffffffffff16600084815481106115c9576115c8613b35565b5b90600052602060002090600b0201600801600085815481106115ee576115ed613b35565b5b90600052602060002090600b02016006015481805461160c90613bff565b80601f016020809104026020016040519081016040528092919081815260200182805461163890613bff565b80156116855780601f1061165a57610100808354040283529160200191611685565b820191906000526020600020905b81548152906001019060200180831161166857829003601f168201915b5050505050915095509550955095509550506116d2565b80806116a790613edd565b91505061148f565b506000806000806040518060200160405280600081525090945094509450945094505b91939590929450565b6000805490508210611722576040517f08c379a000000000000000000000000000000000000000000000000000000000815260040161171990613b15565b60405180910390fd5b600073ffffffffffffffffffffffffffffffffffffffff168173ffffffffffffffffffffffffffffffffffffffff1603611791576040517f08c379a00000000000000000000000000000000000000000000000000000000081526004016117889061418d565b60405180910390fd5b60008083815481106117a6576117a5613b35565b5b90600052602060002090600b020190503373ffffffffffffffffffffffffffffffffffffffff168160050160009054906101000a900473ffffffffffffffffffffffffffffffffffffffff1673ffffffffffffffffffffffffffffffffffffffff1614611848576040517f08c379a000000000000000000000000000000000000000000000000000000000815260040161183f90613bb0565b60405180910390fd5b60008160050160009054906101000a900473ffffffffffffffffffffffffffffffffffffffff169050828260050160006101000a81548173ffffffffffffffffffffffffffffffffffffffff021916908373ffffffffffffffffffffffffffffffffffffffff16021790555060016002600086815260200190815260200160002060008573ffffffffffffffffffffffffffffffffffffffff1673ffffffffffffffffffffffffffffffffffffffff16815260200190815260200160002060006101000a81548160ff02191690831515021790555061195c846040518060400160405280601581526020017f5472616e73666572726564206f776e6572736869700000000000000000000000815250612daa565b8273ffffffffffffffffffffffffffffffffffffffff168173ffffffffffffffffffffffffffffffffffffffff16857fa858a0d23644b705afa414c8afbacbb4b357a18ea066805e48f9cd103fd87a8160405160405180910390a450505050565b60008080549050905090565b6000805490508110611a10576040517f08c379a0000000000000000000000000000000000000000000000000000000008152600401611a0790613b15565b60405180910390fd5b6000808281548110611a2557611a24613b35565b5b90600052602060002090600b020190503373ffffffffffffffffffffffffffffffffffffffff168160050160009054906101000a900473ffffffffffffffffffffffffffffffffffffffff1673ffffffffffffffffffffffffffffffffffffffff1614611ac7576040517f08c379a0000000000000000000000000000000000000000000000000000000008152600401611abe90613bb0565b60405180910390fd5b600073ffffffffffffffffffffffffffffffffffffffff168160050160009054906101000a900473ffffffffffffffffffffffffffffffffffffffff1673ffffffffffffffffffffffffffffffffffffffff1603611b5a576040517f08c379a0000000000000000000000000000000000000000000000000000000008152600401611b51906141f9565b60405180910390fd5b60008160050160009054906101000a900473ffffffffffffffffffffffffffffffffffffffff16905060008260050160006101000a81548173ffffffffffffffffffffffffffffffffffffffff021916908373ffffffffffffffffffffffffffffffffffffffff160217905550611c06836040518060400160405280600781526020017f44656c6574656400000000000000000000000000000000000000000000000000815250612daa565b8073ffffffffffffffffffffffffffffffffffffffff16837f9b5baeec63969a252d5d743784891dba3a017078113856378a7098a68936095460405160405180910390a3505050565b6000805490508310611c96576040517f08c379a0000000000000000000000000000000000000000000000000000000008152600401611c8d90613b15565b60405180910390fd5b6000808481548110611cab57611caa613b35565b5b90600052602060002090600b020190503373ffffffffffffffffffffffffffffffffffffffff168160050160009054906101000a900473ffffffffffffffffffffffffffffffffffffffff1673ffffffffffffffffffffffffffffffffffffffff1614611d4d576040517f08c379a0000000000000000000000000000000000000000000000000000000008152600401611d4490613bb0565b60405180910390fd5b8281600a019081611d5e9190613ddc565b5081816008019081611d709190613ddc565b50611db0846040518060400160405280601881526020017f4d6f766564202f204368616e6765642043617465676f72790000000000000000815250612daa565b50505050565b60036020528060005260406000206000915054906101000a900460ff1681565b606060016000838152602001908152602001600020805480602002602001604051908101604052809291908181526020016000905b82821015611f2f57838290600052602060002090600302016040518060600160405290816000820160009054906101000a900473ffffffffffffffffffffffffffffffffffffffff1673ffffffffffffffffffffffffffffffffffffffff1673ffffffffffffffffffffffffffffffffffffffff168152602001600182018054611e9490613bff565b80601f0160208091040260200160405190810160405280929190818152602001828054611ec090613bff565b8015611f0d5780601f10611ee257610100808354040283529160200191611f0d565b820191906000526020600020905b815481529060010190602001808311611ef057829003601f168201915b5050505050815260200160028201548152505081526020019060010190611e0b565b505050509050919050565b600080805490508310611f50576000905061209a565b6000808481548110611f6557611f64613b35565b5b90600052602060002090600b020190508273ffffffffffffffffffffffffffffffffffffffff168160050160009054906101000a900473ffffffffffffffffffffffffffffffffffffffff1673ffffffffffffffffffffffffffffffffffffffff1603611fd657600191505061209a565b600073ffffffffffffffffffffffffffffffffffffffff168160050160009054906101000a900473ffffffffffffffffffffffffffffffffffffffff1673ffffffffffffffffffffffffffffffffffffffff160361203857600091505061209a565b6002600085815260200190815260200160002060008473ffffffffffffffffffffffffffffffffffffffff1673ffffffffffffffffffffffffffffffffffffffff16815260200190815260200160002060009054906101000a900460ff169150505b92915050565b60008054905082106120e7576040517f08c379a00000000000000000000000000000000000000000000000000000000081526004016120de90613b15565b60405180910390fd5b60008083815481106120fc576120fb613b35565b5b90600052602060002090600b020190503373ffffffffffffffffffffffffffffffffffffffff168160050160009054906101000a900473ffffffffffffffffffffffffffffffffffffffff1673ffffffffffffffffffffffffffffffffffffffff161461219e576040517f08c379a000000000000000000000000000000000000000000000000000000000815260040161219590613bb0565b60405180910390fd5b60006002600085815260200190815260200160002060008473ffffffffffffffffffffffffffffffffffffffff1673ffffffffffffffffffffffffffffffffffffffff16815260200190815260200160002060006101000a81548160ff021916908315150217905550612246836040518060400160405280601381526020017f5265766f6b656420766965772061636365737300000000000000000000000000815250612daa565b8173ffffffffffffffffffffffffffffffffffffffff16837f125883b94692baebecad9f111ed97ffa626523bbbadc6b0ef85ee1b56b9e52d560405160405180910390a3505050565b815183511480156122a1575080518351145b6122e0576040517f08c379a00000000000000000000000000000000000000000000000000000000081526004016122d790614265565b60405180910390fd5b60005b83518110156124b557600084828151811061230157612300613b35565b5b602002602001015190506000805490508110612352576040517f08c379a000000000000000000000000000000000000000000000000000000000815260040161234990613b15565b60405180910390fd5b600080828154811061236757612366613b35565b5b90600052602060002090600b020190503373ffffffffffffffffffffffffffffffffffffffff168160050160009054906101000a900473ffffffffffffffffffffffffffffffffffffffff1673ffffffffffffffffffffffffffffffffffffffff1614612409576040517f08c379a000000000000000000000000000000000000000000000000000000000815260040161240090613bb0565b60405180910390fd5b84838151811061241c5761241b613b35565b5b602002602001015181600a0190816124349190613ddc565b5083838151811061244857612447613b35565b5b60200260200101518160080190816124609190613ddc565b506124a0826040518060400160405280601881526020017f4d6f766564202f204368616e6765642043617465676f72790000000000000000815250612daa565b505080806124ad90613edd565b9150506122e3565b50505050565b60006003600086815260200190815260200160002060009054906101000a900460ff161561251e576040517f08c379a0000000000000000000000000000000000000000000000000000000008152600401612515906142d1565b60405180910390fd5b60008080549050905060006040518061016001604052808381526020018c81526020018b81526020018a81526020018981526020013373ffffffffffffffffffffffffffffffffffffffff1681526020014281526020018881526020018781526020018681526020018581525090806001815401808255809150506001900390600052602060002090600b02016000909190919091506000820151816000015560208201518160010190816125d39190613ddc565b5060408201518160020190816125e99190613ddc565b506060820151816003015560808201518160040190816126099190613ddc565b5060a08201518160050160006101000a81548173ffffffffffffffffffffffffffffffffffffffff021916908373ffffffffffffffffffffffffffffffffffffffff16021790555060c0820151816006015560e0820151816007015561010082015181600801908161267b9190613ddc565b50610120820151816009015561014082015181600a01908161269d9190613ddc565b50505060016002600083815260200190815260200160002060003373ffffffffffffffffffffffffffffffffffffffff1673ffffffffffffffffffffffffffffffffffffffff16815260200190815260200160002060006101000a81548160ff02191690831515021790555060016003600088815260200190815260200160002060006101000a81548160ff021916908315150217905550612774816040518060400160405280600881526020017f55706c6f61646564000000000000000000000000000000000000000000000000815250612daa565b3373ffffffffffffffffffffffffffffffffffffffff16817fb14038102e59daf78bf92447f70c24fe731c7fded3193654a05946eec6bc398d8b8d6040516127bd9291906142f1565b60405180910390a38091505098975050505050505050565b600080549050821061281c576040517f08c379a000000000000000000000000000000000000000000000000000000000815260040161281390613b15565b60405180910390fd5b600080838154811061283157612830613b35565b5b90600052602060002090600b020190503373ffffffffffffffffffffffffffffffffffffffff168160050160009054906101000a900473ffffffffffffffffffffffffffffffffffffffff1673ffffffffffffffffffffffffffffffffffffffff16146128d3576040517f08c379a00000000000000000000000000000000000000000000000000000000081526004016128ca90613bb0565b60405180910390fd5b81816009018190555061291b836040518060400160405280600d81526020017f5072696365204368616e67656400000000000000000000000000000000000000815250612daa565b827f8aa4fa52648a6d15edce8a179c792c86f3719d0cc3c572cf90f91948f0f2cb688360405161294b91906134a9565b60405180910390a2505050565b60606000808054905090506000805b82811015612a3c57600080828154811061298457612983613b35565b5b90600052602060002090600b020160090154118015612a155750600073ffffffffffffffffffffffffffffffffffffffff16600082815481106129ca576129c9613b35565b5b90600052602060002090600b020160050160009054906101000a900473ffffffffffffffffffffffffffffffffffffffff1673ffffffffffffffffffffffffffffffffffffffff1614155b15612a29578180612a2590613edd565b9250505b8080612a3490613edd565b915050612967565b5060008167ffffffffffffffff811115612a5957612a58612ee9565b5b604051908082528060200260200182016040528015612a875781602001602082028036833780820191505090505b5090506000805b84811015612ba8576000808281548110612aab57612aaa613b35565b5b90600052602060002090600b020160090154118015612b3c5750600073ffffffffffffffffffffffffffffffffffffffff1660008281548110612af157612af0613b35565b5b90600052602060002090600b020160050160009054906101000a900473ffffffffffffffffffffffffffffffffffffffff1673ffffffffffffffffffffffffffffffffffffffff1614155b15612b955760008181548110612b5557612b54613b35565b5b90600052602060002090600b020160000154838381518110612b7a57612b79613b35565b5b6020026020010181815250508180612b9190613edd565b9250505b8080612ba090613edd565b915050612a8e565b508194505050505090565b60606000808054905090506000805b82811015612c64578473ffffffffffffffffffffffffffffffffffffffff1660008281548110612bf557612bf4613b35565b5b90600052602060002090600b020160050160009054906101000a900473ffffffffffffffffffffffffffffffffffffffff1673ffffffffffffffffffffffffffffffffffffffff1603612c51578180612c4d90613edd565b9250505b8080612c5c90613edd565b915050612bc2565b5060008167ffffffffffffffff811115612c8157612c80612ee9565b5b604051908082528060200260200182016040528015612caf5781602001602082028036833780820191505090505b5090506000805b84811015612d9d578673ffffffffffffffffffffffffffffffffffffffff1660008281548110612ce957612ce8613b35565b5b90600052602060002090600b020160050160009054906101000a900473ffffffffffffffffffffffffffffffffffffffff1673ffffffffffffffffffffffffffffffffffffffff1603612d8a5760008181548110612d4a57612d49613b35565b5b90600052602060002090600b020160000154838381518110612d6f57612d6e613b35565b5b6020026020010181815250508180612d8690613edd565b9250505b8080612d9590613edd565b915050612cb6565b5081945050505050919050565b6001600083815260200190815260200160002060405180606001604052803373ffffffffffffffffffffffffffffffffffffffff16815260200183815260200142815250908060018154018082558091505060019003906000526020600020906003020160009091909190915060008201518160000160006101000a81548173ffffffffffffffffffffffffffffffffffffffff021916908373ffffffffffffffffffffffffffffffffffffffff1602179055506020820151816001019081612e739190613ddc565b506040820151816002015550505050565b6000604051905090565b600080fd5b600080fd5b6000819050919050565b612eab81612e98565b8114612eb657600080fd5b50565b600081359050612ec881612ea2565b92915050565b600080fd5b600080fd5b6000601f19601f8301169050919050565b7f4e487b7100000000000000000000000000000000000000000000000000000000600052604160045260246000fd5b612f2182612ed8565b810181811067ffffffffffffffff82111715612f4057612f3f612ee9565b5b80604052505050565b6000612f53612e84565b9050612f5f8282612f18565b919050565b600067ffffffffffffffff821115612f7f57612f7e612ee9565b5b612f8882612ed8565b9050602081019050919050565b82818337600083830152505050565b6000612fb7612fb284612f64565b612f49565b905082815260208101848484011115612fd357612fd2612ed3565b5b612fde848285612f95565b509392505050565b600082601f830112612ffb57612ffa612ece565b5b813561300b848260208601612fa4565b91505092915050565b6000806040838503121561302b5761302a612e8e565b5b600061303985828601612eb9565b925050602083013567ffffffffffffffff81111561305a57613059612e93565b5b61306685828601612fe6565b9150509250929050565b600073ffffffffffffffffffffffffffffffffffffffff82169050919050565b600061309b82613070565b9050919050565b6130ab81613090565b81146130b657600080fd5b50565b6000813590506130c8816130a2565b92915050565b6000602082840312156130e4576130e3612e8e565b5b60006130f2848285016130b9565b91505092915050565b600081519050919050565b600082825260208201905092915050565b6000819050602082019050919050565b61313081612e98565b82525050565b60006131428383613127565b60208301905092915050565b6000602082019050919050565b6000613166826130fb565b6131708185613106565b935061317b83613117565b8060005b838110156131ac5781516131938882613136565b975061319e8361314e565b92505060018101905061317f565b5085935050505092915050565b600060208201905081810360008301526131d3818461315b565b905092915050565b6000602082840312156131f1576131f0612e8e565b5b60006131ff84828501612eb9565b91505092915050565b61321181612e98565b82525050565b600081519050919050565b600082825260208201905092915050565b60005b83811015613251578082015181840152602081019050613236565b60008484015250505050565b600061326882613217565b6132728185613222565b9350613282818560208601613233565b61328b81612ed8565b840191505092915050565b61329f81613090565b82525050565b60008115159050919050565b6132ba816132a5565b82525050565b6000819050919050565b6132d3816132c0565b82525050565b6000610180820190506132ef600083018f613208565b8181036020830152613301818e61325d565b90508181036040830152613315818d61325d565b9050613324606083018c613208565b8181036080830152613336818b61325d565b905061334560a083018a613296565b61335260c0830189613208565b61335f60e08301886132b1565b61336d6101008301876132ca565b818103610120830152613380818661325d565b9050613390610140830185613208565b8181036101608301526133a3818461325d565b90509d9c50505050505050505050505050565b600080604083850312156133cd576133cc612e8e565b5b60006133db85828601612eb9565b92505060206133ec858286016130b9565b9150509250929050565b6133ff816132c0565b811461340a57600080fd5b50565b60008135905061341c816133f6565b92915050565b60006020828403121561343857613437612e8e565b5b60006134468482850161340d565b91505092915050565b600060a08201905061346460008301886132b1565b6134716020830187613208565b61347e6040830186613296565b8181036060830152613490818561325d565b905061349f6080830184613208565b9695505050505050565b60006020820190506134be6000830184613208565b92915050565b6000806000606084860312156134dd576134dc612e8e565b5b60006134eb86828701612eb9565b935050602084013567ffffffffffffffff81111561350c5761350b612e93565b5b61351886828701612fe6565b925050604084013567ffffffffffffffff81111561353957613538612e93565b5b61354586828701612fe6565b9150509250925092565b600060208201905061356460008301846132b1565b92915050565b600081519050919050565b600082825260208201905092915050565b6000819050602082019050919050565b61359f81613090565b82525050565b600082825260208201905092915050565b60006135c182613217565b6135cb81856135a5565b93506135db818560208601613233565b6135e481612ed8565b840191505092915050565b60006060830160008301516136076000860182613596565b506020830151848203602086015261361f82826135b6565b91505060408301516136346040860182613127565b508091505092915050565b600061364b83836135ef565b905092915050565b6000602082019050919050565b600061366b8261356a565b6136758185613575565b93508360208202850161368785613586565b8060005b858110156136c357848403895281516136a4858261363f565b94506136af83613653565b925060208a0199505060018101905061368b565b50829750879550505050505092915050565b600060208201905081810360008301526136ef8184613660565b905092915050565b600067ffffffffffffffff82111561371257613711612ee9565b5b602082029050602081019050919050565b600080fd5b600061373b613736846136f7565b612f49565b9050808382526020820190506020840283018581111561375e5761375d613723565b5b835b8181101561378757806137738882612eb9565b845260208401935050602081019050613760565b5050509392505050565b600082601f8301126137a6576137a5612ece565b5b81356137b6848260208601613728565b91505092915050565b600067ffffffffffffffff8211156137da576137d9612ee9565b5b602082029050602081019050919050565b60006137fe6137f9846137bf565b612f49565b9050808382526020820190506020840283018581111561382157613820613723565b5b835b8181101561386857803567ffffffffffffffff81111561384657613845612ece565b5b8086016138538982612fe6565b85526020850194505050602081019050613823565b5050509392505050565b600082601f83011261388757613886612ece565b5b81356138978482602086016137eb565b91505092915050565b6000806000606084860312156138b9576138b8612e8e565b5b600084013567ffffffffffffffff8111156138d7576138d6612e93565b5b6138e386828701613791565b935050602084013567ffffffffffffffff81111561390457613903612e93565b5b61391086828701613872565b925050604084013567ffffffffffffffff81111561393157613930612e93565b5b61393d86828701613872565b9150509250925092565b600080600080600080600080610100898b03121561396857613967612e8e565b5b600089013567ffffffffffffffff81111561398657613985612e93565b5b6139928b828c01612fe6565b985050602089013567ffffffffffffffff8111156139b3576139b2612e93565b5b6139bf8b828c01612fe6565b97505060406139d08b828c01612eb9565b965050606089013567ffffffffffffffff8111156139f1576139f0612e93565b5b6139fd8b828c01612fe6565b9550506080613a0e8b828c0161340d565b94505060a089013567ffffffffffffffff811115613a2f57613a2e612e93565b5b613a3b8b828c01612fe6565b93505060c0613a4c8b828c01612eb9565b92505060e089013567ffffffffffffffff811115613a6d57613a6c612e93565b5b613a798b828c01612fe6565b9150509295985092959890939650565b60008060408385031215613aa057613a9f612e8e565b5b6000613aae85828601612eb9565b9250506020613abf85828601612eb9565b9150509250929050565b7f496e76616c696420696400000000000000000000000000000000000000000000600082015250565b6000613aff600a83613222565b9150613b0a82613ac9565b602082019050919050565b60006020820190508181036000830152613b2e81613af2565b9050919050565b7f4e487b7100000000000000000000000000000000000000000000000000000000600052603260045260246000fd5b7f4e6f74206f776e65720000000000000000000000000000000000000000000000600082015250565b6000613b9a600983613222565b9150613ba582613b64565b602082019050919050565b60006020820190508181036000830152613bc981613b8d565b9050919050565b7f4e487b7100000000000000000000000000000000000000000000000000000000600052602260045260246000fd5b60006002820490506001821680613c1757607f821691505b602082108103613c2a57613c29613bd0565b5b50919050565b60008190508160005260206000209050919050565b60006020601f8301049050919050565b600082821b905092915050565b600060088302613c927fffffffffffffffffffffffffffffffffffffffffffffffffffffffffffffffff82613c55565b613c9c8683613c55565b95508019841693508086168417925050509392505050565b6000819050919050565b6000613cd9613cd4613ccf84612e98565b613cb4565b612e98565b9050919050565b6000819050919050565b613cf383613cbe565b613d07613cff82613ce0565b848454613c62565b825550505050565b600090565b613d1c613d0f565b613d27818484613cea565b505050565b5b81811015613d4b57613d40600082613d14565b600181019050613d2d565b5050565b601f821115613d9057613d6181613c30565b613d6a84613c45565b81016020851015613d79578190505b613d8d613d8585613c45565b830182613d2c565b50505b505050565b600082821c905092915050565b6000613db360001984600802613d95565b1980831691505092915050565b6000613dcc8383613da2565b9150826002028217905092915050565b613de582613217565b67ffffffffffffffff811115613dfe57613dfd612ee9565b5b613e088254613bff565b613e13828285613d4f565b600060209050601f831160018114613e465760008415613e34578287015190505b613e3e8582613dc0565b865550613ea6565b601f198416613e5486613c30565b60005b82811015613e7c57848901518255600182019150602085019450602081019050613e57565b86831015613e995784890151613e95601f891682613da2565b8355505b6001600288020188555050505b505050505050565b7f4e487b7100000000000000000000000000000000000000000000000000000000600052601160045260246000fd5b6000613ee882612e98565b91507fffffffffffffffffffffffffffffffffffffffffffffffffffffffffffffffff8203613f1a57613f19613eae565b5b600182019050919050565b7f46696c652064656c657465640000000000000000000000000000000000000000600082015250565b6000613f5b600c83613222565b9150613f6682613f25565b602082019050919050565b60006020820190508181036000830152613f8a81613f4e565b9050919050565b7f4e6f7420666f722073616c650000000000000000000000000000000000000000600082015250565b6000613fc7600c83613222565b9150613fd282613f91565b602082019050919050565b60006020820190508181036000830152613ff681613fba565b9050919050565b7f496e73756666696369656e74207061796d656e74000000000000000000000000600082015250565b6000614033601483613222565b915061403e82613ffd565b602082019050919050565b6000602082019050818103600083015261406281614026565b9050919050565b7f4f776e65722063616e6e6f742062757900000000000000000000000000000000600082015250565b600061409f601083613222565b91506140aa82614069565b602082019050919050565b600060208201905081810360008301526140ce81614092565b9050919050565b7f496e76616c696420616464726573730000000000000000000000000000000000600082015250565b600061410b600f83613222565b9150614116826140d5565b602082019050919050565b6000602082019050818103600083015261413a816140fe565b9050919050565b7f496e76616c696420726563697069656e74000000000000000000000000000000600082015250565b6000614177601183613222565b915061418282614141565b602082019050919050565b600060208201905081810360008301526141a68161416a565b9050919050565b7f416c72656164792072656d6f7665640000000000000000000000000000000000600082015250565b60006141e3600f83613222565b91506141ee826141ad565b602082019050919050565b60006020820190508181036000830152614212816141d6565b9050919050565b7f4d69736d61746368656420617272617973000000000000000000000000000000600082015250565b600061424f601183613222565b915061425a82614219565b602082019050919050565b6000602082019050818103600083015261427e81614242565b9050919050565b7f46696c6520616c72656164792075706c6f6164656420627920736f6d656f6e65600082015250565b60006142bb602083613222565b91506142c682614285565b602082019050919050565b600060208201905081810360008301526142ea816142ae565b9050919050565b6000604082019050818103600083015261430b818561325d565b9050818103602083015261431f818461325d565b9050939250505056fea264697066735822122033610d5363f86614b8d08ee0a3b6481d56f1a74b2d624acf9cf41bd69a920ca764736f6c63430008110033",
  "linkReferences": {},
  "deployedLinkReferences": {}
}