{
  "_format": "hh-sol-artifact-1",
  "contractName": "Drive",
  "sourceName": "contracts/Drive.sol",
  "abi": [
    {
      "inputs": [],
      "stateMutability": "nonpayable",
      "type": "constructor"
    },
    {
      "anonymous": false,
      "inputs": [
        {
          "indexed": true,
          "internalType": "uint256",
          "name": "id",
          "type": "uint256"
        },
        {
          "indexed": true,
          "internalType": "address",
          "name": "buyer",
          "type": "address"
        },
        {
          "indexed": false,
          "internalType": "uint256",
          "name": "price",
          "type": "uint256"
        }
      ],
      "name": "AccessBought",
      "type": "event"
    },
    {
      "anonymous": false,
      "inputs": [
        {
          "indexed": true,
          "internalType": "uint256",
          "name": "id",
          "type": "uint256"
        },
        {
          "indexed": true,
          "internalType": "address",
          "name": "to",
          "type": "address"
        }
      ],
      "name": "AccessGranted",
      "type": "event"
    },
    {
      "anonymous": false,
      "inputs": [
        {
          "indexed": true,
          "internalType": "uint256",
          "name": "id",
          "type": "uint256"
        },
        {
          "indexed": true,
          "internalType": "address",
          "name": "to",
          "type": "address"
        }
      ],
      "name": "AccessRevoked",
      "type": "event"
    },
    {
      "anonymous": false,
      "inputs": [
        {
          "indexed": true,
          "internalType": "uint256",
          "name": "id",
          "type": "uint256"
        },
        {
          "indexed": true,
          "internalType": "address",
          "name": "owner",
          "type": "address"
        },
        {
          "indexed": false,
          "internalType": "string",
          "name": "cid",
          "type": "string"
        },
        {
          "indexed": false,
          "internalType": "string",
          "name": "name",
          "type": "string"
        }
      ],
      "name": "FileAdded",
      "type": "event"
    },
    {
      "anonymous": false,
      "inputs": [
        {
          "indexed": true,
          "internalType": "uint256",
          "name": "id",
          "type": "uint256"
        },
        {
          "indexed": true,
          "internalType": "address",
          "name": "owner",
          "type": "address"
        },
        {
          "indexed": false,
          "internalType": "string",
          "name": "newFolder",
          "type": "string"
        },
        {
          "indexed": false,
          "internalType": "string",
          "name": "newCategory",
          "type": "string"
        }
      ],
      "name": "FileMoved",
      "type": "event"
    },
    {
      "anonymous": false,
      "inputs": [
        {
          "indexed": true,
          "internalType": "uint256",
          "name": "id",
          "type": "uint256"
        },
        {
          "indexed": true,
          "internalType": "address",
          "name": "owner",
          "type": "address"
        }
      ],
      "name": "FileRemoved",
      "type": "event"
    },
    {
      "anonymous": false,
      "inputs": [
        {
          "indexed": true,
          "internalType": "uint256",
          "name": "id",
          "type": "uint256"
        },
        {
          "indexed": true,
          "internalType": "address",
          "name": "owner",
          "type": "address"
        },
        {
          "indexed": false,
          "internalType": "string",
          "name": "newName",
          "type": "string"
        }
      ],
      "name": "FileRenamed",
      "type": "event"
    },
    {
      "anonymous": false,
      "inputs": [
        {
          "indexed": true,
          "internalType": "uint256",
          "name": "id",
          "type": "uint256"
        },
        {
          "indexed": true,
          "internalType": "address",
          "name": "owner",
          "type": "address"
        }
      ],
      "name": "FileRestored",
      "type": "event"
    },
    {
      "anonymous": false,
      "inputs": [
        {
          "indexed": true,
          "internalType": "uint256",
          "name": "id",
          "type": "uint256"
        },
        {
          "indexed": true,
          "internalType": "address",
          "name": "user",
          "type": "address"
        },
        {
          "indexed": false,
          "internalType": "bool",
          "name": "isStarred",
          "type": "bool"
        }
      ],
      "name": "FileStarred",
      "type": "event"
    },
    {
      "anonymous": false,
      "inputs": [
        {
          "indexed": true,
          "internalType": "uint256",
          "name": "id",
          "type": "uint256"
        },
        {
          "indexed": true,
          "internalType": "address",
          "name": "from",
          "type": "address"
        },
        {
          "indexed": true,
          "internalType": "address",
          "name": "to",
          "type": "address"
        }
      ],
      "name": "FileTransferred",
      "type": "event"
    },
    {
      "anonymous": false,
      "inputs": [
        {
          "indexed": true,
          "internalType": "uint256",
          "name": "id",
          "type": "uint256"
        },
        {
          "indexed": true,
          "internalType": "address",
          "name": "owner",
          "type": "address"
        }
      ],
      "name": "FileTrashed",
      "type": "event"
    },
    {
      "anonymous": false,
      "inputs": [
        {
          "indexed": true,
          "internalType": "uint256",
          "name": "id",
          "type": "uint256"
        },
        {
          "indexed": false,
          "internalType": "uint256",
          "name": "newPrice",
          "type": "uint256"
        }
      ],
      "name": "PriceChanged",
      "type": "event"
    },
    {
      "anonymous": false,
      "inputs": [
        {
          "indexed": true,
          "internalType": "address",
          "name": "user",
          "type": "address"
        },
        {
          "indexed": false,
          "internalType": "uint8",
          "name": "tier",
          "type": "uint8"
        },
        {
          "indexed": false,
          "internalType": "uint256",
          "name": "storageBytes",
          "type": "uint256"
        }
      ],
      "name": "TierUpgraded",
      "type": "event"
    },
    {
      "anonymous": false,
      "inputs": [
        {
          "indexed": true,
          "internalType": "address",
          "name": "user",
          "type": "address"
        },
        {
          "indexed": false,
          "internalType": "string",
          "name": "username",
          "type": "string"
        }
      ],
      "name": "UsernameRegistered",
      "type": "event"
    },
    {
      "anonymous": false,
      "inputs": [
        {
          "indexed": true,
          "internalType": "uint256",
          "name": "id",
          "type": "uint256"
        },
        {
          "indexed": true,
          "internalType": "address",
          "name": "requester",
          "type": "address"
        }
      ],
      "name": "ViewRequested",
      "type": "event"
    },
    {
      "inputs": [],
      "name": "FREE_FILE_LIMIT",
      "outputs": [
        {
          "internalType": "uint256",
          "name": "",
          "type": "uint256"
        }
      ],
      "stateMutability": "view",
      "type": "function"
    },
    {
      "inputs": [],
      "name": "FREE_STORAGE",
      "outputs": [
        {
          "internalType": "uint256",
          "name": "",
          "type": "uint256"
        }
      ],
      "stateMutability": "view",
      "type": "function"
    },
    {
      "inputs": [],
      "name": "PREMIUM_FILE_LIMIT",
      "outputs": [
        {
          "internalType": "uint256",
          "name": "",
          "type": "uint256"
        }
      ],
      "stateMutability": "view",
      "type": "function"
    },
    {
      "inputs": [],
      "name": "PREMIUM_STORAGE",
      "outputs": [
        {
          "internalType": "uint256",
          "name": "",
          "type": "uint256"
        }
      ],
      "stateMutability": "view",
      "type": "function"
    },
    {
      "inputs": [],
      "name": "PRO_FILE_LIMIT",
      "outputs": [
        {
          "internalType": "uint256",
          "name": "",
          "type": "uint256"
        }
      ],
      "stateMutability": "view",
      "type": "function"
    },
    {
      "inputs": [],
      "name": "PRO_STORAGE",
      "outputs": [
        {
          "internalType": "uint256",
          "name": "",
          "type": "uint256"
        }
      ],
      "stateMutability": "view",
      "type": "function"
    },
    {
      "inputs": [
        {
          "internalType": "string",
          "name": "name",
          "type": "string"
        },
        {
          "internalType": "string",
          "name": "cid",
          "type": "string"
        },
        {
          "internalType": "uint256",
          "name": "size",
          "type": "uint256"
        },
        {
          "internalType": "string",
          "name": "mime",
          "type": "string"
        },
        {
          "internalType": "bytes32",
          "name": "contentHash",
          "type": "bytes32"
        },
        {
          "internalType": "string",
          "name": "category",
          "type": "string"
        },
        {
          "internalType": "uint256",
          "name": "price",
          "type": "uint256"
        },
        {
          "internalType": "string",
          "name": "folder",
          "type": "string"
        }
      ],
      "name": "addFile",
      "outputs": [
        {
          "internalType": "uint256",
          "name": "",
          "type": "uint256"
        }
      ],
      "stateMutability": "nonpayable",
      "type": "function"
    },
    {
      "inputs": [
        {
          "internalType": "uint256",
          "name": "id",
          "type": "uint256"
        },
        {
          "internalType": "address",
          "name": "requester",
          "type": "address"
        }
      ],
      "name": "approveAccessRequest",
      "outputs": [],
      "stateMutability": "nonpayable",
      "type": "function"
    },
    {
      "inputs": [
        {
          "internalType": "string[]",
          "name": "names",
          "type": "string[]"
        },
        {
          "internalType": "string[]",
          "name": "cids",
          "type": "string[]"
        },
        {
          "internalType": "uint256[]",
          "name": "sizes",
          "type": "uint256[]"
        },
        {
          "internalType": "string[]",
          "name": "mimes",
          "type": "string[]"
        },
        {
          "internalType": "bytes32[]",
          "name": "contentHashes",
          "type": "bytes32[]"
        },
        {
          "internalType": "string[]",
          "name": "categories",
          "type": "string[]"
        },
        {
          "internalType": "uint256[]",
          "name": "prices",
          "type": "uint256[]"
        },
        {
          "internalType": "string[]",
          "name": "folders",
          "type": "string[]"
        }
      ],
      "name": "batchAddFiles",
      "outputs": [
        {
          "internalType": "uint256[]",
          "name": "",
          "type": "uint256[]"
        }
      ],
      "stateMutability": "nonpayable",
      "type": "function"
    },
    {
      "inputs": [
        {
          "internalType": "uint256[]",
          "name": "ids",
          "type": "uint256[]"
        },
        {
          "internalType": "address",
          "name": "to",
          "type": "address"
        }
      ],
      "name": "batchGrantAccess",
      "outputs": [],
      "stateMutability": "nonpayable",
      "type": "function"
    },
    {
      "inputs": [
        {
          "internalType": "uint256[]",
          "name": "ids",
          "type": "uint256[]"
        },
        {
          "internalType": "string[]",
          "name": "newFolders",
          "type": "string[]"
        },
        {
          "internalType": "string[]",
          "name": "newCategories",
          "type": "string[]"
        }
      ],
      "name": "batchMoveFiles",
      "outputs": [],
      "stateMutability": "nonpayable",
      "type": "function"
    },
    {
      "inputs": [
        {
          "internalType": "uint256[]",
          "name": "ids",
          "type": "uint256[]"
        }
      ],
      "name": "batchRemoveFiles",
      "outputs": [],
      "stateMutability": "nonpayable",
      "type": "function"
    },
    {
      "inputs": [
        {
          "internalType": "uint256[]",
          "name": "ids",
          "type": "uint256[]"
        },
        {
          "internalType": "address",
          "name": "user",
          "type": "address"
        }
      ],
      "name": "batchRevokeAccess",
      "outputs": [],
      "stateMutability": "nonpayable",
      "type": "function"
    },
    {
      "inputs": [
        {
          "internalType": "uint256[]",
          "name": "ids",
          "type": "uint256[]"
        },
        {
          "internalType": "address",
          "name": "to",
          "type": "address"
        }
      ],
      "name": "batchTransferFiles",
      "outputs": [],
      "stateMutability": "nonpayable",
      "type": "function"
    },
    {
      "inputs": [
        {
          "internalType": "uint256[]",
          "name": "ids",
          "type": "uint256[]"
        }
      ],
      "name": "batchTrashFiles",
      "outputs": [],
      "stateMutability": "nonpayable",
      "type": "function"
    },
    {
      "inputs": [
        {
          "internalType": "uint256",
          "name": "id",
          "type": "uint256"
        }
      ],
      "name": "buyAccess",
      "outputs": [],
      "stateMutability": "payable",
      "type": "function"
    },
    {
      "inputs": [
        {
          "internalType": "string",
          "name": "newUsername",
          "type": "string"
        }
      ],
      "name": "changeUsername",
      "outputs": [],
      "stateMutability": "nonpayable",
      "type": "function"
    },
    {
      "inputs": [],
      "name": "contractOwner",
      "outputs": [
        {
          "internalType": "address",
          "name": "",
          "type": "address"
        }
      ],
      "stateMutability": "view",
      "type": "function"
    },
    {
      "inputs": [
        {
          "internalType": "address",
          "name": "",
          "type": "address"
        }
      ],
      "name": "customStorageGB",
      "outputs": [
        {
          "internalType": "uint256",
          "name": "",
          "type": "uint256"
        }
      ],
      "stateMutability": "view",
      "type": "function"
    },
    {
      "inputs": [
        {
          "internalType": "uint256",
          "name": "id",
          "type": "uint256"
        },
        {
          "internalType": "address",
          "name": "requester",
          "type": "address"
        }
      ],
      "name": "denyAccessRequest",
      "outputs": [],
      "stateMutability": "nonpayable",
      "type": "function"
    },
    {
      "inputs": [
        {
          "internalType": "uint256",
          "name": "id",
          "type": "uint256"
        },
        {
          "internalType": "string",
          "name": "newName",
          "type": "string"
        }
      ],
      "name": "editName",
      "outputs": [],
      "stateMutability": "nonpayable",
      "type": "function"
    },
    {
      "inputs": [
        {
          "internalType": "address",
          "name": "owner",
          "type": "address"
        }
      ],
      "name": "getBinnedFiles",
      "outputs": [
        {
          "internalType": "uint256[]",
          "name": "",
          "type": "uint256[]"
        }
      ],
      "stateMutability": "view",
      "type": "function"
    },
    {
      "inputs": [
        {
          "internalType": "uint256",
          "name": "id",
          "type": "uint256"
        }
      ],
      "name": "getFile",
      "outputs": [
        {
          "internalType": "uint256",
          "name": "_id",
          "type": "uint256"
        },
        {
          "internalType": "string",
          "name": "name",
          "type": "string"
        },
        {
          "internalType": "string",
          "name": "cid",
          "type": "string"
        },
        {
          "internalType": "uint256",
          "name": "size",
          "type": "uint256"
        },
        {
          "internalType": "string",
          "name": "mime",
          "type": "string"
        },
        {
          "internalType": "address",
          "name": "owner",
          "type": "address"
        },
        {
          "internalType": "uint256",
          "name": "timestamp",
          "type": "uint256"
        },
        {
          "internalType": "bool",
          "name": "deleted",
          "type": "bool"
        },
        {
          "internalType": "bytes32",
          "name": "contentHash",
          "type": "bytes32"
        },
        {
          "internalType": "string",
          "name": "category",
          "type": "string"
        },
        {
          "internalType": "uint256",
          "name": "price",
          "type": "uint256"
        },
        {
          "internalType": "string",
          "name": "folder",
          "type": "string"
        }
      ],
      "stateMutability": "view",
      "type": "function"
    },
    {
      "inputs": [
        {
          "internalType": "address",
          "name": "user",
          "type": "address"
        }
      ],
      "name": "getFileCountLimit",
      "outputs": [
        {
          "internalType": "uint256",
          "name": "",
          "type": "uint256"
        }
      ],
      "stateMutability": "view",
      "type": "function"
    },
    {
      "inputs": [
        {
          "internalType": "address",
          "name": "owner",
          "type": "address"
        }
      ],
      "name": "getFilesByOwner",
      "outputs": [
        {
          "internalType": "uint256[]",
          "name": "",
          "type": "uint256[]"
        }
      ],
      "stateMutability": "view",
      "type": "function"
    },
    {
      "inputs": [
        {
          "internalType": "uint256",
          "name": "id",
          "type": "uint256"
        }
      ],
      "name": "getHistory",
      "outputs": [
        {
          "components": [
            {
              "internalType": "address",
              "name": "actor",
              "type": "address"
            },
            {
              "internalType": "string",
              "name": "action",
              "type": "string"
            },
            {
              "internalType": "uint256",
              "name": "timestamp",
              "type": "uint256"
            }
          ],
          "internalType": "struct Drive.HistoryLog[]",
          "name": "",
          "type": "tuple[]"
        }
      ],
      "stateMutability": "view",
      "type": "function"
    },
    {
      "inputs": [],
      "name": "getMarketFiles",
      "outputs": [
        {
          "internalType": "uint256[]",
          "name": "",
          "type": "uint256[]"
        }
      ],
      "stateMutability": "view",
      "type": "function"
    },
    {
      "inputs": [
        {
          "internalType": "address",
          "name": "user",
          "type": "address"
        }
      ],
      "name": "getSharedFiles",
      "outputs": [
        {
          "internalType": "uint256[]",
          "name": "",
          "type": "uint256[]"
        }
      ],
      "stateMutability": "view",
      "type": "function"
    },
    {
      "inputs": [
        {
          "internalType": "address",
          "name": "user",
          "type": "address"
        }
      ],
      "name": "getStarredFiles",
      "outputs": [
        {
          "internalType": "uint256[]",
          "name": "",
          "type": "uint256[]"
        }
      ],
      "stateMutability": "view",
      "type": "function"
    },
    {
      "inputs": [
        {
          "internalType": "address",
          "name": "user",
          "type": "address"
        }
      ],
      "name": "getStorageLimitBytes",
      "outputs": [
        {
          "internalType": "uint256",
          "name": "",
          "type": "uint256"
        }
      ],
      "stateMutability": "view",
      "type": "function"
    },
    {
      "inputs": [
        {
          "internalType": "address",
          "name": "user",
          "type": "address"
        }
      ],
      "name": "getUsername",
      "outputs": [
        {
          "internalType": "string",
          "name": "",
          "type": "string"
        }
      ],
      "stateMutability": "view",
      "type": "function"
    },
    {
      "inputs": [
        {
          "internalType": "uint256",
          "name": "id",
          "type": "uint256"
        },
        {
          "internalType": "address",
          "name": "to",
          "type": "address"
        }
      ],
      "name": "grantAccess",
      "outputs": [],
      "stateMutability": "nonpayable",
      "type": "function"
    },
    {
      "inputs": [
        {
          "internalType": "uint256",
          "name": "id",
          "type": "uint256"
        },
        {
          "internalType": "address",
          "name": "user",
          "type": "address"
        }
      ],
      "name": "hasAccess",
      "outputs": [
        {
          "internalType": "bool",
          "name": "",
          "type": "bool"
        }
      ],
      "stateMutability": "view",
      "type": "function"
    },
    {
      "inputs": [
        {
          "internalType": "bytes32",
          "name": "",
          "type": "bytes32"
        }
      ],
      "name": "hashExists",
      "outputs": [
        {
          "internalType": "bool",
          "name": "",
          "type": "bool"
        }
      ],
      "stateMutability": "view",
      "type": "function"
    },
    {
      "inputs": [
        {
          "internalType": "uint256",
          "name": "id",
          "type": "uint256"
        },
        {
          "internalType": "string",
          "name": "newFolder",
          "type": "string"
        },
        {
          "internalType": "string",
          "name": "newCategory",
          "type": "string"
        }
      ],
      "name": "moveFile",
      "outputs": [],
      "stateMutability": "nonpayable",
      "type": "function"
    },
    {
      "inputs": [],
      "name": "premiumPrice",
      "outputs": [
        {
          "internalType": "uint256",
          "name": "",
          "type": "uint256"
        }
      ],
      "stateMutability": "view",
      "type": "function"
    },
    {
      "inputs": [],
      "name": "proPlusPerGB",
      "outputs": [
        {
          "internalType": "uint256",
          "name": "",
          "type": "uint256"
        }
      ],
      "stateMutability": "view",
      "type": "function"
    },
    {
      "inputs": [],
      "name": "proPrice",
      "outputs": [
        {
          "internalType": "uint256",
          "name": "",
          "type": "uint256"
        }
      ],
      "stateMutability": "view",
      "type": "function"
    },
    {
      "inputs": [
        {
          "internalType": "string",
          "name": "username",
          "type": "string"
        }
      ],
      "name": "registerUsername",
      "outputs": [],
      "stateMutability": "nonpayable",
      "type": "function"
    },
    {
      "inputs": [
        {
          "internalType": "uint256",
          "name": "id",
          "type": "uint256"
        }
      ],
      "name": "removeFile",
      "outputs": [],
      "stateMutability": "nonpayable",
      "type": "function"
    },
    {
      "inputs": [
        {
          "internalType": "uint256",
          "name": "id",
          "type": "uint256"
        }
      ],
      "name": "requestAccess",
      "outputs": [],
      "stateMutability": "nonpayable",
      "type": "function"
    },
    {
      "inputs": [
        {
          "internalType": "uint256",
          "name": "id",
          "type": "uint256"
        }
      ],
      "name": "restoreFile",
      "outputs": [],
      "stateMutability": "nonpayable",
      "type": "function"
    },
    {
      "inputs": [
        {
          "internalType": "uint256",
          "name": "id",
          "type": "uint256"
        },
        {
          "internalType": "address",
          "name": "user",
          "type": "address"
        }
      ],
      "name": "revokeAccess",
      "outputs": [],
      "stateMutability": "nonpayable",
      "type": "function"
    },
    {
      "inputs": [
        {
          "internalType": "uint256",
          "name": "id",
          "type": "uint256"
        },
        {
          "internalType": "uint256",
          "name": "newPrice",
          "type": "uint256"
        }
      ],
      "name": "setPrice",
      "outputs": [],
      "stateMutability": "nonpayable",
      "type": "function"
    },
    {
      "inputs": [
        {
          "internalType": "uint256",
          "name": "_premium",
          "type": "uint256"
        },
        {
          "internalType": "uint256",
          "name": "_pro",
          "type": "uint256"
        },
        {
          "internalType": "uint256",
          "name": "_proPlusPerGB",
          "type": "uint256"
        }
      ],
      "name": "setTierPrices",
      "outputs": [],
      "stateMutability": "nonpayable",
      "type": "function"
    },
    {
      "inputs": [
        {
          "internalType": "uint256",
          "name": "",
          "type": "uint256"
        },
        {
          "internalType": "address",
          "name": "",
          "type": "address"
        }
      ],
      "name": "starredFiles",
      "outputs": [
        {
          "internalType": "bool",
          "name": "",
          "type": "bool"
        }
      ],
      "stateMutability": "view",
      "type": "function"
    },
    {
      "inputs": [
        {
          "internalType": "address",
          "name": "",
          "type": "address"
        }
      ],
      "name": "storageTier",
      "outputs": [
        {
          "internalType": "uint8",
          "name": "",
          "type": "uint8"
        }
      ],
      "stateMutability": "view",
      "type": "function"
    },
    {
      "inputs": [
        {
          "internalType": "uint256",
          "name": "id",
          "type": "uint256"
        }
      ],
      "name": "toggleStar",
      "outputs": [],
      "stateMutability": "nonpayable",
      "type": "function"
    },
    {
      "inputs": [],
      "name": "totalFiles",
      "outputs": [
        {
          "internalType": "uint256",
          "name": "",
          "type": "uint256"
        }
      ],
      "stateMutability": "view",
      "type": "function"
    },
    {
      "inputs": [
        {
          "internalType": "uint256",
          "name": "id",
          "type": "uint256"
        },
        {
          "internalType": "address",
          "name": "to",
          "type": "address"
        }
      ],
      "name": "transferFile",
      "outputs": [],
      "stateMutability": "nonpayable",
      "type": "function"
    },
    {
      "inputs": [
        {
          "internalType": "uint256",
          "name": "id",
          "type": "uint256"
        }
      ],
      "name": "trashFile",
      "outputs": [],
      "stateMutability": "nonpayable",
      "type": "function"
    },
    {
      "inputs": [
        {
          "internalType": "uint8",
          "name": "tier",
          "type": "uint8"
        },
        {
          "internalType": "uint256",
          "name": "gbAmount",
          "type": "uint256"
        }
      ],
      "name": "upgradeTier",
      "outputs": [],
      "stateMutability": "payable",
      "type": "function"
    },
    {
      "inputs": [
        {
          "internalType": "string",
          "name": "",
          "type": "string"
        }
      ],
      "name": "usernameToAddress",
      "outputs": [
        {
          "internalType": "address",
          "name": "",
          "type": "address"
        }
      ],
      "stateMutability": "view",
      "type": "function"
    },
    {
      "inputs": [
        {
          "internalType": "address",
          "name": "",
          "type": "address"
        }
      ],
      "name": "usernames",
      "outputs": [
        {
          "internalType": "string",
          "name": "",
          "type": "string"
        }
      ],
      "stateMutability": "view",
      "type": "function"
    },
    {
      "inputs": [
        {
          "internalType": "bytes32",
          "name": "hash",
          "type": "bytes32"
        }
      ],
      "name": "verifyFileByHash",
      "outputs": [
        {
          "internalType": "bool",
          "name": "found",
          "type": "bool"
        },
        {
          "internalType": "uint256",
          "name": "id",
          "type": "uint256"
        },
        {
          "internalType": "address",
          "name": "owner",
          "type": "address"
        },
        {
          "internalType": "string",
          "name": "category",
          "type": "string"
        },
        {
          "internalType": "uint256",
          "name": "timestamp",
          "type": "uint256"
        }
      ],
      "stateMutability": "view",
      "type": "function"
    },
    {
      "inputs": [
        {
          "internalType": "uint256",
          "name": "",
          "type": "uint256"
        },
        {
          "internalType": "address",
          "name": "",
          "type": "address"
        }
      ],
      "name": "viewRequests",
      "outputs": [
        {
          "internalType": "bool",
          "name": "",
          "type": "bool"
        }
      ],
      "stateMutability": "view",
      "type": "function"
    },
    {
      "inputs": [],
      "name": "withdrawFunds",
      "outputs": [],
      "stateMutability": "nonpayable",
      "type": "function"
    }
  ],
  "bytecode": "0x6080806040523461005b57659184e72a0000600c5565d12f0c4c6000600d556552c396acb000600e55600780546001600160a01b031916736e123606a07d68abed7aa74f0ccff38b72e528f21790556155fb9081620000618239f35b600080fdfe6080604052600436101561001257600080fd5b60003560e01c8063055ecfaf1461469657806306cf5a3b146145b7578063096d798c146143f057806310a03313146143b657806312c7cc14146142d35780631d1524221461415b5780631fa2a6ae146141215780632350fdc014613ffa57806324600fc314613fb35780632ae46b0c14613f975780632bfda31314613e5257806330654e1314613e3457806336a9413414613c44578063395e6126146131ee57806350a1a2641461290857806353943aad1461287757806353b0e17d1461285957806365dd152c146127a5578063667523fb1461274c578063668319c7146126ff5780636ab14d43146126dc578063739395971461261657806377c846af146123a95780637916d6ce1461238b5780637a2250a91461236c5780637c65417c1461231f5780637fdc2cdc146121875780638b70834e146120705780638db9533714611fab57806392cf055714611f8d57806397f856da14611ed25780639926b03f14611e0f578063ab5885db14611d88578063b169c4c114611aa4578063b35fb99a1461183d578063b4428abc14611800578063b535b5c3146117cf578063baa70117146116e9578063c8691b2a146115b9578063ce43c03214610717578063ce606ee014611590578063ced1419814611560578063d162a37d14611488578063d4483e791461145d578063d9a5ec1b146113b5578063db7cc7d214611399578063e1d57d0114610fcd578063ee690d3f14610765578063ee91877c14610717578063f7d9757714610673578063f825f1431461060b578063f92c3825146105ec578063f99619f8146104df578063fbfe00a4146104c0578063fc08a7d714610392578063fcfc6623146103755763fe816a901461028f57600080fd5b34610370576020366003190112610370576004356102b0600054821061520a565b6102d16102bc82614dfc565b50600501546001600160a01b03163314614cc5565b80600052600560205260ff6040600020541661033a578060005260056020526040600020600160ff1982541617905561031161030b6152a2565b82614e96565b33907f5f486113eb2f75a0e6be2583f63fb0c468a5b5a3511dece64911a4124de2179d600080a3005b60405162461bcd60e51b815260206004820152600e60248201526d20b63932b0b23c9034b7103134b760911b6044820152606490fd5b600080fd5b346103705760003660031901126103705760206040516101f48152f35b3461037057602080600319360112610370576103ac61485a565b600080546001600160a01b0392831693929091805b83811061046457506103d2906151d8565b9260009160005b8481106103f257604051806103ee888261491d565b0390f35b6103fb81614dfc565b5087836005809301541614908161044c575b50610421575b61041c9061505d565b6103d9565b9261044461041c9161043286614dfc565b505461043e828a6151ae565b5261505d565b939050610413565b905081600052835260ff60406000205416158861040d565b61046d81614dfc565b508684600580930154161490816104a8575b50610493575b61048e9061505d565b6103c1565b906104a061048e9161505d565b919050610485565b905081600052855260ff60406000205416158761047f565b3461037057600036600319011261037057602060405163400000008152f35b34610370576000366003190112610370576000546000805b82811061058f5750610508906151d8565b906000805b82811061052257604051806103ee868261491d565b600961052d82614dfc565b500154151580610570575b61054b575b6105469061505d565b61050d565b906105686105469161055c84614dfc565b505461043e82886151ae565b91905061053d565b5061057a81614dfc565b50600501546001600160a01b03161515610538565b600961059a82614dfc565b5001541515806105cd575b6105b8575b6105b39061505d565b6104f7565b906105c56105b39161505d565b9190506105aa565b506105d781614dfc565b50600501546001600160a01b031615156105a5565b34610370576000366003190112610370576020604051630fa000008152f35b34610370576020366003190112610370576004356001600160401b0381116103705761063d60209136906004016148c7565b816106516040519283815193849201614958565b600990820190815281900382019020546040516001600160a01b039091168152f35b34610370576040366003190112610370576004357f8aa4fa52648a6d15edce8a179c792c86f3719d0cc3c572cf90f91948f0f2cb6860206024356106ba600054851061520a565b8060096106c686614dfc565b506106de60018060a01b036005830154163314614cc5565b015561070e6040516106ef816147a9565b600d81526c141c9a58d94810da185b99d959609a1b8482015285614e96565b604051908152a2005b34610370576020366003190112610370576001600160a01b0361073861485a565b1660005260086020526103ee6107516040600020614a5a565b60405191829160208352602083019061497b565b3461037057610100366003190112610370576004356001600160401b038111610370576107969036906004016148c7565b6024356001600160401b038111610370576107b59036906004016148c7565b6064356001600160401b038111610370576107d49036906004016148c7565b9060a4356001600160401b038111610370576107f49036906004016148c7565b9160e4356001600160401b038111610370576108149036906004016148c7565b608435600052600360205261083160ff6040600020541615614cfd565b6108586108486044356108433361506c565b614d48565b61085133614b00565b1015614d6b565b610873610864336150f6565b61086d33614bbd565b11614db0565b600054936040519261088484614772565b858452866020850152846040850152604435606085015260808401523360a08401524260c084015260843560e084015261010083015260c435610120830152610140820152600160401b831015610c6b57600183016000556108e583614dfc565b919091610fb7578051825560208101518051906001600160401b038211610c6b5781906109156001860154614a20565b601f8111610f64575b50602090601f8311600114610ef257600092610ee7575b50508160011b916000199060031b1c19161760018301555b60408101518051906001600160401b038211610c6b5781906109726002860154614a20565b601f8111610e94575b50602090601f8311600114610e2257600092610e17575b50508160011b916000199060031b1c19161760028301555b6060810151600383015560808101518051906001600160401b038211610c6b5781906109d96004860154614a20565b601f8111610dc4575b50602090601f8311600114610d5257600092610d47575b50508160011b916000199060031b1c19161760048301555b6005820160018060a01b0360a0830151166001600160601b0360a01b82541617905560c0810151600683015560e081015160078301556101008101518051906001600160401b038211610c6b57610a6b6008850154614a20565b601f8111610d00575b50602090601f8311600114610c8c5761014093929160009183610c81575b50508160011b916000199060031b1c19161760088401555b610120810151600984015501518051906001600160401b038211610c6b57610ad5600a840154614a20565b601f8111610c20575b50916020959185938790601f8311600114610b9d57826000805160206155868339815191529593610b879593600a93600092610b92575b50508160011b916000199060031b1c1916179101555b83600052600287526040600020336000528752604060002060ff1990600182825416179055608435600052600388526001604060002091825416179055610b79610b73614e4a565b85614e96565b604051918291339683614e6e565b0390a3604051908152f35b015190508b80610b15565b90601f19831691600a8501600052896000209260005b818110610c06575093610b879593600a93600193836000805160206155868339815191529a9810610bed575b505050811b01910155610b2b565b015160001960f88460031b161c191690558b8080610bdf565b8284015185558a9850600190940193928b01928b01610bb3565b600a84016000526020600020601f840160051c81019160208510610c61575b601f0160051c01905b818110610c555750610ade565b60008155600101610c48565b9091508190610c3f565b634e487b7160e01b600052604160045260246000fd5b015190508880610a92565b906008850160005260206000209160005b601f1985168110610ce857509183916001936101409695601f19811610610ccf575b505050811b016008840155610aaa565b015160001960f88460031b161c19169055888080610cbf565b91926020600181928685015181550194019201610c9d565b600885016000526020600020601f840160051c810160208510610d40575b601f830160051c82018110610d34575050610a74565b60008155600101610d1e565b5080610d1e565b0151905087806109f9565b9250600485016000526020600020906000935b601f1984168510610da9576001945083601f19811610610d90575b505050811b016004830155610a11565b015160001960f88460031b161c19169055878080610d80565b81810151835560209485019460019093019290910190610d65565b909150600485016000526020600020601f840160051c810160208510610e10575b90849392915b601f830160051c82018110610e015750506109e2565b60008155859450600101610deb565b5080610de5565b015190508780610992565b9250600285016000526020600020906000935b601f1984168510610e79576001945083601f19811610610e60575b505050811b0160028301556109aa565b015160001960f88460031b161c19169055878080610e50565b81810151835560209485019460019093019290910190610e35565b909150600285016000526020600020601f840160051c810160208510610ee0575b90849392915b601f830160051c82018110610ed157505061097b565b60008155859450600101610ebb565b5080610eb5565b015190508780610935565b9250600185016000526020600020906000935b601f1984168510610f49576001945083601f19811610610f30575b505050811b01600183015561094d565b015160001960f88460031b161c19169055878080610f20565b81810151835560209485019460019093019290910190610f05565b909150600185016000526020600020601f840160051c810160208510610fb0575b90849392915b601f830160051c82018110610fa157505061091e565b60008155859450600101610f8b565b5080610f85565b634e487b7160e01b600052600060045260246000fd5b34610370576060366003190112610370576004356001600160401b03811161037057610ffd9036906004016147fc565b6024356001600160401b0381116103705761101c9036906004016149a0565b906044356001600160401b0381116103705761103c9036906004016149a0565b815183518114908161138e575b50156113555791906000925b81518410156113535761106884836151ae565b5193611077600054861061520a565b61108085614dfc565b50600581015490959061109d906001600160a01b03163314614cc5565b6110a782866151ae565b518051906001600160401b038211610c6b5781906110c8600a8a0154614a20565b601f8111611301575b50602090601f831160011461129457600092611289575b50508160011b916000199060031b1c191617600a8701555b61110a82846151ae565b51958651906001600160401b038211610c6b576008019061112b8254614a20565b601f8111611241575b50602097601f82116001146111d8576111c59596979882916000926111cd575b50508160011b916000199060031b1c19161790555b61117461030b615359565b61117e82876151ae565b51907fc2bc3a7d017286181855f3a27bb3a2823f889fea0bdf1195cb931d703c9085b06111bd6111ae85886151ae565b51604051918291339683614e6e565b0390a361505d565b929190611055565b015190508980611154565b601f1982169883600052806000209160005b8b81106112295750836111c598999a9b10611210575b505050600190811b019055611169565b015160001960f88460031b161c19169055888080611200565b919260206001819286850151815501940192016111ea565b826000526020600020601f830160051c8101916020841061127f575b601f0160051c01905b8181106112735750611134565b60008155600101611266565b909150819061125d565b0151905088806110e8565b9150601f19831691600a8a0160005283826000209360005b8181106112e65750106112cd575b505050600190811b01600a870155611100565b015160001960f88460031b161c191690558780806112ba565b838501518655600190950194602094850194879350016112ac565b909150600a890160005260208060002090601f850160051c820190851061134c575b90601f8594930160051c01905b81811061133d57506110d1565b60008155849350600101611330565b5080611323565b005b60405162461bcd60e51b81526020600482015260116024820152704d69736d6174636865642061727261797360781b6044820152606490fd5b905081511484611049565b3461037057600036600319011261037057602060405160fa8152f35b34610370576040366003190112610370576004356113d1614870565b906113df600054821061520a565b60056114066113ed83614dfc565b50909101546001600160a01b0391903390831614614cc5565b816000526002602052604060002092169182600052602052604060002060ff19815416905561143661030b6153ff565b7f125883b94692baebecad9f111ed97ffa626523bbbadc6b0ef85ee1b56b9e52d5600080a3005b3461037057602036600319011261037057602061148061147b61485a565b614bbd565b604051908152f35b34610370576020366003190112610370576004356001600160401b038111610370576114b89036906004016147fc565b60005b815181101561135357806114d261151692846151ae565b516114e0600054821061520a565b60056114eb82614dfc565b500180546001600160a01b038116929190611507338514614cc5565b8361151b575b5050505061505d565b6114bb565b6001600160a01b031916905561153261030b6152c5565b7f9b5baeec63969a252d5d743784891dba3a017078113856378a7098a689360954600080a38380808061150d565b3461037057604036600319011261037057602061158661157e614870565b600435615243565b6040519015158152f35b34610370576000366003190112610370576007546040516001600160a01b039091168152602090f35b34610370576020806003193601126103705760043560005260019081815260406000208054916115e8836147e5565b926115f660405194856147c4565b8084528184018093600052826000206000915b83831061169b57505050506040519384938285019083865251809152604085019260408260051b87010194936000905b8382106116465787870388f35b918496819592949698508190603f198b820301855289519060018060a01b038251168152604080611683858501516060808887015285019061497b565b93015191015298019201920187969593919492611639565b9660038582979896996040516116b08161478e565b85546001600160a01b031681526116c8858701614a5a565b83820152600286015460408201528152019201920191909693959496611609565b3461037057602080600319360112610370576004356001600160401b0381116103705761171a9036906004016147fc565b9060005b8251811015611353578061173561178292856151ae565b51611743600054821061520a565b61174c81614dfc565b50600590810154611767906001600160a01b03163314614cc5565b81600052845260ff6040600020541615611787575b5061505d565b61171e565b6040600020805460ff191660011790556117a261030b6152a2565b33907f5f486113eb2f75a0e6be2583f63fb0c468a5b5a3511dece64911a4124de2179d600080a38461177c565b34610370576020366003190112610370576004356000526003602052602060ff604060002054166040519015158152f35b34610370576020366003190112610370576001600160a01b0361182161485a565b16600052600a602052602060ff60406000205416604051908152f35b60403660031901126103705760043560ff81168091036103705760248035600183101580611a99575b15611a6657600183036119175750600c5434106118d357505b33600052600a60205260406000208160ff198254161790556118a033614b00565b60405191825260208201527f35c12210dbf494ad04ccdb21600a9bad9f1b3c73e2b6c3c4f47e93211ec1b0b160403392a2005b606490601c6040519162461bcd60e51b8352602060048401528201527f496e73756666696369656e742045544820666f72205072656d69756d000000006044820152fd5b600283036119735750600d54341061192f575061187f565b60649060186040519162461bcd60e51b8352602060048401528201527f496e73756666696369656e742045544820666f722050726f00000000000000006044820152fd5b9060038314611984575b505061187f565b60018210611a1657600e5482810290808204841490151715611a015734106119bd575033600052600b602052604060002055818061197d565b60649060196040519162461bcd60e51b8352602060048401528201527f496e73756666696369656e742045544820666f722050726f2b000000000000006044820152fd5b50634e487b7160e01b60009081526011600452fd5b60849060236040519162461bcd60e51b8352602060048401528201527f4d7573742072657175657374206174206c65617374203120474220666f722050604482015262726f2b60e81b6064820152fd5b60405162461bcd60e51b815260206004820152600c818401526b24b73b30b634b2103a34b2b960a11b6044820152606490fd5b506003831115611866565b34610370576060366003190112610370576001600160401b0360043560243582811161037057611ad89036906004016148c7565b9160443581811161037057611af19036906004016148c7565b90611aff600054841061520a565b611b0883614dfc565b5090611b2160018060a01b036005840154163314614cc5565b845191600a8101828411610c6b57611b398154614a20565b93601f94858111611d43575b506020858211600114611cd95790806008949392600091611cce575b508160011b916000199060031b1c19161790555b01918351918211610c6b57611b8a8354614a20565b818111611c89575b506020908211600114611bff5791817fc2bc3a7d017286181855f3a27bb3a2823f889fea0bdf1195cb931d703c9085b09492611bef94600091611bf4575b508160011b916000199060031b1c19161790555b610b79610b73615359565b0390a3005b905083015188611bd0565b601f1982169083600052806000209160005b818110611c71575092611bef9492600192827fc2bc3a7d017286181855f3a27bb3a2823f889fea0bdf1195cb931d703c9085b0989610611c58575b5050811b019055611be4565b85015160001960f88460031b161c191690558880611c4c565b9192602060018192868a015181550194019201611c11565b8360005260206000208280850160051c82019260208610611cc5575b0160051c01905b818110611cb95750611b92565b60008155600101611cac565b92508192611ca5565b90508901518a611b61565b601f1982169083600052806000209160005b8b828210611d2b575050918391600896959460019410611d12575b5050811b019055611b75565b8b015160001960f88460031b161c191690558a80611d06565b60018495602093958493015181550194019201611ceb565b8260005260206000208680840160051c82019260208510611d7f575b0160051c01905b818110611d735750611b45565b60008155600101611d66565b92508192611d5f565b3461037057604036600319011261037057600435611da4614870565b90611db2600054821061520a565b6005611dc06113ed83614dfc565b816000526006602052604060002092169182600052602052611de960ff60406000205416615469565b6000526006602052604060002090600052602052604060002060ff198154169055600080f35b3461037057602036600319011261037057600435611e30600054821061520a565b6005611e3b82614dfc565b500180546001600160a01b038116929190611e57338514614cc5565b8315611e9b576001600160a01b0319169055611e7461030b6152c5565b7f9b5baeec63969a252d5d743784891dba3a017078113856378a7098a689360954600080a3005b60405162461bcd60e51b815260206004820152600f60248201526e105b1c9958591e481c995b5bdd9959608a1b6044820152606490fd5b3461037057611ee036614886565b60005b82518110156113535780611efa611f8892856151ae565b51611f08600054821061520a565b611f1181614dfc565b50600501546001600160a01b039190611f2d9083163314614cc5565b80600052602091600283526040600020908616928360005252604060002060ff198154169055611f5e61030b6153ff565b7f125883b94692baebecad9f111ed97ffa626523bbbadc6b0ef85ee1b56b9e52d5600080a361505d565b611ee3565b34610370576000366003190112610370576020600054604051908152f35b3461037057604036600319011261037057600435611fc7614870565b611fd4600054831061520a565b6001600160a01b0390811691611feb8315156152e8565b6005611ff682614dfc565b50018381549384169361200a338614614cc5565b6001600160601b0360a01b161790558060005260026020526040600020836000526020526040600020600160ff1982541617905561204961030b615328565b7fa858a0d23644b705afa414c8afbacbb4b357a18ea066805e48f9cd103fd87a81600080a4005b34610370576020806003193601126103705761208a61485a565b600080546001600160a01b03939092841691805b84811061212c57506120af906151d8565b9360009260005b8581106120cb57604051806103ee898261491d565b6120d481614dfc565b50828460058093015416149081612115575b506120fa575b6120f59061505d565b6120b6565b9361210d818661043e6120f5948b6151ae565b9490506120ec565b905081600052845260ff60406000205416886120e6565b61213581614dfc565b50848760058093015416149081612170575b5061215b575b6121569061505d565b61209e565b906121686121569161505d565b91905061214d565b905081600052835260ff6040600020541687612147565b346103705760208060031936011261037057600435906121aa600054831061520a565b6121b382614dfc565b50600501546001600160a01b03166121cc81151561542e565b33146122db578160005260028152604060002033600052815260ff604060002054166122a2578160005260068152604060002033600052815260ff6040600020541661225e57816000526006815260406000209033600052526040600020600160ff1982541617905533907f04193dbbd89505a47140c2ec9b4c1432003aabf1a5739d7db67d3bb361619b18600080a3005b6064906040519062461bcd60e51b82526004820152601760248201527f5265717565737420616c72656164792070656e64696e670000000000000000006044820152fd5b6064906040519062461bcd60e51b825260048201526012602482015271416c7265616479206861732061636365737360701b6044820152fd5b6064906040519062461bcd60e51b82526004820152601b60248201527f4f776e65722063616e6e6f7420726571756573742061636365737300000000006044820152fd5b3461037057604036600319011261037057612338614870565b600435600052600660205260406000209060018060a01b0316600052602052602060ff604060002054166040519015158152f35b34610370576000366003190112610370576020604051631f4000008152f35b34610370576000366003190112610370576020600e54604051908152f35b3461037057602080600319360112610370576001600160401b03600435818111610370576123db9036906004016148c7565b906123ea600383511015614c07565b6123f78383511115614c48565b60405161242e8351918585019261240f818386614958565b600990820190815281900386019020546001600160a01b031615614c88565b3360005260088452836124446040600020614a5a565b805190816125e1575b505050336000526008845260406000208351928311610c6b5784926124728254614a20565b601f811161258c575b5083601f821160011461251057926124d1928261250096936000805160206155a68339815191529896600091612505575b508160011b916000199060031b1c19161790555b604051809381928651928391614958565b81016009815203019020336001600160601b0360a01b825416179055604051918291858352339583019061497b565b0390a2005b90508601518a6124ac565b601f1982169083600052856000209160005b8181106125755750836000805160206155a68339815191529896936124d1969361250099966001941061255c575b5050811b0190556124c0565b88015160001960f88460031b161c191690558a80612550565b91928760018192868c015181550194019201612522565b90918093945060005285600020601f830160051c8101918784106125d7575b90601f8896959493920160051c01905b8181106125c8575061247b565b600081558795506001016125bb565b90915081906125ab565b816125f484936040518096819501614958565b810160098152030190206001600160601b0360a01b815416905583858061244d565b346103705761262436614886565b6001600160a01b0390811661263a811515615392565b60005b83518110156113535780826126556126d793876151ae565b51612663600054821061520a565b61267d61266f82614dfc565b506005015487163314614cc5565b8060005260206002815260406000209083600052526040600020600160ff198254161790556126ad61030b6153d0565b7f3c3a9147a1fc73dd51a32f4d10c43d457e8cb826eb6f35cac6349eb965ba82b4600080a361505d565b61263d565b346103705760203660031901126103705760206114806126fa61485a565b614b00565b3461037057604036600319011261037057612718614870565b600435600052600460205260406000209060018060a01b0316600052602052602060ff604060002054166040519015158152f35b346103705760203660031901126103705761279b61276b6004356154aa565b92949160405195869515158652602086015260018060a01b0316604085015260a0606085015260a084019061497b565b9060808301520390f35b346103705760403660031901126103705760043560056127c3614870565b6127d0600054841061520a565b6127f56127dc84614dfc565b50909201546001600160a01b0392903390841614614cc5565b1690612802821515615392565b8060005260026020526040600020826000526020526040600020600160ff1982541617905561283261030b6153d0565b7f3c3a9147a1fc73dd51a32f4d10c43d457e8cb826eb6f35cac6349eb965ba82b4600080a3005b34610370576000366003190112610370576020600d54604051908152f35b346103705760208060031936011261037057600435612899600054821061520a565b806000526004825260406000203360005282527fa39681252bed1435e4e217da3a52ce8868844c63f75604ae9855ffb20906b68b60ff60406000205416159282600052600481526040600020336000528152604060002060ff1981541660ff86161790556040519384523393a3005b602036600319011261037057600054612924816004351061520a565b61292f600435614dfc565b5060058101546001600160a01b03169061294a82151561542e565b600981015480156131ba57341061317e57338214613146576129eb600a60038301549260078101546040519461297f86614772565b87865261298e60018401614a5a565b602087015261299f60028401614a5a565b604087015260608601526129b560048301614a5a565b60808601523360a08601524260c086015260e08501526129d760088201614a5a565b610100850152600061012085015201614a5a565b610140820152600160401b831015610c6b5760018301600055612a0d83614dfc565b919091610fb7578051825560208101518051906001600160401b038211610c6b578190612a3d6001860154614a20565b601f81116130f3575b50602090601f831160011461308157600092613076575b50508160011b916000199060031b1c19161760018301555b60408101518051906001600160401b038211610c6b578190612a9a6002860154614a20565b601f8111613023575b50602090601f8311600114612fb157600092612fa6575b50508160011b916000199060031b1c19161760028301555b6060810151600383015560808101518051906001600160401b038211610c6b578190612b016004860154614a20565b601f8111612f53575b50602090601f8311600114612ee157600092612ed6575b50508160011b916000199060031b1c19161760048301555b6005820160018060a01b0360a0830151166001600160601b0360a01b82541617905560c0810151600683015560e081015160078301556101008101518051906001600160401b038211610c6b57612b936008850154614a20565b601f8111612e8f575b50602090601f8311600114612e1b5761014093929160009183612e10575b50508160011b916000199060031b1c19161760088401555b610120810151600984015501518051906001600160401b038211610c6b57612bfd600a840154614a20565b601f8111612dc5575b50602090601f8311600114612d5757600a929160009183612d4c575b50508160011b916000199060031b1c1916179101555b8160005260026020526040600020336000526020526040600020600160ff1982541617905560003415612d43575b600080808093853491f115612d3757612cb4604051612c84816147a9565b601c81527f507572636861736564204f776e6572736869702028436c6f6e65642900000000602082015283614e96565b612ce1604051612cc3816147a9565b6009815268536f6c6420436f707960b81b6020820152600435614e96565b604051348152827f8f21da0ea7326e97d788c6c2cb9e0629e1d7844954ce8fb701d3e64bd5a0531e60203393a333917fa858a0d23644b705afa414c8afbacbb4b357a18ea066805e48f9cd103fd87a81600080a4005b6040513d6000823e3d90fd5b506108fc612c66565b015190508680612c22565b90601f19831691600a850160005260206000209260005b818110612dad5750916001939185600a969410612d94575b505050811b01910155612c38565b015160001960f88460031b161c19169055868080612d86565b92936020600181928786015181550195019301612d6e565b600a84016000526020600020601f840160051c81019160208510612e06575b601f0160051c01905b818110612dfa5750612c06565b60008155600101612ded565b9091508190612de4565b015190508780612bba565b906008850160005260206000209160005b601f1985168110612e7757509183916001936101409695601f19811610612e5e575b505050811b016008840155612bd2565b015160001960f88460031b161c19169055878080612e4e565b91926020600181928685015181550194019201612e2c565b600885016000526020600020601f840160051c810160208510612ecf575b601f830160051c82018110612ec3575050612b9c565b60008155600101612ead565b5080612ead565b015190508680612b21565b9250600485016000526020600020906000935b601f1984168510612f38576001945083601f19811610612f1f575b505050811b016004830155612b39565b015160001960f88460031b161c19169055868080612f0f565b81810151835560209485019460019093019290910190612ef4565b909150600485016000526020600020601f840160051c810160208510612f9f575b90849392915b601f830160051c82018110612f90575050612b0a565b60008155859450600101612f7a565b5080612f74565b015190508680612aba565b9250600285016000526020600020906000935b601f1984168510613008576001945083601f19811610612fef575b505050811b016002830155612ad2565b015160001960f88460031b161c19169055868080612fdf565b81810151835560209485019460019093019290910190612fc4565b909150600285016000526020600020601f840160051c81016020851061306f575b90849392915b601f830160051c82018110613060575050612aa3565b6000815585945060010161304a565b5080613044565b015190508680612a5d565b9250600185016000526020600020906000935b601f19841685106130d8576001945083601f198116106130bf575b505050811b016001830155612a75565b015160001960f88460031b161c191690558680806130af565b81810151835560209485019460019093019290910190613094565b909150600185016000526020600020601f840160051c81016020851061313f575b90849392915b601f830160051c82018110613130575050612a46565b6000815585945060010161311a565b5080613114565b60405162461bcd60e51b815260206004820152601060248201526f4f776e65722063616e6e6f742062757960801b6044820152606490fd5b60405162461bcd60e51b8152602060048201526014602482015273125b9cdd59999a58da595b9d081c185e5b595b9d60621b6044820152606490fd5b60405162461bcd60e51b815260206004820152600c60248201526b4e6f7420666f722073616c6560a01b6044820152606490fd5b3461037057610100366003190112610370576004356001600160401b0381116103705761321f9036906004016149a0565b6024356001600160401b0381116103705761323e9036906004016149a0565b906044356001600160401b0381116103705761325e9036906004016147fc565b6064356001600160401b0381116103705761327d9036906004016149a0565b91608435926001600160401b0384116103705736602385011215610370578360040135936132aa856147e5565b946132b860405196876147c4565b8086526024602087019160051b8301019136831161037057602401905b828210613c345750505060a4356001600160401b038111610370576132fe9036906004016149a0565b9160c4356001600160401b0381116103705761331e9036906004016147fc565b956001600160401b0360e435116103705761333e3660e4356004016149a0565b9561334c8351835114615171565b6133598351875114615171565b6133668351855114615171565b6133738351825114615171565b6133808351865114615171565b61338d8351895114615171565b61339a8351885114615171565b600096875b87518910156133cc576133c06133c6916133b98b8b6151ae565b5190614d48565b9861505d565b9761339f565b6133e16108488b92999798996108433361506c565b6134086133f86133f0336150f6565b875190614d48565b61340133614bbd565b1015614db0565b61341285516151d8565b9660005b8651811015613c26578061342b8792876151ae565b51600052600360205261344660ff6040600020541615614cfd565b87898c8861346d856134668161345f81600054996151ae565b51996151ae565b51946151ae565b519161348f8661348881613481818d6151ae565b51956151ae565b51926151ae565b519061349b878b6151ae565b51926134a7888d6151ae565b5194604051966134b688614772565b888852602088019a8b526040880152606087015260808601523360a08601524260c086015260e0850152610100840152610120830152610140820152600160401b821015610c6b576001820160005561350e82614dfc565b949094610fb75781518555518051906001600160401b038211610c6b57819061353a6001880154614a20565b601f8111613bd3575b50602090601f8311600114613b6157600092613b56575b50508160011b916000199060031b1c19161760018501555b60408101518051906001600160401b038211610c6b5781906135976002880154614a20565b601f8111613b03575b50602090601f8311600114613a9157600092613a86575b50508160011b916000199060031b1c19161760028501555b6060810151600385015560808101518051906001600160401b038211610c6b5781906135fe6004880154614a20565b601f8111613a33575b50602090601f83116001146139c1576000926139b6575b50508160011b916000199060031b1c19161760048501555b6005840160018060a01b0360a0830151166001600160601b0360a01b82541617905560c0810151600685015560e081015160078501556101008101518051906001600160401b038211610c6b576136906008870154614a20565b601f811161396f575b50602090601f83116001146138fb57610140939291600091836138f0575b50508160011b916000199060031b1c19161760088601555b610120810151600986015501518051906001600160401b038211610c6b57848b928a92613700600a8e990154614a20565b601f811161387c575b50602090601f83116001146137d857613481886137c89a899760008051602061558683398151915297600a886137bb996111ae9987996000926137cd575b50508160011b916000199060031b1c1916179101555b88600052600260205260406000203360005260205261378e8360406000209260ff19936001858254161790556151ae565b51600052600360205260016040600020918254161790556137b66137b0614e4a565b89614e96565b6151ae565b0390a361043e828c6151ae565b613416565b015190503880613747565b90600a840160005260206000209160005b601f19851681106138515750886137c89a899760008051602061558683398151915297600a6001896111ae998799613481996137bb9d601f19811610613838575b505050811b0191015561375d565b015160001960f88460031b161c1916905538808061382a565b949798995092955093506020600181928685015181550194019201928c979695928e95928d956137e9565b929596975092509250600a84016000526020600020601f840160051c8101602085106138e9575b928c979695928e95928d955b601f830160051c820181106138c5575050613709565b80929598999a5060009194975060019396505501928c979695928e95928d956138af565b50806138a3565b0151905038806136b7565b906008870160005260206000209160005b601f198516811061395757509183916001936101409695601f1981161061393e575b505050811b0160088601556136cf565b015160001960f88460031b161c1916905538808061392e565b9192602060018192868501518155019401920161390c565b600887016000526020600020601f840160051c8101602085106139af575b601f830160051c820181106139a3575050613699565b6000815560010161398d565b508061398d565b015190508f8061361e565b9250600487016000526020600020906000935b601f1984168510613a18576001945083601f198116106139ff575b505050811b016004850155613636565b015160001960f88460031b161c191690558f80806139ef565b818101518355602094850194600190930192909101906139d4565b909150600487016000526020600020601f840160051c810160208510613a7f575b90849392915b601f830160051c82018110613a70575050613607565b60008155859450600101613a5a565b5080613a54565b015190508f806135b7565b9250600287016000526020600020906000935b601f1984168510613ae8576001945083601f19811610613acf575b505050811b0160028501556135cf565b015160001960f88460031b161c191690558f8080613abf565b81810151835560209485019460019093019290910190613aa4565b909150600287016000526020600020601f840160051c810160208510613b4f575b90849392915b601f830160051c82018110613b405750506135a0565b60008155859450600101613b2a565b5080613b24565b015190508f8061355a565b9250600187016000526020600020906000935b601f1984168510613bb8576001945083601f19811610613b9f575b505050811b016001850155613572565b015160001960f88460031b161c191690558f8080613b8f565b81810151835560209485019460019093019290910190613b74565b909150600187016000526020600020601f840160051c810160208510613c1f575b90849392915b601f830160051c82018110613c10575050613543565b60008155859450600101613bfa565b5080613bf4565b604051806103ee8b8261491d565b81358152602091820191016132d5565b3461037057602080600319360112610370576001600160401b0360043581811161037057613c769036906004016148c7565b90613c85600383511015614c07565b613c928383511115614c48565b3360005260088352613ca8604060002054614a20565b613dfa57604051613cc48351918585019261240f818386614958565b336000526008845260406000208351928311610c6b578492613ce68254614a20565b601f8111613da5575b5083601f8211600114613d4357926124d1928261250096936000805160206155a6833981519152989660009161250557508160011b916000199060031b1c1916179055604051809381928651928391614958565b601f1982169083600052856000209160005b818110613d8e5750836000805160206155a68339815191529896936124d1969361250099966001941061255c575050811b0190556124c0565b91928760018192868c015181550194019201613d55565b90918093945060005285600020601f830160051c810191878410613df0575b90601f8896959493920160051c01905b818110613de15750613cef565b60008155879550600101613dd4565b9091508190613dc4565b60405162461bcd60e51b8152600481018490526012602482015271105b1c9958591e481c9959da5cdd195c995960721b6044820152606490fd5b34610370576000366003190112610370576020600c54604051908152f35b3461037057602036600319011261037057600435613e73600054821061520a565b613e7c81614dfc565b5060058101546001600160a01b031691821591908215613f7c575b50805491600382015491600681015494600782015460098301549360018401613ebf90614a5a565b97613ecc60028601614a5a565b96613ed960048701614a5a565b90613ee660088801614a5a565b96600a01613ef390614a5a565b986040519b8c9b8c528b6101806020819201528c01613f119161497b565b8b810360408d0152613f229161497b565b9060608b015289810360808b0152613f399161497b565b9360a089015260c0880152151560e0870152610100860152848103610120860152613f639161497b565b906101408401528281036101608401526103ee9161497b565b909150600052600560205260ff604060002054169083613e97565b3461037057600036600319011261037057602060405160648152f35b3461037057600036600319011261037057600080808060018060a01b0360075416613fdf813314614cc5565b4790828215613ff1575bf115612d3757005b506108fc613fe9565b34610370576020806003193601126103705761401461485a565b600080546001600160a01b039283169390929091805b8481106140bf575061403b906151d8565b9360009260005b85811061405757604051806103ee898261491d565b8060005260048252604060002083600052825260ff60406000205416806140a7575b61408c575b6140879061505d565b614042565b9361409f818661043e614087948b6151ae565b94905061407e565b508360056140b483614dfc565b500154161515614079565b8060005260048452604060002086600052845260ff6040600020541680614109575b6140f4575b6140ef9061505d565b61402a565b906141016140ef9161505d565b9190506140e6565b5082600561411683614dfc565b5001541615156140e1565b346103705760603660031901126103705761414760018060a01b03600754163314614cc5565b600435600c55602435600d55604435600e55005b34610370576020806003193601126103705761417561485a565b600080546001600160a01b0392831693929091805b838110614247575061419b906151d8565b9260009160005b8481106141b757604051806103ee888261491d565b6141c081614dfc565b508288816005809401541614159182614221575b82614208575b50506141ef575b6141ea9061505d565b6141a2565b926142006141ea9161043286614dfc565b9390506141e1565b90915061421483614dfc565b50015416151582896141da565b915050816000526002845260406000208860005284528260ff60406000205416916141d4565b61425081614dfc565b5083878160058094015416141591826142ad575b82614294575b505061427f575b61427a9061505d565b61418a565b9061428c61427a9161505d565b919050614271565b9091506142a083614dfc565b500154161515838861426a565b915050816000526002865260406000208760005286528360ff6040600020541691614264565b34610370576040366003190112610370576004356142ef614870565b906142fd600054821061520a565b612832600561430e6113ed84614dfc565b8260005260209060068252604060002094169384600052815261433860ff60406000205416615469565b82600052600681526040600020846000528152604060002060ff19908181541690558360005260028252604060002085600052825260016040600020918254161790557f417070726f766564206163636573732072657175657374000000000000000000604051916143a9836147a9565b6017835282015282614e96565b34610370576020366003190112610370576001600160a01b036143d761485a565b16600052600b6020526020604060002054604051908152f35b34610370576040366003190112610370576001600160401b03600435602435828111610370576144249036906004016148c7565b91614432600054831061520a565b61443b82614dfc565b5061445360018060a01b036005830154163314614cc5565b83516001918201928111610c6b5761446b8354614a20565b601f811161456c575b506020601f821160011461450b5781928291600093614500575b501b916000199060031b1c19161790555b6144c86040516144ae816147a9565b600781526614995b985b595960ca1b602082015282614e96565b7f29afa2e14786ae4b101ac811e5b12fb8e459010d8b001fe24db8b37bf96c3e546040516020815280611bef3395602083019061497b565b87015192508761448e565b601f198216908460005282816000209260005b868282106145535750501061453a575b5050811b01905561449f565b86015160001960f88460031b161c19169055858061452e565b8a8501518655909401936020938401938693500161451e565b836000526020600020601f830160051c810191602084106145ad575b601f0160051c019083905b8281106145a1575050614474565b60008155018390614593565b9091508190614588565b34610370576020366003190112610370576004356145d8600054821061520a565b6145e46102bc82614dfc565b80600052600560205260ff604060002054161561466457806000526005602052604060002060ff19815416905561463b604051614620816147a9565b600881526714995cdd1bdc995960c21b602082015282614e96565b33907fcda3b91453b8363ca5466065c8ce89b06fa891552d0fad2da5868dd7b44a4fb9600080a3005b60405162461bcd60e51b815260206004820152600a6024820152692737ba1034b7103134b760b11b6044820152606490fd5b34610370576146a436614886565b6001600160a01b039081166146ba8115156152e8565b60005b83518110156113535780826146d561476d93876151ae565b516146e3600054821061520a565b60056146ee82614dfc565b5001908154918388841693614704338614614cc5565b6001600160601b0360a01b161790558060005260206002815260406000209084600052526040600020600160ff1982541617905561474361030b615328565b7fa858a0d23644b705afa414c8afbacbb4b357a18ea066805e48f9cd103fd87a81600080a461505d565b6146bd565b61016081019081106001600160401b03821117610c6b57604052565b606081019081106001600160401b03821117610c6b57604052565b604081019081106001600160401b03821117610c6b57604052565b90601f801991011681019081106001600160401b03821117610c6b57604052565b6001600160401b038111610c6b5760051b60200190565b81601f8201121561037057803591614813836147e5565b9261482160405194856147c4565b808452602092838086019260051b820101928311610370578301905b82821061484b575050505090565b8135815290830190830161483d565b600435906001600160a01b038216820361037057565b602435906001600160a01b038216820361037057565b604060031982011261037057600435906001600160401b038211610370576148b0916004016147fc565b906024356001600160a01b03811681036103705790565b81601f82011215610370578035906001600160401b038211610c6b57604051926148fb601f8401601f1916602001856147c4565b8284526020838301011161037057816000926020809301838601378301015290565b6020908160408183019282815285518094520193019160005b828110614944575050505090565b835185529381019392810192600101614936565b60005b83811061496b5750506000910152565b818101518382015260200161495b565b9060209161499481518092818552858086019101614958565b601f01601f1916010190565b9080601f83011215610370578135906149b8826147e5565b926149c660405194856147c4565b828452602092838086019160051b8301019280841161037057848301915b8483106149f45750505050505090565b82356001600160401b038111610370578691614a15848480948901016148c7565b8152019201916149e4565b90600182811c92168015614a50575b6020831014614a3a57565b634e487b7160e01b600052602260045260246000fd5b91607f1691614a2f565b9060405191826000825492614a6e84614a20565b908184526001948581169081600014614add5750600114614a9a575b5050614a98925003836147c4565b565b9093915060005260209081600020936000915b818310614ac5575050614a9893508201013880614a8a565b85548884018501529485019487945091830191614aad565b915050614a9894506020925060ff191682840152151560051b8201013880614a8a565b6001600160a01b03166000908152600a602052604081205460ff1660018114614bb35760028114614ba957600314614b3b5750630fa0000090565b600b60205260408120549081600a1b61040092808204841481151715614b95578060141b91808304851490151715614b9557601e1b928184041490151715614b81575090565b634e487b7160e01b81526011600452602490fd5b634e487b7160e01b83526011600452602483fd5b5050634000000090565b5050631f40000090565b6001600160a01b03166000908152600a602052604090205460ff1660018114614c015760028114614bfa57600314614bf457606490565b60001990565b506101f490565b5060fa90565b15614c0e57565b60405162461bcd60e51b8152602060048201526012602482015271155cd95c9b985b59481d1bdbc81cda1bdc9d60721b6044820152606490fd5b15614c4f57565b60405162461bcd60e51b8152602060048201526011602482015270557365726e616d6520746f6f206c6f6e6760781b6044820152606490fd5b15614c8f57565b60405162461bcd60e51b815260206004820152600e60248201526d2ab9b2b93730b6b2903a30b5b2b760911b6044820152606490fd5b15614ccc57565b60405162461bcd60e51b81526020600482015260096024820152682737ba1037bbb732b960b91b6044820152606490fd5b15614d0457565b606460405162461bcd60e51b815260206004820152602060248201527f46696c6520616c72656164792075706c6f6164656420627920736f6d656f6e656044820152fd5b91908201809211614d5557565b634e487b7160e01b600052601160045260246000fd5b15614d7257565b60405162461bcd60e51b815260206004820152601660248201527514dd1bdc9859d9481b1a5b5a5d08195e18d95959195960521b6044820152606490fd5b15614db757565b60405162461bcd60e51b815260206004820152601960248201527f46696c6520636f756e74206c696d6974206578636565646564000000000000006044820152606490fd5b906000918254811015614e3657600b90838052027f290decd9548b62a8d60345a988386fc84ba6bc95484008f6362f93160ef3e563019190565b634e487b7160e01b83526032600452602483fd5b60405190614e57826147a9565b6008825267155c1b1bd859195960c21b6020830152565b9091614e85614e939360408452604084019061497b565b91602081840391015261497b565b90565b91906000928352600192602091848352604082209160405193614eb88561478e565b3385528085019283526040850193428552805490600160401b8210156150495788820180825582101561503557835260038284209102019460018060a01b039051166001600160601b0360a01b86541617855586850192518051926001600160401b03841161502157614f2b8554614a20565b601f8111614fdb575b5082601f8511600114614f7557509783928392600298999a94614f6a575b50501b916000199060031b1c19161790555b51910155565b015192503880614f52565b9893929091601f1984169986845280842093905b8b8210614fc457505083600298999a10614fab575b505050811b019055614f64565b015160001960f88460031b161c19169055388080614f9e565b808785968294968601518155019501930190614f89565b858252838220601f860160051c810191858710615017575b601f0160051c01908a905b82811061500c575050614f34565b838155018a90614ffe565b9091508190614ff3565b634e487b7160e01b81526041600452602490fd5b634e487b7160e01b84526032600452602484fd5b634e487b7160e01b84526041600452602484fd5b6000198114614d555760010190565b6000805490929183805b8381106150835750505050565b61508c81614dfc565b506005908101546001600160a01b0385811691161490816150e0575b506150bc575b6150b79061505d565b615076565b946150d86150b79160036150cf89614dfc565b50015490614d48565b9590506150ae565b82845260205250604082205460ff1615386150a8565b6000805490929183805b83811061510d5750505050565b61511681614dfc565b506005908101546001600160a01b03858116911614908161515b575b50615146575b6151419061505d565b615100565b946151536151419161505d565b959050615138565b82845260205250604082205460ff161538615132565b1561517857565b60405162461bcd60e51b815260206004820152600e60248201526d082e4e4c2f240dad2e6dac2e8c6d60931b6044820152606490fd5b80518210156151c25760209160051b010190565b634e487b7160e01b600052603260045260246000fd5b906151e2826147e5565b6151ef60405191826147c4565b8281528092615200601f19916147e5565b0190602036910137565b1561521157565b60405162461bcd60e51b815260206004820152600a602482015269125b9d985b1a59081a5960b21b6044820152606490fd5b90600091825481101561529457600561525b82614dfc565b5001546001600160a01b0392831692168281146152995715615294579160409160ff938252600260205282822090825260205220541690565b505090565b50505050600190565b604051906152af826147a9565b6007825266151c985cda195960ca1b6020830152565b604051906152d2826147a9565b600782526611195b195d195960ca1b6020830152565b156152ef57565b60405162461bcd60e51b8152602060048201526011602482015270125b9d985b1a59081c9958da5c1a595b9d607a1b6044820152606490fd5b60405190615335826147a9565b601582527405472616e73666572726564206f776e65727368697605c1b6020830152565b60405190615366826147a9565b601882527f4d6f766564202f204368616e6765642043617465676f727900000000000000006020830152565b1561539957565b60405162461bcd60e51b815260206004820152600f60248201526e496e76616c6964206164647265737360881b6044820152606490fd5b604051906153dd826147a9565b60138252724772616e74656420766965772061636365737360681b6020830152565b6040519061540c826147a9565b60138252725265766f6b656420766965772061636365737360681b6020830152565b1561543557565b60405162461bcd60e51b815260206004820152600c60248201526b119a5b194819195b195d195960a21b6044820152606490fd5b1561547057565b60405162461bcd60e51b8152602060048201526012602482015271139bc81c195b991a5b99c81c995c5d595cdd60721b6044820152606490fd5b906000918254925b8381106154e95750506040516000925082918291602081016001600160401b03811182821017610c6b576040526000815290600090565b8160076154f583614dfc565b5001541480615566575b6155115761550c9061505d565b6154b2565b80935061551e9150614dfc565b50549161552a81614dfc565b50600501546001600160a01b031691600661554e61554784614dfc565b5093614dfc565b500154906155626008600196959401614a5a565b9190565b5061557081614dfc565b50600501546001600160a01b031615156154ff56feb14038102e59daf78bf92447f70c24fe731c7fded3193654a05946eec6bc398d4afe13536e3149cddd8c9a8df1580cd5e909fd13c41e7dfead2e38d1141dad5da2646970667358221220cf85a0b0e74fb91ba9342a086ec3e91b108dc9e2ed87e9f1b8d5227e7dddcf6e64736f6c63430008110033",
  "linkReferences": {},
  "deployedLinkReferences": {}
}